:020000040000fa
:10000000f07f002091040000b7060000f506000014
:1000100000000000000000000000000000000000e0
:10002000000000000000000000000000f9060000d1
:100030000000000000000000f9060000f9060000c2
:10004000f9060000f9060000f9060000f9060000b4
:10005000f9060000f9060000f9060000f9060000a4
:10006000f9060000f9060000f9060000f906000094
:10007000f9060000f9060000f9060000f906000084
:10008000f9060000f9060000f9060000f906000074
:10009000f9060000f9060000f9060000f906000064
:1000a000f9060000f9060000f9060000f906000054
:1000b000f9060000f9060000f90600000000000043
:1000c000000000000000000000000000f906000031
:1000d000f9060000f9060000f9060000f906000024
:1000e000f9060000f9060000f90600000000000013
:1000f000000000000000000000000000f906000001
:10010000f9060000f9060000f9060000f9060000f3
:10011000f9060000f9060000f9060000f9060000e3
:10012000f9060000f9060000f9060000f9060000d3
:10013000f9060000f9060000f9060000f9060000c3
:10014000f9060000f9060000f9060000f9060000b3
:10015000f9060000f9060000f9060000f07f002013
:1001600091040000b7060000f50600000000000042
:10017000000000000000000000000000000000007f
:100180000000000000000000f90600000000000070
:1001900000000000f9060000f9060000f906000062
:1001a000f9060000f9060000f9060000f906000053
:1001b000f9060000f9060000f9060000f906000043
:1001c000f9060000f9060000f9060000f906000033
:1001d000f9060000f9060000f9060000f906000023
:1001e000f9060000f9060000f9060000f906000013
:1001f000f9060000f9060000f9060000f906000003
:10020000f9060000f9060000f9060000f9060000f2
:10021000f9060000f9060000fb060000fb060000de
:10022000fb060000fb060000f9060000f9060000ce
:10023000f9060000f9060000f9060000f9060000c2
:10024000f9060000f9060000fb060000fb060000ae
:10025000fb060000fb060000f9060000f90600009e
:10026000f9060000f9060000f9060000f906000092
:10027000f9060000f9060000f9060000f906000082
:10028000f9060000f9060000f9060000f906000072
:10029000f9060000f9060000f9060000f906000062
:1002a000f9060000f9060000f9060000f906000052
:0802b000f9060000f906000048
:020000040000fa
:1002b800401801000200030084468ef3008874474a
:1002c800f8b5c046f8bc08bc9e467047510500000a
:1002d800f8b5c046f8bc08bc9e4670472d0500001e
:020000040000fa
:1002e80041f20003c4f200030220187641f20041f3
:1002f800c4f2000100220a7441f60001c4f20001b0
:1003080008621a8641f20002c4f200028021490400
:1003180013690b42fcd046f22003c0f280031b682d
:100328005b009b0e9b0240f200221343d200c4f2f2
:100338000002536341f20002c4f200028021490422
:1003480013690b42fcd041f20003c4f200030222fd
:100358001a86d202c4f200028021490413690b42b2
:10036800fcd041f60043c4f2000340f20712c0f289
:1003780001021a6241f60042c4f2000204215368e5
:100388001942fcd141f60043c4f20003c4224021c3
:10039800995041f60042c4f20002c4201358194291
:1003a800fcd041f60043c4f20003d022402199500a
:1003b80041f60042c4f20002d02013581942fcd082
:0203c80070477c
:020000040000fa
:1003ca00bff35f8f62b64ef20013cef2000340f223
:1003da008022985880210906014399509a5840f280
:1003ea00842299580120014399509958995801300b
:1003fa000143995099589958023001439950995894
:10040a00995840020143995099589958400001431c
:10041a0099509958995840000143995099589958b8
:0a042a004000014399509b587047b1
:020000040000fa
:1004340000230e4a10b513600d4a0e4c13600e4a89
:1004440013600e4a13600e4a13600e4a536213611e
:100454000133936000f050f900f04ef90a4b9c42ce
:1004640000d310bd08cc9847f8e7c04670000020c0
:100474000c000020d402000008000020000000202e
:0c0484000400002010000020d80200003e
:020000040000fa
:1004900010b540f20f63c0f20003984740f20f63bb
:1004a000c0f20003984700f0b3f840f20003c0f236
:1004b00000037f2293434ef60052cef20002936077
:1004c00040f23543c0f20003984740f20f63c0f298
:1004d0000003984740f20f63c0f20003984700f012
:0404e00062f8fee7d9
:020000040000fa
:1004e40010b543f20023c4f2000348f200021a607c
:1004f400012244215a5401315a540a314220585499
:100504001c3910381954053000241c5448f23000aa
:10051400d866c8201a5401301a54b3329954383268
:0805240040f20031995010bdb6
:020000040000fa
:10052c0010b5054c227832b9044b13b1044800e0e5
:10053c0000bf0123237010bd5000002000000000fc
:10054c0000000000034b10b51bb10349034800e049
:10055c0000bf10bd0000000054000020000000008f
:020000040000fa
:10056c0040f20043c4f2000300221a819a7901215f
:10057c000a439a719b7803221340022b0cd040f251
:10058c000043c4f20003013a9a705202c4f2000212
:0a059c00012193790b42fcd0704757
:020000040000fa
:1005a60010b582b08023db021c68002000f05df8e5
:1005b600631c0fd084f388880423c0f204031b68ed
:1005c6000193019c6408640020002100220023009e
:0605d60000f001f8fee751
:020000040000fa
:1005dc00e0b545464e465746e0b45d4620b4254648
:1005ec0026462746a046a146a246a346a44684f327
:1005fc000088a44720bcab46e0bcba46b146a8462e
:02060c00e0bd4f
:020000040000fa
:02060e00704733
:020000040000fa
:1006100010b50948016811b9436803b910bd040059
:100620008368064a9bb20c349b009b5842682000aa
:10063000984780002018ede740060000b80600004b
:020000040000fa
:1006400050000020200000000000000000000020fa
:1006500050000000000000007000002004000000b6
:1006600000000000000000000000000066666666f2
:020000040000fa
:1006700010b5fff77bff45f20003c4f2001304221c
:100680005a60fff72ffffff72ffe00f01ff800f072
:0806900032f8fff79afe10bddd
:020000040000fa
:10069800002310b5934206d103201840421e904112
:0e06a8009b08c01810bdc45ccc540133f2e7af
:020000040000fa
:0206b600fee75d
:020000040000fa
:1006b800df06000099060000f1060000f1060000c0
:0406c800f106000037
:020000040000fa
:1006cc0045f20003c4f2001306225a60053a1a726e
:0206dc00704765
:020000040000fa
:1006de008a18914201d10020704700230b7001311e
:0206ee00f7e72c
:020000040000fa
:0406f000002070472f
:020000040000fa
:0206f400fee71f
:020000040000fa
:0206f60070474b
:020000040000fa
:0206f800fee71b
:020000040000fa
:0206fa00fee719
:020000040000fa
:0206fc00704745
:020000040000fa
:020000040003f7
:08fe00007fe97fe9c0f758ba61
:020000040000fa
:0200000400807a
:0440000077438fb0c3
:020000040000fa
:0200000400807a
:04400400bbf0ffff0f
:020000040000fa
:0200000400807a
:04400800008430f010
:020000040000fa
:0200000400807a
:04400c0000ffffffb3
:020000040000fa
:0200000400807a
:0440100000000000ac
:020000040000fa
:0200000400807a
:0440140002000000a6
:020000040000fa
:0200000400807a
:044018001200000092
:020000040000fa
:0200000400807a
:04401c0000000000a0
:020000040000fa
:0200000400807a
:04402000b67376e815
:020000040000fa
:0200000400807a
:04c00000ffff07f047
:020000040000fa
:0200000400807a
:04c004000000e8ff51
:020000040000fa
:0200000400807a
:04c00800cc9a34c0da
:020000040000fa
:0200000400807a
:04c01000ffffffff30
:020000040000fa
:0200000400807a
:04c01400ffffffff2c
:020000040000fa
:0200000400807a
:04c01800ffffffff28
:020000040000fa
:0200000400807a
:04c01c00ffffffff24
:020000040000fa
:0200000400807a
:04c02000ffffffff20
:020000040000fa
:0200000400807a
:04c02400ffffffff1c
:020000040000fa
:0200000400807a
:04c02800ffffffff18
:020000040000fa
:0200000400807a
:04c02c00ffffffff14
:020000040000fa
:0200000400807a
:04c03000ffffffff10
:020000040000fa
:0200000400807a
:04c03400ffffffff0c
:020000040000fa
:0200000400807a
:04c03800ffffffff08
:020000040000fa
:0200000400807a
:04c03c00ffffffff04
:020000040000fa
:0200000400807a
:04c04000ffffffff00
:020000040000fa
:0200000400807a
:04c04400fffffffffc
:020000040000fa
:0200000400807a
:04c04800fffffffff8
:020000040000fa
:0200000400807a
:04c04c00fffffffff4
:020000040000fa
:0200000400807a
:04c05000fffffffff0
:020000040000fa
:0200000400807a
:04c05400ffffffffec
:020000040000fa
:0200000400807a
:04c05800ffffffffe8
:020000040000fa
:0200000400807a
:04c05c00ffffffffe4
:020000040000fa
:0200000400807a
:04c06000ffffffffe0
:020000040000fa
:0200000400807a
:04c06400ffffffffdc
:020000040000fa
:0200000400807a
:04c06800ffffffffd8
:020000040000fa
:0200000400807a
:04c06c00ffffffffd4
:020000040000fa
:0200000400807a
:04c07000ffffffffd0
:020000040000fa
:0200000400807a
:04c07400ffffffffcc
:020000040000fa
:0200000400807a
:04c07800ffffffffc8
:020000040000fa
:0200000400807a
:04c07c00ffffffffc4
:020000040000fa
:0200000400807a
:04c08000ffffffffc0
:020000040000fa
:0200000400807a
:04c08400ffffffffbc
:020000040000fa
:0200000400807a
:04c08800ffffffffb8
:020000040000fa
:0200000400807a
:04c08c00ffffffffb4
:020000040000fa
:0200000400807a
:04c0e000ffffffff60
:020000040000fa
:0200000400807a
:04c0e400ffffffff5c
:020000040000fa
:0200000400807a
:04c0e800ffffffff58
:020000040000fa
:0200000400807a
:04c0ec00ffffffff54
:020000040000fa
:0200000400807a
:04c0f000ffffffff50
:020000040000fa
:0200000400807a
:04c0f400ffffffff4c
:020000040000fa
:0200000400807a
:04c0f800ffffffff48
:020000040000fa
:0200000400807a
:04c0fc00ffffffff44
:00000001FF
