:020000040000fa
:10000000f07f0020014a0000b7470000b74700001a
:1000100000000000000000000000000000000000e0
:10002000000000000000000000000000b7470000d2
:100030000000000000000000b7470000b7470000c4
:10004000b7470000b7470000b7470000b7470000b8
:10005000b7470000b7470000b7470000b7470000a8
:10006000b7470000b7470000b7470000b747000098
:10007000b7470000b7470000b74700006d13000006
:10008000511400003515000019160000fd1600007f
:10009000b7470000b7470000b7470000b747000068
:1000a000b7470000b7470000b7470000b747000058
:1000b000b7470000b7470000b7470000b747000048
:1000c000b7470000b7470000b7470000b747000038
:1000d000b7470000b7470000b7470000451b0000c6
:1000e000531b0000611b00006f1b0000b74700009e
:1000f000b7470000b7470000b7470000b747000008
:10010000b7470000b7470000b7470000b7470000f7
:10011000b7470000b7470000b7470000b7470000e7
:10012000b7470000b747000071360000b74700002e
:10013000b7470000b7470000b7470000b7470000c7
:10014000b7470000b7470000b7470000b7470000b7
:0c015000b7470000b7470000b7470000a9
:020000040000fa
:10015c00f8b5c046f8bc08bc9e467047f14e00008e
:10016c00f8b5c046f8bc08bc9e467047cd4e0000a2
:020000040000fa
:10017c003c2f000001000000f637000001000000d9
:020000040000fa
:10018c0080b500af43f20023c4f2000302225a618f
:10019c00c046bd4680bd80b500af43f20023c4f21b
:1001ac00000302229a61c046bd4680bd80b500aff7
:1001bc0043f20023c4f2000302229a6043f20023ac
:1001cc00c4f2000302229a6143f20023c4f200033a
:1001dc0048220121995443f20023c4f2000349221e
:1001ec000121995443f20023c4f200034a22012155
:1001fc00995443f20023c4f200034b220121995479
:10020c0043f20023c4f2000334223321995443f205
:10021c000023c4f2000335223321995401f07efbf4
:10022c0000f01ffa00f037f800f04cfac046bd465b
:10023c0080bd80b582b000af78600a00fb1c1a70dc
:10024c00fb1c1a787b681100180001f076fe00e0a8
:10025c00c04601f0a2fc0300002bf9d1c046bd46fc
:10026c0002b080bd80b582b000af78600a00fb1c84
:10027c001a70fb1c1a787b681100180001f06dfed7
:10028c0000e0c04601f089fc0300002bf9d1c04608
:10029c00bd4602b080bd90b58db000af2c243b198b
:1002ac0088221a70fff76cff3b1901211800fff729
:1002bc00c0ff10243b1919211800fff7d3fffff7db
:1002cc006aff21007b185b781b021ab27b181b7823
:1002dc001bb213431bb29ab240f2c813c2f2000312
:1002ec001a807b18db781b021ab27b189b781bb226
:1002fc0013431ab240f2ca13c2f200031a807b18dd
:10030c005b791b021ab27b181b791bb213431ab20e
:10031c0040f2cc13c2f200031a807b18db791b026b
:10032c001ab27b189b791bb213431bb29ab240f2e0
:10033c00ce13c2f200031a807b185b7a1b021ab22e
:10034c007b181b7a1bb213431ab240f2d013c2f2c1
:10035c0000031a807b18db7a1b021ab27b189b7a7b
:10036c001bb213431ab240f2d213c2f200031a802a
:10037c007b185b7b1b021ab27b181b7b1bb21343d3
:10038c001ab240f2d413c2f200031a807b18db7b42
:10039c001b021ab27b189b7b1bb213431ab240f29e
:1003ac00d613c2f200031a807b185b7c1b021ab2b4
:1003bc007b181b7c1bb213431ab240f2d813c2f247
:1003cc0000031a807b18db7c1b021ab27b189b7c07
:1003dc001bb213431ab240f2da13c2f200031a80b2
:1003ec007b185b7d1b021ab27b181b7d1bb213435f
:1003fc001ab240f2dc13c2f200031a807b18db7dc8
:10040c001b021ab27b189b7d1bb213431ab240f22b
:10041c00de13c2f200031a807b181a7e40f2e0133e
:10042c00c2f200031a700c243b19e1221a70fff778
:10043c00a7fe3b1901211800fff7fbfe3b1d07210e
:10044c001800fff70ffffff7a6fe3b1d5b781b02a2
:10045c001ab23b1d1b781bb213431ab240f2e213c3
:10046c00c2f200031a803b1d9a7840f2e113c2f2eb
:10047c0000031a703b1ddb785bb21b011ab23b1deb
:10048c001b791bb20f210b401bb213431ab240f263
:10049c00e413c2f200031a803b1d5b795bb21b01b3
:1004ac001ab23b1d1b791b09dbb21bb20f210b408f
:1004bc001bb213431ab240f2e613c2f200031a80c5
:1004cc003b1d9b795ab240f2e813c2f200031a703a
:1004dc00c046bd460db090bd80b584b000affb1cce
:1004ec00fa221a70fff74cfefb1c01211800fff7d3
:1004fc00a0fe3b0003211800fff7b4fefff74bfef4
:10050c003b001b781a043b005b781b0213433a0038
:10051c00927813431b11fb60fb68da0840f2c81396
:10052c00c2f200031b889bb25b00d21a40f2ca13c2
:10053c00c2f200031b881bb25343db0abb60fb688f
:10054c001a0940f2c813c2f200031b889bb2d21adc
:10055c00fb68190940f2c813c2f200031b889bb256
:10056c00cb1a53431a0b40f2cc13c2f200031b8874
:10057c001bb253439b0b7b60ba687b68d21840f26a
:10058c00ec13c2f200031a6040f2ec13c2f2000347
:10059c001a6813009b009b1880331b12180004f080
:1005ac0035fe031c0021c4f2c821181c04f098f974
:1005bc00031c181cbd4604b080bdf0b585b000af5f
:1005cc00786039600021386804f09cfd03001bb191
:1005dc000023c7f6c07340e000f00cf9031cfb606d
:1005ec00786804f029fc05000e00f968386804f0fe
:1005fc0077f9031c181c04f01ffc4ef2eb23c1f618
:10060c00362345f6c034c3f6c8741a00230001f033
:10061c000dfe03000c001a00230000200021c3f67d
:10062c00f07104f0bffe03000c0018002100002242
:10063c004af24053c4f2e50303f0e6fd03000c005c
:10064c001a0023002800310003f0e0fc03000c002a
:10065c001800210004f0f3fa031c181cbd4605b069
:10066c00f0bdb0b584b000af0c243a1945f2f033ac
:10067c00c0f200031b88138008257a1945f2f43365
:10068c00c0f200031b8813803a1d45f2f833c0f208
:10069c0000031b881380fff773fd3b190221180020
:1006ac00fff7c7fd7b1902211800fff7c2fd3b1da8
:1006bc0002211800fff7bdfdfff76dfdc046bd46da
:1006cc0004b0b0bd90b587b000af14243b198e2296
:1006dc001a70fff755fd3b1901211800fff7a9fd12
:1006ec003b0012211800fff7bdfdfff754fd3b0046
:1006fc005b781b021ab23b001b781bb213431bb274
:10070c009ab240f2ce13c2f200031a803b00db789f
:10071c001b021ab23b009b781bb213431ab240f275
:10072c00d013c2f200031a803b005b791b021ab291
:10073c003b001b791bb213431ab240f2d213c2f224
:10074c0000031a803b00db791b021ab23b009b7939
:10075c001bb213431ab240f2d413c2f200031a8034
:10076c003b005b7a1b021ab23b001b7a1bb2134391
:10077c001ab240f2d613c2f200031a803b00db7aa5
:10078c001b021ab23b009b7a1bb213431ab240f203
:10079c00d813c2f200031a803b005b7b1b021ab217
:1007ac003b001b7b1bb213431ab240f2da13c2f2aa
:1007bc0000031a803b00db7b1b021ab23b009b7bc5
:1007cc001bb213431ab240f2dc13c2f200031a80bc
:1007dc003b005b7c1b021ab23b001b7c1bb213431d
:1007ec001ab240f2de13c2f200031a80c046bd46b4
:1007fc0007b090bdf0b5afb000af94243a19f72311
:10080c001370fff7bdfc3b1901211800fff711fd18
:10081c0090243b1903211800fff724fdfff7bbfcc4
:10082c0021007b181b781a037b185b781b011a4379
:10083c007b189b781b09dbb21343b422ba181360e4
:10084c0040f2ec13c2f200031b68bb65db17fb65bf
:10085c0040f60043cff6fe7301246442b96dfa6d85
:10086c00c91862410b001400a8217a181360546057
:10087c007b181a685b6878184168006804f0fefa07
:10088c0003000c001800210040f2d813c2f2000340
:10089c001b881bb23b65db177b653a6d7b6d04f0e7
:1008ac00edfa03000c00a022b8180360446040f27b
:1008bc00d613c2f200031b881bb2bb64db17fb64ac
:1008cc00a8217b181a685b68b86cf96c04f0d6fa2e
:1008dc0003000c00da0b660416435d04a022bb185f
:1008ec005c681b685b197441b8180360446040f283
:1008fc00d413c2f200031b881bb23b64db177b646e
:10090c003b6cdb00fb630023bb631000bb185c6813
:10091c001b68b96bfa6b5b1854413a18136054603e
:10092c00a8257b191a685b6879190868496804f06e
:10093c00a5fa03000c001800210040f2d213c2f2f9
:10094c0000031b881bb23b63db177b633a6b7b6b2f
:10095c0004f094fa03000c002206190a8826b81930
:10096c000160b91909681143ba19116023128c225c
:10097c00ba18136040f2d013c2f200031b881bb2ea
:10098c00bb62db17fb627b191a685b68b86af96a91
:10099c0004f074fa03000c001a0d94462103842011
:1009ac003a18116039180968624611433a181160f7
:1009bc001b038022b9180b60bb195c681b68ba1842
:1009cc00116852685b1854417a19136054607b1992
:1009dc0019685a68002348f20004c91862410800db
:1009ec00110040f2ce13c2f200031b889bb23b6293
:1009fc0000237b623a6a7b6a04f040fa03000c0025
:100a0c00621079190a60e317ac217a1813607b190c
:100a1c001a687b181b681a431ab90023c7f6c073ef
:100a2c00d1e0b423fb181a6880235b039b1a98252a
:100a3c007a19136000239c26ba1913607b191b6862
:100a4c005b08fb617b191b68db07bb61a0203b18b3
:100a5c005c681b68b869f969c01aa14140f6354257
:100a6c00002304f00bfa03000c0018002100a8234b
:100a7c00fa185368126804f0bbf903000c007a19d9
:100a8c001360546040f2de13c2f200031b881bb2e9
:100a9c003b61db177b61ba191368da0479190b68af
:100aac005b0bbb67bb6f1343bb67ba1913685b1354
:100abc00fb67ba6ffb6f3869796904f0dff90300e3
:100acc000c0018002100ba191368da047c19236889
:100adc005b0b3b673b6f13433b67ba1913685b13a4
:100aec007b673a6f7b6f04f0c9f903000c00e201dd
:100afc00590e0a43a826b9190a606316ac22ba1813
:100b0c00136040f2dc13c2f200031b881bb2bb6003
:100b1c00db17fb607b191a685b68b868f96804f02e
:100b2c00adf903000c006203d90c0a43a02039185c
:100b3c000a60e314a422ba1813607b1919685a6866
:100b4c00bb195c681b68c91862413b185c681b6860
:100b5c005b1854412206190ab966b96e1143b9667d
:100b6c002312fb6640f2da13c2f200031b881bb29d
:100b7c003b60db177b6039687a680b001b0f100039
:100b8c0000017866786e184378660b001b013b6693
:100b9c00bb6efc6e396e7a6e5b1854417a19136019
:100bac0054607b191b68180004f082fb00220023a0
:100bbc00c4f2700303f03efd03000c00180021008a
:100bcc0004f03df8031c181cbd462fb0f0bd80b5d9
:100bdc0084b000af3b1dfd221a70fff7d1fa3b1d0c
:100bec0001211800fff725fb3b0002211800fff73d
:100bfc0039fbfff7d0fa3b001b781b023a00527806
:100c0c001343fb6040f2ec13c2f200031b684df27d
:100c1c00004ccff6fe7c6344bb60fb689a0340f249
:100c2c00e413c2f200031b881bb21b05d21a40f25c
:100c3c00e613c2f200031b881bb21900bb684b43be
:100c4c00d31a44f2000c6344da1340f2e813c2f2f4
:100c5c0000031b785bb21900bb684b43991240f23e
:100c6c00e113c2f200031b78dbb21800bb684343ec
:100c7c00db1248f2000c63444b439b128021890326
:100c8c00591840f2e213c2f200031b881bb24b430b
:100c9c0042f2000c63449b135343bb60bb68db13f1
:100cac00ba68d2135343da1140f2e013c2f20003d4
:100cbc001b78dbb253431b11ba68d31abb60bb68f9
:100ccc00002b00da0023bb60bb68c822520593429c
:100cdc0001ddc8235b05bb60bb681b13180004f067
:100cec00bbfa031c8921c905181c03f0f9fd031c70
:080cfc00181cbd4604b080bdc8
:020000040000fa
:100d040080b582b000af0200fb1d1a70fb1d1b787a
:100d14007f2b12d8fb1d1b781a001f231a401100c9
:100d24004ef20013cef20003fa1d127852b25209a9
:100d34000120884001009200d150c046bd4602b057
:100d440080bd90b583b000af02003960fb1d1a70fe
:100d5400fb1d1b787f2b2fd84ef20013cef200031d
:100d6400fa1d127852b29208c0329200d358fa1d7a
:100d74001278110003220a40d200ff2191400a0098
:100d8400d2431a4010003b689b01ff221a40fb1d0e
:100d94001b78190003230b40db009a4011004ef22c
:100da4000013cef20003fa1d127852b292080143e6
:100db400c0329200d15037e04ef60053cef2000319
:100dc400fa1d127811000f220a40083a92080632de
:100dd40092009b1804331b68fa1d12781100032239
:100de4000a40d200ff2191400a00d2431a40100069
:100df4003b689b01ff221a40fb1d1b78190003234b
:100e04000b40db009a404ef60053cef20003f91d6e
:100e140009780c000f212140083989080243063162
:100e240089005b1804331a60c046bd4603b090bd08
:100e340080b582b000af40f28003c2f200037b6051
:100e4400bb1c00221a80bb1c00221a8013e07b68a2
:100e540000221a707b6800225a607b6800229a6024
:100e64007b6800221a737b6810337b60bb1c1a8872
:100e7400bb1c01321a80bb1c1b88032be7d946f22a
:100e84000003c4f2001340f24002c2f200025a63ab
:100e940046f20003c4f2001340f20002c2f2000260
:100ea4009a6346f20003c4f2001348f28112c8f2b6
:100eb40081125a6146f20003c4f200133f2200215a
:100ec400995446f20003c4f2001340f60032c0f213
:100ed40080025a6440f24003c2f2000340f2094225
:100ee4001a8040f28003c2f2000301221a7046f213
:100ef4000003c4f200134d220321995446f2000367
:100f0400c4f200133f220121995446f20003c4f2b3
:100f1400001340f60022c0f280025a6440f24003fb
:100f2400c2f2000340f609021a8240f28003c2f2c0
:100f3400000301221a7446f20003c4f200134d2286
:100f44000321995446f20003c4f200133f22022104
:100f5400995446f20003c4f2001340f20072c0f246
:100f640080025a6440f24003c2f2000340f2094294
:100f74001a8440f28003c2f2000320220121995412
:100f840046f20003c4f200134d220321995446f2a1
:100f94000003c4f200133f220321995446f20003d4
:100fa400c4f2001340f20062c0f280025a6440f2bc
:100fb4004003c2f2000340f609021a8640f280039d
:100fc400c2f2000330220121995446f20003c4f214
:100fd40000134d220321995446f20003c4f2001376
:100fe40040f602721a80bff35f8f62b603210f20ae
:100ff400fff7a7fe0f20fff783fe03211020fff762
:10100400a0fe1020fff77cfe03211120fff799febc
:101014001120fff775fe03211220fff792fe122024
:10102400fff76efe03211320fff78bfe1320fff75b
:1010340067fec046bd4602b080bdb0b58ab000af01
:10104400b9607a603b600f217b18021c1a7026235a
:10105400fb1800221a7025243b1900221a7027233a
:10106400fb1800221a702423fb1800221a70bb6894
:101074003b627b68fb6108007b1819781b257a1991
:1010840040f28003c2f2000309015b180c331b78a1
:10109400137046f20003c4f200133a193f215b5c5b
:1010a400137046f20003c4f200133a183f21127879
:1010b4005a5446f20003c4f200134e229b5cdbb286
:1010c4001a00032313403bb97b191b7801225340b8
:1010d400dbb2002b00d19fe046f20003c4f2001300
:1010e4004e22032199540f217b181a7840f2800371
:1010f400c2f2000312019b180c3301221a707b18f0
:101104001b781a0140f24003c2f20003d3187b613a
:101114007b691b889bb21a0040f20043134040f2e3
:101124000042934205d13a6a3b68d2187b695a60ff
:1011340002e03a6a7b695a607b691b889bb21a0099
:1011440040f60003134040f60002934205d1fa69c9
:101154003b68d2187b699a6002e0fa697b699a60fd
:101164007b691b889bb21b12dab226203b18032131
:101174000a401a703b181b783a68da4013009ab296
:101184007b695a8046f20003c4f2001340229b5c40
:10119400dab246f20003c4f2001302210a43d1b2c8
:1011a4004022995446f20003c4f200135b6c0822f7
:1011b4001a4024203b18083a511e8a411a7046f2fc
:1011c4000003c4f200135b6c1b0a3f22134023b9d3
:1011d4003b181b780bb1012200e0002224203b18ad
:1011e4001a701a7801210a401a703b181b787bb1d7
:1011f40046f20003c4f2001319690f23fb181b788d
:1012040001229a4046f20003c4f200130a431a6111
:101214002723fb1801221a7046f20003c4f20013bc
:101224002522ba183f2112785a542723fb181b7819
:101234001800bd460ab0b0bd80b584b000af02004e
:10124400fb1d1a70fb1d19780e203a1840f240035a
:10125400c2f2000309015b1802331b881380fb1dd3
:101264001a7840f20003c2f2000312019b18023301
:101274001b889ab23b18391809888a1a1a803b18b5
:101284001b881800bd4604b080bdb0b584b000af63
:101294000200fb1d1a700e203b1800221a70fb1d61
:1012a40019780d243a1940f28003c2f200030901af
:1012b4005b180c331b7813700f257b1900221a70ee
:1012c40046f20003c4f200133a183f215b5c13702a
:1012d40046f20003c4f20013fa1d3f2112785a5457
:1012e40046f20003c4f200134e229b5cdbb21a00e8
:1012f400032313402bb93b191b7813b17b1901222b
:101304001a7046f20003c4f200130e22ba183f21e9
:1013140012785a540f23fb181b781800bd4604b0ea
:10132400b0bd80b584b000afb9607a600f217b187e
:10133400021c1a707b181a7840f28003c2f2000370
:1013440012019b180433ba681a607b181a7840f2a9
:101354008003c2f2000312019b1808337a681a60f2
:10136400c046bd4604b080bd90b585b000af0e2028
:101374003b1800221a700d217b1800221a700023da
:101384003b600f243b1902221a703b181b781a0188
:1013940040f28003c2f20003d318bb6046f200039c
:1013a400c4f200137a183f215b5c137046f2000309
:1013b400c4f200133a183f2112785a5446f200033b
:1013c400c4f200134e229b5cdbb23b603b680222fa
:1013d4001340022b0cd146f20003c4f200134e2238
:1013e400022199543b1901221a70bb6800221a7316
:1013f4003b6801221340012b0dd146f20003c4f2d5
:1014040000134e22012199540f23fb1802221a7053
:10141400bb6800221a73bb685b6853b1bb689b68e6
:101424007b60bb685b6879680f22ba181278100079
:10143400984746f20003c4f200130d22ba183f2164
:1014440012785a54c046bd4605b090bd90b585b0db
:1014540000af0e203b1801221a700d217b180022c8
:101464001a7000233b600f243b1902221a703b18a8
:101474001b781a0140f28003c2f20003d318bb6048
:1014840046f20003c4f200137a183f215b5c137028
:1014940046f20003c4f200133a183f2112785a545a
:1014a40046f20003c4f200134e229b5cdbb23b60a5
:1014b4003b6802221340022b0cd146f20003c4f213
:1014c40000134e22022199543b1901221a70bb6861
:1014d40000221a733b6801221340012b0dd146f2fe
:1014e4000003c4f200134e22012199540f23fb1868
:1014f40002221a70bb6800221a73bb685b6853b17e
:10150400bb689b687b60bb685b6879680f22ba180c
:1015140012781000984746f20003c4f200130d221b
:10152400ba183f2112785a54c046bd4605b090bd42
:1015340090b585b000af0e203b1802221a700d2121
:101544007b1800221a7000233b600f243b190222ef
:101554001a703b181b781a0140f28003c2f2000390
:10156400d318bb6046f20003c4f200137a183f217b
:101574005b5c137046f20003c4f200133a183f2177
:1015840012785a5446f20003c4f200134e229b5cb4
:10159400dbb23b603b6802221340022b0cd146f2c3
:1015a4000003c4f200134e22022199543b19012274
:1015b4001a70bb6800221a733b6801221340012b86
:1015c4000dd146f20003c4f200134e2201219954b6
:1015d4000f23fb1802221a70bb6800221a73bb681f
:1015e4005b6853b1bb689b687b60bb685b68796868
:1015f4000f22ba1812781000984746f20003c4f27a
:1016040000130d22ba183f2112785a54c046bd4621
:1016140005b090bd90b585b000af0e203b180322f5
:101624001a700d217b1800221a7000233b600f24ce
:101634003b1902221a703b181b781a0140f28003ee
:10164400c2f20003d318bb6046f20003c4f20013d5
:101654007a183f215b5c137046f20003c4f2001356
:101664003a183f2112785a5446f20003c4f2001388
:101674004e229b5cdbb23b603b6802221340022b90
:101684000cd146f20003c4f200134e2202219954f5
:101694003b1901221a70bb6800221a733b680122ad
:1016a4001340012b0dd146f20003c4f200134e2265
:1016b400012199540f23fb1802221a70bb680022df
:1016c4001a73bb685b6853b1bb689b687b60bb687b
:1016d4005b6879680f22ba1812781000984746f2ae
:1016e4000003c4f200130d22ba183f2112785a5491
:1016f400c046bd4605b090bdb0b584b000af0e2164
:101704007b1800221a700d243b1900221a70002342
:101714003b600f257b1902221a7046f20003c4f2c3
:1017240000131b8c9bb2dab208003b180f210a404d
:101734001a703b181b781a0140f28003c2f20003ae
:10174400d318bb6046f20003c4f200133a193f21d8
:101754005b5c137046f20003c4f200133a183f2195
:1017640012785a5446f20003c4f200134e229b5cd2
:10177400dbb23b603b6802221340022b0cd146f2e1
:101784000003c4f200134e22022199547b19012252
:101794001a70bb6800221a733b6801221340012ba4
:1017a4000dd146f20003c4f200134e2201219954d4
:1017b4000f23fb1802221a70bb6800221a73bb683d
:1017c4005b6853b1bb689b687b60bb685b68796886
:1017d4000f22ba1812781000984746f20003c4f298
:1017e40000130d22ba183f2112785a54c046bd4640
:0417f40004b0b0bdd0
:020000040000fa
:1017f80080b582b000af0200fb1d1a70fb1d1b787c
:101808007f2b12d8fb1d1b781a001f231a401100ca
:101818004ef20013cef20003fa1d127852b25209aa
:101828000120884001009200d150c046bd4602b058
:1018380080bd90b583b000af02003960fb1d1a70ff
:10184800fb1d1b787f2b2fd84ef20013cef200031e
:10185800fa1d127852b29208c0329200d358fa1d7b
:101868001278110003220a40d200ff2191400a0099
:10187800d2431a4010003b689b01ff221a40fb1d0f
:101888001b78190003230b40db009a4011004ef22d
:101898000013cef20003fa1d127852b292080143e7
:1018a800c0329200d15037e04ef60053cef200031a
:1018b800fa1d127811000f220a40083a92080632df
:1018c80092009b1804331b68fa1d1278110003223a
:1018d8000a40d200ff2191400a00d2431a4010006a
:1018e8003b689b01ff221a40fb1d1b78190003234c
:1018f8000b40db009a404ef60053cef20003f91d70
:1019080009780c000f212140083989080243063163
:1019180089005b1804331a60c046bd4603b090bd09
:1019280080b500af40f29813c2f2000300221a6299
:1019380040f29813c2f2000300221a7740f298137b
:10194800c2f2000300229a6040f29813c2f2000328
:101958000022da6040f60043c4f200238822920293
:101968005a60c04640f60043c4f20023db69002bee
:10197800f8d140f60043c4f2002317221a7340f648
:101988000043c4f200230e22c0f230021a60c0469f
:1019980040f60043c4f20023db69002bf8d1bff303
:1019a8005f8f62b603212720fff743ff2720fff749
:1019b8001fff03212820fff73cff2820fff718ff0f
:1019c80003212920fff735ff2920fff711ff032105
:1019d8002a20fff72eff2a20fff70affc046bd4640
:1019e80080bd80b584b000af786039600023fb60ab
:1019f8000b23fb1800221a703b6823b946f60043f4
:101a0800c0f2dc233b6040f60043c4f200231a68ae
:101a180040f60043c4f2002302218a431a6040f2d0
:101a28009813c2f200030022da6040f29813c2f25f
:101a3800000300229a60c04640f60043c4f2002327
:101a4800db69002bf8d17b68002b5ad07b681a68b9
:101a58003b685b089a4254d87b681b685b003a680d
:101a6800b2fbf3f3013bfb60fb68fe2b01d9ff23bc
:101a7800fb6040f60043c4f200231a6840f60043b6
:101a8800c4f200232c490a401a6040f60043c4f20d
:101a9800002319687b689a687b685b681a4340f67c
:101aa8000043c4f200230a431a6040f60043c4f21c
:101ab8000023fa68d2b21a7340f60043c4f2002336
:101ac8005a6840f60043c4f2002307218a435a604b
:101ad80040f60043c4f2002359687b68da6840f690
:101ae8000043c4f200230a435a60c04640f600434c
:101af800c4f20023db69002bf8d10b23fb18012269
:101b08001a7040f60043c4f200231a6840f60043f6
:101b1800c4f2002302210a431a60c04640f600437b
:101b2800c4f20023db69002bf8d10b23fb181b78c8
:101b38001800bd4604b080bdffffffcf80b500afe1
:101b480000f01dfac046bd4680bd80b500af00f06c
:101b580016fac046bd4680bd80b500af00f00ffa4a
:101b6800c046bd4680bd80b500af00f008fac0464b
:101b7800bd4680bd80b582b000af7860396040f264
:101b88009813c2f200037a681a6240f29813c2f2fc
:101b980000033a685a62c046bd4602b080bd80b5af
:101ba80084b000af0f217b1800221a7040f29813fe
:101bb800c2f200039b68bb60fa1d40f29813c2f2a0
:101bc80000031b7f137040f29813c2f20003db6816
:101bd8002bb9bb681bb97b1800221a7016e040f6b7
:101be8000043c4f200231b7edbb21a000223134019
:101bf80013b1fb1d1b780bb1012200e000220f235b
:101c0800fb181a701a7801210a401a700f23fb1862
:101c18001b781800bd4604b080bd80b500af40f603
:101c28000043c4f200231b7edbb21a0002231340d8
:101c38005a425341dbb21800bd4680bd80b588b01a
:101c480000aff860b9607a603b601f23fb18002280
:101c58001a700023bb6140f29813c2f200031b7f85
:101c6800dbb201225340dbb2002b00d160e1bb683c
:101c78000bb1fb683bb93b68002b00d158e17b688e
:101c8800002b00d154e140f60043c4f200235b6806
:101c980007221340012b0fd1bb681bb1bb6801227f
:101ca80013402bb93b683bb13b68012213401bb181
:101cb8001f23fb181b783ee11f23fb1801221a7013
:101cc80040f29813c2f20003fa681a6040f29813bf
:101cd800c2f200037a685a6040f29813c2f2000315
:101ce80000225a6140f29813c2f2000300229a615e
:101cf80040f29813c2f2000300221a61fb6833b164
:101d080040f29813c2f20003ba689a6005e040f204
:101d18009813c2f2000300229a607b6833b140f244
:101d28009813c2f200033a68da6005e040f29813ab
:101d3800c2f200030022da6040f29813c2f20003f4
:101d480001221a7705e040f60043c4f200239b6a9b
:101d5800bb6140f60043c4f200231b7edbb21a00cd
:101d680004231340042beed040f60043c4f20023b2
:101d78005b8b9ab240f60043c4f2002304210a4365
:101d880092b25a8340f60043c4f200231b7edab2b3
:101d980040f60043c4f20023802149420a43d2b2ec
:101da8001a7640f29813c2f200039b687b6140f2f6
:101db8009813c2f20003db687a699a420bd240f2a8
:101dc8009813c2f20003da687b69d21a40f29813ba
:101dd800c2f200031a6140f60043c4f200235b68b4
:101de80007221340bbbb40f29813c2f200039b6961
:101df8007a699a4216d940f29813c2f200031b6816
:101e08001a7840f60043c4f200239a6240f298130d
:101e1800c2f200039b695a1c40f29813c2f20003f5
:101e28009a6176e040f29813c2f200031b69002b16
:101e38006fd040f60043c4f20023ff229a6240f2ba
:101e48009813c2f200031b695a1e40f29813c2f29b
:101e580000031a615de040f29813c2f200039b6828
:101e68005a0840f29813c2f200039a6040f298139d
:101e7800c2f200031b695a0840f29813c2f2000329
:101e88001a6140f29813c2f20003db685a0840f264
:101e98009813c2f20003da6040f29813c2f200030a
:101ea8009b687b6140f29813c2f200039b697a69d0
:101eb8009a4216d940f29813c2f200031b681a8896
:101ec80040f60043c4f200239a6240f29813c2f22b
:101ed80000039b695a1c40f29813c2f200039a61ee
:101ee80017e040f29813c2f200031b698bb140f669
:101ef8000043c4f200234ff6ff729a6240f298132f
:101f0800c2f200031b695a1e40f29813c2f2000382
:101f18001a613b6833b140f60043c4f2002304223f
:101f28009a7505e040f60043c4f2002301229a7531
:101f38001f23fb181b781800bd4608b080bd80b56c
:101f480082b000af78603960396878680023002271
:101f5800fff774fe03001800bd4602b080bd80b5cf
:101f680082b000af786039603b687a680021002051
:101f7800fff764fe03001800bd4602b080bd80b5bf
:101f880086b000af0023fb600023bb6040f29813cb
:101f9800c2f200035b6a7b6040f60043c4f2002390
:101fa8009b7ddbb2002b00d13ee140f60043c4f23a
:101fb80000235b6807221340fb6040f29813c2f2cb
:101fc80000035b697b6140f29813c2f200039b69ce
:101fd8003b6140f29813c2f200039b683b6040f6f5
:101fe8000043c4f200231b7edbb21a000423134013
:101ff800042b2bd140f60043c4f200239b6abb603c
:1020080040f29813c2f20003db687a699a421dd243
:10201800fb686bb940f29813c2f200035a687b69f7
:10202800d318ba68d2b21a707b6901337b610de0ac
:1020380040f29813c2f200035a687b695b00d31818
:10204800ba6892b21a807b6901337b6140f600431b
:10205800c4f200231b7edbb21a0001231340012bbc
:1020680000d090e040f60043c4f2002301221a7524
:10207800fb688bbb40f29813c2f200039b683a6975
:102088009a4210d240f29813c2f200031a683b69d0
:10209800d3181a7840f60043c4f200239a623b69c9
:1020a80001333b614ae040f29813c2f200031b6916
:1020b800002b43d040f60043c4f20023ff229a626b
:1020c80040f29813c2f200031b695a1e40f298139b
:1020d800c2f200031a6131e040f29813c2f2000321
:1020e8009b683a699a4211d240f29813c2f20003ef
:1020f8001a683b695b00d3181a8840f60043c4f29b
:1021080000239a623b6901333b6117e040f2981360
:10211800c2f200031b698bb140f60043c4f20023ee
:102128004ff6ff729a6240f29813c2f200031b69dd
:102138005a1e40f29813c2f200031a6140f2981333
:10214800c2f200031b6953b93a693b689a4206d147
:1021580040f2c413c2f2000301221a7013e040f2e5
:102168009813c2f20003db687a699a420bd140f6f1
:102178000043c4f2002301229a7540f60043c4f2da
:10218800002304221a7540f29813c2f200037a69f8
:102198005a6140f29813c2f200033a699a6140f614
:1021a8000043c4f200231b7edbb21a000223134053
:1021b800022b2dd140f2c413c2f200031b783bb3ab
:1021c80040f29813c2f20003db687a699a421fd181
:1021d80040f29813c2f2000300221a7740f6004337
:1021e800c4f2002307221a7540f2c413c2f2000396
:1021f80000221a7040f29813c2f200031b6a3bb126
:1022080040f29813c2f200031b6a7a6810009847dc
:1022180040f2c413c2f200031b782bb140f600430e
:10222800c4f2002302229a75c046bd4606b080bd9e
:020000040000fa
:10223800f0b557464e46de4645460c00e0b51f0051
:1022480003008db0029003911600009301940028ba
:1022580000d156e134003d00a4197d414ff6ff73cb
:1022680021002a00c0f21f03b146ba460491059224
:10227800ab4200d340e1009c019d200029000019d9
:10228800694183468846994233d9cc4b994238d91b
:1022980040f2ff7140f2fd72019b1b0d0b40013ba8
:1022a800934200d9ebe03b0d0b40013b934200d930
:1022b800e5e03000390002f0d9fe804602f0ecff7c
:1022c800814500d1a0e0029803990022002302f082
:1022d80039fe002800d185e000250024c7f6f875ee
:1022e800200029000db03cbc90469946a246ab465a
:1022f800f0bd002f05da40f21c232222c2f20003af
:102308001a60019b002bc3daac4b059a9342bfd3ea
:10231800ab4a7b0094465b0d6344332b00d9f7e04e
:102328003422d21a9446203a099200d55ee100215f
:102338000022069107920122099952428a40079287
:102348000122614652428a400692069c079d20005f
:102358002900802200196941340052033a438a4314
:10236800099984432500002900da33e11000c840a8
:102378000a9060461100c14020200b91190040428c
:102388000c1800d51ee12a00a24011002a009a402c
:102398001000001849410a9b0b9a03430a93069bb5
:1023a800079c1d0023003b400a4319008023354049
:1023b800d2022800d20a5b039a4205d800d0bfe0b7
:1023c8000a9b002b00d1bbe0099c002c00da1ee11f
:1023d8000125a5402b0001246546ac402200801849
:1023e8005941ade0009b019c18006300590801f0b9
:1023f8000ffd02000b003000390001f007ff01f06b
:10240800e5fb04000d006be78a4500d05be78023fd
:102418001b06984500d156e74346002b00dac9e071
:102428000027002b68d03b000025474600240126e2
:102438009846c3f6f0753e4207d0029a039b2000e7
:10244800290001f0e3fe04000d007f0877b9474634
:10245800002f00d144e7002122002b000020c3f602
:10246800f07102f0e9f804000d0039e702980399c9
:1024780002000b0001f0cafe02900391dbe7002383
:10248800cff6e07398452ed82ad00499059a0023f0
:10249800cff6e073934200d289e000d183e04ff693
:1024a800ff73c0f21f0398455ed9009b002b00d133
:1024b800cae04b46002b00d1b0e04ff6ff72019bfb
:1024c800c3f6ef725b005b08934200d8eee0009b16
:1024d800002b00d1ede000240025c7f6f075ffe6db
:1024e8005b46002bd1d0029c039df9e6019acbf6fe
:1024f800f0739a4200d09ae000250024c3f6f075e4
:10250800eee6019ac3f6f0739a4200d0a2e6eae733
:1025180040f2004230003900934211d904980599dd
:1025280000230022c7f6c073121a8b41da17002362
:10253800c3f6f0731a40fb0fdb071a4300201100a3
:1025480002000b003000390002f0f7fd002800d02f
:102558009ee640f21c2321220025c2f200031a60e5
:102568000024c7f6f875bbe63000390002f07efd9e
:10257800804602f091fe814500d0a4e68a4500d04d
:10258800a1e653460022002b00da99e0002400253a
:102598004346db0700d4a3e6019b0024db0fdb07df
:1025a80053401d009ce6049b002b00d177e73400c4
:1025b8003d0095e65b429846012734e7ffffdfffc1
:1025c80001fcffff20212c009a40c91acc401100c1
:1025d8002143dbe660462021091a100088400100eb
:1025e80020006446e04008430a90c2e66246202183
:1025f800891a012252421000c840010060468240f8
:10260800002400250a4306940795079298e620239c
:10261800624601249b1adc402300dce6cff6f07307
:102628009a4500d049e7009b002b00d15ee74ff6a2
:10263800ff72019bc3f6ef725b005b080024002564
:10264800934200d94ce648e7019ac7f6f0739a42dc
:1026580025d00023cff6f0739a4200d029e75346dd
:10266800002b34db00240023cff6f0740025009300
:1026780001940024c7f6f0753000390002f0f6fc2a
:10268800060002f009fe814500d029e68a4500d0ff
:1026980026e6f30700d423e6009c019d20e6534676
:1026a80000240025002b00db17e719e6002400258d
:1026b80016e6019acbf6f0739a4200d00be71be7b7
:1026c8000025c7f6f0720024c7f6f07560e780248d
:1026d800002324060093019400250024cce7c0467b
:020000040000fa
:1026e80080b582b000af78607b68180001f0cffe3b
:1026f80043f20023c4f20003c8220121995443f293
:102708000023c4f20003c9220121995443f2002393
:10271800c4f20003b4223321995400f000f942f6c0
:102728005b13c0f20003002219000120fef7f7fd39
:10273800c046bd4602b080bd80b584b000af7860a9
:102748007b68dbb17b681b78c3b17b68180002f03b
:10275800cbfd0300fb60fb6841f22802c4f20022b3
:1027680079680020fef767fcc0460020fef762fd8e
:1027780003001a00fb689342f7d800e0c046bd4644
:1027880004b080bd80b584b000af78600a00fb1c3f
:102798001a700f23fb1800221a7037e040f2521308
:1027a800c2f200031b78dbb219000f203b181b781c
:1027b8007a68d21840f21013c2f200035b5c1370ff
:1027c80040f25213c2f200031b78dbb25a1c4123b9
:1027d80092fbf3f10b009b015b18d31adab240f2bb
:1027e8005213c2f200031a7040f25313c2f20003ec
:1027f8001b78dbb2013bdab240f25313c2f200039a
:102808001a703b181a783b1801321a7040f25313a9
:10281800c2f200031b78dbb23bb10f23fb181a7816
:10282800fb1c1b78013b9a42b8db0f217b181b78f5
:102838007a68d31800221a707b181b781800bd46d6
:1028480004b080bd80b584b000af78600f23fb185a
:1028580000221a703fe040f25213c2f200031b78c4
:10286800dbb219000e203a1840f21013c2f200032e
:102878005b5c137040f25213c2f200031b78dbb2a8
:102888005a1c412392fbf3f10b009b015b18d31aee
:10289800dab240f25213c2f200031a7040f2531334
:1028a800c2f200031b78dbb2013bdab240f25313e9
:1028b800c2f200031a703b181b780a2b18d00f229b
:1028c800bb181b78ba18591c11701a007b689b1822
:1028d8003a1812781a7040f25313c2f200031b78a8
:1028e800dbb233b10f23fb181b783f2bb3d900e0c1
:1028f800c0460f23fb181b787a68d31800221a7079
:10290800c046bd4604b080bd80b500af40f2531349
:10291800c2f200031b78dbb21800bd4680bd80b54b
:1029280000af0120fef7affc03001a00012353405b
:10293800dbb25bb140f25412c2f2000241f228014c
:10294800c4f2002101230120fef775fbc046bd46f5
:1029580080bd80b582b000af02003960fb1d1a70df
:1029680040f25313c2f200031b78dbb2402b33d87a
:1029780040f25113c2f200031b78dbb21a0040f296
:102988005413c2f200031b78d9b240f21013c2f2fa
:102998000003995440f25113c2f200031b78dbb2d2
:1029a8005a1c412392fbf3f10b009b015b18d31acd
:1029b800dab240f25113c2f200031a7040f2531314
:1029c800c2f200031b78dbb20133dab240f25313d0
:1029d800c2f200031a7039e040f25213c2f2000347
:1029e8001b78dbb25a1c412392fbf3f10b009b01cd
:1029f8005b18d31adab240f25213c2f200031a700b
:102a080040f25113c2f200031b78dbb21a0040f205
:102a18005413c2f200031b78d9b240f21013c2f269
:102a28000003995440f25113c2f200031b78dbb241
:102a38005a1c412392fbf3f10b009b015b18d31a3c
:102a4800dab240f25113c2f200031a70fff767ffbf
:082a5800c046bd4602b080bd7e
:020000040000fa
:102a60000023f0b506001500b1b007910393079954
:102a70000b78002b00d10ae101235b420c9310abd1
:102a800000240e9380230b940d940f930b5d0bb1d8
:102a9000252b29d134b12200300002f0a9fb079b7d
:102aa0001b190793079b1a78252a00d0e4e040f20f
:102ab000020c012110270133049307930798037830
:102ac0002b2b1ad025d8202b1ad0232b1dd02a2b04
:102ad00028d002f05afa0d90079b1a78303a092a4a
:102ae00031d801330793f7e70134cfe70b9b059308
:102af0000b4301300b930790e0e704230b9a0fe0a0
:102b00000b9b0593059a08230ae00b9b05933b4317
:102b1000efe72d2bead0302bd9d162460b9b0593e2
:102b20001343e6e72b6801301a1d1b6807902a60e3
:102b30000d93002b07da0b9a5b420592012205994f
:102b40000d934a400b920b9bda0702d50222934366
:102b50000b93079b1a782e2a0ed10022581c0c9238
:102b600007905a782a2a27d1023307932b681a1d17
:102b70001b682a6005930c9307a802f095fa079b3f
:102b80000700187802f026fc692800d182e034dcc6
:102b9000632800d1d7e01adc252800d1e4e06128c1
:102ba00058d0049b01220793002352420c920b93ae
:102bb0000d9300930232e1e002f0e7f90c90079bdd
:102bc0001a78303a092ad7d801330793f7e76428ef
:102bd00060d06728e5dc2a00390008a802f0dffa97
:102be000002800d1abe0079b0ba95a1c07921b7869
:102bf00008aa300002f012fc3de0702800d17be012
:102c000016dc6e2800d193e06f28cad12b00002279
:102c1000390008a801f074fd002800d18fe0079b5f
:102c200008aa01330ba93000079302f0f5fb22e05c
:102c3000752840d078284ed07328b2d1802f00d08c
:102c40007de0079b2a6801330793131d2b601268f0
:102c5000002384e02a00390008a802f0a0fa002826
:102c600000d16ce0079b0ba95a1c07921b7808aa9d
:102c7000300002f0d3fb2418039b1c19a34200dc94
:102c80007ee04f223f4b1a6001235b42039303987f
:102c900031b0f0bd2b000122390008a801f030fd51
:102ca00000284cd0079b08aa01330ba930000793da
:102cb00002f0b2fbdfe72b000022390008a801f088
:102cc0001ffde0b3079b08aa01330ba9300007934f
:102cd00002f01af8cfe72b000022390008a801f013
:102ce0000ffd60b3079b5a1c07921b7808aa0ba91b
:102cf000300001f038fbbee72b000022f02108a8cd
:102d000001f0fefcd8b1079b099a01330793089b99
:102d100013435bb91c4802f0ebfa02000b9b1a4903
:102d200000930d9b300001f0aafea4e77823dde7b5
:102d3000039b39001a1908a82b0001f052ff079bca
:102d40000133079398e7802ff9d1079b013307934d
:102d50002b681a1d1b682a6008aa137001230ba98f
:102d6000300002f05dfb86e7802fe8d10122079b4f
:102d7000013307930b9b049300930d9b0349d1e709
:102d8000039474e61c020020fc530000025400006f
:020000040000fa
:102d900080b500af42f2805001f0aefe43f2002356
:102da000c4f2000351220121995443f20023c4f2da
:102db000000338229b5cdab243f20023c4f2000322
:102dc00020210a43d1b23822995442f66b73c0f2e3
:102dd0000003002219000320fef7a5fa00f072f8a4
:102de000c046bd4680bd80b5c2b000af00237a1d8d
:102df000ff3213607b1dff331b683a00d21845f287
:102e0000d823c0f200031900100002f089fa020072
:102e10007b1dff331b689b187a1dff321360002354
:102e20007a1cff32136024e07b1dff331b683a00dd
:102e3000d01840f25813c2f200037a1cff32126815
:102e40009b181b781a0045f2e023c0f2000319001a
:102e500002f066fa02007b1dff331b689b187a1d87
:102e6000ff3213607b1cff331b6801337a1cff3277
:102e700013607b1cff331b681f2bd5dd7b1dff33cd
:102e80001b683a00d21845f2e823c0f2000319008b
:102e9000100002f045fa02007b1dff331b689b18ef
:102ea0007a1dff3213603b001800fff749fc45f222
:102eb000ec23c0f200031800fff742fcc046bd46f9
:102ec00042b080bd80b500af0320fef7e0f90300fb
:102ed0001a0001235340dbb25bb140f27812c2f218
:102ee000000240f62801c4f2002120230320fef74f
:102ef000a6f8c046bd4680bd80b586b000af7860fc
:102f00001623fb1800221a807b681e331b781b02d5
:102f10001ab27b681f331b781bb213431ab20e23fd
:102f2000fb181a8000233b610de03b697a68d318d7
:102f30001b7899b21622bb18ba1812888a181a8000
:102f40003b6901333b613b691d2beedd1623fa180b
:102f50000e23fb1812881b889a4201d1012300e03e
:102f600000231800bd4606b080bd90b585b000af07
:102f700002003960fb1d1a7040f27813c2f20003a0
:102f80001b78dbb2422b07d140f27813c2f2000368
:102f90005b78dbb24d2b33d001235b42fb60002317
:102fa000bb6017e040f25813c2f20003ba689b18e6
:102fb0001b78422b0bd1bb685a1c40f25813c2f24b
:102fc00000039b5c4d2b02d1bb68fb6005e0bb6836
:102fd0000133bb60bb681e2be4ddfb68002b0cddfe
:102fe000fb6840f27812c2f2000240f62801c4f2f7
:102ff00000210320fef723f81be0fff763ff18e032
:1030000040f27813c2f200031800fff775ff0300c7
:103010006bb140f25813c2f2000340f27812c2f2d0
:10302000000213ca13c313ca13c303ca03c3fff7af
:1030300049ffc046bd4605b090bd80b500af40f227
:103040005813c2f200039b791b021ab240f25813c4
:10305000c2f20003db791bb213431bb29bb2180010
:10306000bd4680bd80b500af40f25813c2f20003e8
:103070001b7a1b021ab240f25813c2f200035b7aa9
:103080001bb213431bb29bb21800bd4680bd80b576
:1030900000af40f25813c2f200031b791b021ab2b0
:1030a00040f25813c2f200035b791bb213431bb208
:0830b0009bb21800bd4680bd73
:020000040000fa
:1030b800f0b585b000930393009b02900c001600b6
:1030c800150001900f00002b00d0c9e08a424ad9b0
:1030d800100001f093ff48b12023019f1b1adf4025
:1030e800019b84408340854027430193aab22b0c5f
:1030f800b7fbf3f1160094461a004a434e43bf1a31
:10310800019a3f04140c27430a00be4207d97f19cd
:10311800013abd4203d8be4201d98a1e7f19be1b9f
:10312800b6fbf3f14b436446f61a6b464c439b8857
:1031380036041e430f00b44207d97619013fb54241
:1031480003d8b44201d98f1e76191204341b3a43ae
:103158000a9b23b1c4401c6000230a994b601000ed
:10316800009905b0f0bd02b9ffde100001f046ff7e
:10317800b8bb0123a41b00932b0cb4fbf3f21f0074
:1031880011005743aeb27143e41b019f24043f0c66
:103198003c439446a1420ad9012764197f42bc44a2
:1031a800a54204d8a14202d9023a94466419641a85
:1031b800b4fbf3f77b43e41a6b467e439b882404f5
:1031c8001c433900a64207d964190139a54203d81e
:1031d800a64201d9b91e641963461a04a41b0a43fe
:1031e800b6e7202223000199121ad3408440d14027
:1031f800019a8540824021438c46290cb3fbf1f4a7
:1032080001920a00624326009b1a6246afb27e43cf
:10321800120c1b04134322009e4207d95b19013a82
:103228009d4203d89e4201d9a21e5b199b1bb3fb8a
:10323800f1f671435b1a614677438cb21b041c4359
:103248003100a74207d964190139a54203d8a7421a
:1032580001d9b11e641912040a43e41b00928be7da
:10326800009b8b420ad90a9b002b00d1abe0029a43
:1032780059601a60002300931a0070e7039801f060
:10328800bdfed8b9039ba34203d3029b02009e4212
:103298000ad8029b01229e1b039b0196e41a029bfb
:1032a800b342ad416d42671b0a9b0093002b00d1ce
:1032b80055e7019982c30023009350e720231b1a86
:1032c80001933300019a039fd34087401f43230093
:1032d8000199d340029a8440ca4022439446029af4
:1032e800390c8240b3fbf1f402920a008640624333
:1032f800009626009b1a6246bdb26e43120c1b0450
:10330800134322009e4207d9db19013a9f4203d892
:103318009e4201d9a21edb199e1bb6fbf1f463463f
:1033280061436543761a360499b20e432300b542c9
:1033380007d9f619013bb74203d8b54201d9a31ef4
:10334800f61912041a436b461c88009b711b8c46a5
:10335800190c230096b2150c6c4373434d4371430b
:103368001e0c091971188c4202d9802464022d1987
:103378000c0c9bb209046519c918ac4503d30bd1d1
:10338800029b8b4208d2009b013ace1ab142894176
:103398004942cf193100ed1b0a9b0093002b00d145
:1033a800dde6029b019c591a63465d1b029b8b421a
:1033b8009b415b42ed1a2b00c140a340c540194315
:0a33c8000a9b22c377e70a9b55e732
:020000040000fa
:1033d20080b582b000af0200fb1d1a70fb1d1b7886
:1033e2007f2b12d8fb1d1b781a001f231a401100d5
:1033f2004ef20013cef20003fa1d127852b25209b5
:103402000120884001009200d150c046bd4602b062
:1034120080bd90b583b000af02003960fb1d1a7009
:10342200fb1d1b787f2b2fd84ef20013cef2000328
:10343200fa1d127852b29208c0329200d358fa1d85
:103442001278110003220a40d200ff2191400a00a3
:10345200d2431a4010003b689b01ff221a40fb1d19
:103462001b78190003230b40db009a4011004ef237
:103472000013cef20003fa1d127852b292080143f1
:10348200c0329200d15037e04ef60053cef2000324
:10349200fa1d127811000f220a40083a92080632e9
:1034a20092009b1804331b68fa1d12781100032244
:1034b2000a40d200ff2191400a00d2431a40100074
:1034c2003b689b01ff221a40fb1d1b781900032356
:1034d2000b40db009a404ef60053cef20003f91d7a
:1034e20009780c000f21214008398908024306316e
:1034f20089005b1804331a60c046bd4603b090bd14
:1035020090b583b000af0200bb1d1a8040f20c23bd
:10351200c2f2000301221a7042f60003c4f2002331
:103522001a6842f60003c4f2002302218a431a6099
:10353200c04642f60003c4f200239b6802221340f5
:10354200022bf6d0bb1d1b88180001f0a8fe00223a
:1035520047f20003c4f2470300f05bfe03000c00d5
:103562001a00230042f60004c4f2002410001900dd
:1035720001f0fdfd03002364c04642f60003c4f2dd
:1035820000239b68002bf8d142f60003c4f200230b
:103592001a6842f60003c4f2002302210a431a60a9
:1035a200c04642f60003c4f200239b680222134085
:1035b200022bf6d0c04640f20c23c2f200031b7865
:1035c200dbb2002bf7d1c046bd4603b090bd80b53b
:1035d20000af00f03df842f60003c4f200230122de
:1035e2001a60c04642f60003c4f200239b6801221f
:1035f2001340012bf6d042f60003c4f2002340f23e
:1036020000721a6042f60003c4f200230022da6359
:1036120042f60003c4f2002304225a7142f6000368
:10362200c4f200234ff60f42c0f20f02da6242f6f2
:103632000003c4f2002301229a62c04642f600034c
:10364200c4f200239b68002bf8d1c046bd4680bd62
:1036520080b500afbff35f8f62b603213a20fff758
:10366200d8fe3a20fff7b4fec046bd4680bd80b505
:1036720082b000af40f21023c2f200035b687b60ad
:1036820042f60003c4f20023db6a3b6042f6000309
:10369200c4f200234ff60f42c0f20f02da6242f682
:1036a2000003c4f20023db6a40f21023c2f20003db
:1036b2001b6843b140f21023c2f200031b68796811
:1036c2003a681000984740f20c23c2f2000300222d
:0a36d2001a70c046bd4602b080bd6c
:020000040000fa
:1036dc0080b500af40f20043c4f2000300221a810f
:1036ec0040f20043c4f200039b79dab240f200438b
:1036fc00c4f2000301210a43d2b29a7140f2004392
:10370c00c4f200039b78dbb21a0003231340022b94
:10371c0011d040f20043c4f2000302229a70c0465a
:10372c0040f20043c4f200039b79dbb21a00012380
:10373c001340002bf4d0c046bd4680bd80b500af11
:10374c0041f20003c4f2000302221a76c046bd46c1
:10375c0080bd80b500af41f20043c4f200030022eb
:10376c001a74c046bd4680bd80b582b000af41f230
:10377c000003c4f2000300221a86c04641f2000383
:10378c00c4f200031a6980235b041a4080235b0493
:10379c009a42f3d146f22003c0f280031b685b0e01
:1037ac00dab2fb1d3f210a401a70fb1d1b789b02ed
:1037bc001b041a0c41f20003c4f2000340f2002176
:1037cc000a435a63c04641f20003c4f200031a696b
:1037dc0080235b041a4080235b049a42f3d141f2ac
:1037ec000003c4f2000302221a86c04641f2000311
:1037fc00c4f200031a6980235b041a4080235b0423
:10380c009a42f3d1c046bd4602b080bd80b500af30
:10381c0041f60043c4f2000340f20712c0f2010269
:10382c001a62c04641f60043c4f200035b680422ee
:10383c001340042bf6d0c046bd4680bd80b500af0a
:10384c00fff746ff45f20003c4f2001304225a604e
:10385c00fff774fffff77dff41f60003c4f200038e
:10386c0002221a62fff780fffff7d0ff41f60043f8
:10387c00c4f20003c42240219950c04641f60043d3
:10388c00c4f20003c4229b5840221340402bf5d1b4
:10389c0041f60043c4f20003c82240219950c046af
:1038ac0041f60043c4f20003c8229b584022134047
:1038bc00402bf5d141f60043c4f20003cc22402149
:1038cc009950c04641f60043c4f20003cc229b58e9
:1038dc0040221340402bf5d141f60043c4f20003c3
:1038ec00d02240219950c04641f60043c4f2000357
:1038fc00d0229b5840221340402bf5d141f6004377
:10390c00c4f20003d42240219950c04641f6004332
:10391c00c4f20003d4229b5840221340402bf5d113
:10392c0041f60043c4f20003d82240219950c0460e
:10393c0041f60043c4f20003d8229b5840221340a6
:10394c00402bf5d141f60043c4f20003e4224021a0
:10395c009950c04641f60043c4f20003e4229b5840
:0e396c0040221340402bf5d1c046bd4680bd21
:020000040000fa
:10397a00f0b5002485b00194a14207da04000d00d5
:10398a0000216042a941012464420194002b07da14
:10399a00019c1d00e4430194140000236242ab41e0
:1039aa0014001e0000900f00002b00d092e08a4203
:1039ba004ad9100001f021fb48b12023009a1b1ab2
:1039ca00da40009b87408340844017430093220ccf
:1039da00b7fbf2f0150003004543a1b24b437f1b2e
:1039ea00009d3f042d0c2f438446bb420ad9012572
:1039fa003f196d42ac44bc4204d8bb4202d90238da
:103a0a0084463f19ff1ab7fbf2f06b464243414323
:103a1a00bf1a1d883f043d430200a94206d9651911
:103a2a00013aac4202d8a94200d9821e63461b045d
:103a3a0013431800019b310023b103003400002115
:103a4a005842a14105b0f0bd02b9ffde100001f0f5
:103a5a00d4fa10b93f1b0126b9e720213a00009b8e
:103a6a00091aca40cb400099844081400091210c38
:103a7a008740b2fbf1f00e00050046433b43a7b274
:103a8a007d43921b12041e0c3243ac46060095423b
:103a9a0007d91219013e944203d8954201d9861ecc
:103aaa0012196046121ab2fbf1f041434743521a07
:103aba0012049bb2134302009f4207d91b19013a11
:103aca009c4203d89f4201d9821e1b193604df1b70
:103ada0016437ce78b4272d8180001f08efa38b987
:103aea00be426fd30300009aa24243410026a0e7d8
:103afa00202322001b1ada40864016433a00009916
:103b0a008440da408740d9400294340c3943b2fbee
:103b1a00f4f73b000391b1b24b439c4623007b432d
:103b2a00d21a039b12041b0c1a433b00944507d973
:103b3a009219013b964203d8944501d9bb1e9219aa
:103b4a006546521bb2fbf4f77c43121b6c46794361
:103b5a00a489120422433c00914207d99219013cdc
:103b6a00964203d8914201d9bc1e92196d462e89fc
:103b7a001b04370023439cb26743029d511a2d0c44
:103b8a001a0c56436c436a433d0cac46a419644470
:103b9a00a64202d980256d025219260cb21891420a
:103baa000bd30026914200d043e7009d2404bfb204
:103bba00e4198540a54200d33be7013b96e700267e
:0a3bca00330036e70600012333e75d
:020000040000fa
:103bd400f0b54b00c6460d000a0040f2fd715b0dc6
:103be400013b00b5040006008b4200d9e0e042f638
:103bf4004263c4f286039d4200ddfae000d1f1e0a5
:103c040042f22b33ccf286039a4200d9b9e000d1b8
:103c1400b0e049f6a1426b00c3f6c7325b08934299
:103c240000d8b7e00022eb0fdb07c3f6e0725a407e
:103c3400170041f22c534ff63c120026c9f62f62ae
:103c4400c3f6f7732000290000f0e2fa32003b00cb
:103c540000f0e0f901f00cfa804601f01ffb43f29a
:103c640000030022cbf6e67306000f0000f0d0fa42
:103c740022002b0000f0cef940f6a8424df21003ca
:103c840004000d00c5f66142c3f62b733000390001
:103c940000f0befa02000b002000290000f0baf97f
:103ca40002000b0006000f0000f0b2fa4df61c42b1
:103cb40045f2a423c6f65872c3f6f16304000d005e
:103cc40000f0a6fa4ff2e06247f2e403c6f6b372dc
:103cd400c3f67c7300f09ef922002b0000f098fae2
:103ce40000230022c3f6d07300f094f932003b00a5
:103cf40000f08efa43f6090243f6997306000f00aa
:103d0400c6f6de72c3f640732000290000f080fa84
:103d140045f2b31247f28e13c7f24212c3f6ac73e4
:103d240000f078f922002b0000f072fa0d00002157
:103d3400040032003b000020c3f6e07101f036fbc2
:103d440002000b002000290000f064f902000b00bf
:103d54003000390000f072fc444600230022013494
:103d6400c3f6e07300f056f9220000f0f7ff04bc3c
:103d74009046f0bd4bf6d243cdf67a539e4200d81e
:103d840047e740f21c232222c2f200031a600020fb
:103d94000021ece7934206d144f22223c0f6924379
:103da4009e4200d93ee700210020c3f6f071dee711
:103db4002900002300196941cff6e073994225d800
:103dc40022d0002e00d02de70023c7f6f0739a42cc
:103dd4001cd00023cff6f0739a4200d022e70020d3
:103de4000021c4e743f6ef13cff6fa63984200d8f4
:103df40006e740f21c2322220021c2f200031a60cb
:103e04000020c7f6f071b2e70028dad020002900bc
:043e1400ade7c04610
:020000040000fa
:103e1800f0b5ce46474640f2fd7280b50b0d013b2a
:103e280089b00c0093421bd902000b0012184b41b9
:103e380015001a000023cff6e0739a420bd800d180
:103e4800e1e04ff6ff73c0f21f039a4200d8cfe0bb
:103e5800002c00dac1e009b00cbc90469946f0bdd0
:103e680007aa01f0adf8079b050099464af29e03a0
:103e7800c3f6e6730c00994200dc84e000230022bc
:103e8800c3f6f0732800210001f08efa0122060023
:103e98000f0052422800210000f05eff002300229c
:103ea800c3f6e07300f0b4f802000b0030003900ec
:103eb80000f0c2fb04000d0022002b0020002900a6
:103ec80045f2c81800f0a2f9c0f2000806000f0079
:103ed80002000b004046022100f044fb4346103329
:103ee800009001913200180003213b0000f044fdce
:103ef80002900391484601f0cff94bf29a5240f2f2
:103f0800ff730490059100980199c1f2b322c4f29d
:103f1800500301f049fa029a039b00f08dfb32002e
:103f28003b0000f073f922002b0000f06ff922002b
:103f38002b0000f06df8049e059f40f6a8424df254
:103f4800100304000d00c5f66142cbf62b73300058
:103f5800390000f05bf902000b002000290000f096
:103f680057f843f2000304000d000022c3f6e6737d
:103f78003000390000f04af902000b002000290047
:103f880000f046f867e7994206d143f6cd33c6f20a
:103f98007f63984200d971e701235b429c46002366
:103fa8000022c3f6e07328002100e14401f0fcf987
:103fb8000122524204000d0000f0cefe0023002230
:103fc800c3f6e07300f024f802000b00200029007b
:103fd80000f032fb04000d006ee740f21c232122a2
:103fe8000021c2f200031a600020c7f6f87132e718
:103ff80040f21c2322220021c2f200031a60002092
:10400800cff6f07127e7002d00d11ae723e7c04665
:020000040000fa
:10401800f0b40125ed070f005f405ad48b4200d160
:10402800824205d950404240504059404b40594087
:104038004e18760ddf187f0d3bd0741c640529d00f
:10404800f41b352c26d80e0ddb022b43db0ac902e4
:104058002943c9121700202c1ed2e741e2405740dd
:10406800e3415a40a340e3405a4000248018594194
:104078000ad3b21c520521d0c207012f6241170092
:104088004008cb0718434908013636054208af41b6
:1040980060417141f0bc7047203c06d01f00e741e9
:1040a800e3405f400024012a6741c0186141ebd317
:1040b800dfe7002eeed129400020ebe7013631057d
:1040c8000020e7e7e742e5d10020c143090dc90414
:1040d800e0e76b400e00871a9e4104d26e40c01b79
:1040e800b141d21973414e18df18ac0ae642e9d241
:1040f800760d7f0d31d0f41b362ccbd8b4460e0d7f
:10410800db022b43db0ac9022943c90a012c32d836
:1041180004d1d4075208df073a435b08ef0a644228
:10412800904199411ed0002239424dd12419404175
:1041380049410124394204d1013400184941394226
:10414800fad06246a24204d9361b013e36058919c7
:10415800a0e7f10ac90700209ce736429ad100205f
:10416800002197e70200224394d0b842ded2010032
:1041780020002024e3d1202c13dd203ce24117004d
:10418800a240e2405740e3415a40a340e3405a402e
:10419800012fbf410137174300227c4298419141ca
:1041a8000ce01700e741e2405740e3415a40a34082
:1041b800e3405a407c429041994100220f0303d2c8
:1041c800013e241940414941013e36054708ac41aa
:0841d80050417141f0bc704739
:020000040000fa
:1041e00006d128b9f54203d800d30ab96d0d09d11b
:1041f0000020c143090dc904f0bdf9d11242f7d125
:10420000640df5d00020c14349054908a6e000200f
:104210006146f0bdf0b50127ff070e005e403e404d
:10422000b446be0a4c18dd18f442d9d2f542e4d2a5
:10423000640decd06d0dead06419c9023943460d06
:10424000c0023143db023b43db0a10b48e4685b229
:1042500097b26f43140c6c433e0ca419260c240433
:10426000bfb227439cb26c43a419190c6943250cb7
:10427000a4b249190d04090c6419000c95b2454308
:104280003e0c76193743bfb2360c150c4543ad19b9
:10429000a6b2240cad192e0437432e0c36199db24c
:1042a0004543ad19acb22e0c89191d0c45436d1850
:1042b0002e04290c3443704680b295b245433e0c1f
:1042c00076193743bfb2360c150c4543ad19a6b26b
:1042d000ad19240c2e0437432e0c36199db24543dc
:1042e000ad19acb22e0c89191d0c45436d182e0466
:1042f0003443290c75462d0c90b268433e0c80194e
:104300000604bfb23e43070ca0b23f18120c6a432a
:10431000d019020c80b2240ca4189ab26a43121964
:1043200014042043120c89181b0c6b43c91810bcd1
:1043300001273d05294203d1b61940414941013cbd
:10434000ff077d0d013d641b0bdb6d00ac4209dafc
:10435000240500254208be4168416141664631435b
:06436000f0bd54e74ee73a
:020000040000fa
:10436600f0b58fb00d934b680c9006938b680d00db
:104376000793cb6816000393069b0f68002b42db5e
:1043860002239f4310233b400a93079b04930a9bf7
:104396003bb1726833681343079a13b11300023bab
:1043a600049308233b400b935a1e9341049ad31a55
:1043b60004933368039a0893736809932b695c1e08
:1043c60000231355069b0593012c1fdc0a9b002b2b
:1043d60050d10b9b1bb12023039a013c13552b692b
:1043e60000975a1e039b121b19190c98079b00f085
:1043f60043fb0c9b5b68db0503d56b68984200dad0
:1044060018000fb0f0bd01230693bbe7089b099a7d
:1044160013435bb9059b002b08dc069a049b9b1a89
:10442600059a9b18002bd1ddbb07cfd50f23089a21
:10443600013c134018005730092b01dc30331800bb
:104446000d9b413b192b06d820230343613b192bb7
:1044560001d800f0c3ff039b1855059b013b05934c
:10446600099b1a07089b1b091a43099b08921b09fb
:104476000993a9e70cce1343002baad0039b0d9af0
:104486001b19013b1a703023039a023c1355a0e70f
:020000040000fa
:1044960090b583b000af786041f20003c4f2002308
:1044a60040f20412c4f210021a60786800f003ffaa
:1044b60000220023c4f23003fff7a9fe03000c001c
:1044c6001800210000224ef26033c4f2861300f079
:1044d600b4f803000c001a00230000200021c3f6e4
:1044e600f07100f062ff03000c00180021000022aa
:1044f6000023c4f2f003fff78afe03000c001a0043
:10450600230041f20004c4f200241000190000f058
:104516002cfe03009bb2a38141f20003c4f20023e8
:10452600c02292025a60c04641f20003c4f2002340
:10453600db69002bf8d141f20003c4f200231a68ac
:1045460041f20003c4f2002302210a431a60c04666
:1045560041f20003c4f20023db69002bf8d1c04608
:06456600bd4603b090bd4c
:020000040000fa
:10456c00f8b514001d008e1ef60086190f00b268f7
:10457c00f36820002900fff747fe32687368fff7e5
:10458c0045fd022f4ed002000b0020002900fff742
:10459c003bfe3300083b1a685b68fff737fd032fbf
:1045ac0040d022002b00fff72ffe3300103b1a687f
:1045bc005b68fff72bfd042f34d002000b002000aa
:1045cc002900fff721fe3300183b1a685b68fff7e0
:1045dc001dfd052f26d002000b0020002900fff73f
:1045ec0013fe3300203b1a685b68fff70ffd062fa4
:1045fc0018d002000b0020002900fff705fe330045
:10460c00283b1a685b68fff701fd072f0ad00200f0
:10461c000b00303e20002900fff7f6fd326873686e
:10462c00fff7f4fc02000b0020002900fff7ecfd63
:04463c00f8bdc046bf
:020000040000fa
:10464000f0b40125ed070c005c402c40a446ae0af6
:104650004c18df18f4423dd2f74244d2640d4ad0e0
:104660007f0d3bd0e41bc9022943cf0adb022b4359
:10467000db0a0600b61a9f4104d2013cb6197f41fd
:10468000b6185f416812800d241836dd0018844288
:1046900024d8e80c0021b6197f41b61a9f4103d3f4
:1046a00040414941f7d304e0b6185f410018494141
:1046b000f1d32405b6197f41b61a9f4105d337437c
:1046c000c20717430022012f504161416246114346
:1046d000f0bc70470ad148b9f74207d20020c14365
:1046e000490d0905f2e70ab9f74206d00020c14397
:1046f000090dc904ece77f0df8d000206146e7e71b
:020000040000fa
:1047000010b588293ad014dc81294ad003dc8029ed
:1047100047d0002010bd822910d08429f9d1196812
:104720002ab30a1d1a6000228b5e0360db17436008
:1047300010e0a0292ed00fdc9029ead119680724b7
:104740006ab30919a1430a0008321a600b684c6861
:10475000036044600120dde7c02901d0f029d8d1f1
:104760001a68111d1960136803600023dfe70c1d30
:104770001c600b689bb203604260ebe7196822b1d2
:104780000a1d1a600023cb56cfe70c1d1c600b6876
:10479000dbb2f0e71a68111d19601368c5e707312d
:1047a000d0e719681ab10a1d1a600b68bde70c1d25
:0647b0001c600b68dfe74e
:020000040000fa
:0247b600fee71c
:020000040000fa
:1047b80024020020040000000100000000000000a6
:1047c800f00100201c00000000000000c8010020cb
:1047d8002800000000000000980100202d000000c3
:1047e800000000000c0200200c0000000000000087
:1047f80000000020c00000000000000010010020a0
:1048080045000000000000005801002040000000a2
:10481800000000001802002008000000000000004e
:10482800c00000205000000000000000200200200e
:10483800040000000000000028020020040000001e
:10484800010000000000000000000000000000005f
:020000040000fa
:10485800f0b59fb002af43f20023c4f2000348f260
:1048680000029a60fef7ecfffcf7e0fafef7acfef8
:1048780049f26460fdf734fffef786fa45f24023fb
:10488800c0f200031800fdf757ff40f2e830fef7ca
:1048980034fefef7a4fa6e257c19fef7f4fb03003c
:1048a80023806c26bc19fef7d9fb030023806a23fa
:1048b800fc18fef7befb030023807b191a886a23c5
:1048c800fb181c88bb191b8845f24421c0f2000163
:1048d800381d0093230000f01ffd3b1d1800fdf755
:0448e8002bffd2e7e9
:020000040000fa
:1048ec0030b405004d400124e407254042004b0044
:1048fc00120e26d01b0e34d0ff2a2dd0ff2b35d014
:10490c00d21a000220430902214343084908a00d92
:10491c005b1a02d2013a5b005b185b008b4200d33e
:10492c005b1a4041f9d37f3222ddff2a06d2d20531
:10493c00c91a8b425041284330bc7047ff20c00538
:10494c00f9e71b0e03d0ff2b12d1490210d07f20a8
:10495c0000010c300005efe74002f8d1ff2bedd140
:10496c00f5e7ff2aead14002f1d1e7e74902eed19f
:04497c002800e1e747
:020000040000fa
:10498000f8b5ce0086191d0033001400083b1a68e4
:104990005b680f0020002900fff73efb22002b0080
:1049a000fff738fc3300103b1a685b68fff734fbf5
:1049b00002000b0020002900fff72cfc032f17d06a
:1049c0003300183b1a685b68fff726fb02000b00f8
:1049d00020002900fff71efc052f09d13300203be2
:1049e0001a685b68fff718fb22002b00fff712fc28
:1049f000ff00f61b32687368fff70efbf8bdc04678
:020000040000fa
:104a000040f20003c0f2000323b140f20003c0f201
:104a10000003984740f20003c0f2000323b140f2c4
:104a20000003c0f20003984700f00afb40f20003c5
:104a3000c0f200037f2293434ef60052cef20002f2
:104a4000936044f6ad43c0f20003984740f2000380
:104a5000c0f2000323b140f20003c0f20003984704
:104a600040f20003c0f2000323b140f20003c0f2a1
:0e4a70000003984700210020fff7eefefee74e
:020000040000fa
:104a7e00f0b51d00012389b014000e9a06001a40ed
:104a8e00039102920ab9a5420ad822000399300076
:104a9e0000f0a7fba54203d82500280009b0f0bd01
:104aae002f1b01973a00102f00d91022202104a8a5
:104abe0000f06dfc019b0f2b0ed80f2204a93a407b
:104ace00300000f08efb029b002be6d122000399f2
:104ade00300000f086fbe0e7102204a9300000f061
:0a4aee0080fb019b103b0193e4e7fd
:020000040000fa
:104af80080b582b000af786040f60003c4f20023ae
:104b080040f20412c4f210021a6040f60003c4f224
:104b18000023d22252429a8140f60003c4f20023b5
:104b2800c02292025a60c04640f60003c4f2002335
:104b3800db69002bf8d140f60003c4f200231a68a1
:104b480040f60003c4f2002302210a431a60c0465b
:104b580040f60003c4f20023db69002bf8d1c046fd
:064b6800bd4602b080bd55
:020000040000fa
:104b6e00f7b5040019000a9fe368666800933b6876
:104b7e00100001932369013b1c00002e00da012670
:104b8e000022009dea5435000123002c02dce3b123
:104b9e002000febd02000a434ab9002d07dc089a28
:104bae00921b5219002af2dd019a9207efd5099b4a
:104bbe00099adb1700f0a3f98c460099013c13000b
:104bce0030320a55013d6146dfe710233a689a43b9
:044bde003a60dde775
:020000040000fa
:104be20010b584291fd007dc812915d0822922d053
:104bf200802911d0002010bd90291cd008dc882902
:104c0200f8d119680c1d1c600b6803601a7010e063
:104c1200a02901d0c029edd119680c1d1c600b68b8
:104c220003601a6005e019680c1d1c600b680360c4
:104c32001a800120dfe719680c1d1c600b680360f5
:084c42001a60d2175a60f4e772
:020000040000fa
:104c4a004b1801225205da4217d25b0d0722d20114
:104c5a009b1a0fd9ff2b12d2db05ca0fd2071343b7
:104c6a000903020d1143490ac200524100d9013118
:104c7a00c8187047c80fc007704705d120b9c80fb8
:104c8a000002ff30c00570470123db070a00c90094
:104c9a00400f084398431a4010435b0a1843704771
:020000040000fa
:024caa00704751
:020000040000fa
:104cac0000230e4a10b513600d4a0e4c13600e4ac9
:104cbc0013600e4a13600e4a13600e4a536213615e
:104ccc000133936000f045f800f043f80a4b9c4226
:104cdc0000d310bd08cc9847f8e7c046200200204e
:104cec00cc00002068010000c8000020c00000209b
:0c4cfc00c4000020d00000206c0100006b
:020000040000fa
:104d0800f0b50b680c008f68cd68496887b006005d
:104d18000593002902db02218b43059305a95368fb
:104d2800126802910a21009701912000fff71bffea
:104d3800236929185a1e059b121a009330003b005c
:104d4800fff799fe7368db0503d56368984200dabc
:064d5800180007b0f0bdd9
:020000040000fa
:024d5e0070479c
:020000040000fa
:104d600070b540f2ff740b0d2340a34212d08bb1fb
:104d7000d31840f2fe7293420ddc002b14dd4ff687
:104d8000ff72c8f20f0211401b05194304000d0009
:104d90002000290070bd0023c90fc907c7f6f073b2
:104da0000b4300241d00f3e7c90f0024cd07efe7f4
:020000040000fa
:104db00030b51500012289b0524201920432ff320f
:104dc000029200b9684603900491002401b14c1e80
:104dd0000594002906da4f220120074b40421a6051
:104de00009b030bd00220790027006901a00290019
:0c4df00001a800f089faf3e71c02002083
:020000040000fa
:104dfc00002b15d1002a13d1002906db01dc002879
:104e0c0006d00020c043410802e0802109060020a2
:104e1c0007b4024801a14018029003bdfd05000033
:104e2c0003b4684601b5029800f052f9019b9e4606
:084e3c0002b00cbc7047c04637
:020000040000fa
:104e440041008c46012212068a420bd809093823f4
:104e54001b06c918c30fdb07194340076346da4230
:104e640004d27047c10fc9070020704703d138230b
:104e74001b06c918704738231b06c9180122d2041f
:044e8400114370471f
:020000040000fa
:104e8800f7b597b201933b00140c86b2050c734337
:104e98006f4366436543f6191c0ca4199c46a74248
:104ea80002d980235b02ed186346260c7519240489
:104eb8009eb2019ba4194343200051435b19591822
:044ec80003b0f0bd86
:020000040000fa
:104ecc0010b5054c227832b9044b13b1044800e0fc
:104edc0000bf0123237010bdf00100200000000072
:104eec0000000000034b10b51bb10349034800e060
:104efc0000bf10bd00000000f40100200000000005
:020000040000fa
:104f0c00002b11d1002a0fd1002900d1002802d08a
:104f1c000021c943081c07b4024802a140180290a2
:104f2c0003bdc046f504000003b4684601b5029801
:104f3c00fef7bcf8019b9e4602b00cbc7047c04605
:020000040000fa
:104f4c0030b401256d054c00e54215d85c00e542f6
:104f5c0012d80c001c436400044314430cd005d23b
:104f6c00904299418041404230bc704782428b4113
:0e4f7c008041404230bc7047002030bc70477e
:020000040000fa
:104f8a00030010b51a78202a0dd011000939042916
:104f9a0009d900212b2a02d02d2a01d1013101334e
:104faa0000200a2404e00133ece760430133801a4d
:0e4fba001a78303a092af8d901b9404210bde0
:020000040000fa
:104fc800f0b540f2ff740b0d234007000d0073b1dc
:104fd800a3420cd0084900248c46090cc8f20f01e2
:104fe8000d40c3f6e0742c436344210000e0002325
:0c4ff80038001360f0bdc04602fcffff53
:020000040000fa
:105004001c2101231b04984201d3000c10391b0af4
:10501400984201d3000a08391b09984201d30009b8
:10502400043902a2105c40187047c046040302020f
:0c5034000101010100000000000000006c
:020000040000fa
:1050400010b50a48016821b9436813b9fff72dfe6e
:1050500010bd04008368064a9bb20c349b009b5829
:1050600042682000984780002018ebe7b84700000e
:045070004c5300009d
:020000040000fa
:10507400f4464a1805d200f07bf801d5c017400861
:10508400604701235b05d34206d200f071f801d5d5
:105094000120c0074042604701d10042f5d0d0173b
:0450a4004008704709
:020000040000fa
:1050a80070b5040000200a4b4200d55c15b9d2182f
:1050b800507870bd216801300e78c0b2ae4204d17c
:1050c800034b0131d218507821600a28ebd9f0e758
:0450d800365300004b
:020000040000fa
:1050dc00f7b516001f0000900191fef748fc040084
:1050ec000d0002000b0030003900fff7c7fe009adc
:1050fc00019b121a8b41089920000a604b60290011
:04510c0003b0f0bd3f
:020000040000fa
:10511000012212064300da4211d84b00da420ed8bf
:1051200002000a43520008d003d28142804101307c
:10513000704788428041013070470120704700204d
:025140007047b6
:020000040000fa
:1051420070b4012676054c005d00e6420cd8ee42b2
:105152000ad825430543154303d0994204d190420e
:0e51620002d1012070bc7047002070bc704765
:020000040000fa
:105170004a0010d2520d03231b02ff33d21a0ad465
:1051800052421f3209d4400dc90208430123db07f4
:0e5190001843d040704700207047d01770477a
:020000040000fa
:10519e00002380290fdb812901dd83290bd1072113
:1051ae00136807338b431900083111601a685b6866
:0a51be0002604360012318007047ef
:020000040000fa
:1051c800edaf16204a62304029bd56b31544e9bff9
:1051d80077900d9cfe0b88c07e2615fa838073405d
:0851e8000fce674b80d541c0da
:020000040000fa
:1051f00070b505690400954200d915005db12a001b
:10520000606900f0c1f8226963695b19551b0022cf
:08521000636125611a7070bd95
:020000040000fa
:10521800c20f12029d3201000cd001d5494202d4be
:10522800013a4900fcd5d205080a0906494100d3cc
:06523800012950417047fe
:020000040000fa
:105240001b630000504d313a2025752c20504d3203
:105250002e353a2025752c20504d31303a202575b9
:04526000200d0a0013
:020000040000fa
:105264009d2201000ad002d4013a4900fcd5d2059e
:0e527400080a0906494100d30129504170473c
:020000040000fa
:10528200002310b5934206d103201840421e9041dc
:0e5292009b08c01810bdc45ccc540133f2e779
:020000040000fa
:1052a00045f2bd23c0f20003004206d5404200b5de
:0c52b000984708bc0122d20711431847a0
:020000040000fa
:1052bc0040f21d42010007d002d4013a0018fcd57f
:0a52cc001205c30a40059918704747
:020000040000fa
:1052d80042797465733a2000253032582000c04660
:0852e8000a00c0460d0a000097
:020000040000fa
:1052f000037833b1030001331a78002afbd1181a5e
:0853000070470020fce7c046e5
:020000040000fa
:1053080013b50400019201aafdf7a6fb6368db064a
:0853180001d50120404216bd41
:020000040000fa
:105320000eb403b503aa02ca019200f023f802b03a
:0653300008bc03b01847a1
:020000040000fa
:1053360068076c094c836a9074a07ac000806888fc
:0653460000846c8200816e
:020000040000fa
:10534c00c353000083520000155400001554000094
:04535c0015540000e4
:020000040000fa
:1053600010b5fff7d1fcfef7fefffff7c9f9fff715
:0453700038fc10bd38
:020000040000fa
:1053740010b513000a000249fff718fd10bdc0461e
:04538400ffffff7fa9
:020000040000fa
:1053880010b52ab10023cc5cc45401339342fad13e
:0453980010bdc0463e
:020000040000fa
:10539c0032b10300c9b28218197001339342fbd1a8
:0453ac007047c04640
:020000040000fa
:1053b000f0b40125ed076b4044f21f04c0f2000475
:0253c000204784
:020000040000fa
:1053c2008a18914201d10020704700230b700131ed
:0253d200f7e7fb
:020000040000fa
:0e53d4000300413b192b01d8202318437047da
:020000040000fa
:0e53e2000300613b192b01d85f231840704770
:020000040000fa
:0c53f0007201c0467426c0467508c04615
:020000040000fa
:0853fc00286e696c29002500f0
:020000040000fa
:0854040010b5fff7e5ff10bd34
:020000040000fa
:08540c0010b5fff7e8ff10bd29
:020000040000fa
:0454140000207047bd
:020000040000fa
:0454180000207047b9
:020000040000fa
:04541c0000207047b5
:020000040000fa
:0454200000207047b1
:020000040000fa
:045424007047c046c7
:00000001FF
