:020000040000fa
:10000000f07f0020691d00000b240000fb2400008d
:1000100000000000000000000000000000000000e0
:100020000000000000000000000000008f2200001f
:1000300000000000000000008f2200008f2200005e
:100040008f2200008f2200008f2200008f220000ec
:100050008f2200008f2200008f2200008f220000dc
:100060008f2200008f2200008f2200008f220000cc
:100070008f2200008f2200008f2200008f220000bc
:100080008f2200008f2200008f2200008f220000ac
:100090008f2200008f2200008f2200008f2200009c
:1000a0008f2200008f2200008f2200008f2200008c
:1000b0008f2200008f2200008f2200008f2200007c
:1000c0008f2200008f2200008f2200008f2200006c
:1000d0008f2200008f2200008f2200008f2200005c
:1000e0008f2200008f2200008f220000e51b0000fd
:1000f000e51b0000e51b0000e51b0000c50a000031
:10010000c50a0000c50a0000c50a00008f220000d1
:100110008f2200008f2200008f2200008f2200001b
:100120008f2200008f220000551f00008f22000048
:100130008f2200008f2200008f2200008f220000fb
:100140008f2200008f2200008f2200008f220000eb
:100150008f2200008f2200008f220000f07f0020fd
:10016000691d00000b240000fb24000000000000bb
:10017000000000000000000000000000000000007f
:1001800000000000000000008f22000000000000be
:10019000000000008f2200008f2200008f2200004c
:1001a0008f2200008f2200008f2200008f2200008b
:1001b0008f2200008f2200008f2200008f2200007b
:1001c0008f2200008f2200008f2200008f2200006b
:1001d0008f2200008f2200008f2200008f2200005b
:1001e0008f2200008f2200008f2200008f2200004b
:1001f0008f2200008f2200008f2200008f2200003b
:100200008f2200008f2200008f2200008f2200002a
:100210008f2200008f2200008f2200008f2200001a
:100220008f2200008f2200008f2200008f2200000a
:100230008f2200008f2200008f2200008f220000fa
:100240008f2200008f2200005b2500005b2500004c
:100250005b2500005b2500005b2500005b2500009e
:100260005b2500005b2500008f2200008f2200002c
:100270008f2200008f2200008f2200008f220000ba
:100280008f2200005b2500008f2200008f220000db
:100290008f2200008f2200008f2200008f2200009a
:1002a0008f2200008f2200008f2200008f2200008a
:0802b0008f2200008f220000e4
:020000040000fa
:1002b800401801000200030084468ef3008874474a
:1002c800f8b5c046f8bc08bc9e467047f91e000049
:1002d800f8b5c046f8bc08bc9e467047d51e00005d
:020000040000fa
:1002e800f0b59bb013930b6815900a934b680d916a
:1002f80002938b68ce680b930b6918931368069367
:1003080053680698089300220023089901f09bfe81
:1003180060b90a9b5b0734d408200a9b0340099301
:100328000b9b0393099b73b1202306e080221206de
:100338009446089b634408932d2333700b9b013b21
:10034800039301230993089b06995b005b088e4a77
:10035800d9b9934219d1139b099a413bb018192b6b
:1003680011d88a4902f0e3f8300002f04bf80a9bf2
:100378000200009331000b9b159801f014fb1bb091
:10038800f0bd2b23d9e78249ece7934202d80bd181
:10039800069b4bb1139b099a413bb018192b01d806
:1003a8007c49dfe77c49dde70022002306980899ad
:1003b80001f052ff0024794d0027e8bb070002e056
:1003c8000137049c059d0022754b2000290000f090
:1003d800d4fd069a089b0490059101f015fe0028ab
:1003e800eed0002304931fe06e4b9f4213da049b68
:1003f8008bb900226c4b0698089900f0befd6a4b39
:100408000690089120002900002200f0b6fd012383
:1004180004000d000493200029000022604b00f026
:10042800d7ff04000d00013f22002b000698089911
:1004380001f009fe0028d7d1139802f071f8c3b271
:100448000c93029b002b00da93e10c9b0493672b1f
:1004580000d0afe0029b002b00d185e13b1d03db00
:10046800029b9f4200daa1e06523b5e00022002349
:100478000e920f9303e106940795049b0897652b4a
:1004880000d01ce10023089319e1029b5bb9089b8b
:10049800002b08da2e23149a0134b354039b013b32
:1004a80003930123029323002a19302101e0f15418
:1004b80001339a42fbd1039a2b193030551b5c1c2f
:1004c800f0546b1e0393002523e00d9b14941b69c5
:1004d8001093053ba34200d8fde0069a079b0e98af
:1004e800129900f075ff00f0d3ff1090119101f000
:1004f80051fe092800dd092010230a9a13400343fe
:10050800002bc2d10c9b672bbfd1089b002bcadaea
:10051800013580200006844612990e9a61440b002a
:100528001098119900920193069a079b01f0e2ff37
:1005380080231b06cb180e90129306980799184b28
:10054800002200f045ff089b06900791013b0893a5
:10055800bce00a9bdb0600d4c1e02e2333550134ee
:10056800bde00a2297fbf2f56a43ba1a3032013b22
:10057800f254039a2f00013a0392bde0039b325cc8
:10058800f3181a540138e3e00000f07fea24000071
:10059800ee240000f2240000f62400000000f03fe2
:1005a80000002440d4feffff00005043002f12da61
:1005b80066230493029b01330293049b662b0cd1a0
:1005c800002f02da002400276d4d0c9b672b02d008
:1005d800029bdb19029366230493069b0e940f95e6
:1005e8001293089b1093002314930e9a0f9b129852
:1005f800109900f0edfe00f04bff1690179101f0f6
:10060800c9fd19908020000684461099129a614409
:100618000b0016981799009201930e9a0f9b01f000
:1006280069ff80231b06cb181290109300220e98a6
:100638000f99544b00f0ccfe149b0e900f91013390
:100648001493149a029b9342cfd100224e4b00f090
:1006580094fc0e900f9102000b001298109901f073
:10066800f2fc002800d001e70e9a0f9b129810990f
:1006780001f0f2fd18b1199bdb0700d4f6e60e9adb
:100688000f9b0698089900f07afb00220e901291b1
:100698003c4b2000290000f070fc0e9a129b06903b
:1006a800079101f0cffb002800d1e4e6049b013755
:1006b800662b00d0e1e6029b0897013302930025e0
:1006c800029a089b099c9b1a16930295089b169af6
:1006d800934200d0f9e6029b002b00d139e70021b4
:1006e800049b30190170652b25d1189b013bf154ef
:1006f8008f4201da7f420131002f00d031e7189a8a
:100708009a1a0332002a00dd2be75d1e2d2201b95b
:10071800023a7255139a023b413a192a01d84522e6
:100728000492049af1180a70039a023a03929c42be
:1007380001da01f0fcfe03230a9a1340022b00d0d1
:1007480012e6039b002b00dc0ee6300001f05afe97
:10075800099b834200dc11e7f018039a302101f06d
:1007680091fe00230b93ffe50123029376e606230f
:10077800fbe70c9b672bfad004930623029319e737
:0c0788000000f03f00002440000014407e
:020000040000fa
:100794000023f0b506001500b1b007910393079943
:1007a4000b78002b00d10ae101235b420c9310abc0
:1007b40000240e9380230b940d940f930b5d0bb1c7
:1007c400252b29d134b12200300001f09efd079b76
:1007d4001b190793079b1a78252a00d0e4e040f2fe
:1007e400020c01211027013304930793079803781f
:1007f4002b2b1ad025d8202b1ad0232b1dd02a2bf3
:1008040028d001f0e4fb0d90079b1a78303a092aae
:1008140031d801330793f7e70134cfe70b9b0593f6
:100824000b4301300b930790e0e704230b9a0fe08e
:100834000b9b0593059a08230ae00b9b05933b4306
:10084400efe72d2bead0302bd9d162460b9b0593d1
:100854001343e6e72b6801301a1d1b6807902a60d2
:100864000d93002b07da0b9a5b420592012205993e
:100874000d934a400b920b9bda0702d50222934355
:100884000b93079b1a782e2a0ed10022581c0c9227
:1008940007905a782a2a27d1023307932b681a1d06
:1008a4001b682a6005930c9307a801f05bfc079b67
:1008b4000700187801f036fe692800d182e034dca4
:1008c400632800d1d7e01adc252800d1e4e06128b0
:1008d40058d0049b01220793002352420c920b939d
:1008e4000d9300930232e1e001f071fb0c90079b41
:1008f4001a78303a092ad7d801330793f7e76428de
:1009040060d06728e5dc2a00390008a801f0d4fc8f
:10091400002800d1abe0079b0ba95a1c07921b7857
:1009240008aa3000fff7defc3de0702800d17be030
:1009340016dc6e2800d193e06f28cad12b00002268
:10094400390008a800f05ffe002800d18fe0079b63
:1009540008aa01330ba93000079301f0f6fd22e049
:10096400752840d078284ed07328b2d1802f00d07b
:100974007de0079b2a6801330793131d2b601268df
:10098400002384e02a00390008a801f095fc00281f
:1009940000d16ce0079b0ba95a1c07921b7808aa8c
:1009a400300001f0d4fd2418039b1c19a34200dc81
:1009b4007ee04f223f4b1a6001235b42039303986e
:1009c40031b0f0bd2b000122390008a800f01bfe55
:1009d40000284cd0079b08aa01330ba930000793c9
:1009e40001f0b3fddfe72b000022390008a800f076
:1009f4000afee0b3079b08aa01330ba93000079352
:100a040001f0a3fdcfe72b000022390008a800f075
:100a1400fafd60b3079b5a1c07921b7808aa0ba91e
:100a2400300001f094fdbee72b000022f02108a85d
:100a340000f0e9fdd8b1079b099a01330793089b9d
:100a440013435bb91c4801f0dffc02000b9b1a49fd
:100a540000930d9b300000f0a8ffa4e77823dde7a6
:100a6400039b39001a1908a82b0001f085f8079b8d
:100a74000133079398e7802ff9d1079b013307933c
:100a84002b681a1d1b682a6008aa137001230ba97e
:100a9400300001f05efd86e7802fe8d10122079b3c
:100aa400013307930b9b049300930d9b0349d1e7f8
:100ab400039474e6d8000020422500004825000075
:020000040000fa
:100ac40010b541f20043c4f200239b7d43b340f2ce
:100ad4008003c2f200039c6a41f20043c4f2002383
:100ae4005b8b9b071dd540f28003c2f200032022da
:100af400ff2199540132fd39995440f28003c2f226
:100b0400000320229b5c5bb2013300d1e5e040f29c
:100b14008003c2f2000320229b5c062b00d108e173
:100b240010bd41f20043c4f200235b8bdb070ad5fe
:100b340040f28003c2f200032022ff2199540132c3
:100b4400fd399954d9e741f20043c4f200235b8b89
:100b54005b070ad540f28003c2f200032022ff2182
:100b640099540132fe399954c7e740f28003c2f226
:100b7400000320229b5c5bb2032b78d0042b1bd098
:100b8400022bbad140f28003c2f200031b694bb1bd
:100b940040f28003c2f20003988880b2002100f082
:100ba40041ffaae740f28003c2f20003988880b2b2
:100bb400012100f037ffa0e740f28003c2f20003f6
:100bc4009a691b69934218d040f28003c2f2000371
:100bd4009b68995c41f20043c4f200239962511c62
:100be40041f20042c4f20022d369002bfcd140f24e
:100bf4008003c2f2000399617fe740f28003c2f2ee
:100c040000035b69dbb140f28003c2f200039b88fe
:100c14005b000122134341f20042c4f200225362fa
:100c240041f20042c4f20022d369002bfcd140f20d
:100c34008003c2f200032022032199545de741f2ac
:100c44000043c4f200235968c02292020a435a6046
:100c540041f20042c4f20022d369002bfcd140f2dd
:100c64008003c2f2000320220621995445e740f292
:100c74008003c2f20003d9695b69013b8b4214d043
:100c840041f20042c4f20022d369002bfcd141f2ac
:100c94000043c4f20023986a40f28003c2f20003c6
:100ca400da6850540131d96127e741f20043c4f2b4
:100cb40000235868e022d20202435a6041f2004203
:100cc400c4f20022d369002bfcd140f28003c2f2ab
:100cd4000003202206209854d2e740f28003c2f297
:100ce40000030021995441f20043c4f200235968df
:100cf400c02292020a435a6041f20042c4f2002226
:100d0400d369002bfcd141f20043c4f200239b229f
:100d14001a7640f28003c2f200035b6a002b00d112
:100d2400fee640f28003c2f200035b6a20009847ab
:100d3400f6e640f28003c2f20003002220215a5456
:100d440001315a5441f20043c4f200239b321a7613
:100d540041f20042c4f200220f31538b0b40102b9e
:100d6400fbd140f28003c2f200035b6a002b00d186
:100d7400d6e640f28003c2f200035b6a2000984783
:020d8400cee6b9
:020000040000fa
:100d8600f0b40125ed070f005f405ad48b4200d125
:100d9600824205d950404240504059404b4059404c
:100da6004e18760ddf187f0d3bd0741c640529d0d4
:100db600f41b352c26d80e0ddb022b43db0ac902a9
:100dc6002943c9121700202c1ed2e741e2405740a2
:100dd600e3415a40a340e3405a4000248018594159
:100de6000ad3b21c520521d0c207012f6241170057
:100df6004008cb0718434908013636054208af417b
:100e060060417141f0bc7047203c06d01f00e741ad
:100e1600e3405f400024012a6741c0186141ebd3db
:100e2600dfe7002eeed129400020ebe70136310541
:100e36000020e7e7e742e5d10020c143090dc904d8
:100e4600e0e76b400e00871a9e4104d26e40c01b3d
:100e5600b141d21973414e18df18ac0ae642e9d205
:100e6600760d7f0d31d0f41b362ccbd8b4460e0d43
:100e7600db022b43db0ac9022943c90a012c32d8fb
:100e860004d1d4075208df073a435b08ef0a6442ed
:100e9600904199411ed0002239424dd1241940413a
:100ea60049410124394204d10134001849413942eb
:100eb600fad06246a24204d9361b013e360589198c
:100ec600a0e7f10ac90700209ce736429ad1002024
:100ed600002197e70200224394d0b842ded20100f7
:100ee60020002024e3d1202c13dd203ce241170012
:100ef600a240e2405740e3415a40a340e3405a40f3
:100f0600012fbf410137174300227c42984191418e
:100f16000ce01700e741e2405740e3415a40a34046
:100f2600e3405a407c429041994100220f0303d28c
:100f3600013e241940414941013e36054708ac416e
:080f460050417141f0bc7047fd
:020000040000fa
:100f4e0006d128b9f54203d800d30ab96d0d09d1df
:100f5e000020c143090dc904f0bdf9d11242f7d1e9
:100f6e00640df5d00020c14349054908a6e00020d4
:100f7e006146f0bdf0b50127ff070e005e403e4012
:100f8e00b446be0a4c18dd18f442d9d2f542e4d26a
:100f9e00640decd06d0dead06419c9023943460dcb
:100fae00c0023143db023b43db0a10b48e4685b2ee
:100fbe0097b26f43140c6c433e0ca419260c2404f8
:100fce00bfb227439cb26c43a419190c6943250c7c
:100fde00a4b249190d04090c6419000c95b24543cd
:100fee003e0c76193743bfb2360c150c4543ad197e
:100ffe00a6b2240cad192e0437432e0c36199db211
:10100e004543ad19acb22e0c89191d0c45436d1814
:10101e002e04290c3443704680b295b245433e0ce3
:10102e0076193743bfb2360c150c4543ad19a6b22f
:10103e00ad19240c2e0437432e0c36199db24543a0
:10104e00ad19acb22e0c89191d0c45436d182e042a
:10105e003443290c75462d0c90b268433e0c801912
:10106e000604bfb23e43070ca0b23f18120c6a43ef
:10107e00d019020c80b2240ca4189ab26a43121929
:10108e0014042043120c89181b0c6b43c91810bc96
:10109e0001273d05294203d1b61940414941013c82
:1010ae00ff077d0d013d641b0bdb6d00ac4209dac1
:1010be00240500254208be41684161416646314320
:0610ce00f0bd54e74ee7ff
:020000040000fa
:1010d400f0b59bb08023db021c68002001f00df802
:1010e400631c0fd084f388880423c0f204031b68b4
:1010f4001993199c64086400200021002200230035
:1011040001f064f843f20023c4f2000348f2000241
:101114009a6040f2e83000f004fcb121212001f093
:101124002cf941f2883000f0fcfb06ad2c000027be
:10113400c4f2c8270ae043f20023c4f2000348f2d1
:1011440000025a6141f2883000f0ebfb0521ec20eb
:1011540001f013f9012000f0e4fb0c21200001f060
:10116400daf90028e7d0287800026b78184301f0f8
:10117400e0f800f047fe0490059142f29026c0f298
:101184000006a8790002eb79184301f0d2f8391c63
:1011940000f0def9de21890500f0daf900f032fe14
:1011a40002900391e87800022b79184301f004f9c6
:1011b40000224ef20003c4f26503fff7e0fe0022b2
:1011c4000023c3f6f063fff7dafe002248f20003bf
:1011d400c4f2460301f075f900f066fd00f012fe5a
:1011e40000900191049a059b310009a801f018f9b7
:0811f40009a801f0b1f8a5e71c
:020000040000fa
:1011fc0041f20003c4f200030220187641f20041d0
:10120c00c4f2000100220a7441f60001c4f200018c
:10121c0008621a8641f20002c4f2000280214904dd
:10122c0013690b42fcd046f22003c0f280031b680a
:10123c005b009b0e9b0240f200221343d200c4f2cf
:10124c000002536341f20002c4f2000280214904ff
:10125c0013690b42fcd041f20003c4f200030222da
:10126c001a86d202c4f200028021490413690b428f
:10127c00fcd041f60043c4f2000340f20712c0f266
:10128c0001021a6241f60042c4f2000204215368c2
:10129c001942fcd141f60043c4f20003d022402194
:1012ac00995041f60042c4f20002d0201358194262
:1012bc00fcd041f60043c4f20003d42240219950e3
:1012cc0041f60042c4f20002d42013581942fcd05b
:1012dc0041f60043c4f20003e4224021995041f648
:1012ec000042c4f20002e42013581942fcd07047ab
:020000040000fa
:1012fc00f0b5ce46474680b5bff35f8f62b64ef26f
:10130c000013cef2000340f228315a581202120a8e
:10131c00c020000602435a5040f600025a6040f2c8
:10132c002c32995840f2ff094c46a14340f2c008b8
:10133c0044462143995041f2000159609958214c7f
:10134c00a44621404cf200073943995042f2000167
:10135c0059609c581c4d2c40c02109040c439c50d6
:10136c0044f200045c609e583602360a06439e50d6
:10137c0048f200025a6040f230329c58484684438e
:10138c00404604439c508020400258609858644664
:10139c00204038439850802080025860985828404c
:1013ac00084398508022d2025a6040f238301a58c2
:1013bc001540294319508022d2045a600cbc904627
:0c13cc009946f0bdff00ffffffff00ff8f
:020000040000fa
:1013d800f0b40125ed070c005c402c40a446ae0a91
:1013e8004c18df18f4423dd2f74244d2640d4ad07b
:1013f8007f0d3bd0e41bc9022943cf0adb022b43f4
:10140800db0a0600b61a9f4104d2013cb6197f4197
:10141800b6185f416812800d241836dd0018844222
:1014280024d8e80c0021b6197f41b61a9f4103d38e
:1014380040414941f7d304e0b6185f4100184941db
:10144800f1d32405b6197f41b61a9f4105d3374316
:10145800c20717430022012f5041614162461143e0
:10146800f0bc70470ad148b9f74207d20020c143ff
:10147800490d0905f2e70ab9f74206d00020c14331
:10148800090dc904ece77f0df8d000206146e7e7b5
:020000040000fa
:1014980040f2fd724b005b0df0b55c1e944242d8e1
:1014a800284a9e182ad4332e27dc274a9b182ed484
:1014b800120cc0f20f02da404ff6ff730700c0f2b9
:1014c8000f039743f3403c000f00024019409f432d
:1014d8000a433d007ab1002f0dda20235b42f11850
:1014e80029d480204003c840020080214903f140ec
:1014f8000b00a4185d4120002900f0bd0020002940
:1015080001db0021f9e70021cbf6f071f5e7202295
:101518004ff6ff73921bc0f20f0393400122524211
:10152800f2401a43c8e7002be7d10022c90fcb07c6
:1015380010001900e1e720218020891b4003884022
:0c1548000200d2e701fcffffe1fbffff07
:020000040000fa
:1015540030b405004d400124e407254042004b000f
:10156400120e32d01b0e3cd0ff2a33d0ff2b3fd0bb
:10157400d21800022043000a09022143090ac4b216
:101584004c43000ac3b24b43000a4843210a5b1888
:10159400190a091801d44900013a080a7f3a2adbda
:1015a400fe2a0fd2d2051c43240601d00124214374
:1015b400c9b280295041802901d140084000284304
:1015c40030bc7047ff20c005f9e71b0eff2b0ad083
:1015d4002800f5e7400206d1ff2bf3d1490202d1de
:1015e400f0e7ff2af4d17f2000010c300005e7e783
:1015f4004902f8d1e6e743020132e9d15b12023332
:06160400e6d9d805e4e779
:020000040000fa
:10160a0010b588293ad014dc81294ad003dc802914
:10161a0047d0002010bd822910d08429f9d1196839
:10162a002ab30a1d1a6000228b5e0360db1743602f
:10163a0010e0a0292ed00fdc9029ead119680724de
:10164a006ab30919a1430a0008321a600b684c6888
:10165a00036044600120dde7c02901d0f029d8d118
:10166a001a68111d1960136803600023dfe70c1d57
:10167a001c600b689bb203604260ebe7196822b1f9
:10168a000a1d1a600023cb56cfe70c1d1c600b689d
:10169a00dbb2f0e71a68111d19601368c5e7073154
:1016aa00d0e719681ab10a1d1a600b68bde70c1d4c
:0616ba001c600b68dfe775
:020000040000fa
:1016c00070b540f25003c2f200031b7d002b4ad0dc
:1016d00040f25002c2f200029368516841f20002e7
:1016e000c4f20022127ed2071fd599421dd941f2c1
:1016f0000001c4f20021072640f25000c2f20000af
:10170000012509e00268d25c8a62013344680a7ede
:101710002a420ad09c4208d94a683240012af1d1b3
:1017200002685c00a25a8a62efe740f25002c2f2fd
:101730000002936052689a4215d840f25003c2f2f8
:10174000000300221a755a6041f20002c4f200221e
:1017500001211175db6833b140f25003c2f200037e
:081760001869db68984770bdb1
:020000040000fa
:1017680010b540f25003c2f200032c229b5c33b345
:1017780040f25003c2f20003da691b6a93421ed298
:1017880040f25003c2f20003986a41f20002c4f228
:101798000022916a1b6a546807222240012a0fd04e
:1017a80040f25002c2f200029269d154013340f271
:1017b8005002c2f200021362d2699a4208d010bde8
:1017c80040f25002c2f2000292695c00a152ede7b9
:1017d80040f25003c2f2000300222c215a54da616d
:1017e80041f20002c4f20022583111755b6a002be5
:1017f800e5d040f25003c2f200035b6a9847dee787
:020000040000fa
:1018080041f20043c4f2002301221a6041f200426f
:10181800c4f20022d369002bfcd141f20043c4f288
:10182800002340f200125a6041f20042c4f2002242
:10183800d369002bfcd141f20043c4f20023e82213
:10184800da60d23ac0f210021a6041f20042c4f2e1
:101858000022d369002bfcd141f20043c4f20023db
:1018680010225a8341f20042c4f20022d369002bad
:10187800fcd140f28003c2f20003002221215a5415
:1018880001395a5441f20043c4f200239b329a753d
:02189800704797
:020000040000fa
:10189a0070b5002840d040f25003c2f200031a7d0e
:1018aa000023babb40f25003c2f200031860596029
:1018ba0001321a755c6841f20003c4f200231b7ef0
:1018ca00db0718d5d4b1002341f20001c4f200218c
:1018da000726012507e0c25c8a6201330a7e2a4292
:1018ea000bd09c420ad04a683240012af3d15a00ee
:1018fa00825a8a62f1e7002400e01c0040f2500399
:10190a00c2f200039c6041f20003c4f200230122e8
:0c191a009a750123180070bd0023fbe744
:020000040000fa
:1019260010b540f2dc03c2f2000301221a7042f63f
:101936000003c4f200231a6802218a431a6042f6a1
:101946000002c4f2002293681942fcd100f033fd74
:10195600002247f20003c4f24703fff70ffb00f033
:1019660065fc42f60003c4f20023186442f6000246
:10197600c4f200229368002bfcd142f60003c4f2a5
:1019860000231a6802210a431a6042f60002c4f2d2
:10199600002293681942fcd140f2dc02c2f2000236
:0819a6001378002bfcd110bde9
:020000040000fa
:1019ae00f0b51d00012389b014000e9a06001a40ee
:1019be00039102920ab9a5420ad822000399300077
:1019ce0000f09efca54203d82500280009b0f0bd0a
:1019de002f1b01973a00102f00d91022202104a8a6
:1019ee0000f04dfd019b0f2b0ed80f2204a93a409b
:1019fe00300000f085fc029b002be6d122000399fb
:101a0e00300000f07dfce0e7102204a9300000f069
:0a1a1e0077fc019b103b0193e4e705
:020000040000fa
:101a280010b540f28003c2f2000300229a61da6125
:101a380041f20043c4f200239b321a765a68144cd0
:101a480022405a6041f20042c4f20022d369002bbe
:101a5800fcd1a9b140f28003c2f200032022032482
:101a68009c544000084341f20043c4f200235862ea
:101a780041f20042c4f20022d369002bfcd110bd10
:101a880040f28003c2f20003202204249c54e8e7b9
:041a9800fffffbff52
:020000040000fa
:101a9c0041f20003c4f2002340f20412c4f200022b
:101aac001a60164a9a81c02292025a6041f20002d0
:101abc00c4f20022d369002bfcd141f20003c4f222
:101acc0000231a6802210a431a6041f20002c4f290
:101adc000022d369002bfcd140f25003c2f2000368
:101aec0000229a61da611a622c215a545a621a60e5
:101afc005a609a601a75da60da857047b6fcffff97
:020000040000fa
:101b0c00ac0000201c000000000000008000002041
:101b1c002c000000000000005000002030000000ed
:101b2c0000000000c80000200800000000000000b9
:101b3c00dc0000200100000000000000d0000020ac
:101b4c000400000000000000000000205000000015
:101b5c0000000000d400002008000000000000007d
:101b6c000000000000000000666666666666666639
:020000040000fa
:101b7c0010b584291fd007dc812915d0822922d0e9
:101b8c00802911d0002010bd90291cd008dc882998
:101b9c00f8d119680c1d1c600b6803601a7010e0fa
:101bac00a02901d0c029edd119680c1d1c600b684f
:101bbc0003601a6005e019680c1d1c600b6803605b
:101bcc001a800120dfe719680c1d1c600b6803608c
:081bdc001a60d2175a60f4e709
:020000040000fa
:101be40010b541f20003c4f200239b7d1bb341f204
:101bf4000002c4f20022137edbb2927d52b2002aac
:101c04001adb41f20003c4f200231a7ed2b29b7d98
:101c1400db0703d5d30701d5fff750fd41f20003dd
:101c2400c4f200231a7ed2b29b7d5b0703d553070f
:101c340001d5fff797fd10bd5bb2002be1da00f090
:041c440025f9dee7b9
:020000040000fa
:101c480042f60003c4f2002301221a6042f60002a1
:101c5800c4f20022012193681942fcd142f6000324
:101c6800c4f2002340f200721a600021d9630422f2
:101c78005a7149f28632c0f203021a644ff60f42d3
:101c8800c0f20f02da6240f2c802c2f2000211602a
:101c980001229a6242f60002c4f200229368002be5
:041ca800fcd17047b4
:020000040000fa
:101cac004b1801225205da4217d25b0d0722d201e2
:101cbc009b1a0fd9ff2b12d2db05ca0fd207134385
:101ccc000903020d1143490ac200524100d90131e6
:101cdc00c8187047c80fc007704705d120b9c80f86
:101cec000002ff30c00570470123db070a00c90062
:101cfc00400f084398431a4010435b0a184370473f
:020000040000fa
:101d0c0000230e4a10b513600d4a0e4c13600e4a98
:101d1c0013600e4a13600e4a13600e4a536213612d
:101d2c000133936000f015fc00f013fc0a4b9c424d
:101d3c0000d310bd08cc9847f8e7c046d40000206b
:101d4c000c000020d402000008000020000000203d
:0c1d5c000400002010000020d80200004d
:020000040000fa
:101d680010b542f23313c0f20003984742f233131e
:101d7800c0f20003984700f0d9f940f20003c0f21e
:101d880000037f2293434ef60052cef20002936086
:101d980041f60d53c0f20003984742f23313c0f2e4
:101da8000003984742f23313c0f200039847fff745
:041db8008df9fee7bc
:020000040000fa
:101dbc0030b51500012289b0524201920432ff3233
:101dcc00029200b9684603900491002401b14c1ea4
:101ddc000594002906da4f220120074b40421a6075
:101dec0009b030bd00220790027006901a0029003d
:0c1dfc0001a800f0f8faf3e7d80000207e
:020000040000fa
:101e080041008c46012212068a420bd80909382360
:101e18001b06c918c30fdb07194340076346da429c
:101e280004d27047c10fc9070020704703d1382377
:101e38001b06c918704738231b06c9180122d2048b
:041e4800114370478b
:020000040000fa
:101e4c0030b401256d054c00e54215d85c00e54227
:101e5c0012d80c001c436400044314430fd005d269
:101e6c0082428b418041013030bc70479042994195
:101e7c008041013030bc7047002030bc70470120dd
:041e8c0030bc7047af
:020000040000fa
:101e900010b541f20003c4f200235b8b072213400c
:101ea00003b910bd40f25004c2f20004e38500f013
:101eb0000af941f20003c4f2002384221a752c238c
:101ec0000022e254636a002bebd0a06a636a984751
:021ed000e7e742
:020000040000fa
:021ed200704757
:020000040000fa
:101ed40010b5054c227832b9044b13b1044800e024
:101ee40000bf0123237010bdac00002000000000df
:101ef40000000000034b10b51bb10349034800e088
:101f040000bf10bd00000000b00000200000000071
:020000040000fa
:101f140010b5040040f28003c2f2000320201b5cd1
:101f2400002003b110bd40f28003c2f200039c8084
:101f3400d9605a6100229a601a61012199701a705d
:101f440020315a5420392000fff76cfd0120e9e7c5
:020000040000fa
:101f540010b540f2c803c2f20003596842f6000209
:101f6400c4f20022d06a4ff60f44c0f20f04d462c8
:101f7400d26a1b682bb140f2c803c2f200031b688b
:101f8400984740f2dc03c2f2000300221a7010bd2d
:020000040000fa
:101f940070b5050040f28003c2f2000320201b5cf0
:101fa400002003b170bd40f28003c2f200039d80a3
:101fb4000024dc605c6199601a619c701c702122b1
:0e1fc4009c5400212800fff72dfd0120eae7c4
:020000040000fa
:101fd200030010b51a78202a0dd0110009390429fe
:101fe20009d900212b2a02d02d2a01d10131013336
:101ff20000200a2404e00133ece760430133801a35
:0e2002001a78303a092af8d901b9404210bdc7
:020000040000fa
:1020100030b401256d054c00e54215d85c00e54261
:1020200012d80c001c436400044314430cd005d2a6
:1020300082428b418041404230bc7047904299417e
:0e2040008041404230bc7047002030bc7047e9
:020000040000fa
:10204e0030b401256d054c00e54215d85c00e54223
:10205e0012d80c001c436400044314430cd005d268
:10206e00904299418041404230bc704782428b4140
:0e207e008041404230bc7047002030bc7047ab
:020000040000fa
:10208c0040f20043c4f2000300221a819a79012124
:10209c000a439a719b7803221340022b0cd040f216
:1020ac000043c4f20003013a9a705202c4f20002d7
:0a20bc00012193790b42fcd070471c
:020000040000fa
:1020c60041f20003c4f200235b8b5b0713d041f29d
:1020d6000003c4f2002380221a76793a5a831b7ec3
:1020e6005b0708d541f20003c4f2002304219a6a73
:0820f6001a7e0a42fbd170477b
:020000040000fa
:1020fe0010b5fff7c4ff45f20003c4f2001304222b
:10210e005a6000f077f8fff772f8fff7c0fc00f0a6
:10211e00caf9fff792fdfff7d5fefff76efbfff74b
:04212e00e6f810bd02
:020000040000fa
:022132007047f4
:020000040000fa
:1021340010b50a48016821b9436813b900f00cfad4
:1021440010bd04008368064a9bb20c349b009b5864
:1021540042682000984780002018ebe70c1b000021
:042164005024000003
:020000040000fa
:1021680070b5040000200a4b4200d55c15b9d2189e
:10217800507870bd216801300e78c0b2ae4204d1eb
:10218800034b0131d218507821600a28ebd9f0e7c7
:042198003a240000e5
:020000040000fa
:10219c00f4464a1805d200f048f801d5c01740089b
:1021ac00604701235b05d34206d200f03ef801d50f
:1021bc000120c0074042604701d10042f5d0d01742
:0421cc004008704710
:020000040000fa
:1021d000e0b545464e465746e0b45d4620b4254638
:1021e00026462746a046a146a246a346a44684f317
:1021f0000088a44720bcab46e0bcba46b146a8461e
:02220000e0bd3f
:020000040000fa
:1022020010b543f20023c4f2000301224c215a54b8
:1022120001315a543320173958540021d966c82441
:102222001a5501341a55b33298543832995010bda8
:020000040000fa
:102232004a0010d2520d03231b02ff33d21a0ad4d2
:1022420052421f3209d4400dc90208430123db0761
:0e2252001843d040704700207047d0177047e7
:020000040000fa
:1022600070b4012676054c005d00e6420cd8ee42c3
:102270000ad825430543154303d0994204d190421f
:0e22800002d1012070bc7047002070bc704776
:020000040000fa
:02228e00fee769
:020000040000fa
:10229000434f323a20252e30662070706d2c20542a
:1022a000656d703a20252e3266432c2048756d3ab4
:0c22b00020252e326625250d0a00c046b0
:020000040000fa
:1022bc00002380290fdb812901dd83290bd1072124
:1022cc00136807338b431900083111601a685b6877
:0a22dc000260436001231800704700
:020000040000fa
:1022e60040f28003c2f2000320229b5c012053b916
:1022f60041f20043c4f20023588b302318401038b3
:08230600431e9841c0b270476c
:020000040000fa
:10230e0070b505690400954200d915005db12a002b
:10231e00606900f0a0f8226963695b19551b002201
:08232e00636125611a7070bda6
:020000040000fa
:10233600c20f12029d3201000cd001d5494202d4cf
:10234600013a4900fcd5d205080a0906494100d3dd
:062356000129504170470f
:020000040000fa
:10235c0010b5040003785bb101212000fff797fa58
:10236c0000f0cef80028fbd101342378002bf3d1f8
:02237c0010bd92
:020000040000fa
:10237e0000b583b001ab18705970022219006220ab
:10238e00fff701fefff7a8ff0028fbd103b000bd49
:020000040000fa
:10239e00002310b5934206d103201840421e9041ef
:0e23ae009b08c01810bdc45ccc540133f2e78c
:020000040000fa
:1023bc0042f2d933c0f20003004206d5404200b5c8
:0c23cc00984708bc0122d20711431847b3
:020000040000fa
:1023d80040f21d42010007d002d4013a0018fcd592
:0a23e8001205c30a4005991870475a
:020000040000fa
:1023f20013b50400019201aafef7cbf96368db066c
:0824020001d50120404216bd86
:020000040000fa
:02240a00fee7eb
:020000040000fa
:10240c00037833b1030001331a78002afbd1181a70
:08241c0070470020fce7c046f8
:020000040000fa
:102424000eb403b503aa02ca019200f023f802b065
:0624340008bc03b01847cc
:020000040000fa
:10243a0068076c094c836a9074a07ac00080688827
:06244a0000846c82008199
:020000040000fa
:10245000d92400009f2300004b2500004b250000dd
:042460004b25000008
:020000040000fa
:1024640010b52ab10023cc5cc45401339342fad191
:0424740010bdc04691
:020000040000fa
:1024780010b513000a000249fff79cfc10bdc046c6
:04248800ffffff7fd4
:020000040000fa
:10248c0032b10300c9b28218197001339342fbd1e7
:04249c007047c0467f
:020000040000fa
:1024a00003000a7818001a7001310133002af8d1ac
:0424b0007047c0466b
:020000040000fa
:1024b40045f20003c4f2001306225a60053a1a7268
:0224c40070475f
:020000040000fa
:1024c600f0b40125ed076b4040f68d54c0f20004d0
:0224d60020479d
:020000040000fa
:1024d8008a18914201d10020704700230b70013106
:0224e800f7e714
:020000040000fa
:1024ea00494e4600696e66004e414e006e616e00ae
:020000040000fa
:0224fa00fee7fb
:020000040000fa
:1024fc0010b5fef740fd029a039bfef73efc10bda3
:020000040000fa
:0e250c0040f25003c2f20003187dc0b27047c7
:020000040000fa
:0e251a0010b50a0001006220fff7f7fc10bdab
:020000040000fa
:0e2528000300413b192b01d8202318437047b4
:020000040000fa
:0c25360010b50400fff7b1ff200010bd3d
:020000040000fa
:08254200286e696c29002500d8
:020000040000fa
:04254a0000207047b6
:020000040000fa
:04254e0000207047b2
:020000040000fa
:0425520000207047ae
:020000040000fa
:0425560000207047aa
:020000040000fa
:02255a00fee79a
:020000040000fa
:02255c007047c6
:020000040000fa
:02255e007047c4
:020000040000fa
:020000040003f7
:08fe00007fe97fe9c0f758ba61
:020000040000fa
:0200000400807a
:0440000077438fb0c3
:020000040000fa
:0200000400807a
:04400400bbf0ffff0f
:020000040000fa
:0200000400807a
:04400800008430f010
:020000040000fa
:0200000400807a
:04400c0000ffffffb3
:020000040000fa
:0200000400807a
:0440100000000000ac
:020000040000fa
:0200000400807a
:0440140002000000a6
:020000040000fa
:0200000400807a
:0440180000000000a4
:020000040000fa
:0200000400807a
:04401c0000000000a0
:020000040000fa
:0200000400807a
:04402000b67376e815
:020000040000fa
:0200000400807a
:04c00000ffff07f047
:020000040000fa
:0200000400807a
:04c004000000e8ff51
:020000040000fa
:0200000400807a
:04c00800cc9a34c0da
:020000040000fa
:0200000400807a
:04c01000ffffffff30
:020000040000fa
:0200000400807a
:04c01400ffffffff2c
:020000040000fa
:0200000400807a
:04c01800ffffffff28
:020000040000fa
:0200000400807a
:04c01c00ffffffff24
:020000040000fa
:0200000400807a
:04c02000ffffffff20
:020000040000fa
:0200000400807a
:04c02400ffffffff1c
:020000040000fa
:0200000400807a
:04c02800ffffffff18
:020000040000fa
:0200000400807a
:04c02c00ffffffff14
:020000040000fa
:0200000400807a
:04c03000ffffffff10
:020000040000fa
:0200000400807a
:04c03400ffffffff0c
:020000040000fa
:0200000400807a
:04c03800ffffffff08
:020000040000fa
:0200000400807a
:04c03c00ffffffff04
:020000040000fa
:0200000400807a
:04c04000ffffffff00
:020000040000fa
:0200000400807a
:04c04400fffffffffc
:020000040000fa
:0200000400807a
:04c04800fffffffff8
:020000040000fa
:0200000400807a
:04c04c00fffffffff4
:020000040000fa
:0200000400807a
:04c05000fffffffff0
:020000040000fa
:0200000400807a
:04c05400ffffffffec
:020000040000fa
:0200000400807a
:04c05800ffffffffe8
:020000040000fa
:0200000400807a
:04c05c00ffffffffe4
:020000040000fa
:0200000400807a
:04c06000ffffffffe0
:020000040000fa
:0200000400807a
:04c06400ffffffffdc
:020000040000fa
:0200000400807a
:04c06800ffffffffd8
:020000040000fa
:0200000400807a
:04c06c00ffffffffd4
:020000040000fa
:0200000400807a
:04c07000ffffffffd0
:020000040000fa
:0200000400807a
:04c07400ffffffffcc
:020000040000fa
:0200000400807a
:04c07800ffffffffc8
:020000040000fa
:0200000400807a
:04c07c00ffffffffc4
:020000040000fa
:0200000400807a
:04c08000ffffffffc0
:020000040000fa
:0200000400807a
:04c08400ffffffffbc
:020000040000fa
:0200000400807a
:04c08800ffffffffb8
:020000040000fa
:0200000400807a
:04c08c00ffffffffb4
:020000040000fa
:0200000400807a
:04c0e000ffffffff60
:020000040000fa
:0200000400807a
:04c0e400ffffffff5c
:020000040000fa
:0200000400807a
:04c0e800ffffffff58
:020000040000fa
:0200000400807a
:04c0ec00ffffffff54
:020000040000fa
:0200000400807a
:04c0f000ffffffff50
:020000040000fa
:0200000400807a
:04c0f400ffffffff4c
:020000040000fa
:0200000400807a
:04c0f800ffffffff48
:020000040000fa
:0200000400807a
:04c0fc00ffffffff44
:00000001FF
