:020000040000fa
:10000000f07f002057120000071400005315000075
:1000100000000000000000000000000000000000e0
:100020000000000000000000000000000f100000b1
:1000300000000000000000000f1000000f10000082
:100040000f1000000f1000000f1000000f10000034
:100050000f1000000f1000000f1000000f10000024
:100060000f1000000f1000000f1000000f10000014
:100070000f1000000f1000000f1000000f10000004
:100080000f1000000f1000000f1000000f100000f4
:100090000f1000000f1000000f1000000f100000e4
:1000a0000f1000000f1000000f1000000f100000d4
:1000b0000f1000000f1000000f1000008110000052
:1000c0008110000081100000811000000f1000005e
:1000d0000f1000000f1000000f1000000f100000a4
:1000e0000f1000000f1000000f100000e5100000be
:1000f000e5100000e5100000e51000000f10000002
:100100000f1000000f1000000f1000000f10000073
:100110000f1000000f1000000f1000000f10000063
:100120000f1000000f1000000f1000000f10000053
:100130000f1000000f1000000f1000000f10000043
:100140000f1000000f1000000f1000000f10000033
:100150000f1000000f1000000f100000f07f0020b3
:1001600057120000071400005315000000000000a3
:10017000000000000000000000000000000000007f
:1001800000000000000000000f1000000000000050
:10019000000000000f1000000f1000000f10000002
:1001a0000f1000000f1000000f1000000f100000d3
:1001b0000f1000000f1000000f1000000f100000c3
:1001c0000f1000000f1000000f1000000f100000b3
:1001d0000f1000000f1000000f1000000f100000a3
:1001e0000f1000000f1000000f1000000f10000093
:1001f0000f1000000f1000000f1000000f10000083
:100200000f1000000f1000000f1000000f10000072
:100210000f1000000f1000004717000047170000e4
:1002200047170000471700000f1000000f100000d4
:100230000f1000000f1000000f1000000f10000042
:100240000f1000000f1000004717000047170000b4
:1002500047170000471700000f1000000f100000a4
:100260000f1000000f1000000f1000000f10000012
:100270000f1000000f1000000f1000000f10000002
:100280000f1000000f1000000f1000000f100000f2
:100290000f1000000f1000000f1000000f100000e2
:1002a0000f1000000f1000000f1000000f100000d2
:0802b0000f1000000f10000008
:020000040000fa
:1002b800401801000200030084468ef3008874474a
:1002c800f8b5c046f8bc08bc9e4670472d1400001f
:1002d800f8b5c046f8bc08bc9e4670470914000033
:020000040000fa
:1002e800f0b58bb0040001910292242901d80129ac
:1002f80003d11622b64b1a6053e0e36be26c9342cb
:1003080022d25a1ce2631d78202df6d02b00093b1f
:10031800042bf2d90222223b9343002203925bb9b9
:100328002d3d6b425d416b420393e26ce36b93425c
:100338000fd25a1ce2631d78019be26c73b1102b3b
:1003480053d1302d0cd050e0200000f055ff0500af
:10035800dae7200000f050ff0500ede7302d42d12c
:10036800e36b934223d25a1ce2631d7820232b436c
:10037800782b2dd1e36be26c93421dd25a1ce263b9
:100388001d781022934b01925b5d0f2b00d8c4e0bf
:10039800e36c002b00d1a6e1029ae36b8ab1023b21
:1003a800e36300260027300039000bb0f0bd2000c1
:1003b80000f022ff0500d9e7200000f01dff05002e
:1003c800dfe7013be3630021200001f04ff9e8e794
:1003d800019b002b00d19ee0019b0a2b00d09ce0e2
:1003e800002302931ce00a2301937a4b01995b5d79
:1003f8008b42f1d312b1e36b013be3630021200090
:1004080001f034f975e70a23029a5343e26c5d1947
:10041800e36b303d0295934267d25a1ce2631d7824
:100428002b00303b092b03d86b4b029a9a42ead92e
:100438000027029e2b00303b0293092b33d8674bd1
:100448009f4213d802d1664b9e420fd800230a223e
:100458003000390000f06fff029b049300230593de
:10046800049bdb434a1c45d1984243d9594b019a16
:100478005b5d934217d2e36be26c934200d317e1c2
:100488005a1ce2631878534b019a1b5c9342f2d3cf
:10049800109e119f22224e4b1a600123109a13427c
:1004a80001d000230393e36c13b1e36b013be363d7
:1004b800119bbb4200d90ce103d1109bb34200d978
:1004c80007e10123109a134200d0f5e0039b002bab
:1004d80000d0f1e0222201267642f7173c4b1a6041
:1004e800109b119cf61867415de7200000f084fe20
:1004f800050095e7e36be26c049e059f36184f41b3
:10050800934203d25a1ce2631d7893e7200000f05f
:1005180073fe05008ee708230193019b5e1e33409e
:100528000293002b00d0bbe0019a173353432d4aa6
:100538001b065b0fd35c0493264b019a5b5d9a42c2
:1005480003d9294a029991422bd9049a01204042a1
:10055800c11701f097f80027029e089006911d4bdd
:100568005b5d0293029a019b934200d87ee7069b4b
:100578009f4200d97ae703d1089b9e4200d975e7cc
:10058800049a3000390001f089f8029be26c0343b9
:100598001e00e36b0f00934215d25a1ce2631d78cc
:1005a800dde7029e049a9640e26c1e43e36b0296d6
:1005b800934203d25a1ce2631d78bde7200000f085
:1005c8001bfe0500b8e7200000f016fe0500c6e790
:1005d80078100020ea0800009899991999999919b2
:1005e80099999999e0080000ffffff07029e019a78
:1005f8005643f3180293e26ce36b93424bd25a1cb6
:10060800e2631d783b4b019a5b5d9a4203d93a4af3
:1006180002999142ead90027029e364b5b5d02930c
:10062800029a019b934200d820e7bfb11a00002329
:100638003000190000f07ffe002304913a001900f1
:10064800019800f078fe049b089300230993089a08
:10065800099b80185941002900d007e73b00320068
:100668000198002100f067fe029b06930023079380
:10067800069bdb434a1c02d1984200d9f6e6069e47
:10068800079fe36be26c36184f4193420bd25a1c1a
:10069800e2631d78c1e7200000f0aefd0500b1e778
:1006a80000230293aee7200000f0a6fd0500b4e7a2
:1006b800200000f0a1fde6e6119b9f4203d808d177
:1006c800109b9e4205d9109e119f22220b4b1a6047
:1006d80069e6039b013300d065e633003c00002740
:1006e8005e42a7415fe6029b00260027002b00d050
:1006f80059e668e6ea080000c6711c077810002071
:020000040000fa
:10070800f0b5ce4600b5002000f0effe00f009fc81
:1007180000f040fc00f06eff40f2000941f26c0767
:10072800c2f2000740f20005c2f200053ce03b6857
:1007380040f20002c2f200029446634418006421a9
:1007480000f0d5fdb8b300e0c04600f0d8ff00289f
:10075800fad100f0e4ff70b33b689c46604438600f
:1007680040f2000927e0002101318e4217d040f203
:100778000003c2f20003cb181b78242bf4d1002904
:100788000ddb45dd761a40f20003c2f200039c46f9
:1007980061443200280000f0f1fe3e6038e000239a
:1007a8003b60012000f046ff00f0a9ff0028bed002
:1007b80040f2010ce1443b68002bf2d04b46c82bb9
:1007c80020d900233b6040f20009eae7002430e02a
:1007d8000134b44209d240f20003c2f20003e31824
:1007e8001b780d2bf4d00a2bf2d026005cbb00211d
:1007f800280000f055fb002855d03b681e1b002e32
:1008080060d13e603e68002ecbd02b78242baad135
:100818002b782a2bdad000240134b442c1d240f21a
:100828000003c2f20003e3181b782a2bf4d1631cdf
:10083800b7d0a31cb342b4d20334b442cbd3d4e769
:100848001e00002bd3d0731e40f20002c2f2000239
:100858009a1812780d2af3d00a2af1d0310028000c
:1008680000f01efbf8b1052ec7d941f23471c0f271
:1008780000010622280000f097fe0028bdd13100b3
:10088800280000f0c7fa00f042ff0028fbd041f230
:100898003c70c0f20000022100f0bcfa00f037ff03
:1008a8000028fbd0a9e73b681e1b0eb93e60a9e7ec
:1008b80040f20003c2f20003e1183200280000f001
:1008c8005dfef3e740f20003c2f20003e1183200d4
:0808d800280000f053fe94e734
:020000040000fa
:1008e000000102040703060500fffffffffffffff3
:1008f000ffffffffffffffffffffffffffffffff08
:10090000fffffffffffffffffffffffffffffffff7
:10091000ffffffffffffffffffff000102030405d2
:1009200006070809ffffffffffffff0a0b0c0d0e74
:100930000f101112131415161718191a1b1c1d1e4f
:100940001f20212223ffffffffffff0a0b0c0d0ecc
:100950000f101112131415161718191a1b1c1d1e2f
:100960001f20212223ffffffffffffffffffffffed
:10097000ffffffffffffffffffffffffffffffff87
:10098000ffffffffffffffffffffffffffffffff77
:10099000ffffffffffffffffffffffffffffffff67
:1009a000ffffffffffffffffffffffffffffffff57
:1009b000ffffffffffffffffffffffffffffffff47
:1009c000ffffffffffffffffffffffffffffffff37
:1009d000ffffffffffffffffffffffffffffffff27
:0a09e000ffffffffffffffffffff17
:020000040000fa
:1009ea0041f20003c4f200030220187641f20041ea
:1009fa00c4f2000100220a7441f60001c4f20001a7
:100a0a0008621a8641f20002c4f2000280214904f7
:100a1a0013690b42fcd046f22003c0f280031b6824
:100a2a005b009b0e9b0240f200221343d200c4f2e9
:100a3a000002536341f20002c4f200028021490419
:100a4a0013690b42fcd041f20003c4f200030222f4
:100a5a001a86d202c4f200028021490413690b42a9
:100a6a00fcd041f60043c4f2000340f20712c0f280
:100a7a0001021a6241f60042c4f2000204215368dc
:100a8a001942fcd141f60043c4f20003c4224021ba
:100a9a00995041f60042c4f20002c4201358194288
:100aaa00fcd041f60043c4f20003d0224021995001
:100aba0041f60042c4f20002d02013581942fcd079
:020aca00704773
:020000040000fa
:100acc00f0b5c64600b5bff35f8f62b64ef20013a9
:100adc00cef2000340f21c301a581202120ac02146
:100aec0009060a431a50802212061a6040f220327c
:100afc00985840f2ff084446a04340f2c00c6446ac
:100b0c00204398500120586098581b4f38404cf2a5
:100b1c00000630439850022058609858174d2840d2
:100b2c00c02424042043985004225a6040f22830f8
:100b3c001a581202120a0a431a5040f600025a605e
:100b4c0040f22c32985841468843614608439850ed
:100b5c0041f200015960995839403143995042f2a1
:100b6c000001596099580d402c439c5044f20002ee
:100b7c005a6004bc9046f0bdff00ffffffff00ff72
:020000040000fa
:100b8c0070b540f6f073c2f200031b7d002b4ad007
:100b9c0040f6f072c2f200029368516840f20042d3
:100bac00c4f20022127ed2071fd599421dd940f201
:100bbc000041c4f20021072640f6f070c2f200009a
:100bcc00012509e00268d25c8a62013344680a7e1e
:100bdc002a420ad09c4208d94a683240012af1d1f3
:100bec0002685c00a25a8a62efe740f6f072c2f229
:100bfc000002936052689a4215d840f6f073c2f224
:100c0c00000300221a755a6040f20042c4f200221e
:100c1c0001211175db6833b140f6f073c2f20003a9
:080c2c001869db68984770bdf0
:020000040000fa
:100c340070b541f22003c2f200031b7d002b4ad0a1
:100c440041f22002c2f200029368516841f20002ac
:100c5400c4f20022127ed2071fd599421dd941f257
:100c64000001c4f20021072641f22000c2f2000074
:100c7400012509e00268d25c8a62013344680a7e75
:100c84002a420ad09c4208d94a683240012af1d14a
:100c940002685c00a25a8a62efe741f22002c2f2c3
:100ca4000002936052689a4215d841f22003c2f2be
:100cb400000300221a755a6041f20002c4f20022b5
:100cc40001211175db6833b141f22003c2f2000344
:080cd4001869db68984770bd48
:020000040000fa
:100cdc0010b540f6f073c2f200032c229b5c33b3c8
:100cec0040f6f073c2f20003da691b6a93421ed21b
:100cfc0040f6f073c2f20003986a40f20042c4f26c
:100d0c000022916a1b6a546807222240012a0fd0e4
:100d1c0040f6f072c2f200029269d154013340f6ef
:100d2c00f072c2f200021362d2699a4208d010bd6e
:100d3c0040f6f072c2f2000292695c00a152ede73b
:100d4c0040f6f073c2f2000300222c215a54da61ef
:100d5c0040f20042c4f20022583111755b6a002b3c
:100d6c00e5d040f6f073c2f200035b6a9847dee709
:020000040000fa
:100d7c0010b541f22003c2f200032c229b5c33b36a
:100d8c0041f22003c2f20003da691b6a93421ed2bd
:100d9c0041f22003c2f20003986a41f20002c4f24d
:100dac000022916a1b6a546807222240012a0fd044
:100dbc0041f22002c2f200029269d154013341f295
:100dcc002002c2f200021362d2699a4208d010bd0e
:100ddc0041f22002c2f2000292695c00a152ede7de
:100dec0041f22003c2f2000300222c215a54da6192
:100dfc0041f20002c4f20022583111755b6a002bdb
:100e0c00e5d041f22003c2f200035b6a9847dee7ab
:020000040000fa
:100e1c0070b5002840d041f22003c2f200031a7dc5
:100e2c000023babb41f22003c2f2000318605960e0
:100e3c0001321a755c6841f20003c4f200231b7e78
:100e4c00db0718d5d4b1002341f20001c4f2002114
:100e5c000726012507e0c25c8a6201330a7e2a421a
:100e6c000bd09c420ad04a683240012af3d15a0076
:100e7c00825a8a62f1e7002400e01c0041f2200350
:100e8c00c2f200039c6041f20003c4f20023012271
:0c0e9c009a750123180070bd0023fbe7cd
:020000040000fa
:100ea80030b583b002780023242a0bd1002249b13f
:100eb800531c994205d0c418c55c2a2d09d01a00c4
:100ec800f6e70023180003b030bd0023fae700233b
:100ed800f8e701300025844204d903785d400130e9
:100ee8008442fad104329142efd3607801ab187092
:100ef800a4785c7000229a7000f0aafb0028e6d063
:100f0800200000f0a5fb00230028dbd010220021e0
:100f180001a800f0e2fbc3b25b1b5d426b41dbb290
:020f2800d0e710
:020000040000fa
:100f2a0040f20043c4f2002340f28412c4f21002d9
:100f3a001a60d22252429a8140f20022c0f203027f
:100f4a005a6040f20042c4f20022d369002bfcd15d
:100f5a0040f20043c4f200231a6802210a431a60cd
:100f6a0040f20042c4f20022d369002bfcd140f6c1
:100f7a00f073c2f2000300229a61da611a622c212c
:100f8a005a545a621a605a609a601a75da60da8597
:020f9a0070479e
:020000040000fa
:100f9c0041f20003c4f2002340f28412c4f20002b6
:100fac001a60d22252429a8140f20022c0f203020d
:100fbc005a6041f20002c4f20022d369002bfcd12a
:100fcc0041f20003c4f200231a6802210a431a609a
:100fdc0041f20002c4f20022d369002bfcd141f291
:100fec002003c2f2000300229a61da611a622c21fa
:100ffc005a545a621a605a609a601a75da60da8525
:02100c0070472b
:020000040000fa
:02100e00fee7fb
:020000040000fa
:10101000501000201c00000000000000f00f002015
:10102000300000000000000000000020a00f0000c1
:10103000000000006c100020040000000000000010
:101040002010002030000000000000007010002080
:101050000400000000000000a00f0020500000006d
:1010600000000000741000200800000000000000d4
:101070000000000000000000666666666666666640
:020000040000fa
:1010800010b540f20043c4f200239b7d1bb340f235
:101090000042c4f20022137edbb2927d52b2002adb
:1010a0001adb40f20043c4f200231a7ed2b29b7dc9
:1010b000db0703d5d30701d5fff768fd40f20043f6
:1010c000c4f200231a7ed2b29b7d5b0703d553077f
:1010d00001d5fff703fe10bd5bb2002be1da00f093
:0410e00050f9dee7fe
:020000040000fa
:1010e40010b541f20003c4f200239b7d1bb341f20f
:1010f4000002c4f20022137edbb2927d52b2002ab7
:101104001adb41f20003c4f200231a7ed2b29b7da3
:10111400db0703d5d30701d5fff78afd41f20003ae
:10112400c4f200231a7ed2b29b7d5b0703d553071a
:1011340001d5fff721fe10bd5bb2002be1da00f010
:041144003ff9dee7aa
:020000040000fa
:1011480000230e4a10b513600d4a0e4c13600e4a68
:1011580013600e4a13600e4a13600e4a53621361fd
:101168000133936000f0ecfa00f0eafa0a4b9c4273
:1011780000d310bd08cc9847f8e7c046741000208b
:10118800ac0f0020d4020000a80f0020a00f002000
:0c119800a40f0020b00f0020d8020000bf
:020000040000fa
:1011a400002370b59cb004000d0016000593139045
:1011b400069098421ddb104bc318002104a8149319
:1011c40000f056fa209a219b31000092019304a862
:1011d4000122fff787f855b1139b0293149b0393e5
:1011e400039a029b9b1a199a9b18e4182c601cb052
:0c11f40070bd01235b42e0e7ffffff7fbe
:020000040000fa
:10120000036d70b504003bb1426d934204dc0023d2
:101210000120e364404270bd200000f0dcf90028aa
:10122000f5db236de16b226c9bb1656d5b1b551a81
:10123000ab420edc013bcb18e36422b1636d521a62
:1012400001329a18626501390b788342e3d0087045
:06125000e1e71300f0e7e6
:020000040000fa
:1012560010b541f23373c0f20003984741f233737d
:10126600c0f20003984700f072f940f20003c0f2a2
:1012760000037f2293434ef60052cef200029360a3
:1012860041f24913c0f20003984741f23373c0f2aa
:101296000003984741f23373c0f200039847fff703
:0412a60030fafee735
:020000040000fa
:1012aa000200002310b54832d3560400591e0b43de
:1012ba00137043698269934203d90022c36a1100f9
:1012ca00984700236068a362a3616361830705d519
:1012da001023184360600120404210bda368e268f1
:0c12ea0000079b182364e363c017f6e7bd
:020000040000fa
:1012f60070b504000d00e8b140f6f073c2f20003c9
:101306002c229b5c002003b170bd00f0b7f840f6bc
:10131600f073c2f200039c61dd6100221a622c2187
:1013260001205854da8540f20043c4f20023843287
:081336009a75e9e70020e7e7e2
:020000040000fa
:10133e00f7b597b201933b00140c86b2050c7343bc
:10134e006f4366436543f6191c0ca4199c46a742cd
:10135e0002d980235b02ed186346260c751924040e
:10136e009eb2019ba4194343200051435b195918a7
:04137e0003b0f0bd0b
:020000040000fa
:1013820010b540f20043c4f200235b8b07221340e6
:1013920003b910bd40f6f074c2f20004e38500f018
:1013a2006ff840f20043c4f2002384221a752c2302
:1013b2000022e254636a002bebd0a06a636a98476a
:0213c200e7e75b
:020000040000fa
:1013c40010b541f20003c4f200235b8b07221340e3
:1013d40003b910bd41f22004c2f20004e38500f019
:1013e4006af841f20003c4f2002384221a752c2304
:1013f4000022e254636a002bebd0a06a636a984728
:02140400e7e718
:020000040000fa
:02140600fee7ff
:020000040000fa
:1014080010b5054c227832b9044b13b1044800e0fa
:1014180000bf0123237010bd501000200000000001
:1014280000000000034b10b51bb10349034800e05e
:1014380000bf10bd00000000541000200000000094
:020000040000fa
:1014480040f20043c4f2000300221a819a79012174
:101458000a439a719b7803221340022b0cd040f266
:101468000043c4f20003013a9a705202c4f2000227
:0a147800012193790b42fcd070476c
:020000040000fa
:1014820040f20043c4f200235b8b5b0713d040f2af
:101492000043c4f2002380221a76793a5a831b7ed3
:1014a2005b0708d540f20043c4f2002304219a6a84
:0814b2001a7e0a42fbd17047cb
:020000040000fa
:1014ba0041f20003c4f200235b8b5b0713d041f2b5
:1014ca000003c4f2002380221a76793a5a831b7edb
:1014da005b0708d541f20003c4f2002304219a6a8b
:0814ea001a7e0a42fbd1704793
:020000040000fa
:1014f20010b5fff7a8ff45f20003c4f2001304225f
:101502005a6000f00df8fff76ffafff746fd00f0a2
:10151200def800f016f9fff707fdfff7d6fa10bd67
:020000040000fa
:1015220010b543f20023c4f20003012244215a54ad
:1015320001315a543320133958540021d966c82432
:101542001a5501341a55b33298543832995010bd95
:020000040000fa
:02155200fee7b2
:020000040000fa
:1015540010b50948016811b9436803b910bd040006
:101564008368064a9bb20c349b009b584268200057
:10157400984780002018ede710100000bc1600000a
:020000040000fa
:1015840010b5531e884208d98c18a04205d21ab14e
:10159400ca5cc254013bfbd210bd0023002afbd01d
:0c15a400cc5cc45401339a42fad1f5e744
:020000040000fa
:1015b00070b513006ab10024013a035d0e1933b10e
:1015c0000d5d25b1a24202d00134ab42f5d0307896
:0615d0001b1a180070bd9b
:020000040000fa
:1015d60037b50400fff766fe10b1012040423ebd5c
:1015e6006b46dd1d0122636c290020009847012807
:0615f600f3d12878f3e7b1
:020000040000fa
:1015fc0041f20003c4f200235968802252020a43cc
:10160c005a6041f20002c4f20022d369002bfcd1d3
:02161c00704715
:020000040000fa
:10161e00002310b5934206d103201840421e90417c
:0e162e009b08c01810bdc45ccc540133f2e719
:020000040000fa
:10163c0082b042f6e061013806d30191019b5a1e3b
:0c164c000192002bfad1f6e702b07047c3
:020000040000fa
:101658000300303b02000120092b06d9202300207b
:0c16680013430522613b9a424041704749
:020000040000fa
:10167400036cc26b10b59c1a0165446511b18c42b0
:0816840000dd5318c36410bd22
:020000040000fa
:10168c00d0400b1cd1409c46203ad34018435242c8
:08169c006346934018437047b8
:020000040000fa
:1016a4009140031c90409c46203a93401943524277
:0816b4006346d340194370475f
:020000040000fa
:1016bc00f51600001f16000041170000411700002e
:0416cc0041170000c2
:020000040000fa
:1016d00045f20003c4f2001306225a60053a1a725a
:0216e000704751
:020000040000fa
:1016e20037b501240025644200940195fff759fda6
:0216f2003ebdfb
:020000040000fa
:1016f4008a18914201d10020704700230b700131f8
:02170400f7e705
:020000040000fa
:1017060040f6f073c2f200032c22985cc0b2704718
:020000040000fa
:1017160041f20003c4f20023187e8007c00f704711
:020000040000fa
:0c17260040f6f073c2f20003186a70472e
:020000040000fa
:021732007047fe
:020000040000fa
:0c17340024475047474100000d0a000008
:020000040000fa
:0417400000207047ce
:020000040000fa
:021744007047ec
:020000040000fa
:02174600fee7bc
:020000040000fa
:021748007047e8
:020000040000fa
:020000040003f7
:08fe00007fe97fe9c0f758ba61
:020000040000fa
:0200000400807a
:0440000077438fb0c3
:020000040000fa
:0200000400807a
:04400400bbf0ffff0f
:020000040000fa
:0200000400807a
:04400800008430f010
:020000040000fa
:0200000400807a
:04400c0000ffffffb3
:020000040000fa
:0200000400807a
:0440100000000000ac
:020000040000fa
:0200000400807a
:0440140002000000a6
:020000040000fa
:0200000400807a
:0440180000000000a4
:020000040000fa
:0200000400807a
:04401c0000000000a0
:020000040000fa
:0200000400807a
:04402000b67376e815
:020000040000fa
:0200000400807a
:04c00000ffff07f047
:020000040000fa
:0200000400807a
:04c004000000e8ff51
:020000040000fa
:0200000400807a
:04c00800cc9a34c0da
:020000040000fa
:0200000400807a
:04c01000ffffffff30
:020000040000fa
:0200000400807a
:04c01400ffffffff2c
:020000040000fa
:0200000400807a
:04c01800ffffffff28
:020000040000fa
:0200000400807a
:04c01c00ffffffff24
:020000040000fa
:0200000400807a
:04c02000ffffffff20
:020000040000fa
:0200000400807a
:04c02400ffffffff1c
:020000040000fa
:0200000400807a
:04c02800ffffffff18
:020000040000fa
:0200000400807a
:04c02c00ffffffff14
:020000040000fa
:0200000400807a
:04c03000ffffffff10
:020000040000fa
:0200000400807a
:04c03400ffffffff0c
:020000040000fa
:0200000400807a
:04c03800ffffffff08
:020000040000fa
:0200000400807a
:04c03c00ffffffff04
:020000040000fa
:0200000400807a
:04c04000ffffffff00
:020000040000fa
:0200000400807a
:04c04400fffffffffc
:020000040000fa
:0200000400807a
:04c04800fffffffff8
:020000040000fa
:0200000400807a
:04c04c00fffffffff4
:020000040000fa
:0200000400807a
:04c05000fffffffff0
:020000040000fa
:0200000400807a
:04c05400ffffffffec
:020000040000fa
:0200000400807a
:04c05800ffffffffe8
:020000040000fa
:0200000400807a
:04c05c00ffffffffe4
:020000040000fa
:0200000400807a
:04c06000ffffffffe0
:020000040000fa
:0200000400807a
:04c06400ffffffffdc
:020000040000fa
:0200000400807a
:04c06800ffffffffd8
:020000040000fa
:0200000400807a
:04c06c00ffffffffd4
:020000040000fa
:0200000400807a
:04c07000ffffffffd0
:020000040000fa
:0200000400807a
:04c07400ffffffffcc
:020000040000fa
:0200000400807a
:04c07800ffffffffc8
:020000040000fa
:0200000400807a
:04c07c00ffffffffc4
:020000040000fa
:0200000400807a
:04c08000ffffffffc0
:020000040000fa
:0200000400807a
:04c08400ffffffffbc
:020000040000fa
:0200000400807a
:04c08800ffffffffb8
:020000040000fa
:0200000400807a
:04c08c00ffffffffb4
:020000040000fa
:0200000400807a
:04c0e000ffffffff60
:020000040000fa
:0200000400807a
:04c0e400ffffffff5c
:020000040000fa
:0200000400807a
:04c0e800ffffffff58
:020000040000fa
:0200000400807a
:04c0ec00ffffffff54
:020000040000fa
:0200000400807a
:04c0f000ffffffff50
:020000040000fa
:0200000400807a
:04c0f400ffffffff4c
:020000040000fa
:0200000400807a
:04c0f800ffffffff48
:020000040000fa
:0200000400807a
:04c0fc00ffffffff44
:00000001FF
