:020000040000fa
:10000000f87f00208b120000431000003b1400001a
:1000100000000000000000000000000000000000e0
:10002000000000000000000000000000830a000043
:100030000000000000000000830a0000830a0000a6
:10004000830a0000830a0000830a0000830a00007c
:10005000830a0000830a0000830a0000830a00006c
:10006000830a0000830a0000830a0000830a00005c
:10007000830a0000830a0000830a0000830a00004c
:10008000830a0000830a0000830a0000830a00003c
:10009000830a0000830a0000830a0000830a00002c
:1000a000830a0000830a0000830a0000830a00001c
:1000b000830a0000830a0000830a0000b5100000d4
:1000c000b5100000b5100000b5100000830a000054
:1000d000830a0000830a0000830a0000830a0000ec
:1000e000830a0000830a0000830a0000191100003f
:1000f000191100001911000019110000830a0000f5
:10010000830a0000830a0000830a0000830a0000bb
:10011000830a0000830a0000830a0000830a0000ab
:10012000830a0000830a0000830a0000830a00009b
:10013000830a0000830a0000830a0000830a00008b
:10014000830a0000830a0000830a0000830a00007b
:10015000830a0000830a0000830a0000f87f002061
:100160008b120000431000003b1400000000000050
:10017000000000000000000000000000000000007f
:100180000000000000000000830a000000000000e2
:1001900000000000830a0000830a0000830a0000b8
:1001a000830a0000830a0000830a0000830a00001b
:1001b000830a0000830a0000830a0000830a00000b
:1001c000830a0000830a0000830a0000830a0000fb
:1001d000830a0000830a0000830a0000830a0000eb
:1001e000830a0000830a0000830a0000830a0000db
:1001f000830a0000830a0000830a0000830a0000cb
:10020000830a0000830a0000830a0000830a0000ba
:10021000830a0000830a0000091800000918000082
:100220000918000009180000830a0000830a000072
:10023000830a0000830a0000830a0000830a00008a
:10024000830a0000830a0000091800000918000052
:100250000918000009180000830a0000830a000042
:10026000830a0000830a0000830a0000830a00005a
:10027000830a0000830a0000830a0000830a00004a
:10028000830a0000830a0000830a0000830a00003a
:10029000830a0000830a0000830a0000830a00002a
:1002a000830a0000830a0000830a0000830a00001a
:0802b000830a0000830a00002c
:020000040000fa
:1002b800401801000200030084468ef3008874474a
:1002c800f8b5c046f8bc08bc9e46704761140000eb
:1002d800f8b5c046f8bc08bc9e4670473d140000ff
:020000040000fa
:1002e800f0b58bb0040001910292242901d80129ac
:1002f80003d11622b64b1a6053e0e36be26c9342cb
:1003080022d25a1ce2631d78202df6d02b00093b1f
:10031800042bf2d90222223b9343002203925bb9b9
:100328002d3d6b425d416b420393e26ce36b93425c
:100338000fd25a1ce2631d78019be26c73b1102b3b
:1003480053d1302d0cd050e0200000f06fff050095
:10035800dae7200000f06aff0500ede7302d42d112
:10036800e36b934223d25a1ce2631d7820232b436c
:10037800782b2dd1e36be26c93421dd25a1ce263b9
:100388001d781022934b01925b5d0f2b00d8c4e0bf
:10039800e36c002b00d1a6e1029ae36b8ab1023b21
:1003a800e36300260027300039000bb0f0bd2000c1
:1003b80000f03cff0500d9e7200000f037ff0500fa
:1003c800dfe7013be3630021200001f0b1f9e8e732
:1003d800019b002b00d19ee0019b0a2b00d09ce0e2
:1003e800002302931ce00a2301937a4b01995b5d79
:1003f8008b42f1d312b1e36b013be3630021200090
:1004080001f096f975e70a23029a5343e26c5d19e5
:10041800e36b303d0295934267d25a1ce2631d7824
:100428002b00303b092b03d86b4b029a9a42ead92e
:100438000027029e2b00303b0293092b33d8674bd1
:100448009f4213d802d1664b9e420fd800230a223e
:100458003000390000f089ff029b049300230593c4
:10046800049bdb434a1c45d1984243d9594b019a16
:100478005b5d934217d2e36be26c934200d317e1c2
:100488005a1ce2631878534b019a1b5c9342f2d3cf
:10049800109e119f22224e4b1a600123109a13427c
:1004a80001d000230393e36c13b1e36b013be363d7
:1004b800119bbb4200d90ce103d1109bb34200d978
:1004c80007e10123109a134200d0f5e0039b002bab
:1004d80000d0f1e0222201267642f7173c4b1a6041
:1004e800109b119cf61867415de7200000f09efe06
:1004f800050095e7e36be26c049e059f36184f41b3
:10050800934203d25a1ce2631d7893e7200000f05f
:100518008dfe05008ee708230193019b5e1e334084
:100528000293002b00d0bbe0019a173353432d4aa6
:100538001b065b0fd35c0493264b019a5b5d9a42c2
:1005480003d9294a029991422bd9049a01204042a1
:10055800c11701f0f9f80027029e089006911d4b7b
:100568005b5d0293029a019b934200d87ee7069b4b
:100578009f4200d97ae703d1089b9e4200d975e7cc
:10058800049a3000390001f0ebf8029be26c034357
:100598001e00e36b0f00934215d25a1ce2631d78cc
:1005a800dde7029e049a9640e26c1e43e36b0296d6
:1005b800934203d25a1ce2631d78bde7200000f085
:1005c80035fe0500b8e7200000f030fe0500c6e75c
:1005d8007c100020a00800009899991999999919f8
:1005e8009999999996080000ffffff07029e019ac2
:1005f8005643f3180293e26ce36b93424bd25a1cb6
:10060800e2631d783b4b019a5b5d9a4203d93a4af3
:1006180002999142ead90027029e364b5b5d02930c
:10062800029a019b934200d820e7bfb11a00002329
:100638003000190000f099fe002304913a001900d7
:10064800019800f092fe049b089300230993089aee
:10065800099b80185941002900d007e73b00320068
:100668000198002100f081fe029b06930023079366
:10067800069bdb434a1c02d1984200d9f6e6069e47
:10068800079fe36be26c36184f4193420bd25a1c1a
:10069800e2631d78c1e7200000f0c8fd0500b1e75e
:1006a80000230293aee7200000f0c0fd0500b4e788
:1006b800200000f0bbfde6e6119b9f4203d808d15d
:1006c800109b9e4205d9109e119f22220b4b1a6047
:1006d80069e6039b013300d065e633003c00002740
:1006e8005e42a7415fe6029b00260027002b00d050
:1006f80059e668e6a0080000c6711c077c100020b7
:020000040000fa
:1007080070b541f26c03c2f200031c68002c00d1e2
:100718009fe040f20003c2f200031b78242b0ad0aa
:1007280040f20000c2f200002422210000f05eff27
:10073800002818db1fdc41f26c03c2f200031d68bd
:1007480040f20000c2f200002a22290000f04eff09
:10075800002800da7fe0831c9d4200d87de0c41c9d
:10076800a5421bd826e041f26c03c2f20003002226
:100778001a6000206ee0241a40f20003c2f200035f
:10078800c1182200180000f047ff41f26c03c2f2c2
:1007980000031c60cfe70134a5420bd940f20003e7
:1007a800c2f20003e3181b780d2bf4d00a2bf2d009
:1007b800002c54d0250002e01d00002b4fd06b1eea
:1007c80040f20002c2f200029a1812780d2af3d001
:1007d8000a2af1d040f20000c2f20000290000f01d
:1007e8003bfbb0b1052d43d941f2f871c0f20001cd
:1007f80040f20000c2f20000062200f036ff002896
:1008080036d140f20000c2f20000290000f01affc1
:100818002ee041f26c03c2f200031d682d1b35b9ae
:1008280041f26c03c2f200031d60012012e040f2a5
:100838000000c2f2000021182a0000f0edfeefe7e8
:1008480040f20000c2f2000021182a0000f0e4fe85
:1008580016e0002070bd0020fce70020fae740f217
:100868000000c2f20000002100f0f6fa0028d0d003
:1008780041f26c03c2f200031d682d1b002ddfd16d
:0e08880041f26c03c2f200031d600120e2e7a2
:020000040000fa
:10089600000102040703060500ffffffffffffff3d
:1008a600ffffffffffffffffffffffffffffffff52
:1008b600ffffffffffffffffffffffffffffffff42
:1008c600ffffffffffffffffffff0001020304051d
:1008d60006070809ffffffffffffff0a0b0c0d0ebf
:1008e6000f101112131415161718191a1b1c1d1e9a
:1008f6001f20212223ffffffffffff0a0b0c0d0e17
:100906000f101112131415161718191a1b1c1d1e79
:100916001f20212223ffffffffffffffffffffff37
:10092600ffffffffffffffffffffffffffffffffd1
:10093600ffffffffffffffffffffffffffffffffc1
:10094600ffffffffffffffffffffffffffffffffb1
:10095600ffffffffffffffffffffffffffffffffa1
:10096600ffffffffffffffffffffffffffffffff91
:10097600ffffffffffffffffffffffffffffffff81
:10098600ffffffffffffffffffffffffffffffff71
:0a099600ffffffffffffffffffff61
:020000040000fa
:1009a00041f20003c4f200030220187641f2004134
:1009b000c4f2000100220a7441f60001c4f20001f1
:1009c00008621a8641f20002c4f200028021490442
:1009d00013690b42fcd046f22003c0f280031b686f
:1009e0005b009b0e9b0240f200221343d200c4f234
:1009f0000002536341f20002c4f200028021490464
:100a000013690b42fcd041f20003c4f2000302223e
:100a10001a86d202c4f200028021490413690b42f3
:100a2000fcd041f60043c4f2000340f20712c0f2ca
:100a300001021a6241f60042c4f200020421536826
:100a40001942fcd141f60043c4f20003c422402104
:100a5000995041f60042c4f20002c42013581942d2
:100a6000fcd041f60043c4f20003d022402199504b
:100a700041f60042c4f20002d02013581942fcd0c3
:020a80007047bd
:020000040000fa
:020a8200fee78d
:020000040000fa
:100a8400f0b5c64600b5bff35f8f62b64ef20013f1
:100a9400cef2000340f21c301a581202120ac0218e
:100aa40009060a431a50802212061a6040f22032c4
:100ab400985840f2ff084446a04340f2c00c6446f4
:100ac400204398500120586098581b4f38404cf2ee
:100ad400000630439850022058609858174d28401b
:100ae400c02424042043985004225a6040f2283041
:100af4001a581202120a0a431a5040f600025a60a7
:100b040040f22c3298584146884361460843985035
:100b140041f200015960995839403143995042f2e9
:100b24000001596099580d402c439c5044f2000236
:100b34005a6004bc9046f0bdff00ffffffff00ffba
:020000040000fa
:100b440070b540f6f073c2f200031b7d002b4ad04f
:100b540040f6f072c2f200029368516840f200421b
:100b6400c4f20022127ed2071fd599421dd940f249
:100b74000041c4f20021072640f6f070c2f20000e2
:100b8400012509e00268d25c8a62013344680a7e66
:100b94002a420ad09c4208d94a683240012af1d13b
:100ba40002685c00a25a8a62efe740f6f072c2f271
:100bb4000002936052689a4215d840f6f073c2f26c
:100bc400000300221a755a6040f20042c4f2002267
:100bd40001211175db6833b140f6f073c2f20003f2
:080be4001869db68984770bd39
:020000040000fa
:100bec0070b541f22003c2f200031b7d002b4ad0ea
:100bfc0041f22002c2f200029368516841f20002f5
:100c0c00c4f20022127ed2071fd599421dd941f29f
:100c1c000001c4f20021072641f22000c2f20000bc
:100c2c00012509e00268d25c8a62013344680a7ebd
:100c3c002a420ad09c4208d94a683240012af1d192
:100c4c0002685c00a25a8a62efe741f22002c2f20b
:100c5c000002936052689a4215d841f22003c2f206
:100c6c00000300221a755a6041f20002c4f20022fd
:100c7c0001211175db6833b141f22003c2f200038c
:080c8c001869db68984770bd90
:020000040000fa
:100c940010b540f6f073c2f200032c229b5c33b310
:100ca40040f6f073c2f20003da691b6a93421ed263
:100cb40040f6f073c2f20003986a40f20042c4f2b4
:100cc4000022916a1b6a546807222240012a0fd02d
:100cd40040f6f072c2f200029269d154013340f638
:100ce400f072c2f200021362d2699a4208d010bdb7
:100cf40040f6f072c2f2000292695c00a152ede784
:100d040040f6f073c2f2000300222c215a54da6137
:100d140040f20042c4f20022583111755b6a002b84
:100d2400e5d040f6f073c2f200035b6a9847dee751
:020000040000fa
:100d340010b541f22003c2f200032c229b5c33b3b2
:100d440041f22003c2f20003da691b6a93421ed205
:100d540041f22003c2f20003986a41f20002c4f295
:100d64000022916a1b6a546807222240012a0fd08c
:100d740041f22002c2f200029269d154013341f2dd
:100d84002002c2f200021362d2699a4208d010bd56
:100d940041f22002c2f2000292695c00a152ede726
:100da40041f22003c2f2000300222c215a54da61da
:100db40041f20002c4f20022583111755b6a002b23
:100dc400e5d041f22003c2f200035b6a9847dee7f4
:020000040000fa
:100dd40070b5002840d041f22003c2f200031a7d0e
:100de4000023babb41f22003c2f200031860596029
:100df40001321a755c6841f20003c4f200231b7ec1
:100e0400db0718d5d4b1002341f20001c4f200215c
:100e14000726012507e0c25c8a6201330a7e2a4262
:100e24000bd09c420ad04a683240012af3d15a00be
:100e3400825a8a62f1e7002400e01c0041f2200398
:100e4400c2f200039c6041f20003c4f200230122b9
:0c0e54009a750123180070bd0023fbe715
:020000040000fa
:100e600070b582b006000d0003780020242b31d12c
:100e70002a22300000f0befb00282adb012826ddf4
:100e8000731c311800241a78544001338b42fad174
:100e9000c31cab4220d83618707801ab1870b578f7
:100ea0005d7000229a7000f039fcb8b1280000f0a3
:100eb00035fc030000206bb11022002101a800f0d6
:100ec00072fcc0b2001b44426041c0b202e0002488
:100ed000dee7002002b070bd0020fbe70020f9e74c
:020000040000fa
:100ee00070b500f072fc0400d8b941f26c03c2f294
:100ef000000318680200643240f6a0739a4218d8c2
:100f000040f20003c2f200039c466044642100f0fa
:100f10000cfa040068b100f058fc050058b1c04656
:100f2000f9e741f27003c2f200031a6801321a6055
:100f30000024200070bd00f058fc08b92c00f8e730
:100f400041f26c03c2f200031a68944660441860d0
:0e0f500041f27003c2f2000300221a60e9e7ca
:020000040000fa
:100f5e0040f20043c4f2002340f28412c4f21002a5
:100f6e001a60d22252429a8140f20022c0f203024b
:100f7e005a6040f20042c4f20022d369002bfcd129
:100f8e0040f20043c4f200231a6802210a431a6099
:100f9e0040f20042c4f20022d369002bfcd140f68d
:100fae00f073c2f2000300229a61da611a622c21f8
:100fbe005a545a621a605a609a601a75da60da8563
:020fce0070476a
:020000040000fa
:100fd00041f20003c4f2002340f28412c4f2000282
:100fe0001a60d22252429a8140f20022c0f20302d9
:100ff0005a6041f20002c4f20022d369002bfcd1f6
:1010000041f20003c4f200231a6802210a431a6065
:1010100041f20002c4f20022d369002bfcd141f25c
:101020002003c2f2000300229a61da611a622c21c5
:101030005a545a621a605a609a601a75da60da85f0
:021040007047f7
:020000040000fa
:02104200fee7c7
:020000040000fa
:10104400501000201c00000000000000f00f0020e1
:10105400300000000000000000000020a00f00008d
:10106400000000006c1000200800000000000000d8
:101074002010002030000000000000007410002048
:101084000400000000000000a00f00205000000039
:10109400000000007810002008000000000000009c
:1010a400000000000000000066666666666666660c
:020000040000fa
:1010b40010b540f20043c4f200239b7d1bb340f201
:1010c4000042c4f20022137edbb2927d52b2002aa7
:1010d4001adb40f20043c4f200231a7ed2b29b7d95
:1010e400db0703d5d30701d5fff72afd40f2004300
:1010f400c4f200231a7ed2b29b7d5b0703d553074b
:1011040001d5fff7c5fd10bd5bb2002be1da00f09d
:0411140050f9dee7c9
:020000040000fa
:1011180010b541f20003c4f200239b7d1bb341f2da
:101128000002c4f20022137edbb2927d52b2002a82
:101138001adb41f20003c4f200231a7ed2b29b7d6f
:10114800db0703d5d30701d5fff74cfd41f20003b8
:10115800c4f200231a7ed2b29b7d5b0703d55307e6
:1011680001d5fff7e3fd10bd5bb2002be1da00f01b
:041178003ff9dee776
:020000040000fa
:10117c0000230e4a10b513600d4a0e4c13600e4a34
:10118c0013600e4a13600e4a13600e4a53621361c9
:10119c000133936000f033fb00f031fb0a4b9c42af
:1011ac0000d310bd08cc9847f8e7c0467810002053
:1011bc00ac0f0020d4020000a80f0020a00f0020cc
:0c11cc00a40f0020b00f0020d80200008b
:020000040000fa
:1011d800002370b59cb004000d0016000593139011
:1011e800069098421ddb104bc318002104a81493e5
:1011f80000f09efa209a219b31000092019304a8e6
:101208000122fff76df855b1139b0293149b0393ca
:10121800039a029b9b1a199a9b18e4182c601cb01d
:0c12280070bd01235b42e0e7ffffff7f89
:020000040000fa
:10123400036d70b504003bb1426d934204dc00239e
:101244000120e364404270bd200000f023fa00282e
:10125400f5db236de16b226c9bb1656d5b1b551a4d
:10126400ab420edc013bcb18e36422b1636d521a2e
:1012740001329a18626501390b788342e3d0087011
:06128400e1e71300f0e7b2
:020000040000fa
:10128a0010b541f2c353c0f20003984741f2c35369
:10129a00c0f20003984700f090f940f20003c0f250
:1012aa0000037f2293434ef60052cef2000293606f
:1012ba0041f27d13c0f20003984741f2c353c0f2d2
:1012ca000003984741f2c353c0f20003984700f065
:0412da0002fafee72f
:020000040000fa
:1012de000200002310b54832d3560400591e0b43aa
:1012ee00137043698269934203d90022c36a1100c5
:1012fe00984700236068a362a3616361830705d5e5
:10130e001023184360600120404210bda368e268bc
:0c131e0000079b182364e363c017f6e788
:020000040000fa
:10132a0070b504000d00e8b140f6f073c2f2000394
:10133a002c229b5c002003b170bd00f0d5f840f66a
:10134a00f073c2f200039c61dd6100221a622c2153
:10135a0001205854da8540f20043c4f20023843253
:08136a009a75e9e70020e7e7ae
:020000040000fa
:10137200f7b597b201933b00140c86b2050c734388
:101382006f4366436543f6191c0ca4199c46a74299
:1013920002d980235b02ed186346260c75192404da
:1013a2009eb2019ba4194343200051435b19591873
:0413b20003b0f0bdd7
:020000040000fa
:1013b60010b540f20043c4f200235b8b07221340b2
:1013c60003b910bd40f6f074c2f20004e38500f0e4
:1013d6008df840f20043c4f2002384221a752c23b0
:1013e6000022e254636a002bebd0a06a636a984736
:0213f600e7e727
:020000040000fa
:1013f80010b541f20003c4f200235b8b07221340af
:1014080003b910bd41f22004c2f20004e38500f0e4
:1014180088f841f20003c4f2002384221a752c23b1
:101428000022e254636a002bebd0a06a636a9847f3
:02143800e7e7e4
:020000040000fa
:02143a00fee7cb
:020000040000fa
:10143c0010b5054c227832b9044b13b1044800e0c6
:10144c0000bf0123237010bd5010002000000000cd
:10145c0000000000034b10b51bb10349034800e02a
:10146c0000bf10bd00000000541000200000000060
:020000040000fa
:10147c0010b541f26c03c2f200031b688bb141f250
:10148c007003c2f200031b68c82b0ad941f26c032b
:10149c00c2f2000300221a6041f27003c2f2000390
:0c14ac001a60fff72bf90028fbd110bddf
:020000040000fa
:1014b80040f20043c4f2000300221a819a79012104
:1014c8000a439a719b7803221340022b0cd040f2f6
:1014d8000043c4f20003013a9a705202c4f20002b7
:0a14e800012193790b42fcd07047fc
:020000040000fa
:1014f20040f20043c4f200235b8b5b0713d040f23f
:101502000043c4f2002380221a76793a5a831b7e62
:101512005b0708d540f20043c4f2002304219a6a13
:081522001a7e0a42fbd170475a
:020000040000fa
:10152a0041f20003c4f200235b8b5b0713d041f244
:10153a000003c4f2002380221a76793a5a831b7e6a
:10154a005b0708d541f20003c4f2002304219a6a1a
:08155a001a7e0a42fbd1704722
:020000040000fa
:1015620010b5fff7a8ff45f20003c4f200130422ee
:101572005a6000f00df8fff712fafff728fd00f0ad
:1015820008f900f037f9fff7e9fcfff77afa10bd26
:020000040000fa
:1015920010b543f20023c4f20003012244215a543d
:1015a20001315a543320133958540021d966c824c2
:1015b2001a5501341a55b33298543832995010bd25
:020000040000fa
:0215c200704770
:020000040000fa
:1015c40010b50948016811b9436803b910bd040096
:1015d4008368064a9bb20c349b009b5842682000e7
:1015e400984780002018ede74410000080170000a1
:020000040000fa
:1015f40010b581b10378934208d000230133994296
:1016040006d0c45c9442f9d1180010bd0023fbe756
:0c16140001204042f9e701204042f6e7c7
:020000040000fa
:1016200010b5531e884208d98c18a04205d21ab1b1
:10163000ca5cc254013bfbd210bd0023002afbd080
:0c164000cc5cc45401339a42fad1f5e7a7
:020000040000fa
:10164c0010b5fff7c1fb00f0c2f80028fbd041f643
:10165c000000c0f200000221fff7b6fb00f0b7f863
:06166c000028fbd010bdb8
:020000040000fa
:1016720070b513006ab10024013a035d0e1933b14b
:101682000d5d25b1a24202d00134ab42f5d03078d3
:061692001b1a180070bdd8
:020000040000fa
:1016980037b50400fff71ffe10b1012040423ebde0
:1016a8006b46dd1d0122636c290020009847012844
:0616b800f3d12878f3e7ee
:020000040000fa
:1016be0041f20003c4f200235968802252020a4309
:1016ce005a6041f20002c4f20022d369002bfcd111
:0216de00704753
:020000040000fa
:1016e00010b50020fff73dfffff739fcfff770fc56
:0e16f000fff7e5fffff7f4fbfff7c0fefae798
:020000040000fa
:1016fe00002310b5934206d103201840421e90419c
:0e170e009b08c01810bdc45ccc540133f2e738
:020000040000fa
:10171c000300303b02000120092b06d920230020b6
:0c172c0013430522613b9a424041704784
:020000040000fa
:10173800036cc26b10b59c1a0165446511b18c42eb
:0817480000dd5318c36410bd5d
:020000040000fa
:10175000d0400b1cd1409c46203ad3401843524203
:081760006346934018437047f3
:020000040000fa
:101768009140031c90409c46203a934019435242b2
:081778006346d340194370479a
:020000040000fa
:10178000b9170000ff16000005180000051800003a
:041790000518000038
:020000040000fa
:1017940045f20003c4f2001306225a60053a1a7295
:0217a40070478c
:020000040000fa
:1017a60037b501240025644200940195fff711fd29
:0217b6003ebd36
:020000040000fa
:1017b8008a18914201d10020704700230b70013133
:0217c800f7e741
:020000040000fa
:1017ca0040f6f073c2f200032c22985cc0b2704754
:020000040000fa
:1017da0041f20003c4f20023187e8007c00f70474d
:020000040000fa
:0c17ea0040f6f073c2f20003186a70476a
:020000040000fa
:0217f60070473a
:020000040000fa
:0817f80024475047474100005f
:020000040000fa
:041800000d0a0000cd
:020000040000fa
:041804000020704709
:020000040000fa
:02180800fee7f9
:020000040000fa
:02180a00704725
:020000040000fa
:020000040003f7
:08fe00007fe97fe9c0f758ba61
:020000040000fa
:0200000400807a
:0440000077438fb0c3
:020000040000fa
:0200000400807a
:04400400bbf0ffff0f
:020000040000fa
:0200000400807a
:04400800008430f010
:020000040000fa
:0200000400807a
:04400c0000ffffffb3
:020000040000fa
:0200000400807a
:0440100000000000ac
:020000040000fa
:0200000400807a
:0440140002000000a6
:020000040000fa
:0200000400807a
:0440180000000000a4
:020000040000fa
:0200000400807a
:04401c0000000000a0
:020000040000fa
:0200000400807a
:04402000b67376e815
:020000040000fa
:0200000400807a
:04c00000ffff07f047
:020000040000fa
:0200000400807a
:04c004000000e8ff51
:020000040000fa
:0200000400807a
:04c00800cc9a34c0da
:020000040000fa
:0200000400807a
:04c01000ffffffff30
:020000040000fa
:0200000400807a
:04c01400ffffffff2c
:020000040000fa
:0200000400807a
:04c01800ffffffff28
:020000040000fa
:0200000400807a
:04c01c00ffffffff24
:020000040000fa
:0200000400807a
:04c02000ffffffff20
:020000040000fa
:0200000400807a
:04c02400ffffffff1c
:020000040000fa
:0200000400807a
:04c02800ffffffff18
:020000040000fa
:0200000400807a
:04c02c00ffffffff14
:020000040000fa
:0200000400807a
:04c03000ffffffff10
:020000040000fa
:0200000400807a
:04c03400ffffffff0c
:020000040000fa
:0200000400807a
:04c03800ffffffff08
:020000040000fa
:0200000400807a
:04c03c00ffffffff04
:020000040000fa
:0200000400807a
:04c04000ffffffff00
:020000040000fa
:0200000400807a
:04c04400fffffffffc
:020000040000fa
:0200000400807a
:04c04800fffffffff8
:020000040000fa
:0200000400807a
:04c04c00fffffffff4
:020000040000fa
:0200000400807a
:04c05000fffffffff0
:020000040000fa
:0200000400807a
:04c05400ffffffffec
:020000040000fa
:0200000400807a
:04c05800ffffffffe8
:020000040000fa
:0200000400807a
:04c05c00ffffffffe4
:020000040000fa
:0200000400807a
:04c06000ffffffffe0
:020000040000fa
:0200000400807a
:04c06400ffffffffdc
:020000040000fa
:0200000400807a
:04c06800ffffffffd8
:020000040000fa
:0200000400807a
:04c06c00ffffffffd4
:020000040000fa
:0200000400807a
:04c07000ffffffffd0
:020000040000fa
:0200000400807a
:04c07400ffffffffcc
:020000040000fa
:0200000400807a
:04c07800ffffffffc8
:020000040000fa
:0200000400807a
:04c07c00ffffffffc4
:020000040000fa
:0200000400807a
:04c08000ffffffffc0
:020000040000fa
:0200000400807a
:04c08400ffffffffbc
:020000040000fa
:0200000400807a
:04c08800ffffffffb8
:020000040000fa
:0200000400807a
:04c08c00ffffffffb4
:020000040000fa
:0200000400807a
:04c0e000ffffffff60
:020000040000fa
:0200000400807a
:04c0e400ffffffff5c
:020000040000fa
:0200000400807a
:04c0e800ffffffff58
:020000040000fa
:0200000400807a
:04c0ec00ffffffff54
:020000040000fa
:0200000400807a
:04c0f000ffffffff50
:020000040000fa
:0200000400807a
:04c0f400ffffffff4c
:020000040000fa
:0200000400807a
:04c0f800ffffffff48
:020000040000fa
:0200000400807a
:04c0fc00ffffffff44
:00000001FF
