:020000040000fa
:10000000f07f0020090f00004b0e00006b10000075
:1000100000000000000000000000000000000000e0
:100020000000000000000000000000006513000058
:1000300000000000000000006513000065130000d0
:1000400065130000651300006513000065130000d0
:1000500065130000651300006513000065130000c0
:1000600065130000651300006513000065130000b0
:1000700065130000651300006513000065130000a0
:100080006513000065130000651300006513000090
:100090006513000065130000651300006513000080
:1000a0006513000065130000651300006513000070
:1000b000651300006513000065130000e70d0000e4
:1000c000e70d0000e70d0000e70d0000830d0000c4
:1000d000830d0000830d0000830d000065130000f8
:1000e0006513000065130000651300001f0d00007c
:1000f0001f0d00001f0d00001f0d00006513000004
:10010000651300006513000065130000651300000f
:1001100065130000651300006513000065130000ff
:1001200065130000651300006513000065130000ef
:1001300065130000651300006513000065130000df
:1001400065130000651300006513000065130000cf
:10015000651300006513000065130000f07f0020a8
:10016000090f00004b0e00006b10000000000000a3
:10017000000000000000000000000000000000007f
:1001800000000000000000006513000000000000f7
:1001900000000000651300006513000065130000f7
:1001a000651300006513000065130000651300006f
:1001b000651300006513000065130000651300005f
:1001c000651300006513000065130000651300004f
:1001d000651300006513000065130000651300003f
:1001e000651300006513000065130000651300002f
:1001f000651300006513000065130000651300001f
:10020000651300006513000065130000651300000e
:1002100065130000651300006713000067130000fa
:1002200067130000671300006713000067130000e6
:1002300067130000671300006513000065130000da
:1002400065130000651300006713000067130000ca
:1002500067130000671300006513000065130000ba
:1002600065130000651300006513000065130000ae
:10027000651300006513000065130000651300009e
:10028000651300006513000065130000651300008e
:10029000651300006513000065130000651300007e
:1002a000651300006513000065130000651300006e
:0802b000651300006513000056
:020000040000fa
:1002b800401801000200030084468ef3008874474a
:1002c800f8b5c046f8bc08bc9e46704791100000bf
:1002d800f8b5c046f8bc08bc9e4670476d100000d3
:020000040000fa
:1002e80006d128b9f54203d800d30ab96d0d09d152
:1002f8000020c143090dc904f0bdf9d11242f7d15c
:10030800640df5d00020c14349054908a6e0002046
:100318006146f0bdf0b50127ff070e005e403e4084
:10032800b446be0a4c18dd18f442d9d2f542e4d2dc
:10033800640decd06d0dead06419c9023943460d3d
:10034800c0023143db023b43db0a10b48e4685b260
:1003580097b26f43140c6c433e0ca419260c24046a
:10036800bfb227439cb26c43a419190c6943250cee
:10037800a4b249190d04090c6419000c95b245433f
:100388003e0c76193743bfb2360c150c4543ad19f0
:10039800a6b2240cad192e0437432e0c36199db283
:1003a8004543ad19acb22e0c89191d0c45436d1887
:1003b8002e04290c3443704680b295b245433e0c56
:1003c80076193743bfb2360c150c4543ad19a6b2a2
:1003d800ad19240c2e0437432e0c36199db2454313
:1003e800ad19acb22e0c89191d0c45436d182e049d
:1003f8003443290c75462d0c90b268433e0c801985
:100408000604bfb23e43070ca0b23f18120c6a4361
:10041800d019020c80b2240ca4189ab26a4312199b
:1004280014042043120c89181b0c6b43c91810bc08
:1004380001273d05294203d1b61940414941013cf4
:10044800ff077d0d013d641b0bdb6d00ac4209da33
:10045800240500254208be41684161416646314392
:06046800f0bd54e74ee771
:020000040000fa
:02046e007047d5
:020000040000fa
:10047000f0b5ce46474680b5bff35f8f62b64ef209
:100480000013cef2000340f21c315a581202120a35
:10049000c024240622435a50802212061a6040f2d9
:1004a0002032995840f2ff084046814340f2c00c88
:1004b0006046014399500121596099582b4f3940aa
:1004c0004cf2000631439950022159609958284d49
:1004d0002940c020000481460143995004215960fd
:1004e00099580902090a2143995008225a6040f29a
:1004f0002432995840468143604601439950102167
:100500005960995839403143995020215960995880
:10051000294048460143995040225a6040f2283110
:100520005a581202120a14435c5040f600025a60f4
:1005300040f22c329958404681436046014399501d
:1005400041f20001596099580f403e439e5042f2db
:100550000001596099580d4048462843985044f28c
:1005600000025a600cbc90469946f0bdff00ffffa8
:04057000ffff00ff8a
:020000040000fa
:1005740041f20003c4f200030220187641f2004164
:10058400c4f2000100220a7441f60001c4f2000121
:1005940008621a8641f20002c4f200028021490472
:1005a40013690b42fcd046f22003c0f280031b689f
:1005b4005b009b0e9b0240f200221343d200c4f264
:1005c4000002536341f20002c4f200028021490494
:1005d40013690b42fcd041f20003c4f2000302226f
:1005e4001a86d202c4f200028021490413690b4224
:1005f400fcd041f60043c4f2000340f20712c0f2fb
:1006040001021a6241f60042c4f200020421536856
:100614001942fcd141f60043c4f20003c422402134
:10062400995041f60042c4f20002c4201358194202
:10063400fcd041f60043c4f20003c8224021995083
:1006440041f60042c4f20002c82013581942fcd0fb
:1006540041f60043c4f20003d0224021995041f6f0
:100664000042c4f20002d02013581942fcd0704753
:020000040000fa
:1006740070b540f25003c2f200031b7d002b4ad038
:1006840040f25002c2f200029368516841f2000243
:10069400c4f20022127ed2071fd599421dd941f21d
:1006a4000001c4f20021072640f25000c2f200000b
:1006b400012509e00268d25c8a62013344680a7e3b
:1006c4002a420ad09c4208d94a683240012af1d110
:1006d40002685c00a25a8a62efe740f25002c2f25a
:1006e4000002936052689a4215d840f25003c2f255
:1006f400000300221a755a6041f20002c4f200227b
:1007040001211175db6833b140f25003c2f20003da
:080714001869db68984770bd0d
:020000040000fa
:10071c0070b540f28003c2f200031b7d002b4ad05f
:10072c0040f28002c2f200029368516840f6000267
:10073c00c4f20022127ed2071fd599421dd940f671
:10074c000001c4f20021072640f28000c2f2000032
:10075c00012509e00268d25c8a62013344680a7e92
:10076c002a420ad09c4208d94a683240012af1d167
:10077c0002685c00a25a8a62efe740f28002c2f281
:10078c000002936052689a4215d840f28003c2f27c
:10079c00000300221a755a6040f60002c4f20022cf
:1007ac0001211175db6833b140f28003c2f2000302
:0807bc001869db68984770bd65
:020000040000fa
:1007c40070b540f2b003c2f200031b7d002b4ad087
:1007d40040f2b002c2f200029368516840f2004253
:1007e400c4f20022127ed2071fd599421dd940f2cd
:1007f4000041c4f20021072640f2b000c2f200001a
:10080400012509e00268d25c8a62013344680a7ee9
:100814002a420ad09c4208d94a683240012af1d1be
:1008240002685c00a25a8a62efe740f2b002c2f2a8
:100834000002936052689a4215d840f2b003c2f2a3
:10084400000300221a755a6040f20042c4f20022ea
:1008540001211175db6833b140f2b003c2f2000329
:080864001869db68984770bdbc
:020000040000fa
:10086c0010b540f25003c2f200032c229b5c33b350
:10087c0040f25003c2f20003da691b6a93421ed2a3
:10088c0040f25003c2f20003986a41f20002c4f233
:10089c000022916a1b6a546807222240012a0fd059
:1008ac0040f25002c2f200029269d154013340f27c
:1008bc005002c2f200021362d2699a4208d010bdf3
:1008cc0040f25002c2f2000292695c00a152ede7c4
:1008dc0040f25003c2f2000300222c215a54da6178
:1008ec0041f20002c4f20022583111755b6a002bf0
:1008fc00e5d040f25003c2f200035b6a9847dee792
:020000040000fa
:10090c0010b540f28003c2f200032c229b5c33b37f
:10091c0040f28003c2f20003da691b6a93421ed2d2
:10092c0040f28003c2f20003986a40f60002c4f25f
:10093c000022916a1b6a546807222240012a0fd0b8
:10094c0040f28002c2f200029269d154013340f2ab
:10095c008002c2f200021362d2699a4208d010bd22
:10096c0040f28002c2f2000292695c00a152ede7f3
:10097c0040f28003c2f2000300222c215a54da61a7
:10098c0040f60002c4f20022583111755b6a002b4c
:10099c00e5d040f28003c2f200035b6a9847dee7c1
:020000040000fa
:1009ac0010b540f2b003c2f200032c229b5c33b3af
:1009bc0040f2b003c2f20003da691b6a93421ed202
:1009cc0040f2b003c2f20003986a40f20042c4f253
:1009dc000022916a1b6a546807222240012a0fd018
:1009ec0040f2b002c2f200029269d154013340f2db
:1009fc00b002c2f200021362d2699a4208d010bd52
:100a0c0040f2b002c2f2000292695c00a152ede722
:100a1c0040f2b003c2f2000300222c215a54da61d6
:100a2c0040f20042c4f20022583111755b6a002b6f
:100a3c00e5d040f2b003c2f200035b6a9847dee7f0
:020000040000fa
:100a4c0070b5002840d040f25003c2f200031a7d6a
:100a5c000023babb40f25003c2f200031860596085
:100a6c0001321a755c6841f20003c4f200231b7e4c
:100a7c00db0718d5d4b1002341f20001c4f20021e8
:100a8c000726012507e0c25c8a6201330a7e2a42ee
:100a9c000bd09c420ad04a683240012af3d15a004a
:100aac00825a8a62f1e7002400e01c0040f25003f5
:100abc00c2f200039c6041f20003c4f20023012245
:0c0acc009a750123180070bd0023fbe7a1
:020000040000fa
:100ad80010b540f20413c2f2000301221a7042f664
:100ae8000003c4f200231a6802218a431a6042f6fe
:100af8000002c4f2002293681942fcd100f0d6fb30
:100b0800002247f20003c4f24703fff703fc00f09a
:100b180085fb42f60003c4f20023186442f6000283
:100b2800c4f200229368002bfcd142f60003c4f201
:100b380000231a6802210a431a6042f60002c4f22e
:100b4800002293681942fcd140f20412c2f200025a
:080b58001378002bfcd110bd45
:020000040000fa
:100b600041f20003c4f2002340f28412c4f21002e6
:100b70001a60d22252429a8140f20022c0f203024d
:100b80005a6041f20002c4f20022d369002bfcd16a
:100b900041f20003c4f200231a6802210a431a60da
:100ba00041f20002c4f20022d369002bfcd140f2d2
:100bb0005003c2f2000300229a61da611a622c210a
:100bc0005a545a621a605a609a601a75da60da8565
:020bd00070476c
:020000040000fa
:100bd20040f60003c4f2002340f28412c4f2100271
:100be2001a60d22252429a8140f20022c0f20302db
:100bf2005a6040f60002c4f20022d369002bfcd1f5
:100c020040f60003c4f200231a6802210a431a6064
:100c120040f60002c4f20022d369002bfcd140f25c
:100c22008003c2f2000300229a61da611a622c2167
:100c32005a545a621a605a609a601a75da60da85f2
:020c42007047f9
:020000040000fa
:100c440040f20043c4f2002340f28412c4f21002c2
:100c54001a60d22252429a8140f20022c0f2030268
:100c64005a6040f20042c4f20022d369002bfcd146
:100c740040f20043c4f200231a6802210a431a60b6
:100c840040f20042c4f20022d369002bfcd140f2ae
:100c9400b003c2f2000300229a61da611a622c21c5
:100ca4005a545a621a605a609a601a75da60da8580
:020cb400704787
:020000040000fa
:100cb60010b58ab08023db021c68002000f064fabd
:100cc600631c0fd084f388880423c0f204031b68d6
:100cd6000993099c64086400200021002200230077
:100ce60000f06cfa41f25430c0f2000000f0aefaa7
:100cf60041f25c34c0f2000401212000fff7a3fe9c
:100d0600202101a800f0f9fa01a800f09ffa40f2ac
:080d1600e830fff7defeefe715
:020000040000fa
:100d1e0010b541f20003c4f200239b7d1bb341f2d8
:100d2e000002c4f20022137edbb2927d52b2002a80
:100d3e001adb41f20003c4f200231a7ed2b29b7d6d
:100d4e00db0703d5d30701d5fff78dfc41f2000376
:100d5e00c4f200231a7ed2b29b7d5b0703d55307e4
:100d6e0001d5fff77cfd10bd5bb2002be1da00f080
:040d7e0012f9dee7a1
:020000040000fa
:100d820010b540f60003c4f200239b7d1bb340f66e
:100d92000002c4f20022137edbb2927d52b2002a1c
:100da2001adb40f60003c4f200231a7ed2b29b7d06
:100db200db0703d5d30701d5fff7affc40f60003ed
:100dc200c4f200231a7ed2b29b7d5b0703d5530780
:100dd20001d5fff79afd10bd5bb2002be1da00f0fe
:040de20001f9dee74e
:020000040000fa
:100de60010b540f20043c4f200239b7d1bb340f2d2
:100df6000042c4f20022137edbb2927d52b2002a78
:100e06001adb40f20043c4f200231a7ed2b29b7d65
:100e1600db0703d5d30701d5fff7d1fc40f200432a
:100e2600c4f200231a7ed2b29b7d5b0703d553071b
:100e360001d5fff7b8fd10bd5bb2002be1da00f07b
:040e4600f0f8dee7fb
:020000040000fa
:020e4a00fee7c1
:020000040000fa
:100e4c00e00000201c00000000000000500000200a
:100e5c003000000000000000040100200100000030
:100e6c000000000080000020600000000000000076
:100e7c00fc00002004000000000000000000002026
:100e8c0050000000000000000001002004000000e1
:100e9c0000000000000000000000000066666666ae
:020000040000fa
:100eac0000230e4a10b513600d4a0e4c13600e4a07
:100ebc0013600e4a13600e4a13600e4a536213619c
:100ecc000133936000f04afa00f048fa0a4b9c4256
:100edc0000d310bd08cc9847f8e7c04600010020ad
:100eec000c000020d40200000800002000000020ac
:0c0efc000400002010000020d8020000bc
:020000040000fa
:100f080010b540f26f43c0f20003984740f26f43b8
:100f1800c0f20003984700f069f940f20003c0f2fc
:100f280000037f2293434ef60052cef200029360f4
:100f380040f6ad63c0f20003984740f26f43c0f239
:100f48000003984740f26f43c0f200039847fff749
:040f5800aefefee704
:020000040000fa
:100f5c0070b504000d00e8b140f2b003c2f200031a
:100f6c002c229b5c002003b170bd00f0eef840f227
:100f7c00b003c2f200039c61dd6100221a622c21d5
:100f8c0001205854da8540f20043c4f20023843225
:080f9c009a75e9e70020e7e780
:020000040000fa
:100fa40010b541f20003c4f200235b8b0722134007
:100fb40003b910bd40f25004c2f20004e38500f00e
:100fc40090f841f20003c4f2002384221a752c2302
:100fd4000022e254636a002bebd0a06a636a98474c
:020fe400e7e73d
:020000040000fa
:100fe60010b540f60003c4f200235b8b07221340c2
:100ff60003b910bd40f28004c2f20004e38500f09c
:101006008bf840f60003c4f2002384221a752c23c1
:101016000022e254636a002bebd0a06a636a984709
:02102600e7e7fa
:020000040000fa
:1010280010b540f20043c4f200235b8b0722134043
:1010380003b910bd40f2b004c2f20004e38500f029
:1010480086f840f20043c4f2002384221a752c2348
:101058000022e254636a002bebd0a06a636a9847c7
:02106800e7e7b8
:020000040000fa
:02106a00fee79f
:020000040000fa
:10106c0010b5054c227832b9044b13b1044800e09a
:10107c0000bf0123237010bde00000200000000021
:10108c0000000000034b10b51bb10349034800e0fe
:10109c0000bf10bd00000000e400002000000000b4
:020000040000fa
:1010ac0040f20043c4f2000300221a819a79012114
:1010bc000a439a719b7803221340022b0cd040f206
:1010cc000043c4f20003013a9a705202c4f20002c7
:0a10dc00012193790b42fcd070470c
:020000040000fa
:1010e60041f20003c4f200235b8b5b0713d041f28d
:1010f6000003c4f2002380221a76793a5a831b7eb3
:101106005b0708d541f20003c4f2002304219a6a62
:081116001a7e0a42fbd170476a
:020000040000fa
:10111e0040f60003c4f200235b8b5b0713d040f64e
:10112e000003c4f2002380221a76793a5a831b7e7a
:10113e005b0708d540f60003c4f2002304219a6a27
:08114e001a7e0a42fbd1704732
:020000040000fa
:1011560040f20043c4f200235b8b5b0713d040f2de
:101166000043c4f2002380221a76793a5a831b7e02
:101176005b0708d540f20043c4f2002304219a6ab3
:081186001a7e0a42fbd17047fa
:020000040000fa
:10118e0010b5fff78cff45f20003c4f200130422e2
:10119e005a6000f068f8fff7e6f9fff7dafc00f0a6
:1011ae00b1f8fff70ffd00f099f8fff744fdfff7d8
:0411be0058f910bd0f
:020000040000fa
:1011c200e0b545464e465746e0b45d4620b4254656
:1011d20026462746a046a146a246a346a44684f335
:1011e2000088a44720bcab46e0bcba46b146a8463c
:0211f200e0bd5e
:020000040000fa
:1011f40010b50948016811b9436803b910bd04006a
:101204008368064a9bb20c349b009b5842682000ba
:10121400984780002018ede74c0e0000ec12000007
:020000040000fa
:101224004a0010d2520d03231b02ff33d21a0ad4f0
:1012340052421f3209d4400dc90208430123db077f
:0e1244001843d040704700207047d017704705
:020000040000fa
:1012520010b5040003785bb120212000fff7f5fbf5
:1012620000f070f80028fbd101342378002bf3d171
:0212720010bdad
:020000040000fa
:1012740043f20023c4f20003012250215a540131e5
:101284005a5437322f3999540022da66ca315a50e7
:021294007047a1
:020000040000fa
:10129600002310b5934206d103201840421e904108
:0e12a6009b08c01810bdc45ccc540133f2e7a5
:020000040000fa
:1012b40041f2d123c0f20003004206d5404200b5fa
:0c12c400984708bc0122d20711431847cc
:020000040000fa
:1012d00040f21d42010007d002d4013a0018fcd5ab
:0a12e0001205c30a40059918704773
:020000040000fa
:0212ea0070474b
:020000040000fa
:1012ec002513000097120000611300006113000029
:0412fc00611300007a
:020000040000fa
:1013000010b5fff72bfe18b100f015f80028fbd13f
:0213100010bd0e
:020000040000fa
:1013120045f20003c4f2001306225a60053a1a721b
:02132200704712
:020000040000fa
:101324008a18914201d10020704700230b700131cb
:02133400f7e7d9
:020000040000fa
:1013360040f2b003c2f200032c22985cc0b27047a0
:020000040000fa
:0e13460040f25003c2f20003187dc0b270479f
:020000040000fa
:0c13540048656c6c6f0d0a003100c0464b
:020000040000fa
:0413600000207047b2
:020000040000fa
:02136400fee7a2
:020000040000fa
:02136600fee7a0
:020000040000fa
:021368007047cc
:020000040000fa
:020000040003f7
:08fe00007fe97fe9c0f758ba61
:020000040000fa
:0200000400807a
:0440000077438fb0c3
:020000040000fa
:0200000400807a
:04400400bbf0ffff0f
:020000040000fa
:0200000400807a
:04400800008430f010
:020000040000fa
:0200000400807a
:04400c0000ffffffb3
:020000040000fa
:0200000400807a
:0440100000000000ac
:020000040000fa
:0200000400807a
:0440140002000000a6
:020000040000fa
:0200000400807a
:0440180000000000a4
:020000040000fa
:0200000400807a
:04401c0000000000a0
:020000040000fa
:0200000400807a
:04402000b67376e815
:020000040000fa
:0200000400807a
:04c00000ffff07f047
:020000040000fa
:0200000400807a
:04c004000000e8ff51
:020000040000fa
:0200000400807a
:04c00800cc9a34c0da
:020000040000fa
:0200000400807a
:04c01000ffffffff30
:020000040000fa
:0200000400807a
:04c01400ffffffff2c
:020000040000fa
:0200000400807a
:04c01800ffffffff28
:020000040000fa
:0200000400807a
:04c01c00ffffffff24
:020000040000fa
:0200000400807a
:04c02000ffffffff20
:020000040000fa
:0200000400807a
:04c02400ffffffff1c
:020000040000fa
:0200000400807a
:04c02800ffffffff18
:020000040000fa
:0200000400807a
:04c02c00ffffffff14
:020000040000fa
:0200000400807a
:04c03000ffffffff10
:020000040000fa
:0200000400807a
:04c03400ffffffff0c
:020000040000fa
:0200000400807a
:04c03800ffffffff08
:020000040000fa
:0200000400807a
:04c03c00ffffffff04
:020000040000fa
:0200000400807a
:04c04000ffffffff00
:020000040000fa
:0200000400807a
:04c04400fffffffffc
:020000040000fa
:0200000400807a
:04c04800fffffffff8
:020000040000fa
:0200000400807a
:04c04c00fffffffff4
:020000040000fa
:0200000400807a
:04c05000fffffffff0
:020000040000fa
:0200000400807a
:04c05400ffffffffec
:020000040000fa
:0200000400807a
:04c05800ffffffffe8
:020000040000fa
:0200000400807a
:04c05c00ffffffffe4
:020000040000fa
:0200000400807a
:04c06000ffffffffe0
:020000040000fa
:0200000400807a
:04c06400ffffffffdc
:020000040000fa
:0200000400807a
:04c06800ffffffffd8
:020000040000fa
:0200000400807a
:04c06c00ffffffffd4
:020000040000fa
:0200000400807a
:04c07000ffffffffd0
:020000040000fa
:0200000400807a
:04c07400ffffffffcc
:020000040000fa
:0200000400807a
:04c07800ffffffffc8
:020000040000fa
:0200000400807a
:04c07c00ffffffffc4
:020000040000fa
:0200000400807a
:04c08000ffffffffc0
:020000040000fa
:0200000400807a
:04c08400ffffffffbc
:020000040000fa
:0200000400807a
:04c08800ffffffffb8
:020000040000fa
:0200000400807a
:04c08c00ffffffffb4
:020000040000fa
:0200000400807a
:04c0e000ffffffff60
:020000040000fa
:0200000400807a
:04c0e400ffffffff5c
:020000040000fa
:0200000400807a
:04c0e800ffffffff58
:020000040000fa
:0200000400807a
:04c0ec00ffffffff54
:020000040000fa
:0200000400807a
:04c0f000ffffffff50
:020000040000fa
:0200000400807a
:04c0f400ffffffff4c
:020000040000fa
:0200000400807a
:04c0f800ffffffff48
:020000040000fa
:0200000400807a
:04c0fc00ffffffff44
:00000001FF
