:020000040000fa
:020000040004f6
:10000000f0ff00204d090400930b0400df0b0400f7
:1000100000000000000000000000000000000000e0
:100020000000000000000000000000004302040087
:10003000000000000000000043020400430204002e
:1000400000000000000000000000000000000000b0
:1000500000000000000000000000000000000000a0
:100060000000000000000000000000000000000090
:100070000000000000000000000000000000000080
:100080000000000000000000000000000000000070
:100090000000000000000000000000000000000060
:1000a0000000000000000000000000000000000050
:1000b000000000000000000000000000290804000b
:1000c0002908040029080400290804000000000091
:1000d0000000000000000000000000000000000020
:1000e0000000000000000000000000008d08040077
:1000f0008d0804008d0804008d0804000000000035
:1001000000000000000000000000000000000000ef
:1001100000000000000000000000000000000000df
:1001200000000000000000000000000000000000cf
:1001300000000000000000000000000000000000bf
:1001400000000000000000000000000000000000af
:0c015000000000000000000000000000a3
:020000040000fa
:020000040004f6
:10015c00f8b5c046f8bc08bc9e467047590a040066
:10016c00f8b5c046f8bc08bc9e467047350a04007a
:020000040000fa
:020000040004f6
:10017c00f0b5c64600b582b040f20045c4f2002589
:10018c00012748f25014c2f20004072648f28001fd
:10019c00c2f2000112e05a009046885c8446684620
:1001ac0062468271424601328a5cc271013314e0ac
:1001bc006b4606331b78ab62237de3b92b7e3b4247
:1001cc0035d0a268e3689a422bd06a683240012a83
:1001dc00e1d0c85c6a469071013322699342924126
:1001ec001340e3606b683340012be1d16b4606335f
:1001fc001b88ab62e0e700f0bbfc2368002bc5d08a
:10020c006168237f33b1a3699842bfd3236803206d
:10021c009847bbe7a3699842b8d123680320984755
:10022c00b4e740f20043c4f2002301221a7502b075
:06023c0004bc9046f0bd79
:020000040000fa
:020000040004f6
:02024200fee7d5
:020000040000fa
:020000040004f6
:10024400f0b5c64600b54ef20013cef2000340f2fc
:100254001c301a581202120ac02109060a431a5005
:10026400802212061a6040f22032985840f2ff08a9
:100274004446a04340f2c00c6446204398500120f9
:10028400586098581b4f38404cf200063043985041
:10029400022058609858184d2840c0242404204354
:1002a400985004225a6040f228301a581202120a56
:1002b4000a431a5040f600025a6040f22c32985811
:1002c4004146884361460843985041f20001596011
:1002d400995839403143995042f200015960995874
:1002e4000d402c439c5044f200025a6004bc9046da
:0c02f400f0bdc046ff00ffffffff00ff51
:020000040000fa
:020000040004f6
:1003000040f20043c4f2002340f28412c4f200021f
:100310001a60d22252429a8140f20022c0f20302b5
:100320005a6040f20042c4f20022d369002bfcd193
:1003300040f20043c4f200231a6802210a431a6003
:1003400040f20042c4f20022d369002bfcd148f2f3
:100350005013c2f2000300221a629a62da62342158
:100360005a5408315a549a630021da871a609a6005
:10037000da60197519779a6140f20043c4f20023dc
:100380005a6807231340012b0fd048f25013c2f2d2
:10039000000380221a631a6140f20043c4f2002372
:1003a00080229a757c3a9a75704748f25013c2f2cf
:0a03b000000340221a631a61eee711
:020000040000fa
:020000040004f6
:1003ba00f8b540f20046c4f20026042748f2501469
:1003ca00c2f2000417e0226a12b3616a236a0120aa
:1003da009847a36a0133226b93429241134017e074
:1003ea00a16aedb248f20002c2f200025554a362b9
:1003fa003423e35c0bbb337e3b4235d0b56aa36a38
:10040a000133226b934292411340e26a9a42dad054
:10041a00e26a9a42efd0716807220a40012adfd1c4
:10042a00a26a5200e8b248f20001c2f200018854fe
:10043a000132adb22d0a8d54d9e700f05cfb236a74
:10044a00002bd8d0616a3c23e35c33b1a36b98429a
:10045a00d1d3236a00209847cde7a36b9842cad12b
:0a046a00236a00209847c6e7f8bd9a
:020000040000fa
:020000040004f6
:1004740070b548f29013c2f200031b7d002b4ad0e2
:1004840048f29012c2f200029368516841f20002ed
:10049400c4f20022127ed2071fd599421dd941f21f
:1004a4000001c4f20021072648f29010c2f20000b5
:1004b400012509e00268d25c8a62013344680a7e3d
:1004c4002a420ad09c4208d94a683240012af1d112
:1004d40002685c00a25a8a62efe748f29012c2f204
:1004e4000002936052689a4215d848f29013c2f2ff
:1004f400000300221a755a6041f20002c4f200227d
:1005040001211175db6833b148f29013c2f2000384
:080514001869db68984770bd0f
:020000040000fa
:020000040004f6
:10051c00f0b5d6464f464646c0b5844648f2501212
:10052c00c2f20002d36a966a00293dd0b3423ed093
:10053c000400012040f2004ac4f2002a40f20708ed
:10054c0048f20005c2f2000515e0ea5c91466246ed
:10055c00013a4f461754013348f25012c2f20002ce
:10056c00126b934292411340884212d2421c0234c5
:10057c00b3420fd010005246526847463a40012a07
:10058c00e3d15a00af5c27700132aa5c6270013370
:10059c00e2e71e0048f25013c2f20003de621cbcfc
:1005ac0090469946a246f0bd1e000800f2e70020d6
:0205bc00f0e766
:020000040000fa
:020000040004f6
:1005be0010b548f29013c2f200032c229b5c33b3a9
:1005ce0048f29013c2f20003da691b6a93421ed2fc
:1005de0048f29013c2f20003986a41f20002c4f28c
:1005ee000022916a1b6a546807222240012a0fd00a
:1005fe0048f29012c2f200029269d154013348f2cd
:10060e009012c2f200021362d2699a4208d010bd53
:10061e0048f29012c2f2000292695c00a152ede71c
:10062e0048f29013c2f2000300222c215a54da61d0
:10063e0041f20002c4f20022583111755b6a002ba0
:10064e00e5d048f29013c2f200035b6a9847dee7ea
:020000040000fa
:020000040004f6
:10065e0070b5002840d048f29013c2f200031a7d04
:10066e000023babb48f29013c2f20003186059601f
:10067e0001321a755c6841f20003c4f200231b7e3e
:10068e00db0718d5d4b1002341f20001c4f20021da
:10069e000726012507e0c25c8a6201330a7e2a42e0
:1006ae000bd09c420ad04a683240012af3d15a003c
:1006be00825a8a62f1e7002400e01c0048f290138f
:1006ce00c2f200039c6041f20003c4f20023012237
:0c06de009a750123180070bd0023fbe793
:020000040000fa
:020000040004f6
:1006ea0041f20003c4f2002340f28412c4f2000271
:1006fa001a60d22252429a8140f20022c0f20302c8
:10070a005a6041f20002c4f20022d369002bfcd1e4
:10071a0041f20003c4f200231a6802210a431a6054
:10072a0041f20002c4f20022d369002bfcd148f244
:10073a009013c2f2000300229a61da611a622c2134
:10074a005a545a621a605a609a601a75da60da85df
:02075a007047e6
:020000040000fa
:020000040004f6
:10075c0010b540f20043c4f200235b8b0722134018
:10076c0003b910bd48f25012c2f20002d38740f216
:10077c000043c4f2002380221a76793a5a831b7ef6
:10078c005b0708d540f20043c4f2002304219a6aa7
:10079c001a7e0a42fbd148f25013c2f200031b6ac4
:1007ac00002bded048f25013c2f20003596a1b6ac8
:0607bc0002209847d5e77a
:020000040000fa
:020000040004f6
:1007c20030b589b0002000f0fff9fff798fdfff780
:1007d2008bff00f0a6f902a840f66433c0f20403ce
:1007e200020032cb32c212cb12c21b781370142118
:1007f200fff734ff00f0e0f90028fbd000f07ff9aa
:100802000028fbd001216b46d81dfff786fe012888
:10081200f4d101216b46d81dfff720ff00f0ccf97f
:060822000028fbd0eae70c
:020000040000fa
:020000040004f6
:1008280010b540f20043c4f200239b7d1bb340f295
:100838000042c4f20022137edbb2927d52b2002a3b
:100848001adb40f20043c4f200231a7ed2b29b7d29
:10085800db0703d5d30701d5fff78cfc40f2004333
:10086800c4f200231a7ed2b29b7d5b0703d55307df
:1008780001d5fff79efd10bd5bb2002be1dafff753
:0408880069ffdee73f
:020000040000fa
:020000040004f6
:10088c0010b541f20003c4f200239b7d1bb341f26f
:10089c000002c4f20022137edbb2927d52b2002a17
:1008ac001adb41f20003c4f200231a7ed2b29b7d04
:1008bc00db0703d5d30701d5fff7d6fd41f20003c3
:1008cc00c4f200231a7ed2b29b7d5b0703d553077b
:1008dc0001d5fff76efe10bd5bb2002be1da00f024
:0408ec0081f8dee7ca
:020000040000fa
:020000040004f6
:1008f00000230e4a10b513600d4a0e4c13600e4ac9
:1009000013600e4a13600e4a13600e4a536213615d
:100910000133936000f064f900f062f90a4b9c42e5
:1009200000d310bd08cc9847f8e7c046e08100200e
:100930000c81002068010400088100200081002053
:0c09400004810020108100206c010400e4
:020000040000fa
:020000040004f6
:10094c0010b540f63323c0f20403984740f6332326
:10095c00c0f20403984700f0a3f840f20003c0f281
:10096c0004037f2293434ef60052cef200029360b2
:10097c0040f6f103c0f20403984740f63323c0f26b
:10098c000403984740f63323c0f204039847fff75b
:04099c0012fffee761
:020000040000fa
:020000040004f6
:1009a000c08100201c00000000000000008000202a
:1009b00000010000000000005081002070000000d5
:1009c00000000000dc8100200400000000000000a6
:1009d000008100205000000000000000e0810020a5
:1009e0000400000000000000000000000000000003
:020000040000fa
:020000040004f6
:1009f00010b541f20003c4f200235b8b07221340c1
:100a000003b910bd48f29014c2f20004e38500f06f
:100a100031f841f20003c4f2002384221a752c231a
:100a20000022e254636a002bebd0a06a636a984705
:020a3000e7e7f6
:020000040000fa
:020000040004f6
:020a320070470b
:020000040000fa
:020000040004f6
:100a340010b5054c227832b9044b13b1044800e0d8
:100a440000bf0123237010bdc081002000000000fe
:100a540000000000034b10b51bb10349034800e03c
:100a640000bf10bd00000000c48100200000000091
:020000040000fa
:020000040004f6
:100a740041f20003c4f200235b8b5b0713d041f205
:100a84000003c4f2002380221a76793a5a831b7e2b
:100a94005b0708d541f20003c4f2002304219a6adb
:080aa4001a7e0a42fbd17047e3
:020000040000fa
:020000040004f6
:100aac0010b50948016811b9436803b910bd0400b9
:100abc008368064a9bb20c349b009b58426820000a
:100acc00984780002018ede7a0090400940b04005f
:020000040000fa
:020000040004f6
:100adc0048f25012c2f200029068d368984201d3d7
:100aec00c01a704748f25012c2f200021269101874
:040afc00c01af6e73f
:020000040000fa
:020000040004f6
:100b000048f25012c2f20002d36a906a834201d8be
:100b1000c01a704748f25012c2f20002126b10184d
:040b2000c01af6e71a
:020000040000fa
:020000040004f6
:100b240041f20003c4f200235968802252020a43ae
:100b34005a6041f20002c4f20022d369002bfcd1b6
:020b44007047f8
:020000040000fa
:020000040004f6
:100b4600002310b5934206d103201840421e90415f
:0e0b56009b08c01810bdc45ccc540133f2e7fc
:020000040000fa
:020000040004f6
:100b640047505320427269646765205374617274fc
:080b740065640d0a0000c04693
:020000040000fa
:020000040004f6
:100b7c0010b548f25013c2f200031c69fff7a8ff2e
:060b8c00013c201a10bd1f
:020000040000fa
:020000040004f6
:020b9200fee77c
:020000040000fa
:020000040004f6
:100b9400a90b0400470b0400db0b0400db0b04006f
:040ba400db0b040063
:020000040000fa
:020000040004f6
:100ba8008a18914201d10020704700230b7001314f
:020bb800f7e75d
:020000040000fa
:020000040004f6
:100bba0041f20003c4f20023187e8007c00f704779
:020000040000fa
:020000040004f6
:100bca0010b5fff73afbfff78bfdfff794fb10bd5b
:020000040000fa
:020000040004f6
:040bda000020704740
:020000040000fa
:020000040004f6
:020bde00fee730
:020000040000fa
:020000040004f6
:020be00070475c
:00000001FF
