:020000040000fa
:10000000f87f0020f91a00002f1600002f160000bc
:1000100000000000000000000000000000000000e0
:100020000000000000000000000000002f1600008b
:1000300000000000000000002f160000af130000b9
:100040002f1600002f1600002f1600002f1600009c
:100050002f160000f70d00002f1600002f160000cd
:100060002f1600002f1600002f1600002f1600007c
:100070002f1600002f1600002f1600002f1600006c
:100080002f1600002f1600002f1600002f1600005c
:100090002f1600002f1600002f1600002f1600004c
:1000a0002f1600002f1600002f1600002f1600003c
:1000b0002f1600002f1600002f1600002f1600002c
:1000c0002f1600002f1600002f1600002f1600001c
:1000d0002f1600002f1600002f1600002f1600000c
:1000e0002f1600002f1600002f1600002f160000fc
:1000f0002f1600002f1600002f1600002f160000ec
:100100002f1600002f1600002f1600002f160000db
:100110002f1600002f1600002f1600002f160000cb
:100120002f1600002f1600002f1600002f160000bb
:100130002f1600002f1600002f1600002f160000ab
:100140002f1600002f1600002f1600002f1600009b
:0c0150002f1600002f1600002f160000d4
:020000040000fa
:10015c00f8b5c046f8bc08bc9e467047711d00003f
:10016c00f8b5c046f8bc08bc9e4670474d1d000053
:020000040000fa
:10017c0080b500af40f60003c4f20003da6940f624
:10018c000003c4f2000302210a43da6141f6004382
:10019c00c4f20003c4224221995000e0c04641f64b
:1001ac000043c4f20003c4229b5840221340002b8e
:1001bc00f4d040f20003c2f200032c2200211800fc
:1001cc0001f0b4fe40f20003c2f2000340f2004220
:1001dc00c4f200221a6040f20043c4f20023012250
:1001ec001a6000e0c04640f20043c4f20023db6911
:1001fc0001221340002bf5d140f20043c4f200233e
:10020c0004221a6040f20043c4f20023196840f241
:10021c000043c4f200230022c4f210020a431a6005
:10022c0040f20043c4f20023314a9a8140f20003a9
:10023c00c2f2000300225a6240f20003c2f2000331
:10024c0047f6ae42c0f2a2029a6240f20043c4f2f8
:10025c0000235a6840f20043c4f20023c32109046e
:10026c000a435a6000e0c04640f20043c4f2002347
:10027c00db6904221340002bf5d143f20023c4f2b6
:10028c00000310229a6043f20023c4f200034422bc
:10029c000121995443f20023c4f20003322233218a
:1002ac00995443f20023c4f2000320225a6043f213
:1002bc000023c4f2000345220321995440f2004369
:1002cc00c4f200231a6840f20043c4f20023022156
:1002dc000a431a6000e0c04640f20043c4f2002317
:1002ec00db6902221340002bf5d1c046bd4680bd10
:1002fc002bf6ffff80b500af40f60003c4f20003fd
:10030c00da6940f60003c4f2000310210a43da61f3
:10031c0041f60043c4f20003d0224221995000e080
:10032c00c04641f60043c4f20003d0229b58402241
:10033c001340002bf4d040f22c03c2f200032c2209
:10034c000021180001f0f2fd40f22c03c2f2000370
:10035c0041f20002c4f200221a6041f20003c4f21e
:10036c00002301221a6000e0c04641f20003c4f2ef
:10037c000023db6901221340002bf5d141f200036d
:10038c00c4f2002304221a6041f20003c4f20023d9
:10039c00196841f20003c4f200230022c4f21012c7
:1003ac000a431a6041f20003c4f20023334a9a81d3
:1003bc0040f22c03c2f2000300225a6240f22c03da
:1003cc00c2f2000342f20e72c0f207029a6241f2cc
:1003dc000003c4f200235a6841f20003c4f2002364
:1003ec00c32109040a435a6000e0c04641f20003ed
:1003fc00c4f20023db6904221340002bf5d143f235
:10040c000023c4f20003882240f20011995043f2f9
:10041c000023c4f20003c8220121995443f20023a3
:10042c00c4f20003b4223321995443f20023c4f2e2
:10043c000003842240f20021995043f20023c4f2bd
:10044c000003c9220321995441f20003c4f2002392
:10045c001a6841f20003c4f2002302210a431a6015
:10046c0000e0c04641f20003c4f20023db69022223
:10047c001340002bf5d1c046bd4680bd2bf6ffffc7
:10048c0080b582b000af78607b685b6963b17b68d4
:10049c005b690122da807b685b697a68128c92b2a4
:1004ac001a817b6800225a617b6800229a617b6802
:1004bc000022da617b6800221a84c046bd4602b075
:1004cc0080bd90b587b000af786039601623fb18fb
:1004dc0000221a801523fb1800221a707b681b68f7
:1004ec001b7edbb21a0001231340002b50d07b681b
:1004fc001b8a9bb283b17b68db68591c7a68d1601c
:10050c001b78dab27b681b689a627b681b8a9bb289
:10051c00013b9ab27b681a827b681b8a9bb2002bc8
:10052c0036d17b680022da607b681b899bb22bb3c7
:10053c007b685b681a687b68da607b685b689b88a1
:10054c009ab27b681a827b685b6808331a007b68f6
:10055c005a607b681b899bb2013b9ab27b681a81fb
:10056c007b68db681bb17b681b8a9bb283b97b6899
:10057c000022da607b6800221a8209e07b681b6823
:10058c0001221a757b6800225a607b680022da60af
:10059c007b681b681b7edbb21a000423134073b10b
:1005ac007b681b685b8b9ab21623fb1836490a438f
:1005bc001a807b681b689a6a1523fb181a707b6873
:1005cc005b69002b59d01623fb181b8848f20302d9
:1005dc00134048f20002934213d17b685b691a689e
:1005ec007b681b8c9bb2591c88b279680884d31821
:1005fc001522ba1812781a707b683a68183303ca35
:10060c0003c37b681b685b8b9bb21ab21623fb1867
:10061c0000215b5ef7210b401bb213431ab27b68bf
:10062c001b6892b25a837b681b8c9ab27b685b699d
:10063c009b889bb29a4204d37b681800fff720ff7b
:10064c001ce07b681b8c9bb2cbb17b6818331a0007
:10065c0039680c243b19180000f073ff7b682433b5
:10066c001a003b191100180000f06ffe031e06db88
:10067c007b681800fff704ff00e0c046c046c04688
:10068c00bd4607b090bdc0460080ffff80b582b06c
:10069c0000af78607a6840f20003c2f200031100e8
:1006ac001800fff70eff7a6840f22c03c2f2000329
:1006bc0011001800fff705ffc046bd4602b080bd13
:1006cc0080b582b000af78607b681b8a9bb25bb947
:1006dc007b681b899bb23bb97b681b681b7edbb2ba
:1006ec001a00012313400bb9012300e000231a1c4c
:1006fc0001231340dbb21800bd4602b080bd80b5ab
:10070c0088b000aff860b9607a601e23fb1808222d
:10071c0052421a80bb680bb17b680bb901233ae0db
:10072c007b68202b01d9002335e0fb681800fff70c
:10073c00c7ff03000bb100232de00023bb61002396
:10074c007b611ce0bb69db00ba68d3189b881e2256
:10075c00ba1812889a4201d200231ce0bb69db0054
:10076c00ba68d3189a881e217b18791809888a1ab6
:10077c001a807b6901337b61bb690133bb61ba6948
:10078c007b689a42ded3fb68ba685a607b689ab27f
:10079c00fb681a8101231800bd4608b080bd80b5e6
:1007ac0082b000af78607b6800221a817b680022df
:1007bc005a607b6800221a827b680022da60c0468d
:1007cc00bd4602b080bd80b582b000af78603960a4
:1007dc003a68796840f22c03c2f200031800fff764
:1007ec008eff03001800bd4602b080bd80b500af7f
:1007fc0040f22c03c2f200031800fff761ff030064
:10080c001800bd4680bd80b500af40f22c03c2f28b
:10081c0000031800fff7c3ffc046bd4680bd80b57e
:10082c0082b000af786039603a68796840f20003b2
:10083c00c2f200031800fff762ff03001800bd4668
:10084c0002b080bd80b500af40f20003c2f20003dd
:10085c001800fff735ff03001800bd4680bd80b5ba
:10086c0000af40f20003c2f200031800fff797ff3d
:10087c00c046bd4680bd80b582b000af78607b6855
:10088c005b695a1e9341dbb21800bd4602b080bdb5
:10089c0080b582b000af786039603b685bb13b6873
:1008ac001b6843b13b689b882bb13b689b884ff618
:1008bc00f872934201d9002316e07b685b690bb197
:1008cc00002311e03b680022da803b6800221a8189
:1008dc007b6800221a847b681833180000f0edfd49
:1008ec007b683a685a6101231800bd4602b080bd8e
:1008fc0080b582b000af78607a6840f22c03c2f207
:10090c00000311001800fff7c3ff03001800bd46d9
:10091c0002b080bd80b500af40f22c03c2f20003e0
:10092c001800fff7a8ff03001800bd4680bd80b576
:10093c0000af40f22c03c2f200031800fff7a0fd39
:10094c00c046bd4680bd80b582b000af78607a6885
:10095c0040f20003c2f2000311001800fff798ffe9
:10096c0003001800bd4602b080bd80b500af40f258
:10097c000003c2f200031800fff77dff030018000c
:10098c00bd4680bd80b500af40f20003c2f200034b
:0c099c001800fff775fdc046bd4680bd89
:020000040000fa
:1009a80080b582b000af0200fb1d1a70fb1d1b78da
:1009b8007f2b12d8fb1d1b781a001f231a40110029
:1009c8004ef20013cef20003fa1d127852b2520909
:1009d8000120884001009200d150c046bd4602b0b7
:1009e80080bd90b583b000af02003960fb1d1a705e
:1009f800fb1d1b787f2b2fd84ef20013cef200037d
:100a0800fa1d127852b29208c0329200d358fa1dd9
:100a18001278110003220a40d200ff2191400a00f7
:100a2800d2431a4010003b689b01ff221a40fb1d6d
:100a38001b78190003230b40db009a4011004ef28b
:100a48000013cef20003fa1d127852b29208014345
:100a5800c0329200d15037e04ef60053cef2000378
:100a6800fa1d127811000f220a40083a920806323d
:100a780092009b1804331b68fa1d12781100032298
:100a88000a40d200ff2191400a00d2431a401000c8
:100a98003b689b01ff221a40fb1d1b7819000323aa
:100aa8000b40db009a404ef60053cef20003f91dce
:100ab80009780c000f2121400839890802430631c2
:100ac80089005b1804331a60c046bd4603b090bd68
:100ad80080b582b000af00237b6040f20043c4f2cf
:100ae800000301229a7140f20043c4f2000302227b
:100af8009a7000e0c04640f20043c4f200039b79bc
:100b0800dbb21a0001231340002bf3d040f200435c
:100b1800c4f2000301229a7145f20003c4f20013e3
:100b280004225a6041f60003c4f2000340f2023284
:100b38001a6200e0c04641f60003c4f20003da6816
:100b48008023db021340002bf4d041f20003c4f2ef
:100b5800000300221a8600e0c04641f20003c4f2f6
:100b680000031a6980235b041340002bf4d046f27b
:100b78002003c0f280031b687b607a68fc23db05d6
:100b880013407b607b68db0b7b607b6840f2002254
:100b980013437b6041f20003c4f200037a685a638e
:100ba80000e0c04641f20003c4f200031a69802342
:100bb8005b041340002bf4d041f20003c4f200039d
:100bc8001b8e9ab241f20003c4f2000302210a43c9
:100bd80092b21a8600e0c04641f20003c4f2000354
:100be8001a6980235b041340002bf4d041f60043bc
:100bf800c4f2000340f205129a6200e0c04641f6d2
:100c08000043c4f200035b6810221340002bf5d1a7
:100c180041f60043c4f2000340f20512da6200e034
:100c2800c04641f60043c4f200035b68202213402b
:100c3800002bf5d141f60043c4f2000340f207123d
:100c4800c0f202021a6200e0c04641f60043c4f254
:100c580000035b6804221340002bf5d1c046bd4653
:100c680002b080bd80b500af41f60043c4f2000376
:100c780090224221995000e0c04641f60043c4f258
:100c8800000390229b5842221340002bf4d042f6d6
:100c98000023c4f2000301221a7000e0c04642f6a5
:100ca8000023c4f200035b6801221340002bf5d136
:100cb80042f60023c4f200030f225a63c046bd4621
:100cc80080bd80b500af42f60023c4f200031b7854
:100cd800dab242f60023c4f2000302210a43d2b278
:100ce8001a7000e0c04642f60023c4f200035b68b5
:100cf80002221340002bf5d1c046bd4680bd80b509
:100d080000af40f20023c4f2002301221a70c0464b
:100d1800c046c046c046bd4680bd80b500af43f260
:100d28000023c4f2000348f200025a6143f2002390
:100d3800c4f2000348f200029a6043f20023c4f2ae
:100d480000034f2200219954c046bd4680bd80b59e
:100d580086b000af0200bb1d1a803b1d0a1c1a801a
:100d680010217b1800221a607b1800225a60082084
:100d78003b1800221a603b1800225a603b1d0022d3
:100d88009b5edb431bb2ba1d0020125e13401ab2f1
:100d9800bb1d1a80bb1d1b880122134033b17b1871
:100da8001b6848f200021a437b181a603b1d1b8817
:100db800012213403bb108217b181b6848f200024e
:100dc8001a437b181a6043f20023c4f2000310226e
:100dd800ba1812689a6143f20023c4f20003082289
:100de800ba1812685a61c046bd4606b080bd80b5c3
:100df80000af40f2dc03c2f200031b889bb203225f
:100e080093439ab240f2dc03c2f200031a8042f61e
:100e18000023c4f200039b6b0422134073b940f211
:100e2800dc03c2f200031b889bb2012213439ab26f
:100e380040f2dc03c2f200031a800de040f2dc034a
:100e4800c2f200031b889bb2022213439ab240f2fb
:100e5800dc03c2f200031a8042f60023c4f2000346
:100e68005a6942f60023c4f2000304210a435a6176
:100e7800c046bd4680bd80b500af43f20023c4f232
:100e88000003802212045a6043f20023c4f20003d4
:100e980057220321995443f20023c4f200033b2252
:100ea8009b5cdab243f20023c4f200030f210a402c
:100eb800d1b23b22995442f60023c4f200031a6bc4
:100ec80042f60023c4f2000304210a431a6342f6df
:100ed8000023c4f20003da6942f60023c4f20003d7
:100ee8000c490a40da6142f60023c4f20003da69c9
:100ef80042f60023c4f2000340f600310a43da61e7
:100f080042f60023c4f2000304221a61c046bd461b
:100f180080bdc046fff0ffff80b582b000afba1dac
:100f280040f2dc03c2f200031b88138040f2dc03aa
:100f3800c2f2000300221a80bb1d1b881800bd46a0
:100f480002b080bd80b500afbff35f8f62b60321ea
:100f58000520fff746fd01235b4203211800fff738
:100f680040fd0520fff71cfd01235b421800fff739
:100f780017fdc046bd4680bd80b500affff7a8fd90
:100f8800fff7bdfefff76efefff775fffff7c5fe23
:100f9800fff7b2f9fff7eef8fff793fe00f057fa04
:100fa800fff7d0ffc046bd4680bd80b582b000af18
:100fb8003b00180000f083fa3b001800fff768fbbd
:080fc800c046bd4602b080bd29
:020000040000fa
:100fd0000023f0b506001500b1b0079103930799ff
:100fe0000b78002b00d10ae101235b420c9310ab7c
:100ff00000240e9380230b940d940f930b5d0bb183
:10100000252b29d134b12200300000f026ff079ba8
:101010001b190793079b1a78252a00d0e4e040f2b9
:10102000020c0121102701330493079307980378da
:101030002b2b1ad025d8202b1ad0232b1dd02a2bae
:1010400028d000f0a3fe0d90079b1a78303a092aa9
:1010500031d801330793f7e70134cfe70b9b0593b2
:101060000b4301300b930790e0e704230b9a0fe04a
:101070000b9b0593059a08230ae00b9b05933b43c2
:10108000efe72d2bead0302bd9d162460b9b05938d
:101090001343e6e72b6801301a1d1b6807902a608e
:1010a0000d93002b07da0b9a5b42059201220599fa
:1010b0000d934a400b920b9bda0702d50222934311
:1010c0000b93079b1a782e2a0ed10022581c0c92e3
:1010d00007905a782a2a27d1023307932b681a1dc2
:1010e0001b682a6005930c9307a800f06ffe079b0e
:1010f0000700187800f03dff692800d182e034dc59
:10110000632800d1d7e01adc252800d1e4e061286b
:1011100058d0049b01220793002352420c920b9358
:101120000d9300930232e1e000f030fe0c90079b3b
:101130001a78303a092ad7d801330793f7e7642899
:1011400060d06728e5dc2a00390008a800f070feae
:10115000002800d1abe0079b0ba95a1c07921b7813
:1011600008aa300000f022ff3de0702800d17be0ab
:1011700016dc6e2800d193e06f28cad12b00002224
:10118000390008a800f01cfc002800d18fe0079b64
:1011900008aa01330ba93000079300f005ff22e0f5
:1011a000752840d078284ed07328b2d1802f00d037
:1011b0007de0079b2a6801330793131d2b6012689b
:1011c000002384e02a00390008a800f031fe00283e
:1011d00000d16ce0079b0ba95a1c07921b7808aa48
:1011e000300000f0e3fe2418039b1c19a34200dc2e
:1011f0007ee04f223f4b1a6001235b42039303982a
:1012000031b0f0bd2b000122390008a800f0d8fb56
:1012100000284cd0079b08aa01330ba93000079384
:1012200000f0c2fedfe72b000022390008a800f022
:10123000c7fbe0b3079b08aa01330ba93000079353
:1012400000f0b2fecfe72b000022390008a800f022
:10125000b7fb60b3079b5a1c07921b7808aa0ba91f
:10126000300000f0a3febee72b000022f02108a80a
:1012700000f0a6fbd8b1079b099a01330793089b9e
:1012800013435bb91c4800f01ffe02000b9b1a4978
:1012900000930d9b300000f06efca4e77823dde79f
:1012a000039b39001a1908a82b0000f0a1fc079b2a
:1012b0000133079398e7802ff9d1079b01330793f8
:1012c0002b681a1d1b682a6008aa137001230ba93a
:1012d000300000f0effc86e7802fe8d10122079b69
:1012e000013307930b9b049300930d9b0349d1e7b4
:1012f000039474e6d80000208c1f0000921f0000a9
:020000040000fa
:1013000080b582b000af786019e07b685b6843f21b
:101310000062ccf265429a187b685a607b681b6851
:10132000013305d07b681b685a1c7b681a6006e095
:101330007a684cf6ff13c3f69a33536007e07b6874
:101340005a684cf6ff13c3f69a339a42ddd8c0466a
:10135000bd4602b080bd80b582b000af7860396014
:101360007b681a683b681b689a4202d201235b4281
:1013700019e07b681a683b681b689a4201d901230f
:1013800011e07b685a683b685b689a4202d201238d
:101390005b4208e07b685a683b685b689a4201d907
:1013a000012300e000231800bd4602b080bd80b5d7
:1013b00082b000af3a0040f2c403c2f2000303cb94
:1013c00003c23b005b6844f64032c0f24c029a18fc
:1013d0003b005a600de03b005b6843f20062ccf2d8
:1013e00065429a183b005a603b001b685a1c3b0040
:1013f0001a603b005a684cf6ff13c3f69a339a42c0
:10140000e9d840f2cc03c2f200031b685a1c40f238
:10141000cc03c2f200031a6040f2c403c2f200031c
:101420003a0003ca03c340f2cc03c2f200031b68b4
:101430005a1c40f2cc03c2f200031a604ef21003b1
:10144000cef2000348f25812c0f215029a60c0466c
:10145000bd4602b080bd80b500af4ef21003cef2a3
:1014600000034ef660225a604ef21003cef20003e3
:1014700048f25812c0f215029a604ef21003cef2f2
:10148000000307221a60c046bd4680bd80b584b007
:1014900000af786040f2cc03c2f200031b68fb602f
:1014a0007a6840f2c403c2f2000303cb03c240f2e5
:1014b000cc03c2f200031b68fa689a42ead1c04624
:1014c000bd4604b080bd90b587b000af78604ef2e5
:1014d0001003cef200039b684ef66022d31a7b61a4
:1014e0000c243b191800fff7d1ff20003b18596866
:1014f0007a6913005b019b1a9b009b18db001a00a2
:101500000c23b2fbf3f3ca183b185a600ee00c210f
:101510007b185b6843f20062ccf265429a187b1834
:101520005a607b181b685a1c7b181a600c217b18a8
:101530005a684cf6ff13c3f69a339a42e7d87b6891
:101540007a1803ca03c3c046bd4607b090bd80b534
:1015500088b000aff860b9607a6014217b1800226f
:101560001a607b1800225a600023fb61bb681a686e
:101570007b681b689a4207d2bb681a687b681b6845
:10158000d21a7b181a6007e0bb681a687b681b6870
:10159000d21a1423fb181a60bb681a687b681b6890
:1015a0009a4233d27b681a68bb681b68d31afb6106
:1015b00015e0fb6943f2006cccf2654c6344fb61bf
:1015c0001422bb181b6823b9bb18012252421a60af
:1015d00005e014217b181b685a1e7b181a60fa69f3
:1015e0004cf6ff13c3f69a339a42e2d81422bb1882
:1015f0001b6823b9bb18012252421a600ee0142165
:101600007b181b685a1e7b181a6007e0bb685a6873
:101610007b685b68d21a1423fb185a60fb6814229b
:0e162000ba1803ca03c3c046bd4608b080bd59
:020000040000fa
:02162e00fee7d5
:020000040000fa
:1016300080b582b000af7860fff7a2fcfef760fed5
:10164000fef79cfd7b689d33ff33180000f029f8fe
:101650007a6841f6e003c0f2000353607b685b6880
:10166000180000f031fc03009ab27b681a817b6895
:10167000043301211800fff7acf87b689c331a0093
:101680007b6890215a507b68942240f20011995255
:101690007b6890331800fff75cf9c046bd4602b086
:1016a00080bd80b582b000af78607b687822002171
:1016b000180000f041fc7b687822002199527b6879
:1016c0007a2200219954c046bd4602b080bd80b543
:1016d00082b000af78607b68180000f0f5fb030073
:1016e000062b01d800231ee07b681b78242b01d039
:1016f000002318e041f6ac13c0f20003786806221c
:10170000190000f0befb030063b141f6b413c0f250
:10171000000378680622190000f0b3fb03000bb148
:10172000002300e001231800bd4602b080bd80b553
:1017300082b000af78600a00fb1c1a70fb1c1b789b
:10174000242b07d17b6878229b5a1bb17b68180039
:10175000fff7a7ff7b6878229b5a762b03d97b681b
:101760001800fff79eff7b6878229b5a5a1c90b2a4
:101770007a687821505219007b68fa1c12785a5402
:10178000fb1c1b780a2b0ad17b6878229b5a1a0013
:101790007b68002199547b687a2201219954c046c4
:1017a000bd4602b080bd80b584b000af7860fff761
:1017b000e2f803001a0001235340dbb2002b6ed085
:1017c0007b6898229b5a9bb2002b68d00c23fb1895
:1017d0007a689821525a1a800e23fb1800221a8028
:1017e00048e07b689d33ff3318000e23fb181b88ed
:1017f0007a689c21d3185b181b781900fff797ffb4
:101800007b6840f216229b5c73b37b689d33ff3389
:101810001800fff75cff030003b37b681433180064
:101820007b689d33ff3341f6bc12c0f20002782181
:1018300000f062fb7b6814331a007b685a607b6897
:101840001433180000f040fb03009ab27b681a8141
:101850007b68043301211800fef7bbff7b689d33d2
:10186000ff331800fff71dff0e217b181a887b1825
:1018700001321a800e23fa180c23fb1812881b88d9
:101880009a42aed37b689c3340f2001200211800cc
:1018900000f052fb7b6890331800fff75af8c046ff
:1018a000bd4604b080bd80b582b000af7860fff760
:1018b00080fb7b681800fff776ffc046bd4602b08c
:1018c00080bd80b5054fbd4400af3b001800fff759
:1018d000affe3b001800fff7e6fffae7e8fdffff69
:020000040000fa
:1018e0001b5b306d1b5b324a1b5b313b31482b2d40
:1018f0002d2d2d2d2d2d2d2d2d2d2d2d2d2d2d2d18
:101900002d2d2d2d2d2d2d2d2d2d2d2d2d2d2d2d07
:101910002d2d2d2d2d2d2d2d2d2d2d2d2d2d2d2df7
:101920002d2d2d2d2d2d2d2d2d2d2b0d0a7c2045d2
:101930004545203139323a20475053204d6f647568
:101940006c652052656164696e67732020202020d9
:101950002020202020202020202020202020202087
:101960002020202020202020207c0d0a2b2d2d2d12
:101970002d2d2d2d2d2d2d2d2d2d2d2d2d2d2d2d97
:101980002d2d2d2d2d2d2d2d2d2d2d2d2d2d2d2d87
:101990002d2d2d2d2d2d2d2d2d2d2d2d2d2d2d2d77
:1019a0002d2d2d2d2d2d2d2d2b0d0a00244750478b
:1019b00047410000244750524d430000257300006a
:020000040000fa
:1019c00010b588293ad014dc81294ad003dc80295b
:1019d00047d0002010bd822910d08429f9d1196880
:1019e0002ab30a1d1a6000228b5e0360db17436076
:1019f00010e0a0292ed00fdc9029ead11968072425
:101a00006ab30919a1430a0008321a600b684c68ce
:101a1000036044600120dde7c02901d0f029d8d15e
:101a20001a68111d1960136803600023dfe70c1d9d
:101a30001c600b689bb203604260ebe7196822b13f
:101a40000a1d1a600023cb56cfe70c1d1c600b68e3
:101a5000dbb2f0e71a68111d19601368c5e707319a
:101a6000d0e719681ab10a1d1a600b68bde70c1d92
:061a70001c600b68dfe7bb
:020000040000fa
:021a76007047b7
:020000040000fa
:101a7800e000002004000000010000000000000059
:101a8800a80000201c00000000000000dc0000206e
:101a98000200000000000000c40000200c0000004c
:101aa80000000000000000205800000000000000b6
:101ab800d0000020040000000000000058000020b2
:101ac8005000000000000000d400002008000000c2
:101ad80000000000e40000200400000001000000f5
:101ae8000000000000000000000000006666666656
:020000040000fa
:101af80040f20003c0f2000323b140f20003c0f239
:101b08000003984740f20003c0f2000323b140f2fb
:101b18000003c0f20003984700f06ef940f200039a
:101b2800c0f200037f2293434ef60052cef2000229
:101b3800936041f65943c0f20003984740f200030e
:101b4800c0f2000323b140f20003c0f2000398473b
:101b580040f20003c0f2000323b140f20003c0f2d8
:0e1b68000003984700210020fff7a7fefee7cc
:020000040000fa
:101b7600f0b51d00012389b014000e9a06001a4024
:101b8600039102920ab9a5420ad8220003993000ad
:101b960000f060f9a54203d82500280009b0f0bd81
:101ba6002f1b01973a00102f00d91022202104a8dc
:101bb60000f0bff9019b0f2b0ed80f2204a93a4063
:101bc600300000f047f9029b002be6d12200039972
:101bd600300000f03ff9e0e7102204a9300000f0e1
:0a1be60039f9019b103b0193e4e77d
:020000040000fa
:101bf00010b584291fd007dc812915d0822922d075
:101c0000802911d0002010bd90291cd008dc882923
:101c1000f8d119680c1d1c600b6803601a7010e085
:101c2000a02901d0c029edd119680c1d1c600b68da
:101c300003601a6005e019680c1d1c600b680360e6
:101c40001a800120dfe719680c1d1c600b68036017
:081c50001a60d2175a60f4e794
:020000040000fa
:101c580000230e4a10b513600d4a0e4c13600e4a4d
:101c680013600e4a13600e4a13600e4a53621361e2
:101c780001339360fff7fbfefff7f9fe0a4b9c4226
:101c880000d310bd08cc9847f8e7c046d400002020
:101c98006400002068010000600000205800002057
:0c1ca8005c000020680000206c010000bf
:020000040000fa
:101cb400f0b50f00150087b0039007220e4904a861
:101cc4001c0000f041f9bb687e6802933f6805b9c7
:101cd40004ad1cb9280000f0f5f80400002e02db66
:101ce400b44200d934000097029b220029000398d3
:0c1cf400fff73fff07b0f0bd9c1f000091
:020000040000fa
:101d000030b51500012289b0524201920432ff32ef
:101d1000029200b9684603900491002401b14c1e60
:101d20000594002906da4f220120074b40421a6031
:101d300009b030bd00220790027006901a002900f9
:0c1d400001a800f0cdf8f3e7d800002067
:020000040000fa
:101d4c0010b5054c227832b9044b13b1044800e0ad
:101d5c0000bf0123237010bda8000020000000006c
:101d6c0000000000034b10b51bb10349034800e011
:101d7c0000bf10bd00000000ac00002000000000ff
:020000040000fa
:101d8c00030010b51a78202a0dd011000939042946
:101d9c0009d900212b2a02d02d2a01d1013101337e
:101dac0000200a2404e00133ece760430133801a7d
:0e1dbc001a78303a092af8d901b9404210bd10
:020000040000fa
:101dcc0070b5040000200a4b4200d55c15b9d2183e
:101ddc00507870bd216801300e78c0b2ae4204d18b
:101dec00034b0131d218507821600a28ebd9f0e767
:041dfc000e1f0000b6
:020000040000fa
:101e000010b50948016811b9436803b910bd040051
:101e10008368064a9bb20c349b009b5842682000a2
:101e2000984780002018ede7781a0000241f000072
:020000040000fa
:101e3000002380290fdb812901dd83290bd10721b4
:101e4000136807338b431900083111601a685b6807
:0a1e50000260436001231800704790
:020000040000fa
:101e5a0070b505690400954200d915005db12a00e4
:101e6a00606900f06ef8226963695b19551b0022ec
:081e7a00636125611a7070bd5f
:020000040000fa
:101e820070b513006ab10024013a035d0e1933b133
:101e92000d5d25b1a24202d00134ab42f5d03078bb
:061ea2001b1a180070bdc0
:020000040000fa
:101ea800002310b5934206d103201840421e9041ea
:0e1eb8009b08c01810bdc45ccc540133f2e787
:020000040000fa
:101ec800037833b1030001331a78002afbd1181aba
:081ed80070470020fce7c04642
:020000040000fa
:101ee00013b50400019201aafff772f86368db06dc
:081ef00001d50120404216bd9e
:020000040000fa
:101ef8000cb407b504ab04cb0193fff7fdfe03b0a8
:061f080008bc02b01847fe
:020000040000fa
:101f0e0068076c094c836a9074a07ac00080688858
:061f1e0000846c820081ca
:020000040000fa
:101f2400611f0000a91e0000a51f0000a51f0000de
:041f3400a51f0000e5
:020000040000fa
:101f380032b10300c9b28218197001339342fbd140
:041f48007047c046d8
:020000040000fa
:101f4c0010b52ab10023cc5cc45401339342fad1ae
:041f5c0010bdc046ae
:020000040000fa
:101f60008a18914201d10020704700230b70013183
:021f7000f7e791
:020000040000fa
:0e1f72000300413b192b01d820231843704770
:020000040000fa
:0c1f800010b5fff797fefff733fe10bd11
:020000040000fa
:081f8c00286e696c2900250094
:020000040000fa
:081f940010b5fff7ecff10bdd2
:020000040000fa
:071f9c00286e756c6c290032
:020000040000fa
:041fa4000020704762
:020000040000fa
:041fa800002070475e
:020000040000fa
:041fac00002070475a
:020000040000fa
:041fb0000020704756
:00000001FF
