:10000000F07F002091040000B7060000F506000014
:1000100000000000000000000000000000000000E0
:10002000000000000000000000000000F9060000D1
:100030000000000000000000F9060000F9060000C2
:10004000F9060000F9060000F9060000F9060000B4
:10005000F9060000F9060000F9060000F9060000A4
:10006000F9060000F9060000F9060000F906000094
:10007000F9060000F9060000F9060000F906000084
:10008000F9060000F9060000F9060000F906000074
:10009000F9060000F9060000F9060000F906000064
:1000A000F9060000F9060000F9060000F906000054
:1000B000F9060000F9060000F90600000000000043
:1000C000000000000000000000000000F906000031
:1000D000F9060000F9060000F9060000F906000024
:1000E000F9060000F9060000F90600000000000013
:1000F000000000000000000000000000F906000001
:10010000F9060000F9060000F9060000F9060000F3
:10011000F9060000F9060000F9060000F9060000E3
:10012000F9060000F9060000F9060000F9060000D3
:10013000F9060000F9060000F9060000F9060000C3
:10014000F9060000F9060000F9060000F9060000B3
:10015000F9060000F9060000F9060000F07F002013
:1001600091040000B7060000F50600000000000042
:10017000000000000000000000000000000000007F
:100180000000000000000000F90600000000000070
:1001900000000000F9060000F9060000F906000062
:1001A000F9060000F9060000F9060000F906000053
:1001B000F9060000F9060000F9060000F906000043
:1001C000F9060000F9060000F9060000F906000033
:1001D000F9060000F9060000F9060000F906000023
:1001E000F9060000F9060000F9060000F906000013
:1001F000F9060000F9060000F9060000F906000003
:10020000F9060000F9060000F9060000F9060000F2
:10021000F9060000F9060000FB060000FB060000DE
:10022000FB060000FB060000F9060000F9060000CE
:10023000F9060000F9060000F9060000F9060000C2
:10024000F9060000F9060000FB060000FB060000AE
:10025000FB060000FB060000F9060000F90600009E
:10026000F9060000F9060000F9060000F906000092
:10027000F9060000F9060000F9060000F906000082
:10028000F9060000F9060000F9060000F906000072
:10029000F9060000F9060000F9060000F906000062
:1002A000F9060000F9060000F9060000F906000052
:1002B000F9060000F90600004018010002000300E2
:1002C00084468EF300887447F8B5C046F8BC08BC75
:1002D0009E46704751050000F8B5C046F8BC08BC02
:1002E0009E4670472D05000041F20003C4F2000352
:1002F0000220187641F20041C4F2000100220A7483
:1003000041F60001C4F2000108621A8641F20002BF
:10031000C4F200028021490413690B42FCD046F26A
:100320002003C0F280031B685B009B0E9B0240F21F
:1003300000221343D200C4F20002536341F20002D0
:10034000C4F200028021490413690B42FCD041F23F
:100350000003C4F2000302221A86D202C4F2000291
:100360008021490413690B42FCD041F60043C4F2DA
:10037000000340F20712C0F201021A6241F6004285
:10038000C4F20002042153681942FCD141F6004333
:10039000C4F20003C4224021995041F60042C4F245
:1003A0000002C42013581942FCD041F60043C4F2A5
:1003B0000003D0224021995041F60042C4F20002CD
:1003C000D02013581942FCD07047BFF35F8F62B63C
:1003D0004EF20013CEF2000340F2802298588021A2
:1003E0000906014399509A5840F2842299580120F5
:1003F000014399509958995801300143995099589F
:100400009958023001439950995899584002014334
:1004100099509958995840000143995099589958C2
:100420004000014399509958995840000143995010
:100430009B58704700230E4A10B513600D4A0E4CAE
:1004400013600E4A13600E4A13600E4A13600E4A80
:10045000536213610133936000F050F900F04EF9DC
:100460000A4B9C4200D310BD08CC9847F8E7C04621
:10047000700000200C000020D402000008000020C2
:10048000000000200400002010000020D80200001E
:1004900010B540F20F63C0F20003984740F20F63BB
:1004A000C0F20003984700F0B3F840F20003C0F236
:1004B00000037F2293434EF60052CEF20002936077
:1004C00040F23543C0F20003984740F20F63C0F298
:1004D0000003984740F20F63C0F20003984700F012
:1004E00062F8FEE710B543F20023C4F2000348F2BD
:1004F00000021A60012244215A5401315A540A312F
:10050000422058541C3910381954053000241C540A
:1005100048F23000D866C8201A5401301A54B33259
:100520009954383240F20031995010BD10B5054C45
:10053000227832B9044B13B1044800E000BF012314
:10054000237010BD500000200000000000000000DB
:10055000034B10B51BB10349034800E000BF10BDB9
:1005600000000000540000200000000040F20043A2
:10057000C4F2000300221A819A7901210A439A7178
:100580009B7803221340022B0CD040F20043C4F2AC
:100590000003013A9A705202C4F2000201219379D9
:1005A0000B42FCD0704710B582B08023DB021C6880
:1005B000002000F05DF8631C0FD084F388880423CA
:1005C000C0F204031B680193019C640864002000CE
:1005D00021002200230000F001F8FEE7E0B54546C7
:1005E0004E465746E0B45D4620B42546264627468B
:1005F000A046A146A246A346A44684F30088A44789
:1006000020BCAB46E0BCBA46B146A846E0BD704748
:1006100010B50948016811B9436803B910BD040059
:100620008368064A9BB20C349B009B5842682000AA
:10063000984780002018EDE740060000B80600004B
:1006400050000020200000000000000000000020FA
:1006500050000000000000007000002004000000B6
:1006600000000000000000000000000066666666F2
:1006700010B5FFF77BFF45F20003C4F2001304221C
:100680005A60FFF72FFFFFF72FFE00F01FF800F072
:1006900032F8FFF79AFE10BD002310B5934206D141
:1006A00003201840421E90419B08C01810BDC45C36
:1006B000CC540133F2E7FEE7DF06000099060000A4
:1006C000F1060000F1060000F106000045F200030B
:1006D000C4F2001306225A60053A1A7270478A184B
:1006E000914201D10020704700230B700131F7E7E0
:0E06F00000207047FEE77047FEE7FEE7704708
:020000040003F7
:08FE00007FE97FE9C0F758BA61
:020000040004F6
:10000000F0FF0020DD0704000B0B04000D0B0400C3
:1000100000000000000000000000000000000000E0
:100020000000000000000000000000007F07040046
:1000300000000000000000007F0704007F070400AC
:1000400000000000000000000000000000000000B0
:1000500000000000000000000000000000000000A0
:100060000000000000000000000000000000000090
:100070000000000000000000000000000000000080
:100080000000000000000000000000000000000070
:100090000000000000000000000000000000000060
:1000A0000000000000000000000000000000000050
:1000B000000000000000000000000000B70604007F
:1000C000B7060400B7060400B706040000000000ED
:1000D0000000000000000000000000000000000020
:1000E0000000000000000000000000001B070400EA
:1000F0001B0704001B0704001B070400000000008E
:1001000000000000000000000000000000000000EF
:1001100000000000000000000000000000000000DF
:1001200000000000000000000000000000000000CF
:1001300000000000000000000000000000000000BF
:1001400000000000000000000000000000000000AF
:10015000000000000000000000000000F8B5C046EC
:10016000F8BC08BC9E46704771090400F8B5C0464B
:10017000F8BC08BC9E4670474D090400F0B5C64661
:1001800000B54EF20013CEF2000340F21C301A58B4
:100190001202120AC02109060A431A5080221206CE
:1001A0001A6040F22032985840F2FF084446A043BB
:1001B00040F2C00C64462043985001205860985883
:1001C0001B4F38404CF200063043985002205860D4
:1001D0009858184D2840C0242404204398500422E5
:1001E0005A6040F228301A581202120A0A431A5072
:1001F00040F600025A6040F22C329858414688433B
:1002000061460843985041F20001596099583940BD
:100210003143995042F20001596099580D402C43E6
:100220009C5044F200025A6004BC9046F0BDC046A7
:10023000FF00FFFFFFFF00FF70B548F25003C2F25E
:1002400000031B7D002B4AD048F25002C2F200028C
:100250009368516840F20042C4F20022127ED20735
:100260001FD599421DD940F20041C4F20021072652
:1002700048F25000C2F20000012509E00268D25C99
:100280008A62013344680A7E2A420AD09C4208D915
:100290004A683240012AF1D102685C00A25A8A629F
:1002A000EFE748F25002C2F20002936052689A42AD
:1002B00015D848F25003C2F2000300221A755A60A2
:1002C00040F20042C4F2002201211175DB6833B113
:1002D00048F25003C2F200031869DB68984770BD0A
:1002E00070B548F28003C2F200031B7D002B4AD098
:1002F00048F28002C2F200029368516841F20002A3
:10030000C4F20022127ED2071FD599421DD941F2B4
:100310000001C4F20021072648F28000C2F200006A
:10032000012509E00268D25C8A62013344680A7ED2
:100330002A420AD09C4208D94A683240012AF1D1A7
:1003400002685C00A25A8A62EFE748F28002C2F2B9
:100350000002936052689A4215D848F28003C2F2B4
:10036000000300221A755A6041F20002C4F2002212
:1003700001211175DB6833B148F28003C2F200033A
:100380001869DB68984770BD10B548F25003C2F297
:1003900000032C229B5C33B348F25003C2F20003EB
:1003A000DA691B6A93421ED248F25003C2F200037C
:1003B000986A40F20042C4F20022916A1B6A5468B3
:1003C00007222240012A0FD048F25002C2F2000256
:1003D0009269D154013348F25002C2F20002136212
:1003E000D2699A4208D010BD48F25002C2F200020F
:1003F00092695C00A152EDE748F25003C2F200039B
:1004000000222C215A54DA6140F20042C4F2002248
:10041000583111755B6A002BE5D048F25003C2F2E7
:1004200000035B6A9847DEE710B548F28003C2F22A
:1004300000032C229B5C33B348F28003C2F200031A
:10044000DA691B6A93421ED248F28003C2F20003AB
:10045000986A41F20002C4F20022916A1B6A546851
:1004600007222240012A0FD048F28002C2F2000285
:100470009269D154013348F28002C2F20002136241
:10048000D2699A4208D010BD48F28002C2F200023E
:1004900092695C00A152EDE748F28003C2F20003CA
:1004A00000222C215A54DA6141F20002C4F20022E7
:1004B000583111755B6A002BE5D048F28003C2F217
:1004C00000035B6A9847DEE770B5002840D048F229
:1004D0008003C2F200031A7D0023BABB48F28003F6
:1004E000C2F200031860596001321A755C6841F26B
:1004F0000003C4F200231B7EDB0718D5D4B1002310
:1005000041F20001C4F200210726012507E0C25C88
:100510008A6201330A7E2A420BD09C420AD04A6882
:100520003240012AF3D15A00825A8A62F1E700244C
:1005300000E01C0048F28003C2F200039C6041F21C
:100540000003C4F2002301229A750123180070BD34
:100550000023FBE730B587B0002000F0BEFA00F0C2
:1005600038F800F063FA00F06DF800F070FA01A8B6
:1005700040F69023C0F20403020032CB32C2196865
:1005800011601B7913711021FFF79EFF00F0ADFA87
:100590000028FBD043F20004C4F2000448F2000536
:1005A0000121684600F06CF90028F9D0A56100F03F
:1005B0008CFA0028FBD1656100F09FFA0028EFD08B
:1005C00001006846FFF780FF00F08FFA0028E1D1B4
:1005D000FAE740F20043C4F2002340F28412C4F26E
:1005E00000021A60D22252429A8140F20022C0F2E6
:1005F00003025A6040F20042C4F20022D369002B89
:10060000FCD140F20043C4F200231A6802210A43DD
:100610001A6040F20042C4F20022D369002BFCD1E0
:1006200048F25003C2F2000300229A61DA611A62B2
:100630002C215A545A621A605A609A601A75DA600C
:10064000DA85704741F20003C4F2002340F28412BD
:10065000C4F200021A60D22252429A8140F2002271
:10066000C0F203025A6041F20002C4F20022D369D0
:10067000002BFCD141F20003C4F200231A680221CE
:100680000A431A6041F20002C4F20022D369002B2F
:10069000FCD148F28003C2F2000300229A61DA61C1
:1006A0001A622C215A545A621A605A609A601A755A
:1006B000DA60DA85704710B540F20043C4F20023D7
:1006C0009B7D1BB340F20042C4F20022137EDBB2DA
:1006D000927D52B2002A1ADB40F20043C4F200239A
:1006E0001A7ED2B29B7DDB0703D5D30701D5FFF776
:1006F000A3FD40F20043C4F200231A7ED2B29B7DD8
:100700005B0703D5530701D5FFF73EFE10BD5BB273
:10071000002BE1DA00F0D8F8DEE710B541F2000373
:10072000C4F200239B7D1BB341F20002C4F20022FD
:10073000137EDBB2927D52B2002A1ADB41F2000333
:10074000C4F200231A7ED2B29B7DDB0703D5D30708
:1007500001D5FFF7C5FD41F20003C4F200231A7E64
:10076000D2B29B7D5B0703D5530701D5FFF75CFE33
:1007700010BD5BB2002BE1DA00F0C7F8DEE7FEE760
:1007800000230E4A10B513600D4A0E4C13600E4A3A
:1007900013600E4A13600E4A13600E4A53621361CF
:1007A0000133936000F0B3F900F0B1F90A4B9C42B9
:1007B00000D310BD08CC9847F8E7C046D080002091
:1007C0000C800020680104000880002000800020C8
:1007D00004800020108000206C01040010B540F659
:1007E0008F23C0F20403984740F68F23C0F204031E
:1007F000984700F003F940F20003C0F204037F229F
:1008000093434EF60052CEF20002936040F28173A1
:10081000C0F20403984740F68F23C0F204039847C0
:1008200040F68F23C0F204039847FFF793FEFEE7DC
:10083000B08000201C00000000000000508000205C
:100840006000000000000000CC80002004000000D8
:1008500000000000008000205000000000000000A8
:10086000D080002004000000000000000000000014
:1008700000000000666666666666666666666666B0
:1008800070B504000D00E8B148F25003C2F2000355
:100890002C229B5C002003B170BD00F077F848F279
:1008A0005003C2F200039C61DD6100221A622C2118
:1008B00001205854DA8540F20043C4F20023843208
:1008C0009A75E9E70020E7E710B540F20043C4F26B
:1008D00000235B8B0722134003B910BD48F250047C
:1008E000C2F20004E38500F051F840F20043C4F284
:1008F000002384221A752C230022E254636A002B01
:10090000EBD0A06A636A9847E7E710B541F20003AD
:10091000C4F200235B8B0722134003B910BD48F2D9
:100920008004C2F20004E38500F04CF841F20003B9
:10093000C4F2002384221A752C230022E254636A35
:10094000002BEBD0A06A636A9847E7E710B5054C27
:10095000227832B9044B13B1044800E000BF0123F0
:10096000237010BDB08000200000000000000000D7
:10097000034B10B51BB10349034800E000BF10BD95
:1009800000000000B48000200000000040F200439E
:10099000C4F200235B8B5B0713D040F20043C4F228
:1009A000002380221A76793A5A831B7E5B0708D58A
:1009B00040F20043C4F2002304219A6A1A7E0A42DC
:1009C000FBD1704741F20003C4F200235B8B5B074D
:1009D00013D041F20003C4F2002380221A76793A40
:1009E0005A831B7E5B0708D541F20003C4F2002343
:1009F00004219A6A1A7E0A42FBD1704710B5094851
:100A0000016811B9436803B910BD04008368064A40
:100A10009BB20C349B009B58426820009847800092
:100A20002018EDE730080400A40A040040F2004357
:100A3000C4F200235968802292020A435A6040F2AD
:100A40000042C4F20022D369002BFCD1704741F26E
:100A50000003C4F200235968802252020A435A60FC
:100A600041F20002C4F20022D369002BFCD170478E
:100A7000002310B5934206D103201840421E904136
:100A80009B08C01810BDC45CCC540133F2E770471A
:100A900048656C6C6F205465726D696E616C0D0AEF
:100AA0000000C046B90A0400710A0400070B0400E4
:100AB000070B0400070B04008A18914201D10020A3
:100AC000704700230B700131F7E748F25003C2F280
:100AD00000032C22985CC0B2704710B5FFF74EFBA4
:100AE000FFF7B0FDFFF775FD10BD41F20003C4F242
:100AF0000023187E8007C00F704748F25003C2F2EF
:100B00000003186A704700207047FEE7FEE7704751
:0200000400807A
:1040000077438FB0BBF0FFFF008430F000FFFFFF6D
:10401000000000000200000012000000000000008C
:04402000B67376E815
:0CC00000FFFF07F00000E8FFCC9A34C0FE
:10C01000FFFFFFFFFFFFFFFFFFFFFFFFFFFFFFFF30
:10C02000FFFFFFFFFFFFFFFFFFFFFFFFFFFFFFFF20
:10C03000FFFFFFFFFFFFFFFFFFFFFFFFFFFFFFFF10
:10C04000FFFFFFFFFFFFFFFFFFFFFFFFFFFFFFFF00
:10C05000FFFFFFFFFFFFFFFFFFFFFFFFFFFFFFFFF0
:10C06000FFFFFFFFFFFFFFFFFFFFFFFFFFFFFFFFE0
:10C07000FFFFFFFFFFFFFFFFFFFFFFFFFFFFFFFFD0
:10C08000FFFFFFFFFFFFFFFFFFFFFFFFFFFFFFFFC0
:10C0E000FFFFFFFFFFFFFFFFFFFFFFFFFFFFFFFF60
:10C0F000FFFFFFFFFFFFFFFFFFFFFFFFFFFFFFFF50
:00000001FF
