:10000000F07F0020D9040000FF0600003D0700003B
:1000100000000000000000000000000000000000E0
:100020000000000000000000000000003F0700008A
:1000300000000000000000003F0700003F07000034
:100040003F0700003F0700003F0700003F07000098
:100050003F0700003F0700003F0700003F07000088
:100060003F0700003F0700003F0700003F07000078
:100070003F0700003F0700003F0700003F07000068
:100080003F0700003F0700003F0700003F07000058
:100090003F0700003F0700003F0700003F07000048
:1000A0003F0700003F0700003F0700003F07000038
:1000B0003F0700003F0700003F070000000000006E
:1000C0000000000000000000000000003F070000EA
:1000D0003F0700003F0700003F070000000000004E
:1000E0000000000000000000000000000000000010
:1000F0000000000000000000000000003F070000BA
:100100003F0700003F0700003F0700003F070000D7
:100110003F0700003F0700003F0700003F070000C7
:100120003F0700003F0700003F0700003F070000B7
:100130003F0700003F0700003F0700003F070000A7
:100140003F0700003F0700003F0700003F07000097
:100150003F0700003F0700003F070000F07F00203E
:10016000D9040000FF0600003D0700000000000069
:10017000000000000000000000000000000000007F
:1001800000000000000000003F0700000000000029
:10019000000000003F0700003F0700003F0700008D
:1001A0003F0700003F0700003F0700003F07000037
:1001B0003F0700003F0700003F0700003F07000027
:1001C0003F0700003F0700003F0700003F07000017
:1001D0003F0700003F0700003F0700003F07000007
:1001E0003F0700003F0700003F0700003F070000F7
:1001F0003F0700003F0700003F0700003F070000E7
:100200003F0700003F0700003F0700003F070000D6
:100210003F0700003F0700004107000041070000C2
:1002200041070000410700003F0700003F070000B2
:100230003F0700003F0700004107000041070000A2
:10024000410700004107000041070000410700008E
:1002500041070000410700003F0700003F07000082
:100260003F0700003F0700003F0700003F07000076
:100270003F0700003F0700003F0700003F07000066
:100280003F0700003F0700003F0700003F07000056
:100290003F0700003F0700003F0700003F07000046
:1002A0003F0700003F0700003F0700003F07000036
:1002B0003F0700003F070000401801000200030054
:1002C00084468EF300887447F8B5C046F8BC08BC75
:1002D0009E46704799050000F8B5C046F8BC08BCBA
:1002E0009E4670477505000041F20003C4F200030A
:1002F0000220187641F20041C4F2000100220A7483
:1003000041F60001C4F2000108621A8641F20002BF
:10031000C4F200028021490413690B42FCD046F26A
:100320002003C0F280031B685B009B0E9B0240F21F
:1003300000221343D200C4F20002536341F20002D0
:10034000C4F200028021490413690B42FCD041F23F
:100350000003C4F2000302221A86D202C4F2000291
:100360008021490413690B42FCD041F60043C4F2DA
:10037000000340F20712C0F201021A6241F6004285
:10038000C4F20002042153681942FCD141F6004333
:10039000C4F20003C4224021995041F60042C4F245
:1003A0000002C42013581942FCD041F60043C4F2A5
:1003B0000003CC224021995041F60042C4F20002D1
:1003C000CC2013581942FCD041F60043C4F200037C
:1003D000D0224021995041F60042C4F20002D020C0
:1003E00013581942FCD07047BFF35F8F62B64EF2CC
:1003F0000013CEF2000340F28022985880210906B3
:10040000014399509A5840F284229958012001439F
:1004100099509958995801300143995099589958D1
:10042000023001439950995899587C3001439950B2
:10043000995899584000014399509958995840004B
:10044000014399509958995840000143995099583F
:1004500099584000014399509958995840000143D8
:100460009950995899584000014399509958995872
:100470004000014399509B587047704700230E4A33
:1004800010B513600D4A0E4C13600E4A13600E4AED
:1004900013600E4A13600E4A536213610133936076
:1004A00000F04FF900F04DF90A4B9C4200D310BD0B
:1004B00008CC9847F8E7C046700000200C000020E8
:1004C000D4020000080000200000002004000020EA
:1004D00010000020D802000010B540F25763C0F2AF
:1004E0000003984740F25763C0F20003984700F0BA
:1004F000B3F840F20003C0F200037F2293434EF6AC
:100500000052CEF20002936040F27D43C0F200033D
:10051000984740F25763C0F20003984740F2576390
:10052000C0F20003984700F062F8FEE710B543F20E
:100530000023C4F2000348F200021A6001224421A1
:100540005A5401315A540A31422058541C39103837
:100550001954053000241C5448F23000D866C820D5
:100560001A5401301A54B3329954383240F20031DF
:10057000995010BD10B5054C227832B9044B13B117
:10058000044800E000BF0123237010BD500000208C
:100590000000000000000000034B10B51BB1034930
:1005A000034800E000BF10BD000000005400002020
:1005B0000000000040F20043C4F2000300221A8150
:1005C0009A7901210A439A719B7803221340022BE6
:1005D0000CD040F20043C4F20003013A9A70520278
:1005E000C4F20002012193790B42FCD0704710B590
:1005F00082B08023DB021C68002000F05DF8631CE1
:100600000FD084F388880423C0F204031B6801938D
:10061000019C64086400200021002200230000F0F7
:1006200001F8FEE7E0B545464E465746E0B45D4664
:1006300020B4254626462746A046A146A246A34604
:10064000A44684F30088A44720BCAB46E0BCBA466D
:10065000B146A846E0BD704710B50948016811B918
:10066000436803B910BD04008368064A9BB20C348A
:100670009B009B5842682000984780002018EDE7B7
:100680008806000000070000500000202000000045
:1006900000000000000000205000000000000000EA
:1006A00070000020040000000000000000000000B6
:1006B000000000006666666610B5FFF77BFF45F236
:1006C0000003C4F2001304225A60FFF72FFFFFF764
:1006D0000BFE00F01FF8FFF7D0FEFFF785FE10BD00
:1006E000002310B5934206D103201840421E9041CA
:1006F0009B08C01810BDC45CCC540133F2E7FEE780
:1007000027070000E1060000390700003907000054
:100710003907000045F20003C4F2001306225A60B4
:10072000053A1A7270478A18914201D10020704729
:1007300000230B700131F7E700207047FEE7FEE76A
:04074000FEE7704719
:020000040003F7
:08FE00007FE97FE9C0F758BA61
:020000040004F6
:10000000F0FF0020210D0400191004001B10040053
:1000100000000000000000000000000000000000E0
:10002000000000000000000000000000430A04007F
:100030000000000000000000430A0400430A04001E
:1000400000000000000000000000000000000000B0
:1000500000000000000000000000000000000000A0
:100060000000000000000000000000000000000090
:100070000000000000000000000000000000000080
:100080000000000000000000000000000000000070
:100090000000000000000000000000000000000060
:1000A0000000000000000000000000000000000050
:1000B0000000000000000000000000009D0B040094
:1000C0009D0B04009D0B04009D0B0400000000002C
:1000D0000000000000000000000000007D0104009E
:1000E0007D0104007D0104007D010400010C040079
:1000F000010C0400010C0400010C040000000000CD
:1001000000000000000000000000000000000000EF
:1001100000000000000000000000000000000000DF
:1001200000000000000000000000000000000000CF
:1001300000000000000000000000000000000000BF
:1001400000000000000000000000000000000000AF
:10015000000000000000000000000000F8B5C046EC
:10016000F8BC08BC9E467047650E0400F8B5C04652
:10017000F8BC08BC9E467047410E040010B540F61E
:100180000043C4F200239B7D43B349F25003C2F203
:1001900000039C6A40F60043C4F200235B8B9B077C
:1001A0001DD549F25003C2F200032022FF219954C9
:1001B0000132FD39995449F25003C2F20003202262
:1001C0009B5C5BB2013300D1E5E049F25003C2F21F
:1001D000000320229B5C062B00D108E110BD40F6F5
:1001E0000043C4F200235B8BDB070AD549F25003BE
:1001F000C2F200032022FF2199540132FD399954A3
:10020000D9E740F60043C4F200235B8B5B070AD5B5
:1002100049F25003C2F200032022FF219954013217
:10022000FE399954C7E749F25003C2F20003202275
:100230009B5C5BB2032B78D0042B1BD0022BBAD172
:1002400049F25003C2F200031B694BB149F250035B
:10025000C2F20003988880B2002100F0F3FBAAE705
:1002600049F25003C2F20003988880B2012100F0E5
:10027000E9FBA0E749F25003C2F200039A691B6947
:10028000934218D049F25003C2F200039B68995C74
:1002900040F60043C4F200239962511C40F600422C
:1002A000C4F20022D369002BFCD149F25003C2F200
:1002B000000399617FE749F25003C2F200035B69D2
:1002C000DBB149F25003C2F200039B885B000122BC
:1002D000134340F60042C4F20022536240F600424B
:1002E000C4F20022D369002BFCD149F25003C2F2C0
:1002F00000032022032199545DE740F60043C4F235
:1003000000235968C02292020A435A6040F6004214
:10031000C4F20022D369002BFCD149F25003C2F28F
:10032000000320220621995445E749F25003C2F206
:100330000003D9695B69013B8B4214D040F600424F
:10034000C4F20022D369002BFCD140F60043C4F272
:100350000023986A49F25003C2F20003DA6850544D
:100360000131D96127E740F60043C4F20023586801
:10037000E022D20202435A6040F60042C4F2002258
:10038000D369002BFCD149F25003C2F200032022B2
:1003900006209854D2E749F25003C2F2000300212C
:1003A000995440F60043C4F200235968C0229202D7
:1003B0000A435A6040F60042C4F20022D369002B7F
:1003C000FCD140F60043C4F200239B221A7649F286
:1003D0005003C2F200035B6A002B00D1FEE649F233
:1003E0005003C2F200035B6A20009847F6E649F228
:1003F0005003C2F20003002220215A5401315A5402
:1004000040F60043C4F200239B321A7640F60042C5
:10041000C4F200220F31538B0B40102BFBD149F259
:100420005003C2F200035B6A002B00D1D6E649F20A
:100430005003C2F200035B6A20009847CEE6F0B595
:10044000C64600B5002000F0AFFD00F035FB00F01F
:100450006CFB00F07BFD49F29806C2F200067FE0DB
:10046000336848F20002C2F2000294466344180066
:10047000642100F07FFC002877D000E0C04600F047
:10048000B0FD0028FAD100F0BCFD00286DD0336823
:100490009C466044306068E0002440462FE048F20B
:1004A0000003C2F200039C46604400F084FA00F0AE
:1004B000A0FD0028FBD041F21000C0F20400022190
:1004C00000F079FA00F095FD0028FBD03368013B7D
:1004D0001C1BB4BB34603368FBB32A78242ADBD0FE
:1004E000002401349C4238D048F20002C2F20002DB
:1004F000A2181278242AF4D12000621C2DD0A34225
:100500002BD92A5D0A2A37D001349C4225D048F2E3
:100510000002C2F20002A21812780A2AF4D12700BF
:10052000631C1AD03A1A511C0129B8D948F20003A9
:10053000C2F20003FB18013B1B780D2BAFD1110059
:10054000ADE7791C48F20003C2F200039C46614407
:100550002200280000F0E4FCBCE7052000F016FDB6
:1005600000F03FFD002800D17AE748F20005C2F212
:10057000000540F20008AEE72700D3E7F0B5D64605
:100580004F464646C0B54EF20013CEF2000340F28D
:100590001C315A581202120AC020000602435A5057
:1005A000802212061A6040F22032995840F2FF0C65
:1005B0006446A143C0273943995001215960995895
:1005C000324E31404CF200052943995002215960C6
:1005D00099582F4CA14621408846C02109048A46DB
:1005E00044460C439C5004225A6040F22438424650
:1005F0009A581202120A024344461A5180225A6043
:1006000040F228329C5861468C433C439C5040F257
:1006100000184146596099580C0034402C439C50B6
:1006200040F200284146596099580C0049460C4058
:1006300051460C439C5040F200484146596099583D
:100640000902090A0843985040F600025A6040F235
:100650002C3298586146884307439F5041F200006E
:1006600058609858064035439D5042F2000058604B
:1006700098584C46044051462143995044F2000298
:100680005A601CBC90469946A246F0BDFF00FFFF91
:10069000FFFF00FF70B548F6F073C2F200031B7D48
:1006A000002B4AD048F6F072C2F2000293685168FB
:1006B00040F20042C4F20022127ED2071FD59942B6
:1006C0001DD940F20041C4F20021072648F6F0701F
:1006D000C2F20000012509E00268D25C8A6201339F
:1006E00044680A7E2A420AD09C4208D94A683240AD
:1006F000012AF1D102685C00A25A8A62EFE748F64B
:10070000F072C2F20002936052689A4215D848F61D
:10071000F073C2F2000300221A755A6040F20042E0
:10072000C4F2002201211175DB6833B148F6F07381
:10073000C2F200031869DB68984770BD70B549F2D2
:100740002003C2F200031B7D002B4AD049F2200295
:10075000C2F200029368516841F20002C4F2002222
:10076000127ED2071FD599421DD941F20001C4F271
:100770000021072649F22000C2F20000012509E00D
:100780000268D25C8A62013344680A7E2A420AD037
:100790009C4208D94A683240012AF1D102685C00C3
:1007A000A25A8A62EFE749F22002C2F20002936085
:1007B00052689A4215D849F22003C2F2000300227F
:1007C0001A755A6041F20002C4F20022012111752B
:1007D000DB6833B149F22003C2F200031869DB6819
:1007E000984770BD10B548F6F073C2F200032C2292
:1007F0009B5C33B348F6F073C2F20003DA691B6AFC
:1008000093421ED248F6F073C2F20003986A40F297
:100810000042C4F20022916A1B6A546807222240F7
:10082000012A0FD048F6F072C2F200029269D15448
:10083000013348F6F072C2F200021362D2699A42A2
:1008400008D010BD48F6F072C2F2000292695C0056
:10085000A152EDE748F6F073C2F2000300222C210A
:100860005A54DA6140F20042C4F200225831117544
:100870005B6A002BE5D048F6F073C2F200035B6AB6
:100880009847DEE710B549F22003C2F200032C229C
:100890009B5C33B349F22003C2F20003DA691B6A9E
:1008A00093421ED249F22003C2F20003986A41F239
:1008B0000002C4F20022916A1B6A54680722224097
:1008C000012A0FD049F22002C2F200029269D154EB
:1008D000013349F22002C2F200021362D2699A4245
:1008E00008D010BD49F22002C2F2000292695C00F9
:1008F000A152EDE749F22003C2F2000300222C21AD
:100900005A54DA6141F20002C4F2002258311175E2
:100910005B6A002BE5D049F22003C2F200035B6A58
:100920009847DEE740F60043C4F2002301221A6034
:1009300040F60042C4F20022D369002BFCD140F6FD
:100940000043C4F2002340F200125A6040F6004215
:10095000C4F20022D369002BFCD140F60043C4F25C
:100960000023E822DA60D23AC0F210021A6040F6A0
:100970000042C4F20022D369002BFCD140F60043B0
:10098000C4F2002310225A8340F60042C4F200222F
:10099000D369002BFCD149F25003C2F200030022BC
:1009A00021215A5401395A5440F60043C4F200231D
:1009B0009B329A75704770B5002840D049F22003E9
:1009C000C2F200031A7D0023BABB49F22003C2F22F
:1009D00000031860596001321A755C6841F2000327
:1009E000C4F200231B7EDB0718D5D4B1002341F2EB
:1009F0000001C4F200210726012507E0C25C8A62DB
:100A000001330A7E2A420BD09C420AD04A68324007
:100A1000012AF3D15A00825A8A62F1E7002400E0E9
:100A20001C0049F22003C2F200039C6041F2000363
:100A3000C4F2002301229A750123180070BD00231F
:100A4000FBE7FEE710B549F25003C2F200030022B3
:100A50009A61DA6140F60043C4F200239B321A76B1
:100A60005A68144C22405A6040F60042C4F20022F8
:100A7000D369002BFCD1A9B149F25003C2F20003A3
:100A8000202203249C544000084340F60043C4F253
:100A90000023586240F60042C4F20022D369002BC2
:100AA000FCD110BD49F25003C2F2000320220424FD
:100AB0009C54E8E7FFFFFBFF40F20043C4F2002331
:100AC00040F28412C4F200021A60D22252429A8189
:100AD00040F20022C0F203025A6040F20042C4F227
:100AE0000022D369002BFCD140F20043C4F2002362
:100AF0001A6802210A431A6040F20042C4F200223E
:100B0000D369002BFCD148F6F073C2F20003002237
:100B10009A61DA611A622C215A545A621A605A6038
:100B20009A601A75DA60DA85704741F20003C4F200
:100B3000002340F28412C4F200021A60D222524210
:100B40009A8140F20022C0F203025A6041F2000290
:100B5000C4F20022D369002BFCD141F20003C4F29D
:100B600000231A6802210A431A6041F20002C4F20B
:100B70000022D369002BFCD149F22003C2F200030A
:100B800000229A61DA611A622C215A545A621A6060
:100B90005A609A601A75DA60DA85704710B540F2CB
:100BA0000043C4F200239B7D1BB340F20042C4F219
:100BB0000022137EDBB2927D52B2002A1ADB40F291
:100BC0000043C4F200231A7ED2B29B7DDB0703D51B
:100BD000D30701D5FFF75EFD40F20043C4F20023C6
:100BE0001A7ED2B29B7D5B0703D5530701D5FFF771
:100BF000F9FD10BD5BB2002BE1DA00F0DFF8DEE7B3
:100C000010B541F20003C4F200239B7D1BB341F2F7
:100C10000002C4F20022137EDBB2927D52B2002A9F
:100C20001ADB41F20003C4F200231A7ED2B29B7D8C
:100C3000DB0703D5D30701D5FFF780FD41F20003A1
:100C4000C4F200231A7ED2B29B7D5B0703D5530703
:100C500001D5FFF717FE10BD5BB2002BE1DA00F003
:100C6000CEF8DEE77C9000201C00000000000000B1
:100C7000509000202C00000000000000F08F0020A9
:100C8000600000000000000000800020A00F0000B5
:100C90000000000098900020080000000000000004
:100CA000A08F00205000000000000000A090002055
:100CB0000400000000000000000000000000000030
:100CC0006666666600230E4A10B513600D4A0E4C28
:100CD00013600E4A13600E4A13600E4A13600E4AE8
:100CE000536213610133936000F098F900F096F9B4
:100CF0000A4B9C4200D310BD08CC9847F8E7C04689
:100D0000A0900020AC8F002068010400A88F002074
:100D1000A08F0020A48F0020B08F00206C01040061
:100D200010B541F20F03C0F20403984741F20F03DC
:100D3000C0F20403984700F0DBF840F20003C0F271
:100D400004037F2293434EF60052CEF200029360DA
:100D500040F6C543C0F20403984741F20F03C0F2C6
:100D60000403984741F20F03C0F204039847FFF7CA
:100D700066FBFEE770B504000D00E8B148F6F073BD
:100D8000C2F200032C229B5C002003B170BD00F076
:100D900077F848F6F073C2F200039C61DD6100222F
:100DA0001A622C2101205854DA8540F20043C4F223
:100DB000002384329A75E9E70020E7E710B540F296
:100DC0000043C4F200235B8B0722134003B910BD1C
:100DD00048F6F074C2F20004E38500F051F840F2E6
:100DE0000043C4F2002384221A752C230022E2540B
:100DF000636A002BEBD0A06A636A9847E7E710B5F7
:100E000041F20003C4F200235B8B0722134003B9B5
:100E100010BD49F22004C2F20004E38500F04CF852
:100E200041F20003C4F2002384221A752C2300220D
:100E3000E254636A002BEBD0A06A636A9847E7E745
:100E400010B5054C227832B9044B13B1044800E0C8
:100E500000BF0123237010BD7C9000200000000023
:100E600000000000034B10B51BB10349034800E02C
:100E700000BF10BD000000008090002000000000B6
:100E800040F20043C4F200235B8B5B0713D040F2B7
:100E90000043C4F2002380221A76793A5A831B7EDB
:100EA0005B0708D540F20043C4F2002304219A6A8C
:100EB0001A7E0A42FBD1704741F20003C4F20023BC
:100EC0005B8B5B0713D041F20003C4F20023802246
:100ED0001A76793A5A831B7E5B0708D541F20003E4
:100EE000C4F2002304219A6A1A7E0A42FBD1704799
:100EF00010B50948016811B9436803B910BD040071
:100F00008368064A9BB20C349B009B5842682000C1
:100F1000984780002018EDE7640C0400BC0F040023
:100F200010B5531E884208D98C18A04205D21AB1B8
:100F3000CA5CC254013BFBD210BD0023002AFBD087
:100F4000CC5CC45401339A42FAD1F5E741F2000374
:100F5000C4F200235968802252020A435A6041F2C7
:100F60000002C4F20022D369002BFCD17047002399
:100F700010B5934206D103201840421E90419B08B1
:100F8000C01810BDC45CCC540133F2E782B042F605
:100F9000E061013806D30191019B5A1E0192002B9A
:100FA000FAD1F6E702B0704710B5FFF7BEFDFFF7C4
:100FB000B9FCFFF781FDFFF7E1FA10BDD10F040086
:100FC0006F0F040015100400151004001510040024
:100FD0008A18914201D10020704700230B70013123
:100FE000F7E748F6F073C2F200032C22985CC0B217
:100FF000704741F20003C4F20023187E8007C00F3F
:10100000704748F6F073C2F20003186A70477047E1
:0E1010000D0A000000207047FEE7FEE7704763
:0200000400807A
:1040000077438FB0BBF0FFFF008430F000FFFFFF6D
:1040100000000000020000001A0000000000000084
:04402000B67376E815
:0CC00000FFFF07F00000E8FFCC9A34C0FE
:10C01000FFFFFFFFFFFFFFFFFFFFFFFFFFFFFFFF30
:10C02000FFFFFFFFFFFFFFFFFFFFFFFFFFFFFFFF20
:10C03000FFFFFFFFFFFFFFFFFFFFFFFFFFFFFFFF10
:10C04000FFFFFFFFFFFFFFFFFFFFFFFFFFFFFFFF00
:10C05000FFFFFFFFFFFFFFFFFFFFFFFFFFFFFFFFF0
:10C06000FFFFFFFFFFFFFFFFFFFFFFFFFFFFFFFFE0
:10C07000FFFFFFFFFFFFFFFFFFFFFFFFFFFFFFFFD0
:10C08000FFFFFFFFFFFFFFFFFFFFFFFFFFFFFFFFC0
:10C0E000FFFFFFFFFFFFFFFFFFFFFFFFFFFFFFFF60
:10C0F000FFFFFFFFFFFFFFFFFFFFFFFFFFFFFFFF50
:00000001FF
