:020000040000fa
:10000000f07f0020ad1d0000571a0000531b0000b8
:1000100000000000000000000000000000000000e0
:100020000000000000000000000000004f1d000064
:1000300000000000000000004f1d00004f1d0000e8
:100040004f1d00004f1d00004f1d00004f1d000000
:100050004f1d00004f1d00004f1d00004f1d0000f0
:100060004f1d00004f1d00004f1d00004f1d0000e0
:100070004f1d00004f1d00004f1d00004f1d0000d0
:100080004f1d00004f1d00004f1d00004f1d0000c0
:100090004f1d00004f1d00004f1d00004f1d0000b0
:1000a0004f1d00004f1d00004f1d00004f1d0000a0
:1000b0004f1d00004f1d00004f1d00004f1d000090
:1000c0004f1d00004f1d00004f1d00004f1d000080
:1000d0004f1d00004f1d00004f1d0000c50a00000d
:1000e000c50a0000c50a0000c50a00002d1c00005a
:1000f0002d1c00002d1c00002d1c00004f1d0000b9
:100100004f1d00004f1d00004f1d00004f1d00003f
:100110004f1d00004f1d00004f1d00004f1d00002f
:100120004f1d00004f1d0000852000004f1d0000e6
:100130004f1d00004f1d00004f1d00004f1d00000f
:100140004f1d00004f1d00004f1d00004f1d0000ff
:100150004f1d00004f1d00004f1d0000f07f0020cc
:10016000ad1d0000571a0000531b000000000000e6
:10017000000000000000000000000000000000007f
:1001800000000000000000004f1d00000000000003
:10019000000000004f1d00004f1d00004f1d00001b
:1001a0004f1d00004f1d00004f1d00004f1d00009f
:1001b0004f1d00004f1d00004f1d00004f1d00008f
:1001c0004f1d00004f1d00004f1d00004f1d00007f
:1001d0004f1d00004f1d00004f1d00004f1d00006f
:1001e0004f1d00004f1d00004f1d00004f1d00005f
:1001f0004f1d00004f1d00004f1d00004f1d00004f
:100200004f1d00004f1d00004f1d00004f1d00003e
:100210004f1d00004f1d00004f1d00004f1d00002e
:100220004f1d00004f1d00004f1d00004f1d00001e
:100230004f1d00004f1d0000b9250000b92500002a
:10024000b9250000b9250000b9250000b925000036
:10025000b9250000b92500004f1d00004f1d00000a
:100260004f1d00004f1d00004f1d00004f1d0000de
:100270004f1d00004f1d00004f1d00004f1d0000ce
:100280004f1d0000b92500004f1d00004f1d00004c
:100290004f1d00004f1d00004f1d00004f1d0000ae
:1002a0004f1d00004f1d00004f1d00004f1d00009e
:0802b0004f1d00004f1d00006e
:020000040000fa
:1002b800401801000200030084468ef3008874474a
:1002c800f8b5c046f8bc08bc9e46704769200000d7
:1002d800f8b5c046f8bc08bc9e46704745200000eb
:020000040000fa
:1002e800f0b59bb013930b6815900a934b680d916a
:1002f80002938b68ce680b930b6918931368069367
:1003080053680698089300220023089901f014ff07
:1003180060b90a9b5b0734d408200a9b0340099301
:100328000b9b0393099b73b1202306e080221206de
:100338009446089b634408932d2333700b9b013b21
:10034800039301230993089b06995b005b088e4a77
:10035800d9b9934219d1139b099a413bb018192b6b
:1003680011d88a4902f010f9300002f071f80a9b9e
:100378000200009331000b9b159801f0a9fb1bb0fc
:10038800f0bd2b23d9e78249ece7934202d80bd181
:10039800069b4bb1139b099a413bb018192b01d806
:1003a8007c49dfe77c49dde70022002306980899ad
:1003b80001f0b2ff0024794d0027e8bb070002e0f6
:1003c8000137049c059d0022754b2000290000f090
:1003d800a8fe069a089b0490059101f08efe00285d
:1003e800eed0002304931fe06e4b9f4213da049b68
:1003f8008bb900226c4b0698089900f092fe6a4b64
:100408000690089120002900002200f08afe0123ae
:1004180004000d000493200029000022604b01f025
:1004280087f804000d00013f22002b000698089968
:1004380001f082fe0028d7d1139802f098f8c3b2d1
:100448000c93029b002b00da93e10c9b0493672b1f
:1004580000d0afe0029b002b00d185e13b1d03db00
:10046800029b9f4200daa1e06523b5e00022002349
:100478000e920f9303e106940795049b0897652b4a
:1004880000d01ce10023089319e1029b5bb9089b8b
:10049800002b08da2e23149a0134b354039b013b32
:1004a80003930123029323002a19302101e0f15418
:1004b80001339a42fbd1039a2b193030551b5c1c2f
:1004c800f0546b1e0393002523e00d9b14941b69c5
:1004d8001093053ba34200d8fde0069a079b0e98af
:1004e800129901f025f801f083f81090119101f0ac
:1004f800c9fe092800dd092010230a9a1340034386
:10050800002bc2d10c9b672bbfd1089b002bcadaea
:10051800013580200006844612990e9a61440b002a
:100528001098119900920193069a079b02f010f80f
:1005380080231b06cb180e90129306980799184b28
:10054800002200f0f5ff089b06900791013b0893f5
:10055800bce00a9bdb0600d4c1e02e2333550134ee
:10056800bde00a2297fbf2f56a43ba1a3032013b22
:10057800f254039a2f00013a0392bde0039b325cc8
:10058800f3181a540138e3e00000f07f4825000012
:100598004c25000050250000542500000000f03fc5
:1005a80000002440d4feffff00005043002f12da61
:1005b80066230493029b01330293049b662b0cd1a0
:1005c800002f02da002400276d4d0c9b672b02d008
:1005d800029bdb19029366230493069b0e940f95e6
:1005e8001293089b1093002314930e9a0f9b129852
:1005f800109900f09dff00f0fbff1690179101f095
:1006080041fe19908020000684461099129a614490
:100618000b0016981799009201930e9a0f9b01f000
:1006280097ff80231b06cb181290109300220e9878
:100638000f99544b00f07cff149b0e900f910133df
:100648001493149a029b9342cfd100224e4b00f090
:1006580068fd0e900f9102000b001298109901f09e
:100668006bfd002800d001e70e9a0f9b1298109995
:1006780001f052fe18b1199bdb0700d4f6e60e9a7a
:100688000f9b0698089900f04efc00220e901291dc
:100698003c4b2000290000f044fd0e9a129b069066
:1006a800079101f087fc002800d1e4e6049b01379c
:1006b800662b00d0e1e6029b0897013302930025e0
:1006c800029a089b099c9b1a16930295089b169af6
:1006d800934200d0f9e6029b002b00d139e70021b4
:1006e800049b30190170652b25d1189b013bf154ef
:1006f8008f4201da7f420131002f00d031e7189a8a
:100708009a1a0332002a00dd2be75d1e2d2201b95b
:10071800023a7255139a023b413a192a01d84522e6
:100728000492049af1180a70039a023a03929c42be
:1007380001da01f029ff03230a9a1340022b00d0a3
:1007480012e6039b002b00dc0ee6300001f080fe71
:10075800099b834200dc11e7f018039a302101f06d
:10076800c1fe00230b93ffe50123029376e60623df
:10077800fbe70c9b672bfad004930623029319e737
:0c0788000000f03f00002440000014407e
:020000040000fa
:100794000023f0b506001500b1b007910393079943
:1007a4000b78002b00d10ae101235b420c9310abc0
:1007b40000240e9380230b940d940f930b5d0bb1c7
:1007c400252b29d134b12200300001f0e8fd079b2c
:1007d4001b190793079b1a78252a00d0e4e040f2fe
:1007e400020c01211027013304930793079803781f
:1007f4002b2b1ad025d8202b1ad0232b1dd02a2bf3
:1008040028d001f05dfc0d90079b1a78303a092a34
:1008140031d801330793f7e70134cfe70b9b0593f6
:100824000b4301300b930790e0e704230b9a0fe08e
:100834000b9b0593059a08230ae00b9b05933b4306
:10084400efe72d2bead0302bd9d162460b9b0593d1
:100854001343e6e72b6801301a1d1b6807902a60d2
:100864000d93002b07da0b9a5b420592012205993e
:100874000d934a400b920b9bda0702d50222934355
:100884000b93079b1a782e2a0ed10022581c0c9227
:1008940007905a782a2a27d1023307932b681a1d06
:1008a4001b682a6005930c9307a801f0d3fc079bef
:1008b4000700187801f05dfe692800d182e034dc7d
:1008c400632800d1d7e01adc252800d1e4e06128b0
:1008d40058d0049b01220793002352420c920b939d
:1008e4000d9300930232e1e001f0eafb0c90079bc8
:1008f4001a78303a092ad7d801330793f7e76428de
:1009040060d06728e5dc2a00390008a801f032fd30
:10091400002800d1abe0079b0ba95a1c07921b7857
:1009240008aa3000fff7defc3de0702800d17be030
:1009340016dc6e2800d193e06f28cad12b00002268
:10094400390008a800f0b4fe002800d18fe0079b0e
:1009540008aa01330ba93000079301f025fe22e019
:10096400752840d078284ed07328b2d1802f00d07b
:100974007de0079b2a6801330793131d2b601268df
:10098400002384e02a00390008a801f0f3fc0028c1
:1009940000d16ce0079b0ba95a1c07921b7808aa8c
:1009a400300001f003fe2418039b1c19a34200dc51
:1009b4007ee04f223f4b1a6001235b42039303986e
:1009c40031b0f0bd2b000122390008a800f070fe00
:1009d40000284cd0079b08aa01330ba930000793c9
:1009e40001f0e2fddfe72b000022390008a800f047
:1009f4005ffee0b3079b08aa01330ba930000793fd
:100a040001f0d2fdcfe72b000022390008a800f046
:100a14004ffe60b3079b5a1c07921b7808aa0ba9c8
:100a2400300001f0c3fdbee72b000022f02108a82e
:100a340000f03efed8b1079b099a01330793089b47
:100a440013435bb91c4801f005fd02000b9b1a49d6
:100a540000930d9b300001f03df8a4e77823dde717
:100a6400039b39001a1908a82b0001f0a9f8079b69
:100a74000133079398e7802ff9d1079b013307933c
:100a84002b681a1d1b682a6008aa137001230ba97e
:100a9400300001f08dfd86e7802fe8d10122079b0d
:100aa400013307930b9b049300930d9b0349d1e7f8
:100ab400039474e6e00000209c250000a2250000b9
:020000040000fa
:100ac40070b540f28803c2f20003586a40f600434e
:100ad400c4f200239b7d002b00d199e040f6004234
:100ae400c4f20022546807210c4040f28803c2f289
:100af400000359699d699e68137e5b0700d49ee0dc
:100b040040f60043c4f200239a6a40f28803c2f21a
:100b14000003db688b4200d891e0002c00d078e021
:100b240040f28803c2f200035b685a54013140f674
:100b34000043c4f200231b7edb072ad540f60043a2
:100b4400c4f2002301221a7540f28803c2f20003a2
:100b54009b68ab4200d897e040f28803c2f20003de
:100b64001b685a5d40f60043c4f200239a620135c3
:100b740040f28803c2f200031b6913b9b54200d1e5
:100b8400afe040f28803c2f20003db688b4200d17d
:100b9400aee040f28803c2f2000359619d6140f661
:100ba4000043c4f200231b7e9b0725d540f2e503d6
:100bb400c2f200031b785bb340f28803c2f2000365
:100bc400db688b421ed140f28803c2f2000300218d
:100bd400197740f60042c4f200220724147540f24b
:100be400e502c2f2000211701b6a8bb140f2880365
:100bf400c2f200031b6a984740f2e503c2f2000305
:100c04001b782bb140f60043c4f2002302229a75ec
:100c140070bd40f28803c2f200035b684c00e252ec
:100c2400013140f60043c4f200231b7edb07b0d53c
:100c340040f60043c4f2002301221a750fe040f687
:100c44000043c4f200231b7edb07a2d540f6004319
:100c5400c4f2002301221a75002c00d174e740f27b
:100c64008803c2f200039b68ab4223d940f2880395
:100c7400c2f200031b686a00d25a40f60043c4f271
:100c840000239a62013573e740f28803c2f200033d
:100c94001b69002b00d16be740f60043c4f200232c
:100ca400ff229a6240f28803c2f200031a69013af1
:100cb4001a615de740f28803c2f200031b69002b4e
:100cc40000d155e740f60043c4f200234ff6ff720b
:100cd4009a6240f28803c2f200031a69013a1a6167
:100ce40046e740f2e503c2f2000301221a7050e71e
:100cf40040f60043c4f2002301229a7503321a75a8
:020d040047e7bf
:020000040000fa
:100d060070b5050040f28804c2f20004207fc0b22c
:100d1600002800d003e100297ad0002d78d040f6d3
:100d26000044c4f20024666807243440012c00d134
:100d360096e040f28800c2f200000560426000249e
:100d460044618461046140f28800c2f2000081605f
:100d5600002a00d189e040f28802c2f20002d36084
:100d660040f28802c2f200020121117740f60042e9
:100d7600c4f20022127e520708d540f60042c4f2a1
:100d860000220420916a117e0142fbd140f6004206
:100d9600c4f20022518b042001435183117e80202e
:100da6000143117640f28802c2f200029168d268cd
:100db6008a4206d940f28802c2f20002d068401a7e
:100dc600106140f60042c4f200225268520768d110
:100dd60040f28802c2f2000292698a424cd240f284
:100de6008802c2f200021168087840f60041c4f297
:100df60000218862916901319161002b00d186e062
:100e060040f60043c4f2002304229a75012087e0cd
:100e1600002b00d184e0002a00d181e040f6004496
:100e2600c4f20024666807243440012c13d040f233
:100e36008800c2f2000005604260002444618461bb
:100e46000461002d00d07ee740f28801c2f2000165
:100e5600002088607ce7002963d1dc07e7d55fe0e6
:100e6600cc075dd4002be2d0f7e740f28802c2f24d
:100e760000020021d16073e740f28802c2f200024c
:100e86001269002ab9d040f60042c4f20022ff21be
:100e9600916240f28802c2f20002116901391161c1
:100ea600abe740f28802c2f20002916849089160fd
:100eb600116949081161d1684908d1609168926940
:100ec6008a420ed240f28802c2f2000211680888f5
:100ed60040f60041c4f200218862916901319161b6
:100ee6008be740f28802c2f200021269002a84d01f
:100ef60040f60042c4f200224ff6ff71916240f2c2
:100f06008802c2f2000211690139116175e740f6e3
:100f16000043c4f2002301229a75012000e000205c
:080f260070bdcc0799d5fbe773
:020000040000fa
:100f2e00f0b40125ed070f005f405ad48b4200d17b
:100f3e00824205d950404240504059404b405940a2
:100f4e004e18760ddf187f0d3bd0741c640529d02a
:100f5e00f41b352c26d80e0ddb022b43db0ac902ff
:100f6e002943c9121700202c1ed2e741e2405740f8
:100f7e00e3415a40a340e3405a40002480185941af
:100f8e000ad3b21c520521d0c207012f62411700ad
:100f9e004008cb0718434908013636054208af41d1
:100fae0060417141f0bc7047203c06d01f00e74104
:100fbe00e3405f400024012a6741c0186141ebd332
:100fce00dfe7002eeed129400020ebe70136310598
:100fde000020e7e7e742e5d10020c143090dc9042f
:100fee00e0e76b400e00871a9e4104d26e40c01b94
:100ffe00b141d21973414e18df18ac0ae642e9d25c
:10100e00760d7f0d31d0f41b362ccbd8b4460e0d99
:10101e00db022b43db0ac9022943c90a012c32d851
:10102e0004d1d4075208df073a435b08ef0a644243
:10103e00904199411ed0002239424dd12419404190
:10104e0049410124394204d1013400184941394241
:10105e00fad06246a24204d9361b013e36058919e2
:10106e00a0e7f10ac90700209ce736429ad100207a
:10107e00002197e70200224394d0b842ded201004d
:10108e0020002024e3d1202c13dd203ce241170068
:10109e00a240e2405740e3415a40a340e3405a4049
:1010ae00012fbf410137174300227c4298419141e5
:1010be000ce01700e741e2405740e3415a40a3409d
:1010ce00e3405a407c429041994100220f0303d2e3
:1010de00013e241940414941013e36054708ac41c5
:0810ee0050417141f0bc704754
:020000040000fa
:1010f60006d128b9f54203d800d30ab96d0d09d136
:101106000020c143090dc904f0bdf9d11242f7d13f
:10111600640df5d00020c14349054908a6e000202a
:101126006146f0bdf0b50127ff070e005e403e4068
:10113600b446be0a4c18dd18f442d9d2f542e4d2c0
:10114600640decd06d0dead06419c9023943460d21
:10115600c0023143db023b43db0a10b48e4685b244
:1011660097b26f43140c6c433e0ca419260c24044e
:10117600bfb227439cb26c43a419190c6943250cd2
:10118600a4b249190d04090c6419000c95b2454323
:101196003e0c76193743bfb2360c150c4543ad19d4
:1011a600a6b2240cad192e0437432e0c36199db267
:1011b6004543ad19acb22e0c89191d0c45436d186b
:1011c6002e04290c3443704680b295b245433e0c3a
:1011d60076193743bfb2360c150c4543ad19a6b286
:1011e600ad19240c2e0437432e0c36199db24543f7
:1011f600ad19acb22e0c89191d0c45436d182e0481
:101206003443290c75462d0c90b268433e0c801968
:101216000604bfb23e43070ca0b23f18120c6a4345
:10122600d019020c80b2240ca4189ab26a4312197f
:1012360014042043120c89181b0c6b43c91810bcec
:1012460001273d05294203d1b61940414941013cd8
:10125600ff077d0d013d641b0bdb6d00ac4209da17
:10126600240500254208be41684161416646314376
:06127600f0bd54e74ee755
:020000040000fa
:10127c0041f20003c4f200030220187641f200414f
:10128c00c4f2000100220a7441f60001c4f200010c
:10129c0008621a8641f20002c4f20002802149045d
:1012ac0013690b42fcd046f22003c0f280031b688a
:1012bc005b009b0e9b0240f200221343d200c4f24f
:1012cc000002536341f20002c4f20002802149047f
:1012dc0013690b42fcd041f20003c4f2000302225a
:1012ec001a86d202c4f200028021490413690b420f
:1012fc00fcd041f60043c4f2000340f20712c0f2e6
:10130c0001021a6241f60042c4f200020421536841
:10131c001942fcd141f60043c4f20003cc22402117
:10132c00995041f60042c4f20002cc2013581942e5
:10133c00fcd041f60043c4f20003d0224021995066
:10134c0041f60042c4f20002d02013581942fcd0de
:10135c0041f60043c4f20003e4224021995041f6c7
:10136c000042c4f20002e42013581942fcd070472a
:020000040000fa
:10137c0010b592b011abfa221a7043f20023c4f2ea
:10138c000003f83a5a6100f0dcff0028fbd1012180
:10139c0011a801f0f1f8040000f0d3ff0028fbd1f4
:1013ac000cb912b010bd03210ea801f0bff8002833
:1013bc00f7d000f0c6ff0028fbd143f20023c4f2a3
:1013cc00000302229a610eab1c7824035a78120196
:1013dc0014439b781c4300f066fa40f20003c2f2ff
:1013ec0000031b882211d21ae4105b00e41a40f2ad
:1013fc000203c2f2000300215b5e5c43e412524321
:10140c00121340f20403c2f2000300215b5e5a4344
:10141c009213a418a00000198030001200f0efff06
:10142c0000220023c4f2590300f080f800f02afcdb
:10143c0000f09cfd02000b0042f29c41c0f2000146
:0e144c0001a801f00ff801a800f0b9ffa9e710
:020000040000fa
:02145a007047d9
:020000040000fa
:10145c00f0b5ce46474680b5bff35f8f62b64ef20d
:10146c000013cef2000340f224315a581202120a31
:10147c00c020000602435a5080225a6040f22832a3
:10148c00995840f2ff094c46a14340f2c00844462b
:10149c002143995040f2001159609958214ca446af
:1014ac0021404cf200073943995040f20021596019
:1014bc009c581d4d2c40c02109040c439c5040f2fb
:1014cc0000445c609e583602360a06439e5040f635
:1014dc0000025a6040f22c329c58484684434046e5
:1014ec0004439c5041f200005860985864462040d8
:1014fc003843985042f200005860985828400843ee
:10150c00985044f200025a6040f238301a58154094
:10151c00294319508022d2045a600cbc904699463b
:0c152c00f0bdc046ff00ffffffff00ff06
:020000040000fa
:10153800f0b40125ed070c005c402c40a446ae0a2f
:101548004c18df18f4423dd2f74244d2640d4ad019
:101558007f0d3bd0e41bc9022943cf0adb022b4392
:10156800db0a0600b61a9f4104d2013cb6197f4136
:10157800b6185f416812800d241836dd00188442c1
:1015880024d8e80c0021b6197f41b61a9f4103d32d
:1015980040414941f7d304e0b6185f41001849417a
:1015a800f1d32405b6197f41b61a9f4105d33743b5
:1015b800c20717430022012f50416141624611437f
:1015c800f0bc70470ad148b9f74207d20020c1439e
:1015d800490d0905f2e70ab9f74206d00020c143d0
:1015e800090dc904ece77f0df8d000206146e7e754
:020000040000fa
:1015f80040f2fd724b005b0df0b55c1e944242d880
:10160800284a9e182ad4332e27dc274a9b182ed422
:10161800120cc0f20f02da404ff6ff730700c0f257
:101628000f039743f3403c000f00024019409f43cb
:101638000a433d007ab1002f0dda20235b42f118ee
:1016480029d480204003c840020080214903f1408a
:101658000b00a4185d4120002900f0bd00200029de
:1016680001db0021f9e70021cbf6f071f5e7202234
:101678004ff6ff73921bc0f20f03934001225242b0
:10168800f2401a43c8e7002be7d10022c90fcb0765
:1016980010001900e1e720218020891b40038840c1
:0c16a8000200d2e701fcffffe1fbffffa6
:020000040000fa
:1016b40010b588293ad014dc81294ad003dc80296a
:1016c40047d0002010bd822910d08429f9d119688f
:1016d4002ab30a1d1a6000228b5e0360db17436085
:1016e40010e0a0292ed00fdc9029ead11968072434
:1016f4006ab30919a1430a0008321a600b684c68de
:10170400036044600120dde7c02901d0f029d8d16d
:101714001a68111d1960136803600023dfe70c1dac
:101724001c600b689bb203604260ebe7196822b14e
:101734000a1d1a600023cb56cfe70c1d1c600b68f2
:10174400dbb2f0e71a68111d19601368c5e70731a9
:10175400d0e719681ab10a1d1a600b68bde70c1da1
:061764001c600b68dfe7ca
:020000040000fa
:10176a0070b540f25803c2f200031b7d002b4ad029
:10177a0040f25802c2f200029368516841f2000234
:10178a00c4f20022127ed2071fd599421dd941f216
:10179a000001c4f20021072640f25800c2f20000fc
:1017aa00012509e00268d25c8a62013344680a7e34
:1017ba002a420ad09c4208d94a683240012af1d109
:1017ca0002685c00a25a8a62efe740f25802c2f24b
:1017da000002936052689a4215d840f25803c2f246
:1017ea00000300221a755a6041f20002c4f2002274
:1017fa0001211175db6833b140f25803c2f20003cc
:08180a001869db68984770bd06
:020000040000fa
:1018120010b540f25803c2f200032c229b5c33b392
:1018220040f25803c2f20003da691b6a93421ed2e5
:1018320040f25803c2f20003986a41f20002c4f275
:101842000022916a1b6a546807222240012a0fd0a3
:1018520040f25802c2f200029269d154013340f2be
:101862005802c2f200021362d2699a4208d010bd35
:1018720040f25802c2f2000292695c00a152ede706
:1018820040f25803c2f2000300222c215a54da61ba
:1018920041f20002c4f20022583111755b6a002b3a
:1018a200e5d040f25803c2f200035b6a9847dee7d4
:020000040000fa
:1018b20010b584b003ab88221a7043f20023c4f23d
:1018c2000003863a5a6100f041fd0028fbd1012154
:1018d20003a800f056fe040000f038fd0028fbd1fa
:1018e2003cb943f20023c4f2000302229a6104b01d
:1018f20010bd062101a800f01efe0028f1d000f064
:1019020025fd0028fbd140f20002c2f2000201ab29
:101912005878000219780143118040f20202c2f2a3
:101922000002d878000299780143118040f2040243
:10193200c2f20002597909021b790b431380d0e7e6
:020000040000fa
:1019420070b5002840d040f25803c2f200031a7d5d
:101952000023babb40f25803c2f200031860596078
:1019620001321a755c6841f20003c4f200231b7e47
:10197200db0718d5d4b1002341f20001c4f20021e3
:101982000726012507e0c25c8a6201330a7e2a42e9
:101992000bd09c420ad04a683240012af3d15a0045
:1019a200825a8a62f1e7002400e01c0040f25803e8
:1019b200c2f200039c6041f20003c4f20023012240
:0c19c2009a750123180070bd0023fbe79c
:020000040000fa
:1019ce0010b540f2e403c2f2000301221a7042f68f
:1019de000003c4f200231a6802218a431a6042f6f9
:1019ee000002c4f2002293681942fcd100f006fdf9
:1019fe00002247f20003c4f24703fff78ffb00f00b
:101a0e0071fc42f60003c4f20023186442f6000291
:101a1e00c4f200229368002bfcd142f60003c4f2fc
:101a2e0000231a6802210a431a6042f60002c4f229
:101a3e00002293681942fcd140f2e402c2f2000285
:081a4e001378002bfcd110bd40
:020000040000fa
:021a5600fee7a9
:020000040000fa
:101a5800b40000202400000000000000e400002082
:101a68000100000000000000000000200600000047
:101a780000000000580000203000000000000000b6
:101a8800e5000020010000000000000088000020a0
:101a98002c00000000000000d80000200400000016
:101aa80000000000080000205000000000000000b6
:101ab800dc0000200800000000000000000000001a
:101ac8000000000066666666666666666666666646
:020000040000fa
:101ad800f0b51d00012389b014000e9a06001a40c3
:101ae800039102920ab9a5420ad82200039930004c
:101af80000f053fca54203d82500280009b0f0bd2a
:101b08002f1b01973a00102f00d91022202104a87a
:101b180000f0e8fc019b0f2b0ed80f2204a93a40d5
:101b2800300000f03afc029b002be6d1220003991a
:101b3800300000f032fce0e7102204a9300000f089
:0a1b48002cfc019b103b0193e4e725
:020000040000fa
:021b5200fee7ac
:020000040000fa
:101b540041f20003c4f2002340f20412c4f2000272
:101b64001a60164a9a81c02292025a6041f2000217
:101b7400c4f20022d369002bfcd141f20003c4f269
:101b840000231a6802210a431a6041f20002c4f2d7
:101b94000022d369002bfcd140f25803c2f20003a7
:101ba40000229a61da611a622c215a545a621a602c
:101bb4005a609a601a75da60da857047b6fcffffde
:020000040000fa
:101bc40010b584291fd007dc812915d0822922d0a1
:101bd400802911d0002010bd90291cd008dc882950
:101be400f8d119680c1d1c600b6803601a7010e0b2
:101bf400a02901d0c029edd119680c1d1c600b6807
:101c040003601a6005e019680c1d1c600b68036012
:101c14001a800120dfe719680c1d1c600b68036043
:081c24001a60d2175a60f4e7c0
:020000040000fa
:101c2c0010b541f20003c4f200239b7d1bb341f2bb
:101c3c000002c4f20022137edbb2927d52b2002a63
:101c4c001adb41f20003c4f200231a7ed2b29b7d50
:101c5c00db0703d5d30701d5fff781fd41f2000364
:101c6c00c4f200231a7ed2b29b7d5b0703d55307c7
:101c7c0001d5fff7c8fd10bd5bb2002be1da00f017
:041c8c00b9f9dee7dd
:020000040000fa
:101c90004b1801225205da4217d25b0d0722d201fe
:101ca0009b1a0fd9ff2b12d2db05ca0fd2071343a1
:101cb0000903020d1143490ac200524100d9013102
:101cc000c8187047c80fc007704705d120b9c80fa2
:101cd0000002ff30c00570470123db070a00c9007e
:101ce000400f084398431a4010435b0a184370475b
:020000040000fa
:101cf00042f60003c4f2002301221a6042f60002f9
:101d0000c4f20022012193681942fcd142f600037b
:101d1000c4f2002340f200721a600021d963042249
:101d20005a7129321a644ff60f42c0f20f02da627a
:101d300040f2d002c2f20002116001229a6242f621
:0e1d40000002c4f200229368002bfcd1704711
:020000040000fa
:021d4e00fee7ae
:020000040000fa
:101d500000230e4a10b513600d4a0e4c13600e4a54
:101d600013600e4a13600e4a13600e4a53621361e9
:101d70000133936000f022fc00f020fc0a4b9c42ef
:101d800000d310bd08cc9847f8e7c046dc0000201f
:101d900014000020d40200001000002008000020e1
:0c1da0000c00002018000020d8020000f9
:020000040000fa
:101dac0010b541f25b43c0f20003984741f25b432c
:101dbc00c0f20003984700f02ffa40f20003c0f283
:101dcc0000037f2293434ef60052cef20002936042
:101ddc0041f65153c0f20003984741f25b43c0f205
:101dec000003984741f25b43c0f20003984700f0b0
:041dfc002af8fee7dc
:020000040000fa
:101e000040f28803c2f2000300221a621a779a6035
:101e1000da6040f60043c4f20023802292025a6046
:101e200040f60042c4f20022d369002bfcd140f6f8
:101e30000043c4f2002317221a73093ac0f2300299
:101e40001a6040f60042c4f20022d369002bfcd194
:021e50007047d9
:020000040000fa
:101e520010b582b08023db021c68002000f0c7f9b5
:101e6200631c0fd084f388880423c0f204031b6828
:101e72000193019c640864002000210022002300d9
:101e820000f01dfa40f6b830fff7a0fd00f051f85f
:0e1e9200fff773fa40f2f410fff798fdf8e73f
:020000040000fa
:101ea00030b51500012289b0524201920432ff324e
:101eb000029200b9684603900491002401b14c1ebf
:101ec0000594002906da4f220120074b40421a6090
:101ed00009b030bd00220790027006901a00290058
:0c1ee00001a800f0adfaf3e7e0000020dc
:020000040000fa
:101eec0010b543f20023c4f2000348f200021a605a
:101efc00012248215a5401315a5401315a540131aa
:101f0c005a5449399960996131313420195401304e
:101f1c0019540020d866c8241a5501341a55b33206
:081f2c0099543832985010bda1
:020000040000fa
:101f340000b583b042f2a453c0f200031b680193be
:101f440043f20023c4f2000302225a6100f0fdf9b7
:101f54000028fbd1042101a800f012fb00f0f5f9e0
:101f64000028fbd143f20023c4f2000302229a6149
:041f740003b000bdf9
:020000040000fa
:101f780041008c46012212068a420bd809093823ef
:101f88001b06c918c30fdb07194340076346da422b
:101f980004d27047c10fc9070020704703d1382306
:101fa8001b06c918704738231b06c9180122d2041a
:041fb800114370471a
:020000040000fa
:101fbc0030b401256d054c00e54215d85c00e542b6
:101fcc0012d80c001c436400044314430fd005d2f8
:101fdc0082428b418041013030bc70479042994124
:101fec008041013030bc7047002030bc704701206c
:041ffc0030bc70473e
:020000040000fa
:1020000010b541f20003c4f200235b8b072213409a
:1020100003b910bd40f25804c2f20004e38500f099
:10202000cbf841f20003c4f2002384221a752c235a
:102030000022e254636a002bebd0a06a636a9847df
:02204000e7e7d0
:020000040000fa
:022042007047e5
:020000040000fa
:1020440010b5054c227832b9044b13b1044800e0b2
:1020540000bf0123237010bdb40000200000000065
:1020640000000000034b10b51bb10349034800e016
:1020740000bf10bd00000000b800002000000000f8
:020000040000fa
:1020840010b540f2d003c2f20003596842f60002d0
:10209400c4f20022d06a4ff60f44c0f20f04d46297
:1020a400d26a1b682bb140f2d003c2f200031b6852
:1020b400984740f2e403c2f2000300221a7010bdf4
:020000040000fa
:1020c400030010b51a78202a0dd01100093904290b
:1020d40009d900212b2a02d02d2a01d10131013343
:1020e40000200a2404e00133ece760430133801a42
:0e20f4001a78303a092af8d901b9404210bdd5
:020000040000fa
:1021020030b401256d054c00e54215d85c00e5426e
:1021120012d80c001c436400044314430cd005d2b3
:1021220082428b418041404230bc7047904299418b
:0e2132008041404230bc7047002030bc7047f6
:020000040000fa
:1021400030b401256d054c00e54215d85c00e54230
:1021500012d80c001c436400044314430cd005d275
:10216000904299418041404230bc704782428b414d
:0e2170008041404230bc7047002030bc7047b8
:020000040000fa
:10217e0040f20043c4f2000300221a819a79012131
:10218e000a439a719b7803221340022b0cd040f223
:10219e000043c4f20003013a9a705202c4f20002e4
:0a21ae00012193790b42fcd0704729
:020000040000fa
:1021b80041f20003c4f200235b8b5b0713d041f2aa
:1021c8000003c4f2002380221a76793a5a831b7ed0
:1021d8005b0708d541f20003c4f2002304219a6a80
:0821e8001a7e0a42fbd1704788
:020000040000fa
:1021f00010b5fff7c4ff45f20003c4f20013042238
:102200005a60fff773fefff739f8fff7a3fc00f001
:1022100081f9fff7f5fdfff714fffff769fdfff701
:042220001df910bdd7
:020000040000fa
:1022240010b50a48016821b9436813b900f0c3f92d
:1022340010bd04008368064a9bb20c349b009b5873
:1022440042682000984780002018ebe7581a0000e5
:04225400b0240000b2
:020000040000fa
:1022580070b5040000200a4b4200d55c15b9d218ad
:10226800507870bd216801300e78c0b2ae4204d1fa
:10227800034b0131d218507821600a28ebd9f0e7d6
:0422880086240000a8
:020000040000fa
:10228c00f4464a1805d200f030f801d5c0174008c2
:10229c00604701235b05d34206d200f026f801d536
:1022ac000120c0074042604701d10042f5d0d01751
:0422bc00400870471f
:020000040000fa
:1022c000e0b545464e465746e0b45d4620b4254647
:1022d00026462746a046a146a246a346a44684f326
:1022e0000088a44720bcab46e0bcba46b146a8462d
:0222f000e0bd4f
:020000040000fa
:1022f2004a0010d2520d03231b02ff33d21a0ad412
:1023020052421f3209d4400dc90208430123db07a0
:0e2312001843d040704700207047d017704726
:020000040000fa
:1023200070b4012676054c005d00e6420cd8ee4202
:102330000ad825430543154303d0994204d190425e
:0e23400002d1012070bc7047002070bc7047b5
:020000040000fa
:10234e0040f28803c2f200039a68187fc0b2db68bd
:10235e00134343b140f60043c4f200231b7e9b0798
:0a236e0002d4012000e000207047b7
:020000040000fa
:10237800002380290fdb812901dd83290bd1072167
:10238800136807338b431900083111601a685b68ba
:0a2398000260436001231800704743
:020000040000fa
:1023a20070b505690400954200d915005db12a0097
:1023b200606900f086f8226963695b19551b002287
:0823c200636125611a7070bd12
:020000040000fa
:1023ca0010b5040003785bb101212000fff7b4facd
:1023da0000f0c5f80028fbd101342378002bf3d193
:0223ea0010bd24
:020000040000fa
:1023ec00002310b5934206d103201840421e9041a1
:0e23fc009b08c01810bdc45ccc540133f2e73e
:020000040000fa
:10240a0042f22743c0f20003004206d5404200b51b
:0c241a00984708bc0122d2071143184764
:020000040000fa
:1024260040f21d42010007d002d4013a0018fcd543
:0a2436001205c30a4005991870470b
:020000040000fa
:1024400013b50400019201aafef7a4f96368db0644
:0824500001d50120404216bd38
:020000040000fa
:10245800037833b1030001331a78002afbd1181a24
:0824680070470020fce7c046ac
:020000040000fa
:102470000eb403b503aa02ca019200f02df802b00f
:0624800008bc03b0184780
:020000040000fa
:1024860068076c094c836a9074a07ac000806888db
:0624960000846c8200814d
:020000040000fa
:10249c0054454d503a20252e3266206465670d0a4e
:0424ac000000c04626
:020000040000fa
:1024b00027250000ed230000a9250000a925000024
:0424c000a92500004a
:020000040000fa
:1024c40010b52ab10023cc5cc45401339342fad131
:0424d40010bdc04631
:020000040000fa
:1024d80010b513000a000249fff7defc10bdc04624
:0424e800ffffff7f74
:020000040000fa
:1024ec0032b10300c9b28218197001339342fbd187
:0424fc007047c0461f
:020000040000fa
:1025000003000a7818001a7001310133002af8d14b
:042510007047c0460a
:020000040000fa
:1025140045f20003c4f2001306225a60053a1a7207
:022524007047fe
:020000040000fa
:102526008a18914201d10020704700230b700131b7
:02253600f7e7c5
:020000040000fa
:1025380010b502000b0000210020fef7e0fb10bde3
:020000040000fa
:10254800494e4600696e66004e414e006e616e004f
:020000040000fa
:1025580010b5fef7e6fd029a039bfef7e4fc10bdfa
:020000040000fa
:0e25680040f25803c2f20003187dc0b2704763
:020000040000fa
:0e2576000300413b192b01d820231843704766
:020000040000fa
:0c25840010b500230022fef7bcfb10bdc8
:020000040000fa
:0c25900010b50400fff7b4ff200010bde0
:020000040000fa
:08259c00286e696c290025007e
:020000040000fa
:0425a400742375081f
:020000040000fa
:0425a8000020704758
:020000040000fa
:0425ac000020704754
:020000040000fa
:0425b0000020704750
:020000040000fa
:0425b400002070474c
:020000040000fa
:0225b800fee73c
:020000040000fa
:0225ba00704768
:020000040000fa
:0225bc00704766
:020000040000fa
:020000040003f7
:08fe00007fe97fe9c0f758ba61
:020000040000fa
:0200000400807a
:0440000077438fb0c3
:020000040000fa
:0200000400807a
:04400400bbf0ffff0f
:020000040000fa
:0200000400807a
:04400800008430f010
:020000040000fa
:0200000400807a
:04400c0000ffffffb3
:020000040000fa
:0200000400807a
:0440100000000000ac
:020000040000fa
:0200000400807a
:0440140002000000a6
:020000040000fa
:0200000400807a
:0440180000000000a4
:020000040000fa
:0200000400807a
:04401c0000000000a0
:020000040000fa
:0200000400807a
:04402000b67376e815
:020000040000fa
:0200000400807a
:04c00000ffff07f047
:020000040000fa
:0200000400807a
:04c004000000e8ff51
:020000040000fa
:0200000400807a
:04c00800cc9a34c0da
:020000040000fa
:0200000400807a
:04c01000ffffffff30
:020000040000fa
:0200000400807a
:04c01400ffffffff2c
:020000040000fa
:0200000400807a
:04c01800ffffffff28
:020000040000fa
:0200000400807a
:04c01c00ffffffff24
:020000040000fa
:0200000400807a
:04c02000ffffffff20
:020000040000fa
:0200000400807a
:04c02400ffffffff1c
:020000040000fa
:0200000400807a
:04c02800ffffffff18
:020000040000fa
:0200000400807a
:04c02c00ffffffff14
:020000040000fa
:0200000400807a
:04c03000ffffffff10
:020000040000fa
:0200000400807a
:04c03400ffffffff0c
:020000040000fa
:0200000400807a
:04c03800ffffffff08
:020000040000fa
:0200000400807a
:04c03c00ffffffff04
:020000040000fa
:0200000400807a
:04c04000ffffffff00
:020000040000fa
:0200000400807a
:04c04400fffffffffc
:020000040000fa
:0200000400807a
:04c04800fffffffff8
:020000040000fa
:0200000400807a
:04c04c00fffffffff4
:020000040000fa
:0200000400807a
:04c05000fffffffff0
:020000040000fa
:0200000400807a
:04c05400ffffffffec
:020000040000fa
:0200000400807a
:04c05800ffffffffe8
:020000040000fa
:0200000400807a
:04c05c00ffffffffe4
:020000040000fa
:0200000400807a
:04c06000ffffffffe0
:020000040000fa
:0200000400807a
:04c06400ffffffffdc
:020000040000fa
:0200000400807a
:04c06800ffffffffd8
:020000040000fa
:0200000400807a
:04c06c00ffffffffd4
:020000040000fa
:0200000400807a
:04c07000ffffffffd0
:020000040000fa
:0200000400807a
:04c07400ffffffffcc
:020000040000fa
:0200000400807a
:04c07800ffffffffc8
:020000040000fa
:0200000400807a
:04c07c00ffffffffc4
:020000040000fa
:0200000400807a
:04c08000ffffffffc0
:020000040000fa
:0200000400807a
:04c08400ffffffffbc
:020000040000fa
:0200000400807a
:04c08800ffffffffb8
:020000040000fa
:0200000400807a
:04c08c00ffffffffb4
:020000040000fa
:0200000400807a
:04c0e000ffffffff60
:020000040000fa
:0200000400807a
:04c0e400ffffffff5c
:020000040000fa
:0200000400807a
:04c0e800ffffffff58
:020000040000fa
:0200000400807a
:04c0ec00ffffffff54
:020000040000fa
:0200000400807a
:04c0f000ffffffff50
:020000040000fa
:0200000400807a
:04c0f400ffffffff4c
:020000040000fa
:0200000400807a
:04c0f800ffffffff48
:020000040000fa
:0200000400807a
:04c0fc00ffffffff44
:00000001FF
