:020000040000fa
:020000040004f6
:10000000f0ff00202d2b040073250400af2904000d
:1000100000000000000000000000000000000000e0
:10002000000000000000000000000000f71a0400bb
:100030000000000000000000f71a0400f71a040096
:1000400000000000000000000000000000000000b0
:1000500000000000000000000000000000000000a0
:100060000000000000000000000000000000000090
:100070000000000000000000000000000000000080
:100080000000000000000000000000000000000070
:100090000000000000000000000000000000000060
:1000a0000000000000000000000000000000000050
:1000b0000000000000000000000000000000000040
:1000c0000000000000000000000000000000000030
:1000d000000000000000000000000000ab11040060
:1000e000ab110400ab110400ab110400e7280400bd
:1000f000e7280400e7280400e728040000000000c7
:1001000000000000000000000000000000000000ef
:1001100000000000000000000000000000000000df
:1001200000000000000000000000000000000000cf
:1001300000000000000000000000000000000000bf
:1001400000000000000000000000000000000000af
:0c015000000000000000000000000000a3
:020000040000fa
:020000040004f6
:10015c00f8b5c046f8bc08bc9e467047c52c0400d8
:10016c00f8b5c046f8bc08bc9e467047a12c0400ec
:020000040000fa
:020000040004f6
:08017c00140d00000100000059
:020000040000fa
:020000040004f6
:10018400f0b5de46574680b585b082468b461600ec
:100194001f00002900d181e2002a00d181e2002b56
:1001a40000d181e200220023b260f3603260736008
:1001b4003261736103005b0700d01ce15346db0727
:1001c40000d4a6e1786a02f078ff00220023c3f687
:1001d400e07301f047fa002244f20003c4f2ef0393
:1001e40003f002f804000d000a23f85e02f065ff34
:1001f40022002b0001f036fa0094019522002b0016
:1002040001f030fa0022fb239b0501f02bfa0400d5
:100214000d000823f85e02f050ff009a019b01f0e4
:1002240021fa02000b002000290001f01df9002230
:10023400fb239b0501f016fa0022fc239b0501f029
:1002440011fa00220023c3f6f07301f00df9040043
:100254000d00f88802f03fff22002b0001f002faa3
:10026400002200230290039102f097fd002800d1a0
:1002740048e11023f85e02f020ff04000d0000980e
:10028400019902000b0001f0edf902000b002000bf
:10029400290001f0e7f90022fc239b0501f0e2f9b3
:1002a40004000d000e23f85e02f007ff009a019b84
:1002b40001f0d8f902000b0001f0d6f822002b005f
:1002c40001f0d2f800220023c3f6d07301f0caf97a
:1002d400009001915b46186802f0fdfe02000b00dd
:1002e40000200021c4f2301102f07eff04000d0052
:1002f4000c23f85e02f0e1fe00220023c4f2f003b6
:1003040001f0b0f9009a019b01f0aef8002200233d
:10031400c3f6307301f0a6f902000b002000290097
:1003240002f062ff002246f60023c4f2b80301f093
:1003340099f9029a039b01f0fffc04000d001623b7
:10034400f85e02f0bafe22002b0001f08bf92200c5
:100354002b0001f087f90022f8239b0501f082f9b4
:10036400009001911423f85e02f0a7fe22002b00f6
:1003740001f078f90022fc239b0501f073f90200d7
:100384000b000098019901f06ff80090019112237d
:10039400f85e02f092fe02000b000098019901f051
:1003a40063f800220023c3f6b07301f05bf9020086
:1003b4000b002000290001f057f804000d00002272
:1003c40044f60043c4f2dd0302f006fd002800d029
:1003d40052e100224df60033c4f2fa032000290052
:1003e40002f0dbfc002800d191e000244df600353a
:1003f400c4f2fa058be0486802f06dfe04000d00bb
:10040400388802f068fe0090019100220023c3f6b0
:1004140010732000290001f025f9029003910022b5
:100424000023c3f650730098019901f01bf90200f0
:100434000b000298039902f0d7fe02900391002268
:100444000023c3f6e0632000290001f00bf9040047
:100454000d0000220023c3f620730098019901f0d7
:1004640001f902000b002000290002f0bdfe020089
:100474000b0001f0f7f8009001910223f85e02f0fe
:100484001cfe029a039b01f0edf804000d00042306
:10049400f85e02f012fe009a019b01f0e3f80200fc
:1004a4000b002000290000f0dfff04000d0002f023
:1004b40040fd786200220023c4f2b4032000290026
:1004c40001f03afc04000d0000220023ccf24403a6
:1004d40002f082fc78b9002244f20003c4f255030e
:1004e4002000290002f059fc48b1002444f2000520
:1004f400c4f2550503e000240025ccf24405b460a1
:10050400f5605be6002444f60045c4f2dd05346082
:100514007560002053465b0700d4bae0786a02f0a5
:10052400ccfd00224cf20003c4f2f20302f05cfea4
:1005340004000d00387f02f0cefd00220023c3f634
:10054400506301f08ff822002b0001f08bf8002299
:100554000023c3f6f07300f087ff0090019122237b
:10056400f85602f0aafd00220023c3f6506301f0fe
:1005740079f822002b0001f075f8009a019b01f034
:1005840071f800220023c3f6f07300f06dff009aa7
:10059400019b01f067f8009001915b46986802f0b6
:1005a4009afd029003912023f85e02f086fd00225a
:1005b4000023c3f6107301f055f822002b0001f05c
:1005c40051f804000d001e23f85e02f076fd0022af
:1005d4000023c4f2500301f045f802000b00200090
:1005e400290000f041ff02000b000298039902f079
:1005f400fbfd04000d001a23f85e02f05efd0022ec
:100604000023c3f6f06301f02df802000b00200074
:10061400290001f027f8009a019b01f023f8040057
:100624000d00387e02f057fd22002b0001f01af86d
:100634000022fb239b0501f015f802000b000020ab
:100644000021c3f6f07102f0cffd22002b0001f06f
:1006540009f804000d0000220023c4f2590302f03b
:100664009cfb78b9002200232000290002f0b4fb8f
:1006740060b10024002509e0002444f60045c4f2da
:10068400dd0544e700240025c4f259053461756191
:10069400002005b00cbc92469b46f0bd01204042b0
:0e06a400f7e701204042f4e701204042f1e771
:020000040000fa
:020000040004f6
:0206b20070478f
:020000040000fa
:020000040004f6
:1006b400f0b59bb013930b6815900a934b680d919a
:1006c40002938b68ce680b930b6918931368069397
:1006d40053680698089300220023089902f07cfbd3
:1006e40060b90a9b5b0734d408200a9b0340099332
:1006f4000b9b0393099b73b1202306e0802212060f
:100704009446089b634408932d2333700b9b013b51
:10071400039301230993089b06995b005b088e4aa7
:10072400d9b9934219d1139b099a413bb018192b9b
:1007340011d88a4902f090fd300002f0d9fc0a9bde
:100744000200009331000b9b159801f0d3fe1bb0ff
:10075400f0bd2b23d9e78249ece7934202d80bd1b1
:10076400069b4bb1139b099a413bb018192b01d836
:100774007c49dfe77c49dde70022002306980899dd
:1007840002f03bfc0024794d0027e8bb070002e09f
:100794000137049c059d0022754b2000290000f0c0
:1007a40061ff069a089b0490059102f0f6fa00286e
:1007b400eed0002304931fe06e4b9f4213da049b98
:1007c4008bb900226c4b0698089900f04bff6a4bda
:1007d4000690089120002900002200f043ff012325
:1007e40004000d000493200029000022604b01f056
:1007f400a3fa04000d00013f22002b00069808997b
:1008040002f0eafa0028d7d1139802f017fdc3b218
:100814000c93029b002b00da93e10c9b0493672b4f
:1008240000d0afe0029b002b00d185e13b1d03db30
:10083400029b9f4200daa1e06523b5e00022002379
:100844000e920f9303e106940795049b0897652b7a
:1008540000d01ce10023089319e1029b5bb9089bbb
:10086400002b08da2e23149a0134b354039b013b62
:1008740003930123029323002a19302101e0f15448
:1008840001339a42fbd1039a2b193030551b5c1c5f
:10089400f0546b1e0393002523e00d9b14941b69f5
:1008a4001093053ba34200d8fde0069a079b0e98df
:1008b400129901f041fa01f09ffa1090119102f09f
:1008c40038fb092800dd092010230a9a134003434a
:1008d400002bc2d10c9b672bbfd1089b002bcada1b
:1008e400013580200006844612990e9a61440b005b
:1008f4001098119900920193069a079b02f096fcb6
:1009040080231b06cb180e90129306980799184b58
:10091400002201f011fa089b06900791013b08930d
:10092400bce00a9bdb0600d4c1e02e23335501341e
:10093400bde00a2297fbf2f56a43ba1a3032013b52
:10094400f254039a2f00013a0392bde0039b325cf8
:10095400f3181a540138e3e00000f07f2032040059
:1009640024320400283204002c3204000000f03f3a
:1009740000002440d4feffff00005043002f12da91
:1009840066230493029b01330293049b662b0cd1d0
:10099400002f02da002400276d4d0c9b672b02d038
:1009a400029bdb19029366230493069b0e940f9516
:1009b4001293089b1093002314930e9a0f9b129882
:1009c400109901f0b9f901f017fa1690179102f095
:1009d400b0fa19908020000684461099129a614456
:1009e4000b0016981799009201930e9a0f9b02f030
:1009f4001dfc80231b06cb181290109300220e9826
:100a04000f99544b01f098f9149b0e900f910133f8
:100a14001493149a029b9342cfd100224e4b00f0c0
:100a240021fe0e900f9102000b001298109902f013
:100a3400d3f9002800d001e70e9a0f9b1298109961
:100a440002f0dbfa18b1199bdb0700d4f6e60e9a24
:100a54000f9b0698089900f007fd00220e90129152
:100a64003c4b2000290000f0fdfd0e9a129b0690dd
:100a7400079102f0cff8002800d1e4e6049b013787
:100a8400662b00d0e1e6029b089701330293002510
:100a9400029a089b099c9b1a16930295089b169a26
:100aa400934200d0f9e6029b002b00d139e70021e4
:100ab400049b30190170652b25d1189b013bf1541f
:100ac4008f4201da7f420131002f00d031e7189aba
:100ad4009a1a0332002a00dd2be75d1e2d2201b98c
:100ae400023a7255139a023b413a192a01d8452217
:100af4000492049af1180a70039a023a03929c42ef
:100b040001da02f0a9fb03230a9a1340022b00d056
:100b140012e6039b002b00dc0ee6300002f0e8fa3c
:100b2400099b834200dc11e7f018039a302102f09c
:100b340035fb00230b93ffe50123029376e606239e
:100b4400fbe70c9b672bfad004930623029319e767
:0c0b54000000f03f0000244000001440ae
:020000040000fa
:020000040004f6
:100b60000023f0b506001500b1b007910393079973
:100b70000b78002b00d10ae101235b420c9310abf0
:100b800000240e9380230b940d940f930b5d0bb1f7
:100b9000252b29d134b12200300002f05cfa079bea
:100ba0001b190793079b1a78252a00d0e4e040f22e
:100bb000020c01211027013304930793079803784f
:100bc0002b2b1ad025d8202b1ad0232b1dd02a2b23
:100bd00028d002f022f90d90079b1a78303a092aa2
:100be00031d801330793f7e70134cfe70b9b059327
:100bf0000b4301300b930790e0e704230b9a0fe0bf
:100c00000b9b0593059a08230ae00b9b05933b4336
:100c1000efe72d2bead0302bd9d162460b9b059301
:100c20001343e6e72b6801301a1d1b6807902a6002
:100c30000d93002b07da0b9a5b420592012205996e
:100c40000d934a400b920b9bda0702d50222934385
:100c50000b93079b1a782e2a0ed10022581c0c9257
:100c600007905a782a2a27d1023307932b681a1d36
:100c70001b682a6005930c9307a802f077f9079b7d
:100c80000700187802f0dcfa692800d182e034dc31
:100c9000632800d1d7e01adc252800d1e4e06128e0
:100ca00058d0049b01220793002352420c920b93cd
:100cb0000d9300930232e1e002f0aff80c90079b35
:100cc0001a78303a092ad7d801330793f7e764280e
:100cd00060d06728e5dc2a00390008a802f0a6f9f0
:100ce000002800d1abe0079b0ba95a1c07921b7888
:100cf00008aa3000fff7defc3de0702800d17be061
:100d000016dc6e2800d193e06f28cad12b00002298
:100d1000390008a801f02cf9002800d18fe0079bca
:100d200008aa01330ba93000079302f0a3fa22e0ce
:100d3000752840d078284ed07328b2d1802f00d0ab
:100d40007de0079b2a6801330793131d2b6012680f
:100d5000002384e02a00390008a802f067f900287f
:100d600000d16ce0079b0ba95a1c07921b7808aabc
:100d7000300002f081fa2418039b1c19a34200dc06
:100d80007ee04f223f4b1a6001235b42039303989e
:100d900031b0f0bd2b000122390008a801f0e8f8bd
:100da00000284cd0079b08aa01330ba930000793f9
:100db00001f091f9dfe72b000022390008a801f0cb
:100dc000d7f8e0b3079b08aa01330ba930000793bb
:100dd00002f050facfe72b000022390008a801f0fa
:100de000c7f860b3079b5a1c07921b7808aa0ba987
:100df000300000f0e2fcbee72b000022f02108a842
:100e000001f0b6f8d8b1079b099a01330793089b04
:100e100013435bb91c4802f06df902000b9b1a49a1
:100e200000930d9b300001f067fba4e77823dde71a
:100e3000039b39001a1908a82b0001f0edfc079b51
:100e40000133079398e7802ff9d1079b013307936c
:100e50002b681a1d1b682a6008aa137001230ba9ae
:100e6000300002f00bfa86e7802fe8d10122079bc1
:100e7000013307930b9b049300930d9b0349d1e728
:100e8000039474e610810020683204006e3204007e
:020000040000fa
:020000040004f6
:100e9000f0b585b000930393009b02900c00160000
:100ea000150001900f00002b00d0c9e08a424ad9fa
:100eb000100001f0d1ff48b12023019f1b1adf4031
:100ec000019b84408340854027430193aab22b0ca9
:100ed000b7fbf3f1160094461a004a434e43bf1a7b
:100ee000019a3f04140c27430a00be4207d97f1918
:100ef000013abd4203d8be4201d98a1e7f19be1bea
:100f0000b6fbf3f14b436446f61a6b464c439b88a1
:100f100036041e430f00b44207d97619013fb5428b
:100f200003d8b44201d98f1e76191204341b3a43f8
:100f30000a9b23b1c4401c6000230a994b60100037
:100f4000009905b0f0bd02b9ffde100001f084ff8a
:100f5000b8bb0123a41b00932b0cb4fbf3f21f00be
:100f600011005743aeb27143e41b019f24043f0cb0
:100f70003c439446a1420ad9012764197f42bc44ec
:100f8000a54204d8a14202d9023a94466419641acf
:100f9000b4fbf3f77b43e41a6b467e439b8824043f
:100fa0001c433900a64207d964190139a54203d868
:100fb000a64201d9b91e641963461a04a41b0a4348
:100fc000b6e7202223000199121ad3408440d14071
:100fd000019a8540824021438c46290cb3fbf1f4f1
:100fe00001920a00624326009b1a6246afb27e431a
:100ff000120c1b04134322009e4207d95b19013acd
:101000009d4203d89e4201d9a21e5b199b1bb3fbd4
:10101000f1f671435b1a614677438cb21b041c43a3
:101020003100a74207d964190139a54203d8a74264
:1010300001d9b11e641912040a43e41b00928be724
:10104000009b8b420ad90a9b002b00d1abe0029a8d
:1010500059601a60002300931a0070e7039801f0aa
:10106000fbfed8b9039ba34203d3029b02009e421e
:101070000ad8029b01229e1b039b0196e41a029b45
:10108000b342ad416d42671b0a9b0093002b00d118
:1010900055e7019982c30023009350e720231b1ad0
:1010a00001933300019a039fd34087401f432300dd
:1010b0000199d340029a8440ca4022439446029a3e
:1010c000390c8240b3fbf1f402920a00864062437d
:1010d000009626009b1a6246bdb26e43120c1b049a
:1010e000134322009e4207d9db19013a9f4203d8dd
:1010f0009e4201d9a21edb199e1bb6fbf1f463468a
:1011000061436543761a360499b20e432300b54213
:1011100007d9f619013bb74203d8b54201d9a31e3e
:10112000f61912041a436b461c88009b711b8c46ef
:10113000190c230096b2150c6c4373434d43714355
:101140001e0c091971188c4202d9802464022d19d1
:101150000c0c9bb209046519c918ac4503d30bd11b
:10116000029b8b4208d2009b013ace1ab1428941c0
:101170004942cf193100ed1b0a9b0093002b00d18f
:10118000dde6029b019c591a63465d1b029b8b4264
:101190009b415b42ed1a2b00c140a340c54019435f
:0a11a0000a9b22c377e70a9b55e77c
:020000040000fa
:020000040004f6
:1011aa0010b540f60043c4f200239b7d43b348f2d6
:1011ba00c003c2f200039c6a40f60043c4f2002353
:1011ca005b8b9b071dd548f2c003c2f200032022a5
:1011da00ff2199540132fd39995448f2c003c2f2f1
:1011ea00000320229b5c5bb2013300d1e5e048f2a8
:1011fa00c003c2f2000320229b5c062b00d108e147
:10120a0010bd40f60043c4f200235b8bdb070ad50e
:10121a0048f2c003c2f200032022ff21995401328e
:10122a00fd399954d9e740f60043c4f200235b8b99
:10123a005b070ad548f2c003c2f200032022ff214d
:10124a0099540132fe399954c7e748f2c003c2f2f1
:10125a00000320229b5c5bb2032b78d0042b1bd0ab
:10126a00022bbad148f2c003c2f200031b694bb188
:10127a0048f2c003c2f20003988880b2002101f04c
:10128a0074f9aae748f2c003c2f20003988880b250
:10129a00012101f06af9a0e748f2c003c2f2000393
:1012aa009a691b69934218d048f2c003c2f200033c
:1012ba009b68995c40f60043c4f200239962511c72
:1012ca0040f60042c4f20022d369002bfcd148f256
:1012da00c003c2f2000399617fe748f2c003c2f279
:1012ea0000035b69dbb148f2c003c2f200039b88ca
:1012fa005b000122134340f60042c4f2002253620b
:10130a0040f60042c4f20022d369002bfcd148f215
:10131a00c003c2f200032022032199545de740f67c
:10132a000043c4f200235968c02292020a435a6059
:10133a0040f60042c4f20022d369002bfcd148f2e5
:10134a00c003c2f2000320220621995445e748f25d
:10135a00c003c2f20003d9695b69013b8b4214d016
:10136a0040f60042c4f20022d369002bfcd140f6b9
:10137a000043c4f20023986a48f2c003c2f2000391
:10138a00da6850540131d96127e740f60043c4f2c4
:10139a0000235868e022d20202435a6040f6004213
:1013aa00c4f20022d369002bfcd148f2c003c2f276
:1013ba000003202206209854d2e748f2c003c2f262
:1013ca0000030021995440f60043c4f200235968ef
:1013da00c02292020a435a6040f60042c4f2002236
:1013ea00d369002bfcd140f60043c4f200239b22b0
:1013fa001a7648f2c003c2f200035b6a002b00d1de
:10140a00fee648f2c003c2f200035b6a2000984776
:10141a00f6e648f2c003c2f20003002220215a5421
:10142a0001315a5440f60043c4f200239b321a7623
:10143a0040f60042c4f200220f31538b0b40102bae
:10144a00fbd148f2c003c2f200035b6a002b00d151
:10145a00d6e648f2c003c2f200035b6a200098474e
:02146a00cee6cc
:020000040000fa
:020000040004f6
:10146c00f0b40125ed070f005f405ad48b4200d138
:10147c00824205d950404240504059404b4059405f
:10148c004e18760ddf187f0d3bd0741c640529d0e7
:10149c00f41b352c26d80e0ddb022b43db0ac902bc
:1014ac002943c9121700202c1ed2e741e2405740b5
:1014bc00e3415a40a340e3405a400024801859416c
:1014cc000ad3b21c520521d0c207012f624117006a
:1014dc004008cb0718434908013636054208af418e
:1014ec0060417141f0bc7047203c06d01f00e741c1
:1014fc00e3405f400024012a6741c0186141ebd3ef
:10150c00dfe7002eeed129400020ebe70136310554
:10151c000020e7e7e742e5d10020c143090dc904eb
:10152c00e0e76b400e00871a9e4104d26e40c01b50
:10153c00b141d21973414e18df18ac0ae642e9d218
:10154c00760d7f0d31d0f41b362ccbd8b4460e0d56
:10155c00db022b43db0ac9022943c90a012c32d80e
:10156c0004d1d4075208df073a435b08ef0a644200
:10157c00904199411ed0002239424dd1241940414d
:10158c0049410124394204d10134001849413942fe
:10159c00fad06246a24204d9361b013e360589199f
:1015ac00a0e7f10ac90700209ce736429ad1002037
:1015bc00002197e70200224394d0b842ded201000a
:1015cc0020002024e3d1202c13dd203ce241170025
:1015dc00a240e2405740e3415a40a340e3405a4006
:1015ec00012fbf410137174300227c4298419141a2
:1015fc000ce01700e741e2405740e3415a40a3405a
:10160c00e3405a407c429041994100220f0303d29f
:10161c00013e241940414941013e36054708ac4181
:08162c0050417141f0bc704710
:020000040000fa
:020000040004f6
:1016340006d128b9f54203d800d30ab96d0d09d1f2
:101644000020c143090dc904f0bdf9d11242f7d1fc
:10165400640df5d00020c14349054908a6e00020e7
:101664006146f0bdf0b50127ff070e005e403e4025
:10167400b446be0a4c18dd18f442d9d2f542e4d27d
:10168400640decd06d0dead06419c9023943460dde
:10169400c0023143db023b43db0a10b48e4685b201
:1016a40097b26f43140c6c433e0ca419260c24040b
:1016b400bfb227439cb26c43a419190c6943250c8f
:1016c400a4b249190d04090c6419000c95b24543e0
:1016d4003e0c76193743bfb2360c150c4543ad1991
:1016e400a6b2240cad192e0437432e0c36199db224
:1016f4004543ad19acb22e0c89191d0c45436d1828
:101704002e04290c3443704680b295b245433e0cf6
:1017140076193743bfb2360c150c4543ad19a6b242
:10172400ad19240c2e0437432e0c36199db24543b3
:10173400ad19acb22e0c89191d0c45436d182e043d
:101744003443290c75462d0c90b268433e0c801925
:101754000604bfb23e43070ca0b23f18120c6a4302
:10176400d019020c80b2240ca4189ab26a4312193c
:1017740014042043120c89181b0c6b43c91810bca9
:1017840001273d05294203d1b61940414941013c95
:10179400ff077d0d013d641b0bdb6d00ac4209dad4
:1017a400240500254208be41684161416646314333
:0617b400f0bd54e74ee712
:020000040000fa
:020000040004f6
:1017ba00f0b58fb00d934b680c9006938b680d00b3
:1017ca000793cb6816000393069b0f68002b42db36
:1017da0002239f4310233b400a93079b04930a9bcf
:1017ea003bb1726833681343079a13b11300023b83
:1017fa00049308233b400b935a1e9341049ad31a2d
:10180a0004933368039a0893736809932b695c1edf
:10181a0000231355069b0593012c1fdc0a9b002b02
:10182a0050d10b9b1bb12023039a013c13552b6902
:10183a0000975a1e039b121b19190c98079b00f05c
:10184a0056fe0c9b5b68db0503d56b68984200da91
:10185a0018000fb0f0bd01230693bbe7089b099a55
:10186a0013435bb9059b002b08dc069a049b9b1a61
:10187a00059a9b18002bd1ddbb07cfd50f23089af9
:10188a00013c134018005730092b01dc3033180093
:10189a000d9b413b192b06d820230343613b192b8f
:1018aa0001d801f0cffc039b1855059b013b05931a
:1018ba00099b1a07089b1b091a43099b08921b09d3
:1018ca000993a9e70cce1343002baad0039b0d9ac8
:1018da001b19013b1a703023039a023c1355a0e7e7
:020000040000fa
:020000040004f6
:1018ea0030b589b004001f21694400230b7003003e
:1018fa000122d02001f03ff950b91f236b441b7815
:10190a00602b00d078e02370200000f0b4ff08b10b
:10191a0009b030bd01a9002301934b608b60cb60f5
:10192a000b614b610b8323001a22883001f023f9e3
:10193a000028edd101a94a7812020b7813432383b8
:10194a00ca7812028b78134363834a7912020b799d
:10195a001343a383ca7912028b791343e3834a7a26
:10196a0012020b7a13432384ca7a12028b7a134324
:10197a0063844a7b12020b7b1343a384ca7b120241
:10198a008b7b1343e3844a7c12020b7c134323852b
:10199a00ca7c12028b7c134363854a7d12020b7d3b
:1019aa001343a385ca7d12028b7d1343e3854a7ec6
:1019ba003023e25423000722e13001f0dcf800284a
:1019ca00a6d101aa5178090213780b43638691784c
:1019da003423e1541379032555572d010f2119405a
:1019ea002943e1860521515609011b090b43238727
:0e19fa0092793a23e2548be70420404288e7ba
:020000040000fa
:020000040004f6
:101a080010b590b048f21413c2f2000301223f212e
:101a18006944d02001f056fa002845d13f246c448f
:101a2800227841f6b861c0f2040101a801f076fb02
:101a380001a801f0c5fb2378602b06d041f6f460bd
:101a4800c0f2040001f0bcfbfee741f6e460c0f21e
:101a5800040001f0b5fb48f25000c2f20000012377
:101a6800437042f6cd63c0f20403c36042f60373c9
:101a7800c0f20403036143f25113c0f2040343614b
:101a880048f21413c2f200034360fff72aff020072
:101a980088b141f65871c0f2040101a801f03efb7b
:101aa80001a801f08dfbfee741f61870c0f20400b2
:101ab80001f086fbfee741f63470c0f2040001f045
:101ac8007ffb0ea901238b700b704b700023cb702a
:101ad8000b7148f25004c2f2000422001f2000f0eb
:0e1ae80030ff2100032000f0bfff10b010bd42
:020000040000fa
:020000040004f6
:021af600fee709
:020000040000fa
:020000040004f6
:101af800f0b5ce46474680b54ef20013cef200034d
:101b080040f224301a581202120ac02109060a4368
:101b18001a5080225a6040f22832985840f2ff0941
:101b28004c46a04340f2c00844462043985040f237
:101b38000010586098581d4ca44620404cf20007ed
:101b48003843985040f2002058609858184e30405a
:101b5800c0252d042843985040f2004058609c58f6
:101b68002402240a0c439c5040f600025a6040f2ba
:101b78002c3298584946884341460843985041f2c8
:101b8800000159609958604601403943995042f222
:101b98000001596099580e4035439d5044f20002a7
:101ba8005a600cbc90469946f0bdc046ff00ffff46
:041bb800ffff00ff2c
:020000040000fa
:020000040004f6
:101bbc005541525420496e697469616c697a656447
:101bcc002120424d45323830205374617274696e55
:101bdc00672e2e2e0a00000049324320496e69748c
:101bec0069616c697a6564210a000000546573743c
:101bfc00696e672049324320436f6d6d756e696362
:101c0c006174696f6e2e2e2e0a000000493243203b
:101c1c00436f6d6d756e69636174696f6e204f4ba8
:101c2c00210a0000496e697469616c697a696e6792
:101c3c0020424d453238302e2e2e0a00424d453270
:101c4c00383020496e697469616c697a6564210a5f
:101c5c000000000049324320436f6d6d756e69635f
:101c6c006174696f6e204661696c6564210a0000bd
:020000040000fa
:020000040004f6
:101c7c0070b582b006000d0014000120730703d468
:101c8c00b30726d102b070bd6b46d81df22303708a
:101c9c006b46591daa78072313400b7023000122b1
:101cac0000f0bbf90028ebd16b46f422da7123006b
:101cbc00f33a69460631f43000f05cff0028dfd1be
:101ccc0023000122694606316846073000f0a5f969
:101cdc00d6e76b46f4229a712300f33a6946073132
:101cec00f42000f047ff0028ccd1f3070ad4b30747
:101cfc0014d423000122694607316846063000f0ef
:101d0c008cf9bfe76b46d91d2a7892001c2313402f
:101d1c000a781c30824313430b70e8e76b46d91ddd
:101d2c00da791f2313406a78520113430b70e0e7f2
:020000040000fa
:020000040004f6
:101d3c00f0b40125ed070c005c402c40a446ae0a23
:101d4c004c18df18f4423dd2f74244d2640d4ad00d
:101d5c007f0d3bd0e41bc9022943cf0adb022b4386
:101d6c00db0a0600b61a9f4104d2013cb6197f412a
:101d7c00b6185f416812800d241836dd00188442b5
:101d8c0024d8e80c0021b6197f41b61a9f4103d321
:101d9c0040414941f7d304e0b6185f41001849416e
:101dac00f1d32405b6197f41b61a9f4105d33743a9
:101dbc00c20717430022012f504161416246114373
:101dcc00f0bc70470ad148b9f74207d20020c14392
:101ddc00490d0905f2e70ab9f74206d00020c143c4
:101dec00090dc904ece77f0df8d000206146e7e748
:020000040000fa
:020000040004f6
:101dfc0040f2fd724b005b0df0b55c1e944242d874
:101e0c00284a9e182ad4332e27dc274a9b182ed416
:101e1c00120cc0f20f02da404ff6ff730700c0f24b
:101e2c000f039743f3403c000f00024019409f43bf
:101e3c000a433d007ab1002f0dda20235b42f118e2
:101e4c0029d480204003c840020080214903f1407e
:101e5c000b00a4185d4120002900f0bd00200029d2
:101e6c0001db0021f9e70021cbf6f071f5e7202228
:101e7c004ff6ff73921bc0f20f03934001225242a4
:101e8c00f2401a43c8e7002be7d10022c90fcb0759
:101e9c0010001900e1e720218020891b40038840b5
:0c1eac000200d2e701fcffffe1fbffff9a
:020000040000fa
:020000040004f6
:101eb800424d4532383020436869702049443a2001
:101ec800307825303258202873686f756c6420622a
:101ed800652030783630290a00000000424d45322e
:101ee800383020466f756e64210a000057726f6e95
:101ef8006720436869702049442120436865636b03
:101f080020636f6e6e656374696f6e732e0a0000ce
:101f18004661696c656420746f2072656164204352
:101f2800686970204944210a00000000424d45328a
:101f3800383020496e697469616c697a6564205328
:101f480075636365737366756c6c79210a000000ac
:101f5800424d4532383020496e6974204572726f9f
:081f6800723a2025640a000012
:020000040000fa
:020000040004f6
:101f700010b588293ad014dc81294ad003dc8029a5
:101f800047d0002010bd822910d08429f9d11968ca
:101f90002ab30a1d1a6000228b5e0360db174360c0
:101fa00010e0a0292ed00fdc9029ead1196807246f
:101fb0006ab30919a1430a0008321a600b684c6819
:101fc000036044600120dde7c02901d0f029d8d1a9
:101fd0001a68111d1960136803600023dfe70c1de8
:101fe0001c600b689bb203604260ebe7196822b18a
:101ff0000a1d1a600023cb56cfe70c1d1c600b682e
:10200000dbb2f0e71a68111d19601368c5e70731e4
:10201000d0e719681ab10a1d1a600b68bde70c1ddc
:062020001c600b68dfe705
:020000040000fa
:020000040004f6
:10202600f0b587b01e0015000a2a00d90a25002e31
:1020360039d0f368002b39d03369002b39d0736956
:10204600002b39d000283ad000293bd0002a3cd0ba
:102056000c7801ab1c707378012b07d000237f2707
:10206600c45c3c40c4540133ab42f9d3012a09d8bd
:10207600007873682a0001a93469a047307278b9dc
:1020860007b0f0bd6b465c1d0123c25c2270ca5cc2
:10209600627001330234ab42f7d36d00013de7e7ce
:1020a60002204042ece701204042e9e7012040429d
:1020b600e6e701204042e3e701204042e0e7012055
:1020c6004042dde701204042dae703204042d7e7fd
:020000040000fa
:020000040004f6
:1020d600f0b54b6889b005930b6807009c460793db
:1020e600cb680c008e6810685168cd0f0493002de4
:1020f60041d00b000200002150429941059b002b64
:1021060007db022263469343079315b9079b5a07d9
:1021160028d5731e07aa02920a22009301920b0089
:102126000200200000f097fa15b9079b5a071dd543
:1021360001382d2305b9023b049a135423695a1e0c
:10214600049b121a1918079b38000093330000f0fd
:10215600d0f97b68db0503d56368984200da18007e
:1021660009b0f0bd1b07db0ff31ad3e71b07e5d554
:0e21760001382023e0e7059b002bc2dac6e704
:020000040000fa
:020000040004f6
:1021840070b548f29003c2f200031b7d002b4ad0c5
:1021940048f29002c2f200029368516841f20002d0
:1021a400c4f20022127ed2071fd599421dd941f2f2
:1021b4000001c4f20021072648f29000c2f2000098
:1021c400012509e00268d25c8a62013344680a7e10
:1021d4002a420ad09c4208d94a683240012af1d1e5
:1021e40002685c00a25a8a62efe748f29002c2f2e7
:1021f4000002936052689a4215d848f29003c2f2e2
:10220400000300221a755a6041f20002c4f200224f
:1022140001211175db6833b148f29003c2f2000367
:082224001869db68984770bde2
:020000040000fa
:020000040004f6
:10222c0010b548f29003c2f200032c229b5c33b32e
:10223c0048f29003c2f20003da691b6a93421ed281
:10224c0048f29003c2f20003986a41f20002c4f211
:10225c000022916a1b6a546807222240012a0fd07f
:10226c0048f29002c2f200029269d154013348f252
:10227c009002c2f200021362d2699a4208d010bdd9
:10228c0048f29002c2f2000292695c00a152ede7a2
:10229c0048f29003c2f2000300222c215a54da6156
:1022ac0041f20002c4f20022583111755b6a002b16
:1022bc00e5d048f29003c2f200035b6a9847dee770
:020000040000fa
:020000040004f6
:1022cc0040f60043c4f2002301221a6040f600429b
:1022dc00c4f20022d369002bfcd140f60043c4f2b7
:1022ec00002340f200125a6040f60042c4f2002271
:1022fc00d369002bfcd140f60043c4f20023e82242
:10230c00da60523ac0f210021a6040f60042c4f28f
:10231c000022d369002bfcd140f60043c4f2002309
:10232c0010225a8340f60042c4f20022d369002bdb
:10233c00fcd148f2c003c2f20003002221215a54fe
:10234c0001395a5440f60043c4f200239b329a756b
:02235c007047c8
:020000040000fa
:020000040004f6
:10235e0070b5002840d048f29003c2f200031a7df7
:10236e000023babb48f29003c2f200031860596012
:10237e0001321a755c6841f20003c4f200231b7e21
:10238e00db0718d5d4b1002341f20001c4f20021bd
:10239e000726012507e0c25c8a6201330a7e2a42c3
:1023ae000bd09c420ad04a683240012af3d15a001f
:1023be00825a8a62f1e7002400e01c0048f2900382
:1023ce00c2f200039c6041f20003c4f2002301221a
:0c23de009a750123180070bd0023fbe776
:020000040000fa
:020000040004f6
:1023ea0000b583b0002000f00eff00f0f8f841f6c7
:1023fa00bc30c0f2040000f0e2fefff762ff41f6d3
:10240a00e430c0f2040000f0dafe41f6f830c0f21f
:10241a00040000f0d4fe01226b46d91d762000f09c
:10242a005afcd0b141f61840c0f2040000f0c7fed1
:10243a0041f63040c0f2040000f0c1fefff7dffab7
:10244a0041f64840c0f2040000f0b9fe00f00cf872
:10245a0040f2e83000f0bcfef8e741f66040c0f216
:08246a00040000f0acfefee7e7
:020000040000fa
:020000040004f6
:1024720000b5a3b048f25002c2f200021ca9072024
:1024820000f025f900282fd11e9a1f9b009201937c
:1024920042f6b011c0f2040103a800f042fe03a804
:1024a20000f091fe00220023c4f259031c981d99ea
:1024b200fff743fc02000b0042f6c811c0f2040110
:1024c20003a800f02efe03a800f07dfe209a219bb7
:1024d20042f6dc11c0f2040103a800f022fe03a8b8
:1024e20000f071fe23b000bd42f6f010c0f204000d
:0624f20000f069fef6e7b0
:020000040000fa
:020000040004f6
:1024f800f0b51d00012389b014000e9a06001a4099
:10250800039102920ab9a5420ad822000399300021
:1025180000f09dfda54203d82500280009b0f0bdb4
:102528002f1b01973a00102f00d91022202104a850
:1025380000f032fe019b0f2b0ed80f2204a93a405f
:10254800300000f084fd029b002be6d122000399a5
:10255800300000f07cfde0e7102204a9300000f014
:0a25680076fd019b103b0193e4e7b0
:020000040000fa
:020000040004f6
:02257200fee782
:020000040000fa
:020000040004f6
:1025740010b548f2c003c2f2000300229a61da6186
:1025840040f60043c4f200239b321a765a68144c76
:1025940022405a6040f60042c4f20022d369002b64
:1025a400fcd1a9b148f2c003c2f2000320220324e3
:1025b4009c544000084340f60043c4f20023586290
:1025c40040f60042c4f20022d369002bfcd110bdb6
:1025d40048f2c003c2f20003202204249c54e8e71a
:0425e400fffffbfffb
:020000040000fa
:020000040004f6
:1025e80041f20003c4f2002340f28412c4f2000254
:1025f8001a60174a9a8140f20022c0f203025a6018
:1026080041f20002c4f20022d369002bfcd141f24e
:102618000003c4f200231a6802210a431a6041f237
:102628000002c4f20022d369002bfcd148f29003c7
:10263800c2f2000300229a61da611a622c215a540c
:102648005a621a605a609a601a75da60da857047b9
:042658002bf6ffff5f
:020000040000fa
:020000040004f6
:10265c00f7b5040019000a9fe368666800933b68ad
:10266c00100001932369013b1c00002e00da0126a7
:10267c000022009dea5435000123002c02dce3b15a
:10268c002000febd02000a434ab9002d07dc089a5f
:10269c00921b5219002af2dd019a9207efd5099b81
:1026ac00099adb1700f036fb8c460099013c1300ad
:1026bc0030320a55013d6146dfe710233a689a43f0
:0426cc003a60dde7ac
:020000040000fa
:020000040004f6
:1026d00070b586b005000e00140000220492059229
:1026e00001920292039241b32300083204a9f72019
:1026f00000f046fa08b106b070bd04ab1a781203b8
:10270000597809010a43997809090a430192da784c
:102710001203197909010a43597909090a430292f6
:102720009a791202db7913430393230018333200a2
:1027300001a92800fdf726fddde701204042dae788
:020000040000fa
:020000040004f6
:10274000ec8000201c0000000000000050800020f1
:102750004000000000000000148100200100000083
:102760000100000076000000c08000202c00000066
:1027700000000000908000203000000000000000f9
:1027800008810020040000000000000000800020fc
:1027900050000000000000000c8100200800000034
:1027a0000000000000000000000000006666666691
:020000040000fa
:020000040004f6
:1027b00070b582b006000d0014006b46f522da7188
:1027c0002300f43a69460631f52000f0d9f958b9ea
:1027d00033070bd4f30615d42300012269460631d2
:1027e00068460730fff71ffc02b070bd6b46991dad
:1027f000ea7892001c2313400a781c30824313436a
:102800000b70e7e76b46991d9a791f2313402a79cd
:08281000520113430b70dfe7d6
:020000040000fa
:020000040004f6
:1028180010b584291fd007dc812915d0822922d040
:10282800802911d0002010bd90291cd008dc8829ef
:10283800f8d119680c1d1c600b6803601a7010e051
:10284800a02901d0c029edd119680c1d1c600b68a6
:1028580003601a6005e019680c1d1c600b680360b2
:102868001a800120dfe719680c1d1c600b680360e3
:082878001a60d2175a60f4e760
:020000040000fa
:020000040004f6
:1028800070b582b006006b46d81de02303706b461e
:1028900000229a716b46591db6230b70330001322a
:1028a000fff7c1fbd0b906246b469d1d716840f24d
:1028b000d07073699847330001222900f32000f09b
:1028c0005ff930b9013ce4b21cb12b78db07edd4e1
:1028d00004e06b4606331b78db0701d402b070bd01
:0628e00006204042fae769
:020000040000fa
:020000040004f6
:1028e60010b541f20003c4f200239b7d1bb341f2f5
:1028f6000002c4f20022137edbb2927d52b2002a9d
:102906001adb41f20003c4f200231a7ed2b29b7d89
:10291600db0703d5d30701d5fff731fc41f20003ee
:10292600c4f200231a7ed2b29b7d5b0703d5530700
:1029360001d5fff778fc10bd5bb2002be1da00f0a1
:042946008af9dee745
:020000040000fa
:020000040004f6
:10294a00f0b583b007000e00150041b311006b46c5
:10295a00d81d00f08ffb0400f0b96b4607331b78d3
:10296a005bb97b0710d118233b4215d02a003100ee
:10297a003800fff718ff04000ee0280000f043f8c3
:10298a000028eed0040007e02a0031003800fff7e3
:10299a0070f90028e7d00400200003b0f0bd01243c
:0429aa006442f9e7a3
:020000040000fa
:020000040004f6
:0229ae00fee742
:020000040000fa
:020000040004f6
:1029b00054656d70657261747572653a20252e32aa
:1029c0006620430a000000005072657373757265db
:1029d0003a20252e3266206850610a0048756d69dc
:1029e000646974793a20252e32662025250a000074
:1029f0004661696c656420746f2072656164204271
:102a00004d4532383020646174612e0a0000c046a2
:020000040000fa
:020000040004f6
:102a100030b585b004000300042203a9f22000f0c1
:102a2000aff808b105b030bd01ab03a801780722ab
:102a30001140997081788d1015401d7049095970a9
:102a4000c17888100240da70490919712000fff737
:102a500017ff0028e6d1220001a91f30fff70ef969
:102a60000028dfd1220001a91f30fff7a1fed9e71e
:020000040000fa
:020000040004f6
:102a700030b583b005000c006b46d81d00f0fffa9e
:102a800070b96b4607331b7863b96b46f4225a71f1
:102a90002300f33a69460631f42000f071f838b1aa
:102aa00003b030bd2000fff7b3ff0028f8d1ece7fa
:102ab0006b46991d0b780322934315401d430d70ff
:0e2ac0002300023a68460530fff7adfae8e75a
:020000040000fa
:020000040004f6
:022ace0070474f
:020000040000fa
:020000040004f6
:102ad00000230e4a10b513600d4a0e4c13600e4ac7
:102ae00013600e4a13600e4a13600e4a536213615c
:102af00001339360fff7ebfffff7e9ff0a4b9c42be
:102b000000d310bd08cc9847f8e7c0460c810020e0
:102b10000c80002068010400088000200080002054
:0c2b200004800020108000206c010400e4
:020000040000fa
:020000040004f6
:102b2c0010b540f2b363c0f20403984740f2b363ac
:102b3c00c0f20403984700f02dfa40f20003c0f2f3
:102b4c0004037f2293434ef60052cef200029360b0
:102b5c0042f6d123c0f20403984740f2b363c0f2ab
:102b6c000403984740f2b363c0f204039847fff79d
:042b7c0036fcfee73e
:020000040000fa
:020000040004f6
:102b800070b51c009bb1dd68a5b11b69abb1636971
:102b9000b3b1c1b16378012b01d0802318436368be
:102ba000a847207200b970bd02204042fbe7012017
:102bb0004042f8e701204042f5e701204042f2e7b9
:0c2bc00001204042efe701204042ece71a
:020000040000fa
:020000040004f6
:102bcc0030b51500012289b0524201920432ff3215
:102bdc00029200b9684603900491002401b14c1e86
:102bec000594002906da4f220120074b40421a6057
:102bfc0009b030bd00220790027006901a0029001f
:0c2c0c0001a800f07dfaf3e71081002021
:020000040000fa
:020000040004f6
:102c180030b401256d054c00e54215d85c00e5424d
:102c280012d80c001c436400044314430fd005d28f
:102c380082428b418041013030bc704790429941bb
:102c48008041013030bc7047002030bc7047012003
:042c580030bc7047d5
:020000040000fa
:020000040004f6
:102c5c0010b541f20003c4f200235b8b0722134032
:102c6c0003b910bd48f29004c2f20004e38500f0f1
:102c7c000bf941f20003c4f2002384221a752c23b1
:102c8c000022e254636a002bebd0a06a636a984777
:022c9c00e7e768
:020000040000fa
:020000040004f6
:102ca00010b5054c227832b9044b13b1044800e04a
:102cb00000bf0123237010bdec8000200000000045
:102cc00000000000034b10b51bb10349034800e0ae
:102cd00000bf10bd00000000f080002000000000d8
:020000040000fa
:020000040004f6
:102ce00010b5040048f2c003c2f2000320201b5cb0
:102cf000002003b110bd48f2c003c2f200039c8063
:102d0000d9605a6100229a601a61012199701a7083
:102d100020315a5420392000fff72cfc0120e9e72c
:020000040000fa
:020000040004f6
:102d2000002b11d1002a0fd1002900d1002802d098
:102d30000021c943081c07b4024802a140180290b0
:102d400003bdc0463d05000003b4684601b50298c6
:102d5000fef79ef8019b9e4602b00cbc7047c04631
:020000040000fa
:020000040004f6
:102d600070b5050048f2c003c2f2000320201b5cce
:102d7000002003b170bd48f2c003c2f200039d8081
:102d80000024dc605c6199601a619c701c702122d7
:0e2d90009c5400212800fff7edfb0120eae72c
:020000040000fa
:020000040004f6
:102d9e0030b401256d054c00e54215d85c00e542c6
:102dae0012d80c001c436400044314430cd005d20b
:102dbe0082428b418041404230bc704790429941e3
:0e2dce008041404230bc7047002030bc70474e
:020000040000fa
:020000040004f6
:102ddc0030b401256d054c00e54215d85c00e54288
:102dec0012d80c001c436400044314430cd005d2cd
:102dfc00904299418041404230bc704782428b41a5
:0e2e0c008041404230bc7047002030bc70470f
:020000040000fa
:020000040004f6
:102e1a00030010b51a78202a0dd0110009390429a7
:102e2a0009d900212b2a02d02d2a01d101310133df
:102e3a0000200a2404e00133ece760430133801ade
:0e2e4a001a78303a092af8d901b9404210bd71
:020000040000fa
:020000040004f6
:102e58001c2101231b04984201d3000c10391b0ac2
:102e6800984201d3000a08391b09984201d3000986
:102e7800043902a2105c40187047c04604030202dd
:0c2e88000101010100000000000000003a
:020000040000fa
:020000040004f6
:102e940041f20003c4f200235b8b5b0713d041f2c1
:102ea4000003c4f2002380221a76793a5a831b7ee7
:102eb4005b0708d541f20003c4f2002304219a6a97
:082ec4001a7e0a42fbd170479f
:020000040000fa
:020000040004f6
:102ecc0070b582b00d0016006a46d11d08701c88c2
:102edc0001222000fff73eff50b1320029002000f4
:102eec00fff7f8fe01235840404240b202b070bddb
:062efc0001204042fae74c
:020000040000fa
:020000040004f6
:102f0200f8b500af1c88551c13000833db08db0042
:102f12006e46f31a9d461870581c00f02cf92a00d0
:102f220069462000fff71bff01235840404240b290
:042f3200bd46f8bde3
:020000040000fa
:020000040004f6
:102f3600f4464a1805d200f04af801d5c0174008f1
:102f4600604701235b05d34206d200f040f801d565
:102f56000120c0074042604701d10042f5d0d0179a
:042f66004008704768
:020000040000fa
:020000040004f6
:102f6c0070b5040000200a4b4200d55c15b9d2188c
:102f7c00507870bd216801300e78c0b2ae4204d1d9
:102f8c00034b0131d218507821600a28ebd9f0e7b5
:042f9c003a310400c2
:020000040000fa
:020000040004f6
:102fa00010b50948016811b9436803b910bd0400a0
:102fb0008368064a9bb20c349b009b5842682000f1
:102fc000984780002018ede7402704006431040092
:020000040000fa
:020000040004f6
:102fd0004a0010d2520d03231b02ff33d21a0ad427
:102fe00052421f3209d4400dc90208430123db07b6
:0e2ff0001843d040704700207047d01770473c
:020000040000fa
:020000040004f6
:102ffe0070b4012676054c005d00e6420cd8ee4218
:10300e000ad825430543154303d0994204d1904273
:0e301e0002d1012070bc7047002070bc7047ca
:020000040000fa
:020000040004f6
:10302c00002380290fdb812901dd83290bd10721a6
:10303c00136807338b431900083111601a685b68f9
:0a304c000260436001231800704782
:020000040000fa
:020000040004f6
:1030560070b505690400954200d915005db12a00d6
:10306600606900f086f8226963695b19551b0022c6
:08307600636125611a7070bd51
:020000040000fa
:020000040004f6
:10307e0010b5040050b10b0001220100f420fff73f
:10308e0078fd227803231340237010bd01204042a7
:02309e00fbe74e
:020000040000fa
:020000040004f6
:1030a000002310b5934206d103201840421e9041e0
:0e30b0009b08c01810bdc45ccc540133f2e77d
:020000040000fa
:020000040004f6
:1030be0043f2db03c0f20403004206d5404200b5e2
:0c30ce00984708bc0122d20711431847a4
:020000040000fa
:020000040004f6
:1030da0040f21d42010007d002d4013a0018fcd583
:0a30ea001205c30a4005991870474b
:020000040000fa
:020000040004f6
:1030f400037833b1030001331a78002afbd1181a7c
:0831040070470020fce7c04603
:020000040000fa
:020000040004f6
:10310c0013b50400019201aafdf724fd6368db06e8
:08311c0001d50120404216bd5f
:020000040000fa
:020000040004f6
:103124000eb403b503aa02ca019200f02df802b04e
:0631340008bc03b01847bf
:020000040000fa
:020000040004f6
:10313a0068076c094c836a9074a07ac0008068881a
:06314a0000846c8200818c
:020000040000fa
:020000040004f6
:1031500083001818400020b10023c0460133834289
:04316000fbd17047e8
:020000040000fa
:020000040004f6
:10316400ff310400a1300400713204007132040004
:0431740071320400b0
:020000040000fa
:020000040004f6
:1031780010b52ab10023cc5cc45401339342fad170
:0431880010bdc04670
:020000040000fa
:020000040004f6
:10318c0010b513000a000249fff71afd10bdc04626
:04319c00ffffff7fb3
:020000040000fa
:020000040004f6
:1031a00032b10300c9b28218197001339342fbd1c6
:0431b0007047c0465e
:020000040000fa
:020000040004f6
:1031b40003000a7818001a7001310133002af8d18b
:0431c4007047c0464a
:020000040000fa
:020000040004f6
:1031c80010b50400fff792ff01002000fff7c3f8d5
:0231d80010bd28
:020000040000fa
:020000040004f6
:1031da0041f288335843431e10b1c046013bfcd22a
:0231ea0070472c
:020000040000fa
:020000040004f6
:1031ec00f0b40125ed076b4041f27344c0f20404c6
:0231fc0020476a
:020000040000fa
:020000040004f6
:1031fe008a18914201d10020704700230b700131d3
:02320e00f7e7e0
:020000040000fa
:020000040004f6
:1032100010b5fff7e9f9fff759f8fef76dfc10bd9f
:020000040000fa
:020000040004f6
:10322000494e4600696e66004e414e006e616e006a
:020000040000fa
:020000040004f6
:1032300010b5fef719fa029a039bfef717f910bdb5
:020000040000fa
:020000040004f6
:0e3240000300413b192b01d82023184370478f
:020000040000fa
:020000040004f6
:0e324e000300613b192b01d85f231840704725
:020000040000fa
:020000040004f6
:0c325c0010b50400fff7a8ff200010bd13
:020000040000fa
:020000040004f6
:08326800286e696c29002500a5
:020000040000fa
:020000040004f6
:043270000020704783
:020000040000fa
:020000040004f6
:04327400002070477f
:020000040000fa
:020000040004f6
:04327800002070477b
:020000040000fa
:020000040004f6
:04327c000020704777
:020000040000fa
:020000040004f6
:043280007047c0468d
:00000001FF
