:020000040000fa
:10000000f07f0020ed1800004f1800004f1800008e
:1000100000000000000000000000000000000000e0
:100020000000000000000000000000004f18000069
:1000300000000000000000004f1800004f180000f2
:100040004f1800004f1800004f1800004f18000014
:100050004f1800004f1800004f1800004f18000004
:100060004f1800004f1800004f1800004f180000f4
:100070004f1800004f1800004f180000230c00001c
:10008000070d00004f1800004f1800004f18000027
:100090004f1800004f1800004f1800004f180000c4
:1000a0004f1800004f1800004f1800004f180000b4
:1000b0004f1800004f1800004f1800004f180000a4
:1000c0004f1800004f1800004f1800004f18000094
:1000d0004f1800004f1800004f1800004f18000084
:1000e0004f1800004f1800004f1800004f18000074
:1000f0004f1800004f1800004f1800004f18000064
:100100004f1800004f1800004f1800004f18000053
:100110004f1800004f1800004f1800004f18000043
:100120004f1800004f180000bf1300004f180000c8
:100130004f1800004f1800004f1800004f18000023
:100140004f1800004f1800004f1800004f18000013
:0c0150004f1800004f1800004f1800006e
:020000040000fa
:10015c00f8b5c046f8bc08bc9e467047b91a0000fa
:10016c00f8b5c046f8bc08bc9e467047951a00000e
:020000040000fa
:10017c0080b582b000af0200fb1d1a70fb1d1b780e
:10018c007f2b12d8fb1d1b781a001f231a4011005d
:10019c004ef20013cef20003fa1d127852b252093d
:1001ac000120884001009200d150c046bd4602b0eb
:1001bc0080bd90b583b000af02003960fb1d1a7092
:1001cc00fb1d1b787f2b2fd84ef20013cef20003b1
:1001dc00fa1d127852b29208c0329200d358fa1d0e
:1001ec001278110003220a40d200ff2191400a002c
:1001fc00d2431a4010003b689b01ff221a40fb1da2
:10020c001b78190003230b40db009a4011004ef2bf
:10021c000013cef20003fa1d127852b29208014379
:10022c00c0329200d15037e04ef60053cef20003ac
:10023c00fa1d127811000f220a40083a9208063271
:10024c0092009b1804331b68fa1d127811000322cc
:10025c000a40d200ff2191400a00d2431a401000fc
:10026c003b689b01ff221a40fb1d1b7819000323de
:10027c000b40db009a404ef60053cef20003f91d02
:10028c0009780c000f2121400839890802430631f6
:10029c0089005b1804331a60c046bd4603b090bd9c
:1002ac0080b582b000af40f21013c2f200037b6045
:1002bc00bb1c00221a80bb1c00221a8013e07b6836
:1002cc0000221a707b6800225a607b6800229a60b8
:1002dc007b6800221a737b6810337b60bb1c1a8806
:1002ec00bb1c01321a80bb1c1b88012be7d946f2c0
:1002fc000003c4f2001340f2f002c2f200025a638f
:10030c0046f20003c4f2001340f2d002c2f2000223
:10031c009a6346f20003c4f2001348f28112c8f249
:10032c0081125a6146f20003c4f200133f220021ed
:10033c00995446f20003c4f2001340f60032c0f2a6
:10034c0080025a6440f2f003c2f2000340f2094208
:10035c001a8040f21013c2f2000301221a7046f206
:10036c000003c4f200134d220321995446f20003fa
:10037c00c4f200133f220121995446f20003c4f247
:10038c00001340f60022c0f280025a6440f2f003df
:10039c00c2f2000340f609021a8240f21013c2f2b4
:1003ac00000301221a7446f20003c4f200134d221a
:1003bc000321995446f20003c4f2001340f6027272
:1003cc001a80bff35f8f62b603210f20fff7f1fe97
:1003dc000f20fff7cdfe03211020fff7eafe1020bf
:1003ec00fff7c6fec046bd4602b080bdb0b58ab0b0
:1003fc0000afb9607a603b600f217b18021c1a7049
:10040c002623fb1800221a7025243b1900221a708f
:10041c002723fb1800221a702423fb1800221a70c1
:10042c00bb683b627b68fb6108007b1819781b2555
:10043c007a1940f21013c2f2000309015b180c3355
:10044c001b78137046f20003c4f200133a193f21d3
:10045c005b5c137046f20003c4f200133a183f21a0
:10046c0012785a5446f20003c4f200134e229b5cdd
:10047c00dbb21a00032313403bb97b191b78012212
:10048c005340dbb2002b00d19fe046f20003c4f2d4
:10049c0000134e22032199540f217b181a7840f235
:1004ac001013c2f2000312019b180c3301221a70b4
:1004bc007b181b781a0140f2f003c2f20003d31828
:1004cc007b617b691b889bb21a0040f2004313408e
:1004dc0040f20042934205d13a6a3b68d2187b69dc
:1004ec005a6002e03a6a7b695a607b691b889bb24e
:1004fc001a0040f60003134040f60002934205d167
:10050c00fa693b68d2187b699a6002e0fa697b69e8
:10051c009a607b691b889bb21b12dab226203b18af
:10052c0003210a401a703b181b783a68da40130012
:10053c009ab27b695a8046f20003c4f2001340223f
:10054c009b5cdab246f20003c4f2001302210a43a8
:10055c00d1b24022995446f20003c4f200135b6cf2
:10056c0008221a4024203b18083a511e8a411a705e
:10057c0046f20003c4f200135b6c1b0a3f221340cb
:10058c0023b93b181b780bb1012200e00022242078
:10059c003b181a701a7801210a401a703b181b7804
:1005ac007bb146f20003c4f2001319690f23fb1848
:1005bc001b7801229a4046f20003c4f200130a434e
:1005cc001a612723fb1801221a7046f20003c4f2a9
:1005dc0000132522ba183f2112785a542723fb18ee
:1005ec001b781800bd460ab0b0bdb0b584b000afe2
:1005fc000200fb1d1a700e203b1800221a70fb1d06
:10060c0019780d243a1940f21013c2f200030901b3
:10061c005b180c331b7813700f257b1900221a7092
:10062c0046f20003c4f200133a183f215b5c1370ce
:10063c0046f20003c4f20013fa1d3f2112785a54fb
:10064c0046f20003c4f200134e229b5cdbb21a008c
:10065c00032313402bb93b191b7813b17b190122cf
:10066c001a7046f20003c4f200130e22ba183f218e
:10067c0012785a540f23fb181b781800bd4604b08f
:10068c00b0bd80b586b000af0200fb1d1a70002310
:10069c003b610f217b1800221a7017203b18002297
:1006ac001a7046f20003c4f200137a183f215b5c07
:1006bc00137046f20003c4f20013fa1d3f211278a6
:1006cc005a5446f20003c4f200134e229b5cdbb278
:1006dc003b613b690222134013b13b1801221a7093
:1006ec003b69012213401bb11723fb1802221a701d
:1006fc0046f20003c4f200130f22ba183f211278fd
:10070c005a541723fb181b781800bd4606b080bd41
:10071c0080b584b000af0200fb1d1a700f217b184e
:10072c0000221a7046f20003c4f200137a183f211b
:10073c005b5c137046f20003c4f20013fa1d3f21f8
:10074c0012785a5446f20003c4f2001340229b5c08
:10075c00dab246f20003c4f2001302218a43d1b28a
:10076c0040229954c04646f20003c4f200134022c2
:10077c009b5cdbb21a0002231340002bf3d1fb1d50
:10078c001a7840f21013c2f2000312019b180c33ba
:10079c0000221a7046f20003c4f200130f22ba189a
:1007ac003f2112785a54c046bd4604b080bd80b576
:1007bc0084b000af0200fb1d1a70fb1d19780e20cf
:1007cc003a1840f2f003c2f2000309015b1802333d
:1007dc001b881380fb1d1a7840f2d003c2f2000371
:1007ec0012019b1802331b889ab23b1839180988de
:1007fc008a1a1a803b181b881800bd4604b080bdad
:10080c0080b584b000af0200fb1d1a700f203b189e
:10081c0000221a7046f20003c4f200133a183f216a
:10082c005b5c137046f20003c4f20013fa1d3f2107
:10083c0012785a5446f20003c4f200135b6c0b4a54
:10084c001a4046f20003c4f20013802149040a4303
:10085c005a6446f20003c4f200133a183f2112788e
:10086c005a54c046bd4604b080bdc046fffffffcd5
:10087c0080b584b000af0200fb1d1a700f203b182e
:10088c0000221a7046f20003c4f200133a183f21fa
:10089c005b5c137046f20003c4f20013fa1d3f2197
:1008ac0012785a5446f20003c4f200135b6c0b4ae4
:1008bc001a4046f20003c4f20013802189040a4353
:1008cc005a6446f20003c4f200133a183f2112781e
:1008dc005a54c046bd4604b080bdc046fffffffc65
:1008ec0080b584b000afb9607a600f217b18021c10
:1008fc001a707b181a7840f21013c2f2000312011e
:10090c009b180433ba681a607b181a7840f21013db
:10091c00c2f2000312019b1808337a681a60c046b1
:10092c00bd4604b080bd80b584b000af0200fb1d95
:10093c001a7040f2f003c2f20003fb60fb1d1b783f
:10094c001b01fa68d3181b889bb21800bd4604b073
:10095c0080bd80b584b000af02003960fb1d1a70f9
:10096c000f217b1800221a7040f2f003c2f2000330
:10097c00bb6046f20003c4f200137a183f215b5ca3
:10098c00137046f20003c4f20013fa1d3f211278d3
:10099c005a5446f20003c4f2001340229b5cdab2b4
:1009ac0046f20003c4f2001302218a43d1b2402262
:1009bc009954c04646f20003c4f2001340229b5cdb
:1009cc00dbb21a0002231340002bf3d1fb1d1b7862
:1009dc001b01ba68d3183a6892b21a8046f2000327
:1009ec00c4f200130f22ba183f2112785a54012373
:1009fc001800bd4604b080bd80b500af46f20003c0
:100a0c00c4f200131b889ab246f20003c4f200131e
:100a1c0004218a4392b21a8046f20003c4f20013f6
:100a2c0000225a80c046bd4680bd90b585b000af4f
:100a3c003b1d19605a600f243b19021c1a70fff7fa
:100a4c00dbff46f20003c4f200133a1d52689a60b1
:100a5c003b1d1b789b001bb20c2213401ab23b1996
:100a6c001b789bb220339bb21b021bb243f6007166
:100a7c000b401bb213431ab246f20003c4f200132c
:100a8c0092b25a8046f20003c4f200131b889ab249
:100a9c0046f20003c4f2001304210a4392b21a80f6
:100aac00c046bd4605b090bd80b500af46f2000310
:100abc00c4f200139b681800bd4680bd80b58ab097
:100acc0000aff860b96039000a604b6027217b18d1
:100adc0000221a7000233b62fb68fb61fb68bb6160
:100aec00fb687b61bb680322134033b97b1802227d
:100afc001a70bb689b08bb600ae0bb6801221340fc
:100b0c0033b92723fb1801221a70bb685b08bb6042
:100b1c00fff772ff46f20003c4f200133a0052686a
:100b2c009a603b001b789b001bb20c2213401ab23c
:100b3c002723fb181b781bb203210b401bb213435a
:100b4c001bb240f2001213431ab246f20003c4f275
:100b5c00001392b25a8046f20003c4f200131b88b1
:100b6c009ab246f20003c4f2001304210a4392b273
:100b7c001a8000233b6241e02723fb181b784bb9fa
:100b8c00fa693b6ad3181a7846f20003c4f20013d0
:100b9c005a601ee02723fb181b78012b0ad13b6af5
:100bac005b00ba69d3181a8846f20003c4f200132a
:100bbc005a600ee02723fb181b78022b09d13b6ae5
:100bcc009b007a69d21846f20003c4f20013126833
:100bdc005a60c04646f20003c4f200131b7bdbb222
:100bec001a0001231340002bf4d046f20003c4f288
:100bfc00001301221a733b6a01333b623a6abb68e9
:100c0c009a42b9d346f20003c4f200139b68180051
:100c1c00bd460ab080bd90b585b000af0e203b1824
:100c2c0000221a700d217b1800221a7000233b60e1
:100c3c000f243b1902221a703b181b781a0140f240
:100c4c001013c2f20003d318bb6046f20003c4f2c7
:100c5c0000137a183f215b5c137046f20003c4f258
:100c6c0000133a183f2112785a5446f20003c4f28a
:100c7c0000134e229b5cdbb23b603b6802221340ac
:100c8c00022b0cd146f20003c4f200134e220221b7
:100c9c0099543b1901221a70bb6800221a733b68e5
:100cac0001221340012b0dd146f20003c4f20013b4
:100cbc004e22012199540f23fb1802221a70bb6893
:100ccc0000221a73bb685b6853b1bb689b687b607e
:100cdc00bb685b6879680f22ba18127810009847c5
:100cec0046f20003c4f200130d22ba183f21127809
:100cfc005a54c046bd4605b090bd90b585b000af06
:100d0c000e203b1801221a700d217b1800221a703c
:100d1c0000233b600f243b1902221a703b181b78ee
:100d2c001a0140f21013c2f20003d318bb6046f252
:100d3c000003c4f200137a183f215b5c137046f277
:100d4c000003c4f200133a183f2112785a5446f2a9
:100d5c000003c4f200134e229b5cdbb23b603b6889
:100d6c0002221340022b0cd146f20003c4f20013f2
:100d7c004e22022199543b1901221a70bb680022a1
:100d8c001a733b6801221340012b0dd146f200036c
:100d9c00c4f200134e22012199540f23fb18022296
:100dac001a70bb6800221a73bb685b6853b1bb68ce
:100dbc009b687b60bb685b6879680f22ba181278f5
:100dcc001000984746f20003c4f200130d22ba1823
:100ddc003f2112785a54c046bd4605b090bdc0465e
:020000040000fa
:100dec0080b500af00f02efdfff75afa41f2bf03b9
:100dfc00c0f20003002219000020fff771fd40f63d
:100e0c00a773c0f20003002219000120fff768fd50
:100e1c0000f03df8c046bd4680bd80b582b000af45
:100e2c0078600020fff7e1fb0300fbb140f2000308
:100e3c00c2f20003180000f0b7fe02007f239a1ada
:100e4c00796840f20003c2f20003180000f06dfe56
:100e5c0040f20003c2f200037f220021995440f2b9
:100e6c008003c2f2000301221a700ce07b681800a8
:100e7c0000f09afe030041f22802c4f200227968c5
:100e8c000020fff7b3fac046bd4602b080bd80b566
:100e9c0000af0120fff7a9fb03001a000123534008
:100eac00dbb28bb140f2c803c2f2000300221a700d
:100ebc0040f2c702c2f2000241f22801c4f2002142
:100ecc0001230120fff792fac046bd4680bd80b5d4
:100edc0084b000af78600a00fb1c1a700f23fb185b
:100eec0000221a70c04640f2c603c2f200031b78ff
:100efc00dbb2fa1c12789a42f5d83be040f2c503fb
:100f0c00c2f200031b78dbb219000f23fb181b780d
:100f1c007a68d21840f28403c2f200035b5c13704f
:100f2c0040f2c503c2f200031b78dbb25a1c3f230c
:100f3c00c8f20003134004d5013b40225242134334
:100f4c000133dab240f2c503c2f200031a7040f268
:100f5c00c603c2f200031b78dbb2013bdab240f2eb
:100f6c00c603c2f200031a700f217b181a787b1883
:100f7c0001321a700f217a18fb1c12781b789a42d6
:100f8c00bcd37b181b787a68d31800221a707b1894
:100f9c001b781800bd4604b080bd80b582b000af90
:100fac0002003960fb1d1a7040f2c603c2f2000346
:100fbc001b78dbb23f2b36d840f2c403c2f20003dd
:100fcc001b78dbb21a0040f2c703c2f200031b7895
:100fdc00d9b240f28403c2f20003995440f2c40324
:100fec00c2f200031b78dbb25a1c3f23c8f2000389
:100ffc00134004d5013b4022524213430133dab271
:10100c0040f2c403c2f200031a7040f2c603c2f2eb
:10101c0000031b78dbb20133dab240f2c603c2f232
:10102c0000031a703fe040f2c503c2f200031b78c4
:10103c00dbb25a1c3f23c8f20003134004d5013b1a
:10104c004022524213430133dab240f2c503c2f2da
:10105c0000031a7040f2c403c2f200031b78dbb227
:10106c001a0040f2c703c2f200031b78d9b240f257
:10107c008403c2f20003995440f2c403c2f2000389
:10108c001b78dbb25a1c3f23c8f20003134004d573
:10109c00013b4022524213430133dab240f2c40303
:1010ac00c2f200031a70fff7f2fec046bd4602b052
:1010bc0080bd80b582b000af02003960fb1d1a7094
:1010cc0040f28003c2f200031b78dbb2f3b140f2b2
:1010dc008003c2f2000300221a7040f20003c2f235
:1010ec00000300221a7040f20003c2f20003180041
:1010fc0000f05afd030041f22802c4f2002240f233
:10110c000001c2f200010020fff770f9c046bd4695
:04111c0002b080bde0
:020000040000fa
:1011200080b582b000af0200fb1d1a70fb1d1b785a
:101130007f2b12d8fb1d1b781a001f231a401100a9
:101140004ef20013cef20003fa1d127852b2520989
:101150000120884001009200d150c046bd4602b037
:1011600080bd90b583b000af02003960fb1d1a70de
:10117000fb1d1b787f2b2fd84ef20013cef20003fd
:10118000fa1d127852b29208c0329200d358fa1d5a
:101190001278110003220a40d200ff2191400a0078
:1011a000d2431a4010003b689b01ff221a40fb1dee
:1011b0001b78190003230b40db009a4011004ef20c
:1011c0000013cef20003fa1d127852b292080143c6
:1011d000c0329200d15037e04ef60053cef20003f9
:1011e000fa1d127811000f220a40083a92080632be
:1011f00092009b1804331b68fa1d12781100032219
:101200000a40d200ff2191400a00d2431a40100048
:101210003b689b01ff221a40fb1d1b78190003232a
:101220000b40db009a404ef60053cef20003f91d4e
:1012300009780c000f212140083989080243063142
:1012400089005b1804331a60c046bd4603b090bde8
:1012500090b583b000af0200bb1d1a8040f29c1312
:10126000c2f2000301221a7042f60003c4f2002306
:101270001a6842f60003c4f2002302218a431a606e
:10128000c04642f60003c4f200239b6802221340ca
:10129000022bf6d0bb1d1b88180000f06ffc00224b
:1012a00047f20003c4f2470300f028fa03000c00e1
:1012b0001a00230042f60004c4f2002410001900b2
:1012c00000f022fc03002364c04642f60003c4f28f
:1012d00000239b68002bf8d142f60003c4f20023e0
:1012e0001a6842f60003c4f2002302210a431a607e
:1012f000c04642f60003c4f200239b68022213405a
:10130000022bf6d0c04640f29c13c2f200031b78b9
:10131000dbb2002bf7d1c046bd4603b090bd80b50f
:1013200000af00f03df842f60003c4f200230122b2
:101330001a60c04642f60003c4f200239b680122f3
:101340001340012bf6d042f60003c4f2002340f212
:1013500000721a6042f60003c4f200230022da632e
:1013600042f60003c4f2002304225a7142f600033d
:10137000c4f200234ff60f42c0f20f02da6242f6c7
:101380000003c4f2002301229a62c04642f6000321
:10139000c4f200239b68002bf8d1c046bd4680bd37
:1013a00080b500afbff35f8f62b603213a20fff72d
:1013b000d8fe3a20fff7b4fec046bd4680bd80b5da
:1013c00082b000af40f2a013c2f200035b687b6002
:1013d00042f60003c4f20023db6a3b6042f60003de
:1013e000c4f200234ff60f42c0f20f02da6242f657
:1013f0000003c4f20023db6a40f2a013c2f2000330
:101400001b6843b140f2a013c2f200031b68796865
:101410003a681000984740f29c13c2f20003002281
:0a1420001a70c046bd4602b080bd40
:020000040000fa
:10142a0080b500af40f20043c4f2000300221a81e3
:10143a0040f20043c4f200039b79dab240f200435f
:10144a00c4f2000301210a43d2b29a7140f2004366
:10145a00c4f200039b78dbb21a0003231340022b69
:10146a0011d040f20043c4f2000302229a70c0462f
:10147a0040f20043c4f200039b79dbb21a00012355
:10148a001340002bf4d0c046bd4680bd80b500afe6
:10149a0041f20003c4f2000302221a76c046bd4696
:1014aa0080bd80b500af41f20043c4f200030022c0
:1014ba001a74c046bd4680bd80b582b000af41f205
:1014ca000003c4f2000300221a86c04641f2000358
:1014da00c4f200031a6980235b041a4080235b0468
:1014ea009a42f3d146f22003c0f280031b685b0ed6
:1014fa00dab2fb1d3f210a401a70fb1d1b789b02c2
:10150a001b041a0c41f20003c4f2000340f200214a
:10151a000a435a63c04641f20003c4f200031a693f
:10152a0080235b041a4080235b049a42f3d141f280
:10153a000003c4f2000302221a86c04641f20003e5
:10154a00c4f200031a6980235b041a4080235b04f7
:10155a009a42f3d1c046bd4602b080bd80b500af05
:10156a0041f60043c4f2000340f20712c0f201023e
:10157a001a62c04641f60043c4f200035b680422c3
:10158a001340042bf6d0c046bd4680bd80b500afdf
:10159a00fff746ff45f20003c4f2001304225a6023
:1015aa00fff774fffff77dff41f60003c4f2000363
:1015ba0002221a62fff780fffff7d0ff41f60043cd
:1015ca00c4f20003c42240219950c04641f60043a8
:1015da00c4f20003c4229b5840221340402bf5d189
:1015ea0041f60043c4f20003c82240219950c04684
:1015fa0041f60043c4f20003c8229b58402213401c
:10160a00402bf5d141f60043c4f20003cc2240211d
:10161a009950c04641f60043c4f20003cc229b58bd
:10162a0040221340402bf5d141f60043c4f2000397
:10163a00d02240219950c04641f60043c4f200032b
:10164a00d0229b5840221340402bf5d141f600434b
:10165a00c4f20003d42240219950c04641f6004307
:10166a00c4f20003d4229b5840221340402bf5d1e8
:10167a0041f60043c4f20003d82240219950c046e3
:10168a0041f60043c4f20003d8229b58402213407b
:10169a00402bf5d141f60043c4f20003e422402175
:1016aa009950c04641f60043c4f20003e4229b5815
:0e16ba0040221340402bf5d1c046bd4680bdf6
:020000040000fa
:1016c80006d128b9f54203d800d30ab96d0d09d15e
:1016d8000020c143090dc904f0bdf9d11242f7d168
:1016e800640df5d00020c14349054908a6e0002053
:1016f8006146f0bdf0b50127ff070e005e403e4091
:10170800b446be0a4c18dd18f442d9d2f542e4d2e8
:10171800640decd06d0dead06419c9023943460d49
:10172800c0023143db023b43db0a10b48e4685b26c
:1017380097b26f43140c6c433e0ca419260c240476
:10174800bfb227439cb26c43a419190c6943250cfa
:10175800a4b249190d04090c6419000c95b245434b
:101768003e0c76193743bfb2360c150c4543ad19fc
:10177800a6b2240cad192e0437432e0c36199db28f
:101788004543ad19acb22e0c89191d0c45436d1893
:101798002e04290c3443704680b295b245433e0c62
:1017a80076193743bfb2360c150c4543ad19a6b2ae
:1017b800ad19240c2e0437432e0c36199db245431f
:1017c800ad19acb22e0c89191d0c45436d182e04a9
:1017d8003443290c75462d0c90b268433e0c801991
:1017e8000604bfb23e43070ca0b23f18120c6a436e
:1017f800d019020c80b2240ca4189ab26a431219a8
:1018080014042043120c89181b0c6b43c91810bc14
:1018180001273d05294203d1b61940414941013c00
:10182800ff077d0d013d641b0bdb6d00ac4209da3f
:10183800240500254208be4168416141664631439e
:06184800f0bd54e74ee77d
:020000040000fa
:02184e00fee7b3
:020000040000fa
:1018500080b500af43f20023c4f20003c822012187
:10186000995443f20023c4f20003c9220121995480
:1018700043f20023c4f20003b4223321995441f20d
:101880000003c4f2002340f20412c4f210021a60f2
:1018900041f20003c4f20023134a9a8141f200038b
:1018a000c4f20023c02292025a60c04641f20003f3
:1018b000c4f20023db69002bf8d141f20003c4f22b
:1018c00000231a6841f20003c4f2002302210a43f4
:1018d0001a60c04641f20003c4f20023db69002b0a
:0c18e000f8d1c046bd4680bde1faffff14
:020000040000fa
:1018ec0040f20003c0f2000323b140f20003c0f247
:1018fc000003984740f20003c0f2000323b140f20a
:10190c000003c0f20003984700f0def840f2000339
:10191c00c0f200037f2293434ef60052cef2000237
:10192c00936041f63923c0f20003984740f200035c
:10193c00c0f2000323b140f20003c0f20003984749
:10194c0040f20003c0f2000323b140f20003c0f2e6
:0e195c00000398470021002000f03af8fee753
:020000040000fa
:02196a007047c4
:020000040000fa
:10196c00ac01002004000000010000000000000099
:10197c00800100202800000000000000d0000020a2
:10198c00600000000000000000000020c900000002
:10199c0000000000cc00002004000000000000004b
:1019ac00300100205000000000000000a8010020c1
:1019bc000400000000000000b00100200400000042
:1019cc00010000000000000000000000000000000a
:020000040000fa
:1019dc0080b582b000affff7d8fdfff79afcfff798
:1019ec00fff940f2e830fff72dfc41f6cc33c0f2a2
:1019fc0000031800fff711fa0a20fff723fc3b1d28
:101a0c0000210a1c1a80022299543b1d0321180044
:101a1c00fff75dfa3b1d1800fff7fff941f6dc33c9
:0c1a2c00c0f200031800fff7f8f9dae739
:020000040000fa
:101a380000230e4a10b513600d4a0e4c13600e4a6f
:101a480013600e4a13600e4a13600e4a5362136104
:101a58000133936000f0a9f800f0a7f80a4b9c4204
:101a680000d310bd08cc9847f8e7c046a80100206d
:101a78003c010020680100003801002030010020ee
:0c1a880034010020400100206c0100002f
:020000040000fa
:101a940010b5054c227832b9044b13b1044800e068
:101aa40000bf0123237010bd80010020000000004e
:101ab40000000000034b10b51bb10349034800e0cc
:101ac40000bf10bd000000008401002000000000e1
:020000040000fa
:101ad40010b50a48016821b9436813b9fff743fff9
:101ae40010bd04008368064a9bb20c349b009b58cb
:101af40042682000984780002018ebe76c1900002a
:041b0400e01b0000e2
:020000040000fa
:101b08004a0010d2520d03231b02ff33d21a0ad403
:101b180052421f3209d4400dc90208430123db0792
:0e1b28001843d040704700207047d017704718
:020000040000fa
:101b360070b504000d00160000f039f800232018d7
:101b4600c1189e4201d0ea5c1ab9002320000b702e
:081b560070bdc2540133f3e736
:020000040000fa
:101b5e00002310b5934206d103201840421e904137
:0e1b6e009b08c01810bdc45ccc540133f2e7d4
:020000040000fa
:101b7c0041f69933c0f20003004206d5404200b54d
:0c1b8c00984708bc0122d20711431847fb
:020000040000fa
:101b980040f21d42010007d002d4013a0018fcd5da
:0a1ba8001205c30a400599187047a2
:020000040000fa
:021bb20070477a
:020000040000fa
:101bb400037833b1030001331a78002afbd1181ad1
:081bc40070470020fce7c04659
:020000040000fa
:101bcc0053657269616c20526561643a2000c046ad
:041bdc000d0a0000ee
:020000040000fa
:101be000f51b00005f1b0000071c0000071c000025
:041bf000071c0000ce
:020000040000fa
:101bf4008a18914201d10020704700230b700131f3
:021c0400f7e700
:020000040000fa
:041c06000020704703
:00000001FF
