:020000040000fa
:10000000f07f0020b50c00007f0f000025110000dc
:1000100000000000000000000000000000000000e0
:100020000000000000000000000000006f0500005c
:1000300000000000000000006f0500006f050000d8
:100040006f0500006f0500006f0500006f050000e0
:100050006f0500006f0500006f0500006f050000d0
:100060006f0500006f0500006f0500006f050000c0
:100070006f0500006f0500006f0500006f050000b0
:100080006f0500006f0500006f0500006f050000a0
:100090006f0500006f0500006f0500006f05000090
:1000a0006f0500006f0500006f0500006f05000080
:1000b0006f0500006f0500006f0500006f05000070
:1000c0006f0500006f0500006f0500006f05000060
:1000d0006f0500006f0500006f0500006f05000050
:1000e0006f0500006f0500006f0500002f0b00007a
:1000f0002f0b00002f0b00002f0b00006f050000de
:100100006f0500006f0500006f050000cb0a0000be
:10011000cb0a0000cb0a0000cb0a00006f050000ec
:100120006f0500006f050000610e00006f05000004
:100130006f0500006f0500006f0500006f050000ef
:100140006f0500006f0500006f0500006f050000df
:100150006f0500006f0500006f050000f07f0020b4
:10016000b50c00007f0f000025110000000000000a
:10017000000000000000000000000000000000007f
:1001800000000000000000006f05000000000000fb
:10019000000000006f0500006f0500006f05000003
:1001a0006f0500006f0500006f0500006f0500007f
:1001b0006f0500006f0500006f0500006f0500006f
:1001c0006f0500006f0500006f0500006f0500005f
:1001d0006f0500006f0500006f0500006f0500004f
:1001e0006f0500006f0500006f0500006f0500003f
:1001f0006f0500006f0500006f0500006f0500002f
:100200006f0500006f0500006f0500006f0500001e
:100210006f0500006f0500006f0500006f0500000e
:100220006f0500006f0500006f0500006f050000fe
:100230006f0500006f0500006f0500006f050000ee
:100240006f0500006f050000291100002911000052
:1002500029110000291100006f0500006f05000042
:100260006f0500006f050000291100002911000032
:1002700029110000291100006f0500006f05000022
:100280006f050000291100006f0500006f050000d8
:100290006f0500006f0500006f0500006f0500008e
:1002a0006f0500006f0500006f0500006f0500007e
:0802b0006f0500006f0500005e
:020000040000fa
:1002b800401801000200030084468ef3008874474a
:1002c800f8b5c046f8bc08bc9e467047450e00000d
:1002d800f8b5c046f8bc08bc9e467047210e000021
:020000040000fa
:1002e80006d128b9f54203d800d30ab96d0d09d152
:1002f8000020c143090dc904f0bdf9d11242f7d15c
:10030800640df5d00020c14349054908a6e0002046
:100318006146f0bdf0b50127ff070e005e403e4084
:10032800b446be0a4c18dd18f442d9d2f542e4d2dc
:10033800640decd06d0dead06419c9023943460d3d
:10034800c0023143db023b43db0a10b48e4685b260
:1003580097b26f43140c6c433e0ca419260c24046a
:10036800bfb227439cb26c43a419190c6943250cee
:10037800a4b249190d04090c6419000c95b245433f
:100388003e0c76193743bfb2360c150c4543ad19f0
:10039800a6b2240cad192e0437432e0c36199db283
:1003a8004543ad19acb22e0c89191d0c45436d1887
:1003b8002e04290c3443704680b295b245433e0c56
:1003c80076193743bfb2360c150c4543ad19a6b2a2
:1003d800ad19240c2e0437432e0c36199db2454313
:1003e800ad19acb22e0c89191d0c45436d182e049d
:1003f8003443290c75462d0c90b268433e0c801985
:100408000604bfb23e43070ca0b23f18120c6a4361
:10041800d019020c80b2240ca4189ab26a4312199b
:1004280014042043120c89181b0c6b43c91810bc08
:1004380001273d05294203d1b61940414941013cf4
:10044800ff077d0d013d641b0bdb6d00ac4209da33
:10045800240500254208be41684161416646314392
:06046800f0bd54e74ee771
:020000040000fa
:10046e0041f20003c4f200030220187641f200416b
:10047e00c4f2000100220a7441f60001c4f2000128
:10048e0008621a8641f20002c4f200028021490479
:10049e0013690b42fcd046f22003c0f280031b68a6
:1004ae005b009b0e9b0240f200221343d200c4f26b
:1004be000002536341f20002c4f20002802149049b
:1004ce0013690b42fcd041f20003c4f20003022276
:1004de001a86d202c4f200028021490413690b422b
:1004ee00fcd041f60043c4f2000340f20712c0f202
:1004fe0001021a6241f60042c4f20002042153685e
:10050e001942fcd141f60043c4f20003d02240212f
:10051e00995041f60042c4f20002d02013581942fd
:10052e00fcd041f60043c4f20003d822402199507a
:10053e0041f60042c4f20002d82013581942fcd0f2
:10054e0041f60043c4f20003e4224021995041f6e3
:10055e000042c4f20002e42013581942fcd0704746
:020000040000fa
:02056e00fee7a6
:020000040000fa
:10057000f0b5c64600b5bff35f8f62b64ef200130a
:10058000cef2000340f228315a581202120ac0205b
:10059000000602435a5040f600025a6040f22c32e4
:1005a000995840f2ff084446a14340f2c00c64460b
:1005b0002143995041f2000159609958204f394028
:1005c0004cf200063143995042f2000159609c58a8
:1005d0001c4d2c40c02109040c439c5044f20002e5
:1005e0005a6040f230341a591202120a02431a5168
:1005f000802212035a6040f234329c5840468443b1
:10060000604604439c50802040035860985838400e
:100610003043985080208003586098582840084301
:1006200098508022d2035a6040f238301a58154050
:10063000294319508022d2045a6004bc9046f0bd70
:08064000ff00ffffffff00ffb8
:020000040000fa
:1006480070b540f25003c2f200031b7d002b4ad064
:1006580040f25002c2f200029368516841f600026b
:10066800c4f20022127ed2071fd599421dd941f645
:100678000001c4f20021072640f25000c2f2000037
:10068800012509e00268d25c8a62013344680a7e67
:100698002a420ad09c4208d94a683240012af1d13c
:1006a80002685c00a25a8a62efe740f25002c2f286
:1006b8000002936052689a4215d840f25003c2f281
:1006c800000300221a755a6041f60002c4f20022a3
:1006d80001211175db6833b140f25003c2f2000307
:0806e8001869db68984770bd3a
:020000040000fa
:1006f00070b540f28003c2f200031b7d002b4ad08c
:1007000040f28002c2f200029368516841f2000296
:10071000c4f20022127ed2071fd599421dd941f2a0
:100720000001c4f20021072640f28000c2f200005e
:10073000012509e00268d25c8a62013344680a7ebe
:100740002a420ad09c4208d94a683240012af1d193
:1007500002685c00a25a8a62efe740f28002c2f2ad
:100760000002936052689a4215d840f28003c2f2a8
:10077000000300221a755a6041f20002c4f20022fe
:1007800001211175db6833b140f28003c2f200032e
:080790001869db68984770bd91
:020000040000fa
:1007980010b540f25003c2f200032c229b5c33b325
:1007a80040f25003c2f20003da691b6a93421ed278
:1007b80040f25003c2f20003986a41f60002c4f204
:1007c8000022916a1b6a546807222240012a0fd02e
:1007d80040f25002c2f200029269d154013340f251
:1007e8005002c2f200021362d2699a4208d010bdc8
:1007f80040f25002c2f2000292695c00a152ede799
:1008080040f25003c2f2000300222c215a54da614c
:1008180041f60002c4f20022583111755b6a002bc0
:10082800e5d040f25003c2f200035b6a9847dee766
:020000040000fa
:1008380010b540f28003c2f200032c229b5c33b354
:1008480040f28003c2f20003da691b6a93421ed2a7
:1008580040f28003c2f20003986a41f20002c4f237
:100868000022916a1b6a546807222240012a0fd08d
:1008780040f28002c2f200029269d154013340f280
:100888008002c2f200021362d2699a4208d010bdf7
:1008980040f28002c2f2000292695c00a152ede7c8
:1008a80040f28003c2f2000300222c215a54da617c
:1008b80041f20002c4f20022583111755b6a002b24
:1008c800e5d040f28003c2f200035b6a9847dee796
:020000040000fa
:1008d80070b5002840d040f28003c2f200031a7db0
:1008e8000023babb40f28003c2f2000318605960cb
:1008f80001321a755c6841f20003c4f200231b7ec2
:10090800db0718d5d4b1002341f20001c4f200215d
:100918000726012507e0c25c8a6201330a7e2a4263
:100928000bd09c420ad04a683240012af3d15a00bf
:10093800825a8a62f1e7002400e01c0040f280033a
:10094800c2f200039c6041f20003c4f200230122ba
:0c0958009a750123180070bd0023fbe716
:020000040000fa
:1009640010b540f2dc03c2f2000301221a7042f611
:100974000003c4f200231a6802218a431a6042f673
:100984000002c4f2002293681942fcd100f077fb04
:10099400002247f20003c4f24703fff7bdfc00f056
:1009a40037fb42f60003c4f20023186442f6000247
:1009b400c4f200229368002bfcd142f60003c4f277
:1009c40000231a6802210a431a6042f60002c4f2a4
:1009d400002293681942fcd140f2dc02c2f2000208
:0809e4001378002bfcd110bdbb
:020000040000fa
:1009ec0041f20003c4f2002340f20412c4f20002ec
:1009fc001a60164a9a81c02292025a6041f2000291
:100a0c00c4f20022d369002bfcd141f20003c4f2e2
:100a1c0000231a6802210a431a6041f20002c4f250
:100a2c000022d369002bfcd140f28003c2f20003f8
:100a3c0000229a61da611a622c215a545a621a60a5
:100a4c005a609a601a75da60da857047b6fcffff57
:020000040000fa
:100a5c0041f60003c4f2002340f20412c4f2100267
:100a6c001a60d22252429a81c02292025a6041f6f6
:100a7c000002c4f20022d369002bfcd141f6000322
:100a8c00c4f200231a6802210a431a6041f60002dc
:100a9c00c4f20022d369002bfcd140f25003c2f205
:100aac00000300229a61da611a622c215a545a62ac
:0e0abc001a605a609a601a75da60da8570471f
:020000040000fa
:100aca0010b541f60003c4f200239b7d1bb341f627
:100ada000002c4f20022137edbb2927d52b2002ad7
:100aea001adb41f60003c4f200231a7ed2b29b7dc0
:100afa00db0703d5d30701d5fff7a1fd41f60003b4
:100b0a00c4f200231a7ed2b29b7d5b0703d553073a
:100b1a0001d5fff73cfe10bd5bb2002be1da00f015
:040b2a0038f9dee7d1
:020000040000fa
:100b2e0010b541f20003c4f200239b7d1bb341f2ca
:100b3e000002c4f20022137edbb2927d52b2002a72
:100b4e001adb41f20003c4f200231a7ed2b29b7d5f
:100b5e00db0703d5d30701d5fff7c3fd41f2000331
:100b6e00c4f200231a7ed2b29b7d5b0703d55307d6
:100b7e0001d5fff75afe10bd5bb2002be1da00f093
:040b8e0027f9dee77e
:020000040000fa
:100b920042f60003c4f2002301221a6042f6000268
:100ba200c4f20022012193681942fcd142f60003eb
:100bb200c4f2002340f200721a600021d9630422b9
:100bc2005a7149f28632c0f203021a644ff60f429a
:100bd200c0f20f02da6240f2cc02c2f200021160ed
:100be20001229a6242f60002c4f200229368002bac
:040bf200fcd170477b
:020000040000fa
:020bf600704746
:020000040000fa
:100bf800b00000201c000000000000005000002091
:100c08006000000000000000cc0000200800000088
:100c180000000000dc0000200100000000000000cf
:100c2800d4000020040000000000000000000020a4
:100c38005000000000000000d80000200400000060
:100c48000000000000000000000000006666666604
:020000040000fa
:100c580000230e4a10b513600d4a0e4c13600e4a5d
:100c680013600e4a13600e4a13600e4a53621361f2
:100c78000133936000f056fa00f054fa0a4b9c4294
:100c880000d310bd08cc9847f8e7c046d80000202c
:100c98000c000020d4020000080000200000002002
:0c0ca8000400002010000020d802000012
:020000040000fa
:100cb40010b540f6f733c0f20003984740f6f73317
:100cc400c0f20003984700f059f940f20003c0f263
:100cd40000037f2293434ef60052cef2000293604b
:100ce40040f65943c0f20003984740f6f733c0f288
:100cf4000003984740f6f733c0f20003984700f02a
:040d040001f8fee70d
:020000040000fa
:100d080010b584b08023db021c68002000f019f9bc
:100d1800631c0fd084f388880423c0f204031b6883
:100d28000393039c64086400200021002200230030
:100d380000f03cf90721684600f0cdf9684600f05c
:0c0d48007cf940f2d070fff709fef3e7e1
:020000040000fa
:100d540070b504000d00e8b140f25003c2f2000384
:100d64002c229b5c002003b170bd00f0b4f840f26b
:100d74005003c2f200039c61dd6100221a622c213f
:100d840001205854da8541f60003c4f2002384326a
:080d94009a75e9e70020e7e78a
:020000040000fa
:100d9c0010b541f60003c4f200235b8b072213400d
:100dac0003b910bd40f25004c2f20004e38500f018
:100dbc008ef841f60003c4f2002384221a752c230a
:100dcc000022e254636a002bebd0a06a636a984756
:020ddc00e7e747
:020000040000fa
:100dde0010b541f20003c4f200235b8b07221340cf
:100dee0003b910bd40f28004c2f20004e38500f0a6
:100dfe0089f841f20003c4f2002384221a752c23d1
:100e0e000022e254636a002bebd0a06a636a984713
:020e1e00e7e704
:020000040000fa
:100e200010b5054c227832b9044b13b1044800e0e8
:100e300000bf0123237010bdb0000020000000009f
:100e400000000000034b10b51bb10349034800e04c
:100e500000bf10bd00000000b40000200000000032
:020000040000fa
:100e600010b540f2cc03c2f20003596842f600020a
:100e7000c4f20022d06a4ff60f44c0f20f04d462cd
:100e8000d26a1b682bb140f2cc03c2f200031b688c
:100e9000984740f2dc03c2f2000300221a7010bd32
:020000040000fa
:100ea00040f20043c4f2000300221a819a79012122
:100eb0000a439a719b7803221340022b0cd040f214
:100ec0000043c4f20003013a9a705202c4f20002d5
:0a0ed000012193790b42fcd070471a
:020000040000fa
:100eda0041f60003c4f200235b8b5b0713d041f693
:100eea000003c4f2002380221a76793a5a831b7ec1
:100efa005b0708d541f60003c4f2002304219a6a6d
:080f0a001a7e0a42fbd1704778
:020000040000fa
:100f120041f20003c4f200235b8b5b0713d041f262
:100f22000003c4f2002380221a76793a5a831b7e88
:100f32005b0708d541f20003c4f2002304219a6a38
:080f42001a7e0a42fbd1704740
:020000040000fa
:100f4a0010b5fff7a8ff45f20003c4f2001304220c
:100f5a005a6000f043f8fff785fafff742fd00f008
:100f6a00b0f800f0dbf8fff70ffefff772fdfff7ae
:040f7a00fafa10bdb2
:020000040000fa
:020f7e00fee78c
:020000040000fa
:100f800010b50a48016821b9436813b900f0cdf8db
:100f900010bd04008368064a9bb20c349b009b582a
:100fa00042682000984780002018ebe7f80b00000b
:040fb000b810000075
:020000040000fa
:100fb400e0b545464e465746e0b45d4620b4254666
:100fc40026462746a046a146a246a346a44684f345
:100fd4000088a44720bcab46e0bcba46b146a8464c
:020fe400e0bd6e
:020000040000fa
:100fe60043f20023c4f200030021d9660122c22085
:100ff6001a5401301a5405301a5401301a54323238
:0e10060018381a5403301a54b93299507047f2
:020000040000fa
:101014004a0010d2520d03231b02ff33d21a0ad402
:1010240052421f3209d4400dc90208430123db0791
:0e1034001843d040704700207047d017704717
:020000040000fa
:1010420010b5040003785bb101212000fff743fcd7
:1010520000f05ef80028fbd101342378002bf3d195
:0210620010bdbf
:020000040000fa
:10106400002310b5934206d103201840421e90413c
:0e1074009b08c01810bdc45ccc540133f2e7d9
:020000040000fa
:1010820041f29f03c0f20003004206d5404200b580
:0c109200984708bc0122d2071143184700
:020000040000fa
:10109e0040f21d42010007d002d4013a0018fcd5df
:0a10ae001205c30a400599187047a7
:020000040000fa
:1010b800f11000006510000021110000211100004e
:0410c80021110000f2
:020000040000fa
:1010cc0045f20003c4f2001306225a60053a1a7264
:0210dc0070475b
:020000040000fa
:1010de0010b5fff738fe18b100f00cf80028fbd160
:0210ee0010bd33
:020000040000fa
:1010f0008a18914201d10020704700230b70013102
:02110000f7e70f
:020000040000fa
:1011020040f25003c2f200032c22985cc0b2704736
:020000040000fa
:0e11120040f28003c2f20003187dc0b27047a5
:020000040000fa
:0411200000207047f4
:020000040000fa
:02112400fee7e4
:020000040000fa
:02112600704710
:020000040000fa
:02112800fee7e0
:020000040000fa
:02112a0070470c
:020000040000fa
:02112c0070470a
:020000040000fa
:020000040003f7
:08fe00007fe97fe9c0f758ba61
:020000040000fa
:0200000400807a
:0440000077438fb0c3
:020000040000fa
:0200000400807a
:04400400bbf0ffff0f
:020000040000fa
:0200000400807a
:04400800008430f010
:020000040000fa
:0200000400807a
:04400c0000ffffffb3
:020000040000fa
:0200000400807a
:0440100000000000ac
:020000040000fa
:0200000400807a
:0440140002000000a6
:020000040000fa
:0200000400807a
:0440180000000000a4
:020000040000fa
:0200000400807a
:04401c0000000000a0
:020000040000fa
:0200000400807a
:04402000b67376e815
:020000040000fa
:0200000400807a
:04c00000ffff07f047
:020000040000fa
:0200000400807a
:04c004000000e8ff51
:020000040000fa
:0200000400807a
:04c00800cc9a34c0da
:020000040000fa
:0200000400807a
:04c01000ffffffff30
:020000040000fa
:0200000400807a
:04c01400ffffffff2c
:020000040000fa
:0200000400807a
:04c01800ffffffff28
:020000040000fa
:0200000400807a
:04c01c00ffffffff24
:020000040000fa
:0200000400807a
:04c02000ffffffff20
:020000040000fa
:0200000400807a
:04c02400ffffffff1c
:020000040000fa
:0200000400807a
:04c02800ffffffff18
:020000040000fa
:0200000400807a
:04c02c00ffffffff14
:020000040000fa
:0200000400807a
:04c03000ffffffff10
:020000040000fa
:0200000400807a
:04c03400ffffffff0c
:020000040000fa
:0200000400807a
:04c03800ffffffff08
:020000040000fa
:0200000400807a
:04c03c00ffffffff04
:020000040000fa
:0200000400807a
:04c04000ffffffff00
:020000040000fa
:0200000400807a
:04c04400fffffffffc
:020000040000fa
:0200000400807a
:04c04800fffffffff8
:020000040000fa
:0200000400807a
:04c04c00fffffffff4
:020000040000fa
:0200000400807a
:04c05000fffffffff0
:020000040000fa
:0200000400807a
:04c05400ffffffffec
:020000040000fa
:0200000400807a
:04c05800ffffffffe8
:020000040000fa
:0200000400807a
:04c05c00ffffffffe4
:020000040000fa
:0200000400807a
:04c06000ffffffffe0
:020000040000fa
:0200000400807a
:04c06400ffffffffdc
:020000040000fa
:0200000400807a
:04c06800ffffffffd8
:020000040000fa
:0200000400807a
:04c06c00ffffffffd4
:020000040000fa
:0200000400807a
:04c07000ffffffffd0
:020000040000fa
:0200000400807a
:04c07400ffffffffcc
:020000040000fa
:0200000400807a
:04c07800ffffffffc8
:020000040000fa
:0200000400807a
:04c07c00ffffffffc4
:020000040000fa
:0200000400807a
:04c08000ffffffffc0
:020000040000fa
:0200000400807a
:04c08400ffffffffbc
:020000040000fa
:0200000400807a
:04c08800ffffffffb8
:020000040000fa
:0200000400807a
:04c08c00ffffffffb4
:020000040000fa
:0200000400807a
:04c0e000ffffffff60
:020000040000fa
:0200000400807a
:04c0e400ffffffff5c
:020000040000fa
:0200000400807a
:04c0e800ffffffff58
:020000040000fa
:0200000400807a
:04c0ec00ffffffff54
:020000040000fa
:0200000400807a
:04c0f000ffffffff50
:020000040000fa
:0200000400807a
:04c0f400ffffffff4c
:020000040000fa
:0200000400807a
:04c0f800ffffffff48
:020000040000fa
:0200000400807a
:04c0fc00ffffffff44
:00000001FF
